{
	"contracts/VeritasClinic.sol": {
		"HealthcareUniversity": {
			"abi": [
				{
					"anonymous": false,
					"inputs": [
						{
							"indexed": true,
							"internalType": "address",
							"name": "patientAddr",
							"type": "address"
						}
					],
					"name": "AccessCodeCancelled",
					"type": "event"
				},
				{
					"anonymous": false,
					"inputs": [
						{
							"indexed": true,
							"internalType": "address",
							"name": "patientAddr",
							"type": "address"
						},
						{
							"indexed": false,
							"internalType": "uint256",
							"name": "newCode",
							"type": "uint256"
						}
					],
					"name": "AccessCodeGenerated",
					"type": "event"
				},
				{
					"anonymous": false,
					"inputs": [
						{
							"indexed": true,
							"internalType": "address",
							"name": "patientAddr",
							"type": "address"
						},
						{
							"indexed": false,
							"internalType": "string",
							"name": "newRecord",
							"type": "string"
						}
					],
					"name": "HealthRecordUpdated",
					"type": "event"
				},
				{
					"anonymous": false,
					"inputs": [
						{
							"indexed": true,
							"internalType": "address",
							"name": "patientAddr",
							"type": "address"
						},
						{
							"indexed": true,
							"internalType": "address",
							"name": "recipient",
							"type": "address"
						},
						{
							"indexed": false,
							"internalType": "string",
							"name": "prescription",
							"type": "string"
						}
					],
					"name": "PrescriptionSent",
					"type": "event"
				},
				{
					"anonymous": false,
					"inputs": [
						{
							"indexed": true,
							"internalType": "address",
							"name": "staffAddr",
							"type": "address"
						},
						{
							"indexed": false,
							"internalType": "string",
							"name": "role",
							"type": "string"
						}
					],
					"name": "StaffRegistered",
					"type": "event"
				},
				{
					"anonymous": false,
					"inputs": [
						{
							"indexed": true,
							"internalType": "address",
							"name": "patientAddr",
							"type": "address"
						},
						{
							"indexed": false,
							"internalType": "uint256",
							"name": "matricNumber",
							"type": "uint256"
						}
					],
					"name": "StudentRegistered",
					"type": "event"
				},
				{
					"inputs": [],
					"name": "cancelAccessCode",
					"outputs": [],
					"stateMutability": "nonpayable",
					"type": "function"
				},
				{
					"inputs": [],
					"name": "generateNewAccessCode",
					"outputs": [],
					"stateMutability": "nonpayable",
					"type": "function"
				},
				{
					"inputs": [],
					"name": "getAllStaff",
					"outputs": [
						{
							"components": [
								{
									"internalType": "address",
									"name": "staffAddr",
									"type": "address"
								},
								{
									"internalType": "string",
									"name": "name",
									"type": "string"
								},
								{
									"internalType": "string",
									"name": "role",
									"type": "string"
								}
							],
							"internalType": "struct HealthcareUniversity.Staff[]",
							"name": "",
							"type": "tuple[]"
						}
					],
					"stateMutability": "view",
					"type": "function"
				},
				{
					"inputs": [],
					"name": "getAllStudents",
					"outputs": [
						{
							"components": [
								{
									"internalType": "address",
									"name": "patientAddr",
									"type": "address"
								},
								{
									"internalType": "string",
									"name": "name",
									"type": "string"
								},
								{
									"internalType": "uint256",
									"name": "matricNumber",
									"type": "uint256"
								},
								{
									"internalType": "uint256",
									"name": "regDate",
									"type": "uint256"
								},
								{
									"internalType": "string",
									"name": "hostelRoomNumber",
									"type": "string"
								},
								{
									"internalType": "string",
									"name": "healthRecord",
									"type": "string"
								},
								{
									"internalType": "uint256",
									"name": "accessCode",
									"type": "uint256"
								},
								{
									"internalType": "uint256",
									"name": "codeTimestamp",
									"type": "uint256"
								},
								{
									"internalType": "bool",
									"name": "isAdmitted",
									"type": "bool"
								}
							],
							"internalType": "struct HealthcareUniversity.Student[]",
							"name": "",
							"type": "tuple[]"
						}
					],
					"stateMutability": "view",
					"type": "function"
				},
				{
					"inputs": [
						{
							"internalType": "address",
							"name": "_recipient",
							"type": "address"
						}
					],
					"name": "getPrescriptionCount",
					"outputs": [
						{
							"internalType": "uint256",
							"name": "",
							"type": "uint256"
						}
					],
					"stateMutability": "view",
					"type": "function"
				},
				{
					"inputs": [
						{
							"internalType": "address",
							"name": "_recipient",
							"type": "address"
						}
					],
					"name": "getPrescriptions",
					"outputs": [
						{
							"components": [
								{
									"internalType": "string",
									"name": "patientName",
									"type": "string"
								},
								{
									"internalType": "uint256",
									"name": "matricNumber",
									"type": "uint256"
								},
								{
									"internalType": "string",
									"name": "prescription",
									"type": "string"
								},
								{
									"internalType": "address",
									"name": "recipient",
									"type": "address"
								},
								{
									"internalType": "uint256",
									"name": "timestamp",
									"type": "uint256"
								}
							],
							"internalType": "struct HealthcareUniversity.Prescription[]",
							"name": "",
							"type": "tuple[]"
						}
					],
					"stateMutability": "view",
					"type": "function"
				},
				{
					"inputs": [
						{
							"internalType": "address",
							"name": "_staffAddr",
							"type": "address"
						}
					],
					"name": "getStaff",
					"outputs": [
						{
							"internalType": "string",
							"name": "name",
							"type": "string"
						},
						{
							"internalType": "string",
							"name": "role",
							"type": "string"
						}
					],
					"stateMutability": "view",
					"type": "function"
				},
				{
					"inputs": [],
					"name": "getStaffCount",
					"outputs": [
						{
							"internalType": "uint256",
							"name": "",
							"type": "uint256"
						}
					],
					"stateMutability": "view",
					"type": "function"
				},
				{
					"inputs": [
						{
							"internalType": "address",
							"name": "_patientAddr",
							"type": "address"
						}
					],
					"name": "getStudent",
					"outputs": [
						{
							"internalType": "string",
							"name": "name",
							"type": "string"
						},
						{
							"internalType": "uint256",
							"name": "matricNumber",
							"type": "uint256"
						},
						{
							"internalType": "uint256",
							"name": "regDate",
							"type": "uint256"
						},
						{
							"internalType": "string",
							"name": "hostelRoomNumber",
							"type": "string"
						},
						{
							"internalType": "string",
							"name": "healthRecord",
							"type": "string"
						},
						{
							"internalType": "uint256",
							"name": "accessCode",
							"type": "uint256"
						},
						{
							"internalType": "bool",
							"name": "isAdmitted",
							"type": "bool"
						}
					],
					"stateMutability": "view",
					"type": "function"
				},
				{
					"inputs": [],
					"name": "getStudentCount",
					"outputs": [
						{
							"internalType": "uint256",
							"name": "",
							"type": "uint256"
						}
					],
					"stateMutability": "view",
					"type": "function"
				},
				{
					"inputs": [
						{
							"internalType": "string",
							"name": "_name",
							"type": "string"
						},
						{
							"internalType": "string",
							"name": "_role",
							"type": "string"
						}
					],
					"name": "registerStaff",
					"outputs": [],
					"stateMutability": "nonpayable",
					"type": "function"
				},
				{
					"inputs": [
						{
							"internalType": "string",
							"name": "_name",
							"type": "string"
						},
						{
							"internalType": "uint256",
							"name": "_matricNumber",
							"type": "uint256"
						},
						{
							"internalType": "uint256",
							"name": "_regDate",
							"type": "uint256"
						},
						{
							"internalType": "string",
							"name": "_hostelRoomNumber",
							"type": "string"
						}
					],
					"name": "registerStudent",
					"outputs": [],
					"stateMutability": "nonpayable",
					"type": "function"
				},
				{
					"inputs": [
						{
							"internalType": "uint256",
							"name": "_matricNumber",
							"type": "uint256"
						},
						{
							"internalType": "string",
							"name": "_newRecord",
							"type": "string"
						},
						{
							"internalType": "string",
							"name": "_prescription",
							"type": "string"
						},
						{
							"internalType": "uint256",
							"name": "_accessCode",
							"type": "uint256"
						},
						{
							"internalType": "bool",
							"name": "_isAdmitted",
							"type": "bool"
						},
						{
							"internalType": "address",
							"name": "_recipient",
							"type": "address"
						}
					],
					"name": "updatePatientRecord",
					"outputs": [],
					"stateMutability": "nonpayable",
					"type": "function"
				}
			],
			"devdoc": {
				"kind": "dev",
				"methods": {},
				"version": 1
			},
			"evm": {
				"assembly": "    /* \"contracts/VeritasClinic.sol\":61:11190  contract HealthcareUniversity {... */\n  mstore(0x40, 0x80)\n  callvalue\n  dup1\n  iszero\n  tag_1\n  jumpi\n  0x00\n  dup1\n  revert\ntag_1:\n  pop\n  dataSize(sub_0)\n  dup1\n  dataOffset(sub_0)\n  0x00\n  codecopy\n  0x00\n  return\nstop\n\nsub_0: assembly {\n        /* \"contracts/VeritasClinic.sol\":61:11190  contract HealthcareUniversity {... */\n      mstore(0x40, 0x80)\n      callvalue\n      dup1\n      iszero\n      tag_1\n      jumpi\n      0x00\n      dup1\n      revert\n    tag_1:\n      pop\n      jumpi(tag_2, lt(calldatasize, 0x04))\n      shr(0xe0, calldataload(0x00))\n      dup1\n      0x6148c54c\n      gt\n      tag_16\n      jumpi\n      dup1\n      0xd3c9acc1\n      gt\n      tag_17\n      jumpi\n      dup1\n      0xd3c9acc1\n      eq\n      tag_12\n      jumpi\n      dup1\n      0xddd79504\n      eq\n      tag_13\n      jumpi\n      dup1\n      0xe9e30927\n      eq\n      tag_14\n      jumpi\n      dup1\n      0xf8f3f382\n      eq\n      tag_15\n      jumpi\n      jump(tag_2)\n    tag_17:\n      dup1\n      0x6148c54c\n      eq\n      tag_9\n      jumpi\n      dup1\n      0x6b7b44d7\n      eq\n      tag_10\n      jumpi\n      dup1\n      0xb99b0703\n      eq\n      tag_11\n      jumpi\n      jump(tag_2)\n    tag_16:\n      dup1\n      0x032e0868\n      eq\n      tag_3\n      jumpi\n      dup1\n      0x141254cb\n      eq\n      tag_4\n      jumpi\n      dup1\n      0x41e0c407\n      eq\n      tag_5\n      jumpi\n      dup1\n      0x4f60d018\n      eq\n      tag_6\n      jumpi\n      dup1\n      0x572344f1\n      eq\n      tag_7\n      jumpi\n      dup1\n      0x58d7430e\n      eq\n      tag_8\n      jumpi\n    tag_2:\n      0x00\n      dup1\n      revert\n        /* \"contracts/VeritasClinic.sol\":9064:9155  function getAllStaff() public view returns (Staff[] memory) {... */\n    tag_3:\n      tag_18\n      tag_19\n      jump\t// in\n    tag_18:\n      mload(0x40)\n      tag_20\n      swap2\n      swap1\n      tag_21\n      jump\t// in\n    tag_20:\n      mload(0x40)\n      dup1\n      swap2\n      sub\n      swap1\n      return\n        /* \"contracts/VeritasClinic.sol\":5241:7256  function updatePatientRecord(... */\n    tag_4:\n      tag_22\n      0x04\n      dup1\n      calldatasize\n      sub\n      dup2\n      add\n      swap1\n      tag_23\n      swap2\n      swap1\n      tag_24\n      jump\t// in\n    tag_23:\n      tag_25\n      jump\t// in\n    tag_22:\n      stop\n        /* \"contracts/VeritasClinic.sol\":10532:10630  function getStudentCount() public view returns (uint256) {... */\n    tag_5:\n      tag_26\n      tag_27\n      jump\t// in\n    tag_26:\n      mload(0x40)\n      tag_28\n      swap2\n      swap1\n      tag_29\n      jump\t// in\n    tag_28:\n      mload(0x40)\n      dup1\n      swap2\n      sub\n      swap1\n      return\n        /* \"contracts/VeritasClinic.sol\":7570:7901  function generateNewAccessCode() public onlyStudent {... */\n    tag_6:\n      tag_30\n      tag_31\n      jump\t// in\n    tag_30:\n      stop\n        /* \"contracts/VeritasClinic.sol\":4278:5174  function registerStaff(string memory _name, string memory _role) public {... */\n    tag_7:\n      tag_32\n      0x04\n      dup1\n      calldatasize\n      sub\n      dup2\n      add\n      swap1\n      tag_33\n      swap2\n      swap1\n      tag_34\n      jump\t// in\n    tag_33:\n      tag_35\n      jump\t// in\n    tag_32:\n      stop\n        /* \"contracts/VeritasClinic.sol\":7291:7529  function cancelAccessCode() public onlyStudent {... */\n    tag_8:\n      tag_36\n      tag_37\n      jump\t// in\n    tag_36:\n      stop\n        /* \"contracts/VeritasClinic.sol\":2775:4218  function registerStudent(... */\n    tag_9:\n      tag_38\n      0x04\n      dup1\n      calldatasize\n      sub\n      dup2\n      add\n      swap1\n      tag_39\n      swap2\n      swap1\n      tag_40\n      jump\t// in\n    tag_39:\n      tag_41\n      jump\t// in\n    tag_38:\n      stop\n        /* \"contracts/VeritasClinic.sol\":8102:9018  function getStudent(address _patientAddr) public view returns (... */\n    tag_10:\n      tag_42\n      0x04\n      dup1\n      calldatasize\n      sub\n      dup2\n      add\n      swap1\n      tag_43\n      swap2\n      swap1\n      tag_44\n      jump\t// in\n    tag_43:\n      tag_45\n      jump\t// in\n    tag_42:\n      mload(0x40)\n      tag_46\n      swap8\n      swap7\n      swap6\n      swap5\n      swap4\n      swap3\n      swap2\n      swap1\n      tag_47\n      jump\t// in\n    tag_46:\n      mload(0x40)\n      dup1\n      swap2\n      sub\n      swap1\n      return\n        /* \"contracts/VeritasClinic.sol\":10662:10755  function getStaffCount() public view returns (uint256) {... */\n    tag_11:\n      tag_48\n      tag_49\n      jump\t// in\n    tag_48:\n      mload(0x40)\n      tag_50\n      swap2\n      swap1\n      tag_29\n      jump\t// in\n    tag_50:\n      mload(0x40)\n      dup1\n      swap2\n      sub\n      swap1\n      return\n        /* \"contracts/VeritasClinic.sol\":10808:11187  function getPrescriptionCount(address _recipient) public view returns (uint256) {... */\n    tag_12:\n      tag_51\n      0x04\n      dup1\n      calldatasize\n      sub\n      dup2\n      add\n      swap1\n      tag_52\n      swap2\n      swap1\n      tag_44\n      jump\t// in\n    tag_52:\n      tag_53\n      jump\t// in\n    tag_51:\n      mload(0x40)\n      tag_54\n      swap2\n      swap1\n      tag_29\n      jump\t// in\n    tag_54:\n      mload(0x40)\n      dup1\n      swap2\n      sub\n      swap1\n      return\n        /* \"contracts/VeritasClinic.sol\":9206:9601  function getStaff(address _staffAddr) public view returns (... */\n    tag_13:\n      tag_55\n      0x04\n      dup1\n      calldatasize\n      sub\n      dup2\n      add\n      swap1\n      tag_56\n      swap2\n      swap1\n      tag_44\n      jump\t// in\n    tag_56:\n      tag_57\n      jump\t// in\n    tag_55:\n      mload(0x40)\n      tag_58\n      swap3\n      swap2\n      swap1\n      tag_59\n      jump\t// in\n    tag_58:\n      mload(0x40)\n      dup1\n      swap2\n      sub\n      swap1\n      return\n        /* \"contracts/VeritasClinic.sol\":7950:8049  function getAllStudents() public view returns (Student[] memory) {... */\n    tag_14:\n      tag_60\n      tag_61\n      jump\t// in\n    tag_60:\n      mload(0x40)\n      tag_62\n      swap2\n      swap1\n      tag_63\n      jump\t// in\n    tag_62:\n      mload(0x40)\n      dup1\n      swap2\n      sub\n      swap1\n      return\n        /* \"contracts/VeritasClinic.sol\":9677:10498  function getPrescriptions(address _recipient) public view returns (Prescription[] memory) {... */\n    tag_15:\n      tag_64\n      0x04\n      dup1\n      calldatasize\n      sub\n      dup2\n      add\n      swap1\n      tag_65\n      swap2\n      swap1\n      tag_44\n      jump\t// in\n    tag_65:\n      tag_66\n      jump\t// in\n    tag_64:\n      mload(0x40)\n      tag_67\n      swap2\n      swap1\n      tag_68\n      jump\t// in\n    tag_67:\n      mload(0x40)\n      dup1\n      swap2\n      sub\n      swap1\n      return\n        /* \"contracts/VeritasClinic.sol\":9064:9155  function getAllStaff() public view returns (Staff[] memory) {... */\n    tag_19:\n        /* \"contracts/VeritasClinic.sol\":9108:9122  Staff[] memory */\n      0x60\n        /* \"contracts/VeritasClinic.sol\":9142:9147  staff */\n      0x01\n        /* \"contracts/VeritasClinic.sol\":9135:9147  return staff */\n      dup1\n      sload\n      dup1\n      0x20\n      mul\n      0x20\n      add\n      mload(0x40)\n      swap1\n      dup2\n      add\n      0x40\n      mstore\n      dup1\n      swap3\n      swap2\n      swap1\n      dup2\n      dup2\n      mstore\n      0x20\n      add\n      0x00\n      swap1\n    tag_70:\n      dup3\n      dup3\n      lt\n      iszero\n      tag_71\n      jumpi\n      dup4\n      dup3\n      swap1\n      0x00\n      mstore\n      keccak256(0x00, 0x20)\n      swap1\n      0x03\n      mul\n      add\n      mload(0x40)\n      dup1\n      0x60\n      add\n      0x40\n      mstore\n      swap1\n      dup2\n      0x00\n      dup3\n      add\n      0x00\n      swap1\n      sload\n      swap1\n      0x0100\n      exp\n      swap1\n      div\n      0xffffffffffffffffffffffffffffffffffffffff\n      and\n      0xffffffffffffffffffffffffffffffffffffffff\n      and\n      0xffffffffffffffffffffffffffffffffffffffff\n      and\n      dup2\n      mstore\n      0x20\n      add\n      0x01\n      dup3\n      add\n      dup1\n      sload\n      tag_73\n      swap1\n      tag_74\n      jump\t// in\n    tag_73:\n      dup1\n      0x1f\n      add\n      0x20\n      dup1\n      swap2\n      div\n      mul\n      0x20\n      add\n      mload(0x40)\n      swap1\n      dup2\n      add\n      0x40\n      mstore\n      dup1\n      swap3\n      swap2\n      swap1\n      dup2\n      dup2\n      mstore\n      0x20\n      add\n      dup3\n      dup1\n      sload\n      tag_75\n      swap1\n      tag_74\n      jump\t// in\n    tag_75:\n      dup1\n      iszero\n      tag_76\n      jumpi\n      dup1\n      0x1f\n      lt\n      tag_77\n      jumpi\n      0x0100\n      dup1\n      dup4\n      sload\n      div\n      mul\n      dup4\n      mstore\n      swap2\n      0x20\n      add\n      swap2\n      jump(tag_76)\n    tag_77:\n      dup3\n      add\n      swap2\n      swap1\n      0x00\n      mstore\n      keccak256(0x00, 0x20)\n      swap1\n    tag_78:\n      dup2\n      sload\n      dup2\n      mstore\n      swap1\n      0x01\n      add\n      swap1\n      0x20\n      add\n      dup1\n      dup4\n      gt\n      tag_78\n      jumpi\n      dup3\n      swap1\n      sub\n      0x1f\n      and\n      dup3\n      add\n      swap2\n    tag_76:\n      pop\n      pop\n      pop\n      pop\n      pop\n      dup2\n      mstore\n      0x20\n      add\n      0x02\n      dup3\n      add\n      dup1\n      sload\n      tag_79\n      swap1\n      tag_74\n      jump\t// in\n    tag_79:\n      dup1\n      0x1f\n      add\n      0x20\n      dup1\n      swap2\n      div\n      mul\n      0x20\n      add\n      mload(0x40)\n      swap1\n      dup2\n      add\n      0x40\n      mstore\n      dup1\n      swap3\n      swap2\n      swap1\n      dup2\n      dup2\n      mstore\n      0x20\n      add\n      dup3\n      dup1\n      sload\n      tag_80\n      swap1\n      tag_74\n      jump\t// in\n    tag_80:\n      dup1\n      iszero\n      tag_81\n      jumpi\n      dup1\n      0x1f\n      lt\n      tag_82\n      jumpi\n      0x0100\n      dup1\n      dup4\n      sload\n      div\n      mul\n      dup4\n      mstore\n      swap2\n      0x20\n      add\n      swap2\n      jump(tag_81)\n    tag_82:\n      dup3\n      add\n      swap2\n      swap1\n      0x00\n      mstore\n      keccak256(0x00, 0x20)\n      swap1\n    tag_83:\n      dup2\n      sload\n      dup2\n      mstore\n      swap1\n      0x01\n      add\n      swap1\n      0x20\n      add\n      dup1\n      dup4\n      gt\n      tag_83\n      jumpi\n      dup3\n      swap1\n      sub\n      0x1f\n      and\n      dup3\n      add\n      swap2\n    tag_81:\n      pop\n      pop\n      pop\n      pop\n      pop\n      dup2\n      mstore\n      pop\n      pop\n      dup2\n      mstore\n      0x20\n      add\n      swap1\n      0x01\n      add\n      swap1\n      jump(tag_70)\n    tag_71:\n      pop\n      pop\n      pop\n      pop\n      swap1\n      pop\n        /* \"contracts/VeritasClinic.sol\":9064:9155  function getAllStaff() public view returns (Staff[] memory) {... */\n      swap1\n      jump\t// out\n        /* \"contracts/VeritasClinic.sol\":5241:7256  function updatePatientRecord(... */\n    tag_25:\n        /* \"contracts/VeritasClinic.sol\":2045:2052  isStaff */\n      0x07\n        /* \"contracts/VeritasClinic.sol\":2045:2064  isStaff[msg.sender] */\n      0x00\n        /* \"contracts/VeritasClinic.sol\":2053:2063  msg.sender */\n      caller\n        /* \"contracts/VeritasClinic.sol\":2045:2064  isStaff[msg.sender] */\n      0xffffffffffffffffffffffffffffffffffffffff\n      and\n      0xffffffffffffffffffffffffffffffffffffffff\n      and\n      dup2\n      mstore\n      0x20\n      add\n      swap1\n      dup2\n      mstore\n      0x20\n      add\n      0x00\n      keccak256\n      0x00\n      swap1\n      sload\n      swap1\n      0x0100\n      exp\n      swap1\n      div\n      0xff\n      and\n        /* \"contracts/VeritasClinic.sol\":2037:2114  require(isStaff[msg.sender], \"Only registered staff can perform this action\") */\n      tag_85\n      jumpi\n      mload(0x40)\n      0x08c379a000000000000000000000000000000000000000000000000000000000\n      dup2\n      mstore\n      0x04\n      add\n      tag_86\n      swap1\n      tag_87\n      jump\t// in\n    tag_86:\n      mload(0x40)\n      dup1\n      swap2\n      sub\n      swap1\n      revert\n    tag_85:\n        /* \"contracts/VeritasClinic.sol\":2125:2138  uint256 index */\n      0x00\n        /* \"contracts/VeritasClinic.sol\":2141:2151  staffIndex */\n      0x05\n        /* \"contracts/VeritasClinic.sol\":2141:2163  staffIndex[msg.sender] */\n      0x00\n        /* \"contracts/VeritasClinic.sol\":2152:2162  msg.sender */\n      caller\n        /* \"contracts/VeritasClinic.sol\":2141:2163  staffIndex[msg.sender] */\n      0xffffffffffffffffffffffffffffffffffffffff\n      and\n      0xffffffffffffffffffffffffffffffffffffffff\n      and\n      dup2\n      mstore\n      0x20\n      add\n      swap1\n      dup2\n      mstore\n      0x20\n      add\n      0x00\n      keccak256\n      sload\n        /* \"contracts/VeritasClinic.sol\":2125:2163  uint256 index = staffIndex[msg.sender] */\n      swap1\n      pop\n        /* \"contracts/VeritasClinic.sol\":2242:2268  abi.encodePacked(\"Doctor\") */\n      add(0x20, mload(0x40))\n      tag_88\n      swap1\n      tag_89\n      jump\t// in\n    tag_88:\n      mload(0x40)\n      0x20\n      dup2\n      dup4\n      sub\n      sub\n      dup2\n      mstore\n      swap1\n      0x40\n      mstore\n        /* \"contracts/VeritasClinic.sol\":2232:2269  keccak256(abi.encodePacked(\"Doctor\")) */\n      dup1\n      mload\n      swap1\n      0x20\n      add\n      keccak256\n        /* \"contracts/VeritasClinic.sol\":2209:2214  staff */\n      0x01\n        /* \"contracts/VeritasClinic.sol\":2215:2220  index */\n      dup3\n        /* \"contracts/VeritasClinic.sol\":2209:2221  staff[index] */\n      dup2\n      sload\n      dup2\n      lt\n      tag_90\n      jumpi\n      tag_91\n      tag_92\n      jump\t// in\n    tag_91:\n    tag_90:\n      swap1\n      0x00\n      mstore\n      keccak256(0x00, 0x20)\n      swap1\n      0x03\n      mul\n      add\n        /* \"contracts/VeritasClinic.sol\":2209:2226  staff[index].role */\n      0x02\n      add\n        /* \"contracts/VeritasClinic.sol\":2192:2227  abi.encodePacked(staff[index].role) */\n      add(0x20, mload(0x40))\n      tag_94\n      swap2\n      swap1\n      tag_95\n      jump\t// in\n    tag_94:\n      mload(0x40)\n      0x20\n      dup2\n      dup4\n      sub\n      sub\n      dup2\n      mstore\n      swap1\n      0x40\n      mstore\n        /* \"contracts/VeritasClinic.sol\":2182:2228  keccak256(abi.encodePacked(staff[index].role)) */\n      dup1\n      mload\n      swap1\n      0x20\n      add\n      keccak256\n        /* \"contracts/VeritasClinic.sol\":2182:2269  keccak256(abi.encodePacked(staff[index].role)) == keccak256(abi.encodePacked(\"Doctor\")) */\n      eq\n        /* \"contracts/VeritasClinic.sol\":2174:2328  require(keccak256(abi.encodePacked(staff[index].role)) == keccak256(abi.encodePacked(\"Doctor\")), ... */\n      tag_96\n      jumpi\n      mload(0x40)\n      0x08c379a000000000000000000000000000000000000000000000000000000000\n      dup2\n      mstore\n      0x04\n      add\n      tag_97\n      swap1\n      tag_98\n      jump\t// in\n    tag_97:\n      mload(0x40)\n      dup1\n      swap2\n      sub\n      swap1\n      revert\n    tag_96:\n        /* \"contracts/VeritasClinic.sol\":5537:5538  0 */\n      0x00\n        /* \"contracts/VeritasClinic.sol\":5505:5518  matricToIndex */\n      0x04\n        /* \"contracts/VeritasClinic.sol\":5505:5533  matricToIndex[_matricNumber] */\n      0x00\n        /* \"contracts/VeritasClinic.sol\":5519:5532  _matricNumber */\n      dup10\n        /* \"contracts/VeritasClinic.sol\":5505:5533  matricToIndex[_matricNumber] */\n      dup2\n      mstore\n      0x20\n      add\n      swap1\n      dup2\n      mstore\n      0x20\n      add\n      0x00\n      keccak256\n      sload\n        /* \"contracts/VeritasClinic.sol\":5505:5538  matricToIndex[_matricNumber] != 0 */\n      eq\n      iszero\n        /* \"contracts/VeritasClinic.sol\":5505:5561  matricToIndex[_matricNumber] != 0 || students.length > 0 */\n      dup1\n      tag_100\n      jumpi\n      pop\n        /* \"contracts/VeritasClinic.sol\":5560:5561  0 */\n      0x00\n        /* \"contracts/VeritasClinic.sol\":5542:5550  students */\n      dup1\n        /* \"contracts/VeritasClinic.sol\":5542:5557  students.length */\n      dup1\n      sload\n      swap1\n      pop\n        /* \"contracts/VeritasClinic.sol\":5542:5561  students.length > 0 */\n      gt\n        /* \"contracts/VeritasClinic.sol\":5505:5561  matricToIndex[_matricNumber] != 0 || students.length > 0 */\n    tag_100:\n        /* \"contracts/VeritasClinic.sol\":5497:5588  require(matricToIndex[_matricNumber] != 0 || students.length > 0, \"Patient not registered\") */\n      tag_101\n      jumpi\n      mload(0x40)\n      0x08c379a000000000000000000000000000000000000000000000000000000000\n      dup2\n      mstore\n      0x04\n      add\n      tag_102\n      swap1\n      tag_103\n      jump\t// in\n    tag_102:\n      mload(0x40)\n      dup1\n      swap2\n      sub\n      swap1\n      revert\n    tag_101:\n        /* \"contracts/VeritasClinic.sol\":5599:5612  uint256 index */\n      0x00\n        /* \"contracts/VeritasClinic.sol\":5615:5628  matricToIndex */\n      0x04\n        /* \"contracts/VeritasClinic.sol\":5615:5643  matricToIndex[_matricNumber] */\n      0x00\n        /* \"contracts/VeritasClinic.sol\":5629:5642  _matricNumber */\n      dup10\n        /* \"contracts/VeritasClinic.sol\":5615:5643  matricToIndex[_matricNumber] */\n      dup2\n      mstore\n      0x20\n      add\n      swap1\n      dup2\n      mstore\n      0x20\n      add\n      0x00\n      keccak256\n      sload\n        /* \"contracts/VeritasClinic.sol\":5599:5643  uint256 index = matricToIndex[_matricNumber] */\n      swap1\n      pop\n        /* \"contracts/VeritasClinic.sol\":5692:5703  _accessCode */\n      dup5\n        /* \"contracts/VeritasClinic.sol\":5662:5670  students */\n      0x00\n        /* \"contracts/VeritasClinic.sol\":5671:5676  index */\n      dup3\n        /* \"contracts/VeritasClinic.sol\":5662:5677  students[index] */\n      dup2\n      sload\n      dup2\n      lt\n      tag_104\n      jumpi\n      tag_105\n      tag_92\n      jump\t// in\n    tag_105:\n    tag_104:\n      swap1\n      0x00\n      mstore\n      keccak256(0x00, 0x20)\n      swap1\n      0x09\n      mul\n      add\n        /* \"contracts/VeritasClinic.sol\":5662:5688  students[index].accessCode */\n      0x06\n      add\n      sload\n        /* \"contracts/VeritasClinic.sol\":5662:5703  students[index].accessCode == _accessCode */\n      eq\n        /* \"contracts/VeritasClinic.sol\":5654:5727  require(students[index].accessCode == _accessCode, \"Invalid access code\") */\n      tag_107\n      jumpi\n      mload(0x40)\n      0x08c379a000000000000000000000000000000000000000000000000000000000\n      dup2\n      mstore\n      0x04\n      add\n      tag_108\n      swap1\n      tag_109\n      jump\t// in\n    tag_108:\n      mload(0x40)\n      dup1\n      swap2\n      sub\n      swap1\n      revert\n    tag_107:\n        /* \"contracts/VeritasClinic.sol\":1477:1487  30 minutes */\n      0x0708\n        /* \"contracts/VeritasClinic.sol\":5765:5773  students */\n      0x00\n        /* \"contracts/VeritasClinic.sol\":5774:5779  index */\n      dup3\n        /* \"contracts/VeritasClinic.sol\":5765:5780  students[index] */\n      dup2\n      sload\n      dup2\n      lt\n      tag_110\n      jumpi\n      tag_111\n      tag_92\n      jump\t// in\n    tag_111:\n    tag_110:\n      swap1\n      0x00\n      mstore\n      keccak256(0x00, 0x20)\n      swap1\n      0x09\n      mul\n      add\n        /* \"contracts/VeritasClinic.sol\":5765:5794  students[index].codeTimestamp */\n      0x07\n      add\n      sload\n        /* \"contracts/VeritasClinic.sol\":5765:5808  students[index].codeTimestamp + CODE_EXPIRY */\n      tag_113\n      swap2\n      swap1\n      tag_114\n      jump\t// in\n    tag_113:\n        /* \"contracts/VeritasClinic.sol\":5746:5761  block.timestamp */\n      timestamp\n        /* \"contracts/VeritasClinic.sol\":5746:5808  block.timestamp <= students[index].codeTimestamp + CODE_EXPIRY */\n      gt\n      iszero\n        /* \"contracts/VeritasClinic.sol\":5738:5832  require(block.timestamp <= students[index].codeTimestamp + CODE_EXPIRY, \"Access code expired\") */\n      tag_115\n      jumpi\n      mload(0x40)\n      0x08c379a000000000000000000000000000000000000000000000000000000000\n      dup2\n      mstore\n      0x04\n      add\n      tag_116\n      swap1\n      tag_117\n      jump\t// in\n    tag_116:\n      mload(0x40)\n      dup1\n      swap2\n      sub\n      swap1\n      revert\n    tag_115:\n        /* \"contracts/VeritasClinic.sol\":5878:5879  0 */\n      0x00\n        /* \"contracts/VeritasClinic.sol\":5857:5867  _newRecord */\n      dup8\n        /* \"contracts/VeritasClinic.sol\":5851:5875  bytes(_newRecord).length */\n      mload\n        /* \"contracts/VeritasClinic.sol\":5851:5879  bytes(_newRecord).length > 0 */\n      gt\n        /* \"contracts/VeritasClinic.sol\":5843:5913  require(bytes(_newRecord).length > 0, \"Health record cannot be empty\") */\n      tag_118\n      jumpi\n      mload(0x40)\n      0x08c379a000000000000000000000000000000000000000000000000000000000\n      dup2\n      mstore\n      0x04\n      add\n      tag_119\n      swap1\n      tag_120\n      jump\t// in\n    tag_119:\n      mload(0x40)\n      dup1\n      swap2\n      sub\n      swap1\n      revert\n    tag_118:\n        /* \"contracts/VeritasClinic.sol\":5962:5963  0 */\n      0x00\n        /* \"contracts/VeritasClinic.sol\":5938:5951  _prescription */\n      dup7\n        /* \"contracts/VeritasClinic.sol\":5932:5959  bytes(_prescription).length */\n      mload\n        /* \"contracts/VeritasClinic.sol\":5932:5963  bytes(_prescription).length > 0 */\n      gt\n        /* \"contracts/VeritasClinic.sol\":5924:5996  require(bytes(_prescription).length > 0, \"Prescription cannot be empty\") */\n      tag_121\n      jumpi\n      mload(0x40)\n      0x08c379a000000000000000000000000000000000000000000000000000000000\n      dup2\n      mstore\n      0x04\n      add\n      tag_122\n      swap1\n      tag_123\n      jump\t// in\n    tag_122:\n      mload(0x40)\n      dup1\n      swap2\n      sub\n      swap1\n      revert\n    tag_121:\n        /* \"contracts/VeritasClinic.sol\":6015:6022  isStaff */\n      0x07\n        /* \"contracts/VeritasClinic.sol\":6015:6034  isStaff[_recipient] */\n      0x00\n        /* \"contracts/VeritasClinic.sol\":6023:6033  _recipient */\n      dup5\n        /* \"contracts/VeritasClinic.sol\":6015:6034  isStaff[_recipient] */\n      0xffffffffffffffffffffffffffffffffffffffff\n      and\n      0xffffffffffffffffffffffffffffffffffffffff\n      and\n      dup2\n      mstore\n      0x20\n      add\n      swap1\n      dup2\n      mstore\n      0x20\n      add\n      0x00\n      keccak256\n      0x00\n      swap1\n      sload\n      swap1\n      0x0100\n      exp\n      swap1\n      div\n      0xff\n      and\n        /* \"contracts/VeritasClinic.sol\":6007:6073  require(isStaff[_recipient], \"Recipient must be registered staff\") */\n      tag_124\n      jumpi\n      mload(0x40)\n      0x08c379a000000000000000000000000000000000000000000000000000000000\n      dup2\n      mstore\n      0x04\n      add\n      tag_125\n      swap1\n      tag_126\n      jump\t// in\n    tag_125:\n      mload(0x40)\n      dup1\n      swap2\n      sub\n      swap1\n      revert\n    tag_124:\n        /* \"contracts/VeritasClinic.sol\":6128:6150  uint256 recipientIndex */\n      0x00\n        /* \"contracts/VeritasClinic.sol\":6153:6163  staffIndex */\n      0x05\n        /* \"contracts/VeritasClinic.sol\":6153:6175  staffIndex[_recipient] */\n      0x00\n        /* \"contracts/VeritasClinic.sol\":6164:6174  _recipient */\n      dup6\n        /* \"contracts/VeritasClinic.sol\":6153:6175  staffIndex[_recipient] */\n      0xffffffffffffffffffffffffffffffffffffffff\n      and\n      0xffffffffffffffffffffffffffffffffffffffff\n      and\n      dup2\n      mstore\n      0x20\n      add\n      swap1\n      dup2\n      mstore\n      0x20\n      add\n      0x00\n      keccak256\n      sload\n        /* \"contracts/VeritasClinic.sol\":6128:6175  uint256 recipientIndex = staffIndex[_recipient] */\n      swap1\n      pop\n        /* \"contracts/VeritasClinic.sol\":6186:6213  string memory recipientRole */\n      0x00\n        /* \"contracts/VeritasClinic.sol\":6216:6227  _isAdmitted */\n      dup6\n        /* \"contracts/VeritasClinic.sol\":6216:6252  _isAdmitted ? \"Nurse\" : \"Pharmacist\" */\n      tag_127\n      jumpi\n      mload(0x40)\n      dup1\n      0x40\n      add\n      0x40\n      mstore\n      dup1\n      0x0a\n      dup2\n      mstore\n      0x20\n      add\n      0x506861726d616369737400000000000000000000000000000000000000000000\n      dup2\n      mstore\n      pop\n      jump(tag_128)\n    tag_127:\n      mload(0x40)\n      dup1\n      0x40\n      add\n      0x40\n      mstore\n      dup1\n      0x05\n      dup2\n      mstore\n      0x20\n      add\n      0x4e75727365000000000000000000000000000000000000000000000000000000\n      dup2\n      mstore\n      pop\n    tag_128:\n        /* \"contracts/VeritasClinic.sol\":6186:6252  string memory recipientRole = _isAdmitted ? \"Nurse\" : \"Pharmacist\" */\n      swap1\n      pop\n        /* \"contracts/VeritasClinic.sol\":6371:6384  recipientRole */\n      dup1\n        /* \"contracts/VeritasClinic.sol\":6354:6385  abi.encodePacked(recipientRole) */\n      add(0x20, mload(0x40))\n      tag_129\n      swap2\n      swap1\n      tag_130\n      jump\t// in\n    tag_129:\n      mload(0x40)\n      0x20\n      dup2\n      dup4\n      sub\n      sub\n      dup2\n      mstore\n      swap1\n      0x40\n      mstore\n        /* \"contracts/VeritasClinic.sol\":6344:6386  keccak256(abi.encodePacked(recipientRole)) */\n      dup1\n      mload\n      swap1\n      0x20\n      add\n      keccak256\n        /* \"contracts/VeritasClinic.sol\":6312:6317  staff */\n      0x01\n        /* \"contracts/VeritasClinic.sol\":6318:6332  recipientIndex */\n      dup4\n        /* \"contracts/VeritasClinic.sol\":6312:6333  staff[recipientIndex] */\n      dup2\n      sload\n      dup2\n      lt\n      tag_131\n      jumpi\n      tag_132\n      tag_92\n      jump\t// in\n    tag_132:\n    tag_131:\n      swap1\n      0x00\n      mstore\n      keccak256(0x00, 0x20)\n      swap1\n      0x03\n      mul\n      add\n        /* \"contracts/VeritasClinic.sol\":6312:6338  staff[recipientIndex].role */\n      0x02\n      add\n        /* \"contracts/VeritasClinic.sol\":6295:6339  abi.encodePacked(staff[recipientIndex].role) */\n      add(0x20, mload(0x40))\n      tag_134\n      swap2\n      swap1\n      tag_95\n      jump\t// in\n    tag_134:\n      mload(0x40)\n      0x20\n      dup2\n      dup4\n      sub\n      sub\n      dup2\n      mstore\n      swap1\n      0x40\n      mstore\n        /* \"contracts/VeritasClinic.sol\":6285:6340  keccak256(abi.encodePacked(staff[recipientIndex].role)) */\n      dup1\n      mload\n      swap1\n      0x20\n      add\n      keccak256\n        /* \"contracts/VeritasClinic.sol\":6285:6386  keccak256(abi.encodePacked(staff[recipientIndex].role)) == keccak256(abi.encodePacked(recipientRole)) */\n      eq\n        /* \"contracts/VeritasClinic.sol\":6263:6436  require(... */\n      tag_135\n      jumpi\n      mload(0x40)\n      0x08c379a000000000000000000000000000000000000000000000000000000000\n      dup2\n      mstore\n      0x04\n      add\n      tag_136\n      swap1\n      tag_137\n      jump\t// in\n    tag_136:\n      mload(0x40)\n      dup1\n      swap2\n      sub\n      swap1\n      revert\n    tag_135:\n        /* \"contracts/VeritasClinic.sol\":6534:6544  _newRecord */\n      dup9\n        /* \"contracts/VeritasClinic.sol\":6503:6511  students */\n      0x00\n        /* \"contracts/VeritasClinic.sol\":6512:6517  index */\n      dup5\n        /* \"contracts/VeritasClinic.sol\":6503:6518  students[index] */\n      dup2\n      sload\n      dup2\n      lt\n      tag_138\n      jumpi\n      tag_139\n      tag_92\n      jump\t// in\n    tag_139:\n    tag_138:\n      swap1\n      0x00\n      mstore\n      keccak256(0x00, 0x20)\n      swap1\n      0x09\n      mul\n      add\n        /* \"contracts/VeritasClinic.sol\":6503:6531  students[index].healthRecord */\n      0x05\n      add\n        /* \"contracts/VeritasClinic.sol\":6503:6544  students[index].healthRecord = _newRecord */\n      swap1\n      dup2\n      tag_141\n      swap2\n      swap1\n      tag_142\n      jump\t// in\n    tag_141:\n      pop\n        /* \"contracts/VeritasClinic.sol\":6584:6595  _isAdmitted */\n      dup6\n        /* \"contracts/VeritasClinic.sol\":6555:6563  students */\n      0x00\n        /* \"contracts/VeritasClinic.sol\":6564:6569  index */\n      dup5\n        /* \"contracts/VeritasClinic.sol\":6555:6570  students[index] */\n      dup2\n      sload\n      dup2\n      lt\n      tag_143\n      jumpi\n      tag_144\n      tag_92\n      jump\t// in\n    tag_144:\n    tag_143:\n      swap1\n      0x00\n      mstore\n      keccak256(0x00, 0x20)\n      swap1\n      0x09\n      mul\n      add\n        /* \"contracts/VeritasClinic.sol\":6555:6581  students[index].isAdmitted */\n      0x08\n      add\n      0x00\n        /* \"contracts/VeritasClinic.sol\":6555:6595  students[index].isAdmitted = _isAdmitted */\n      0x0100\n      exp\n      dup2\n      sload\n      dup2\n      0xff\n      mul\n      not\n      and\n      swap1\n      dup4\n      iszero\n      iszero\n      mul\n      or\n      swap1\n      sstore\n      pop\n        /* \"contracts/VeritasClinic.sol\":6635:6636  0 */\n      0x00\n        /* \"contracts/VeritasClinic.sol\":6606:6614  students */\n      dup1\n        /* \"contracts/VeritasClinic.sol\":6615:6620  index */\n      dup5\n        /* \"contracts/VeritasClinic.sol\":6606:6621  students[index] */\n      dup2\n      sload\n      dup2\n      lt\n      tag_146\n      jumpi\n      tag_147\n      tag_92\n      jump\t// in\n    tag_147:\n    tag_146:\n      swap1\n      0x00\n      mstore\n      keccak256(0x00, 0x20)\n      swap1\n      0x09\n      mul\n      add\n        /* \"contracts/VeritasClinic.sol\":6606:6632  students[index].accessCode */\n      0x06\n      add\n        /* \"contracts/VeritasClinic.sol\":6606:6636  students[index].accessCode = 0 */\n      dup2\n      swap1\n      sstore\n      pop\n        /* \"contracts/VeritasClinic.sol\":6708:6709  0 */\n      0x00\n        /* \"contracts/VeritasClinic.sol\":6676:6684  students */\n      dup1\n        /* \"contracts/VeritasClinic.sol\":6685:6690  index */\n      dup5\n        /* \"contracts/VeritasClinic.sol\":6676:6691  students[index] */\n      dup2\n      sload\n      dup2\n      lt\n      tag_149\n      jumpi\n      tag_150\n      tag_92\n      jump\t// in\n    tag_150:\n    tag_149:\n      swap1\n      0x00\n      mstore\n      keccak256(0x00, 0x20)\n      swap1\n      0x09\n      mul\n      add\n        /* \"contracts/VeritasClinic.sol\":6676:6705  students[index].codeTimestamp */\n      0x07\n      add\n        /* \"contracts/VeritasClinic.sol\":6676:6709  students[index].codeTimestamp = 0 */\n      dup2\n      swap1\n      sstore\n      pop\n        /* \"contracts/VeritasClinic.sol\":6764:6799  Prescription memory newPrescription */\n      0x00\n        /* \"contracts/VeritasClinic.sol\":6802:7036  Prescription({... */\n      mload(0x40)\n      dup1\n      0xa0\n      add\n      0x40\n      mstore\n      dup1\n        /* \"contracts/VeritasClinic.sol\":6843:6851  students */\n      0x00\n        /* \"contracts/VeritasClinic.sol\":6852:6857  index */\n      dup7\n        /* \"contracts/VeritasClinic.sol\":6843:6858  students[index] */\n      dup2\n      sload\n      dup2\n      lt\n      tag_152\n      jumpi\n      tag_153\n      tag_92\n      jump\t// in\n    tag_153:\n    tag_152:\n      swap1\n      0x00\n      mstore\n      keccak256(0x00, 0x20)\n      swap1\n      0x09\n      mul\n      add\n        /* \"contracts/VeritasClinic.sol\":6843:6863  students[index].name */\n      0x01\n      add\n        /* \"contracts/VeritasClinic.sol\":6802:7036  Prescription({... */\n      dup1\n      sload\n      tag_155\n      swap1\n      tag_74\n      jump\t// in\n    tag_155:\n      dup1\n      0x1f\n      add\n      0x20\n      dup1\n      swap2\n      div\n      mul\n      0x20\n      add\n      mload(0x40)\n      swap1\n      dup2\n      add\n      0x40\n      mstore\n      dup1\n      swap3\n      swap2\n      swap1\n      dup2\n      dup2\n      mstore\n      0x20\n      add\n      dup3\n      dup1\n      sload\n      tag_156\n      swap1\n      tag_74\n      jump\t// in\n    tag_156:\n      dup1\n      iszero\n      tag_157\n      jumpi\n      dup1\n      0x1f\n      lt\n      tag_158\n      jumpi\n      0x0100\n      dup1\n      dup4\n      sload\n      div\n      mul\n      dup4\n      mstore\n      swap2\n      0x20\n      add\n      swap2\n      jump(tag_157)\n    tag_158:\n      dup3\n      add\n      swap2\n      swap1\n      0x00\n      mstore\n      keccak256(0x00, 0x20)\n      swap1\n    tag_159:\n      dup2\n      sload\n      dup2\n      mstore\n      swap1\n      0x01\n      add\n      swap1\n      0x20\n      add\n      dup1\n      dup4\n      gt\n      tag_159\n      jumpi\n      dup3\n      swap1\n      sub\n      0x1f\n      and\n      dup3\n      add\n      swap2\n    tag_157:\n      pop\n      pop\n      pop\n      pop\n      pop\n      dup2\n      mstore\n      0x20\n      add\n        /* \"contracts/VeritasClinic.sol\":6892:6905  _matricNumber */\n      dup13\n        /* \"contracts/VeritasClinic.sol\":6802:7036  Prescription({... */\n      dup2\n      mstore\n      0x20\n      add\n        /* \"contracts/VeritasClinic.sol\":6934:6947  _prescription */\n      dup11\n        /* \"contracts/VeritasClinic.sol\":6802:7036  Prescription({... */\n      dup2\n      mstore\n      0x20\n      add\n        /* \"contracts/VeritasClinic.sol\":6973:6983  _recipient */\n      dup8\n        /* \"contracts/VeritasClinic.sol\":6802:7036  Prescription({... */\n      0xffffffffffffffffffffffffffffffffffffffff\n      and\n      dup2\n      mstore\n      0x20\n      add\n        /* \"contracts/VeritasClinic.sol\":7009:7024  block.timestamp */\n      timestamp\n        /* \"contracts/VeritasClinic.sol\":6802:7036  Prescription({... */\n      dup2\n      mstore\n      pop\n        /* \"contracts/VeritasClinic.sol\":6764:7036  Prescription memory newPrescription = Prescription({... */\n      swap1\n      pop\n        /* \"contracts/VeritasClinic.sol\":7047:7060  prescriptions */\n      0x02\n        /* \"contracts/VeritasClinic.sol\":7066:7081  newPrescription */\n      dup2\n        /* \"contracts/VeritasClinic.sol\":7047:7082  prescriptions.push(newPrescription) */\n      swap1\n      dup1\n      0x01\n      dup2\n      sload\n      add\n      dup1\n      dup3\n      sstore\n      dup1\n      swap2\n      pop\n      pop\n      0x01\n      swap1\n      sub\n      swap1\n      0x00\n      mstore\n      keccak256(0x00, 0x20)\n      swap1\n      0x05\n      mul\n      add\n      0x00\n      swap1\n      swap2\n      swap1\n      swap2\n      swap1\n      swap2\n      pop\n      0x00\n      dup3\n      add\n      mload\n      dup2\n      0x00\n      add\n      swap1\n      dup2\n      tag_161\n      swap2\n      swap1\n      tag_142\n      jump\t// in\n    tag_161:\n      pop\n      0x20\n      dup3\n      add\n      mload\n      dup2\n      0x01\n      add\n      sstore\n      0x40\n      dup3\n      add\n      mload\n      dup2\n      0x02\n      add\n      swap1\n      dup2\n      tag_162\n      swap2\n      swap1\n      tag_142\n      jump\t// in\n    tag_162:\n      pop\n      0x60\n      dup3\n      add\n      mload\n      dup2\n      0x03\n      add\n      exp(0x0100, 0x00)\n      dup2\n      sload\n      dup2\n      0xffffffffffffffffffffffffffffffffffffffff\n      mul\n      not\n      and\n      swap1\n      dup4\n      0xffffffffffffffffffffffffffffffffffffffff\n      and\n      mul\n      or\n      swap1\n      sstore\n      pop\n      0x80\n      dup3\n      add\n      mload\n      dup2\n      0x04\n      add\n      sstore\n      pop\n      pop\n        /* \"contracts/VeritasClinic.sol\":7120:7128  students */\n      0x00\n        /* \"contracts/VeritasClinic.sol\":7129:7134  index */\n      dup5\n        /* \"contracts/VeritasClinic.sol\":7120:7135  students[index] */\n      dup2\n      sload\n      dup2\n      lt\n      tag_163\n      jumpi\n      tag_164\n      tag_92\n      jump\t// in\n    tag_164:\n    tag_163:\n      swap1\n      0x00\n      mstore\n      keccak256(0x00, 0x20)\n      swap1\n      0x09\n      mul\n      add\n        /* \"contracts/VeritasClinic.sol\":7120:7147  students[index].patientAddr */\n      0x00\n      add\n      0x00\n      swap1\n      sload\n      swap1\n      0x0100\n      exp\n      swap1\n      div\n      0xffffffffffffffffffffffffffffffffffffffff\n      and\n        /* \"contracts/VeritasClinic.sol\":7100:7160  HealthRecordUpdated(students[index].patientAddr, _newRecord) */\n      0xffffffffffffffffffffffffffffffffffffffff\n      and\n      0x496728c3966d39323f4b0f6f4a7a5e1f1cbbc87338b4a1d5942049e331ae2817\n        /* \"contracts/VeritasClinic.sol\":7149:7159  _newRecord */\n      dup12\n        /* \"contracts/VeritasClinic.sol\":7100:7160  HealthRecordUpdated(students[index].patientAddr, _newRecord) */\n      mload(0x40)\n      tag_166\n      swap2\n      swap1\n      tag_167\n      jump\t// in\n    tag_166:\n      mload(0x40)\n      dup1\n      swap2\n      sub\n      swap1\n      log2\n        /* \"contracts/VeritasClinic.sol\":7222:7232  _recipient */\n      dup6\n        /* \"contracts/VeritasClinic.sol\":7176:7248  PrescriptionSent(students[index].patientAddr, _recipient, _prescription) */\n      0xffffffffffffffffffffffffffffffffffffffff\n      and\n        /* \"contracts/VeritasClinic.sol\":7193:7201  students */\n      0x00\n        /* \"contracts/VeritasClinic.sol\":7202:7207  index */\n      dup6\n        /* \"contracts/VeritasClinic.sol\":7193:7208  students[index] */\n      dup2\n      sload\n      dup2\n      lt\n      tag_168\n      jumpi\n      tag_169\n      tag_92\n      jump\t// in\n    tag_169:\n    tag_168:\n      swap1\n      0x00\n      mstore\n      keccak256(0x00, 0x20)\n      swap1\n      0x09\n      mul\n      add\n        /* \"contracts/VeritasClinic.sol\":7193:7220  students[index].patientAddr */\n      0x00\n      add\n      0x00\n      swap1\n      sload\n      swap1\n      0x0100\n      exp\n      swap1\n      div\n      0xffffffffffffffffffffffffffffffffffffffff\n      and\n        /* \"contracts/VeritasClinic.sol\":7176:7248  PrescriptionSent(students[index].patientAddr, _recipient, _prescription) */\n      0xffffffffffffffffffffffffffffffffffffffff\n      and\n      0x4f3e584412b404b8ea3e8ae1652df00170eb8b52474dece1592acffd5d771443\n        /* \"contracts/VeritasClinic.sol\":7234:7247  _prescription */\n      dup12\n        /* \"contracts/VeritasClinic.sol\":7176:7248  PrescriptionSent(students[index].patientAddr, _recipient, _prescription) */\n      mload(0x40)\n      tag_171\n      swap2\n      swap1\n      tag_167\n      jump\t// in\n    tag_171:\n      mload(0x40)\n      dup1\n      swap2\n      sub\n      swap1\n      log3\n        /* \"contracts/VeritasClinic.sol\":5486:7256  {... */\n      pop\n      pop\n      pop\n      pop\n        /* \"contracts/VeritasClinic.sol\":2026:2348  {... */\n      pop\n        /* \"contracts/VeritasClinic.sol\":5241:7256  function updatePatientRecord(... */\n      pop\n      pop\n      pop\n      pop\n      pop\n      pop\n      jump\t// out\n        /* \"contracts/VeritasClinic.sol\":10532:10630  function getStudentCount() public view returns (uint256) {... */\n    tag_27:\n        /* \"contracts/VeritasClinic.sol\":10580:10587  uint256 */\n      0x00\n        /* \"contracts/VeritasClinic.sol\":10607:10615  students */\n      dup1\n        /* \"contracts/VeritasClinic.sol\":10607:10622  students.length */\n      dup1\n      sload\n      swap1\n      pop\n        /* \"contracts/VeritasClinic.sol\":10600:10622  return students.length */\n      swap1\n      pop\n        /* \"contracts/VeritasClinic.sol\":10532:10630  function getStudentCount() public view returns (uint256) {... */\n      swap1\n      jump\t// out\n        /* \"contracts/VeritasClinic.sol\":7570:7901  function generateNewAccessCode() public onlyStudent {... */\n    tag_31:\n        /* \"contracts/VeritasClinic.sol\":2398:2407  isStudent */\n      0x06\n        /* \"contracts/VeritasClinic.sol\":2398:2419  isStudent[msg.sender] */\n      0x00\n        /* \"contracts/VeritasClinic.sol\":2408:2418  msg.sender */\n      caller\n        /* \"contracts/VeritasClinic.sol\":2398:2419  isStudent[msg.sender] */\n      0xffffffffffffffffffffffffffffffffffffffff\n      and\n      0xffffffffffffffffffffffffffffffffffffffff\n      and\n      dup2\n      mstore\n      0x20\n      add\n      swap1\n      dup2\n      mstore\n      0x20\n      add\n      0x00\n      keccak256\n      0x00\n      swap1\n      sload\n      swap1\n      0x0100\n      exp\n      swap1\n      div\n      0xff\n      and\n        /* \"contracts/VeritasClinic.sol\":2390:2472  require(isStudent[msg.sender], \"Only registered students can perform this action\") */\n      tag_174\n      jumpi\n      mload(0x40)\n      0x08c379a000000000000000000000000000000000000000000000000000000000\n      dup2\n      mstore\n      0x04\n      add\n      tag_175\n      swap1\n      tag_176\n      jump\t// in\n    tag_175:\n      mload(0x40)\n      dup1\n      swap2\n      sub\n      swap1\n      revert\n    tag_174:\n        /* \"contracts/VeritasClinic.sol\":7633:7646  uint256 index */\n      0x00\n        /* \"contracts/VeritasClinic.sol\":7649:7661  studentIndex */\n      0x03\n        /* \"contracts/VeritasClinic.sol\":7649:7673  studentIndex[msg.sender] */\n      0x00\n        /* \"contracts/VeritasClinic.sol\":7662:7672  msg.sender */\n      caller\n        /* \"contracts/VeritasClinic.sol\":7649:7673  studentIndex[msg.sender] */\n      0xffffffffffffffffffffffffffffffffffffffff\n      and\n      0xffffffffffffffffffffffffffffffffffffffff\n      and\n      dup2\n      mstore\n      0x20\n      add\n      swap1\n      dup2\n      mstore\n      0x20\n      add\n      0x00\n      keccak256\n      sload\n        /* \"contracts/VeritasClinic.sol\":7633:7673  uint256 index = studentIndex[msg.sender] */\n      swap1\n      pop\n        /* \"contracts/VeritasClinic.sol\":7684:7699  uint256 newCode */\n      0x00\n        /* \"contracts/VeritasClinic.sol\":7702:7732  generateRandomCode(msg.sender) */\n      tag_178\n        /* \"contracts/VeritasClinic.sol\":7721:7731  msg.sender */\n      caller\n        /* \"contracts/VeritasClinic.sol\":7702:7720  generateRandomCode */\n      tag_179\n        /* \"contracts/VeritasClinic.sol\":7702:7732  generateRandomCode(msg.sender) */\n      jump\t// in\n    tag_178:\n        /* \"contracts/VeritasClinic.sol\":7684:7732  uint256 newCode = generateRandomCode(msg.sender) */\n      swap1\n      pop\n        /* \"contracts/VeritasClinic.sol\":7772:7779  newCode */\n      dup1\n        /* \"contracts/VeritasClinic.sol\":7743:7751  students */\n      0x00\n        /* \"contracts/VeritasClinic.sol\":7752:7757  index */\n      dup4\n        /* \"contracts/VeritasClinic.sol\":7743:7758  students[index] */\n      dup2\n      sload\n      dup2\n      lt\n      tag_180\n      jumpi\n      tag_181\n      tag_92\n      jump\t// in\n    tag_181:\n    tag_180:\n      swap1\n      0x00\n      mstore\n      keccak256(0x00, 0x20)\n      swap1\n      0x09\n      mul\n      add\n        /* \"contracts/VeritasClinic.sol\":7743:7769  students[index].accessCode */\n      0x06\n      add\n        /* \"contracts/VeritasClinic.sol\":7743:7779  students[index].accessCode = newCode */\n      dup2\n      swap1\n      sstore\n      pop\n        /* \"contracts/VeritasClinic.sol\":7822:7837  block.timestamp */\n      timestamp\n        /* \"contracts/VeritasClinic.sol\":7790:7798  students */\n      0x00\n        /* \"contracts/VeritasClinic.sol\":7799:7804  index */\n      dup4\n        /* \"contracts/VeritasClinic.sol\":7790:7805  students[index] */\n      dup2\n      sload\n      dup2\n      lt\n      tag_183\n      jumpi\n      tag_184\n      tag_92\n      jump\t// in\n    tag_184:\n    tag_183:\n      swap1\n      0x00\n      mstore\n      keccak256(0x00, 0x20)\n      swap1\n      0x09\n      mul\n      add\n        /* \"contracts/VeritasClinic.sol\":7790:7819  students[index].codeTimestamp */\n      0x07\n      add\n        /* \"contracts/VeritasClinic.sol\":7790:7837  students[index].codeTimestamp = block.timestamp */\n      dup2\n      swap1\n      sstore\n      pop\n        /* \"contracts/VeritasClinic.sol\":7873:7883  msg.sender */\n      caller\n        /* \"contracts/VeritasClinic.sol\":7853:7893  AccessCodeGenerated(msg.sender, newCode) */\n      0xffffffffffffffffffffffffffffffffffffffff\n      and\n      0x511f82b4a6612092391a59ddbe0940faeaef8c62498f9a2e7495af8770f0ef4f\n        /* \"contracts/VeritasClinic.sol\":7885:7892  newCode */\n      dup3\n        /* \"contracts/VeritasClinic.sol\":7853:7893  AccessCodeGenerated(msg.sender, newCode) */\n      mload(0x40)\n      tag_186\n      swap2\n      swap1\n      tag_29\n      jump\t// in\n    tag_186:\n      mload(0x40)\n      dup1\n      swap2\n      sub\n      swap1\n      log2\n        /* \"contracts/VeritasClinic.sol\":7622:7901  {... */\n      pop\n      pop\n        /* \"contracts/VeritasClinic.sol\":7570:7901  function generateNewAccessCode() public onlyStudent {... */\n      jump\t// out\n        /* \"contracts/VeritasClinic.sol\":4278:5174  function registerStaff(string memory _name, string memory _role) public {... */\n    tag_35:\n        /* \"contracts/VeritasClinic.sol\":4370:4377  isStaff */\n      0x07\n        /* \"contracts/VeritasClinic.sol\":4370:4389  isStaff[msg.sender] */\n      0x00\n        /* \"contracts/VeritasClinic.sol\":4378:4388  msg.sender */\n      caller\n        /* \"contracts/VeritasClinic.sol\":4370:4389  isStaff[msg.sender] */\n      0xffffffffffffffffffffffffffffffffffffffff\n      and\n      0xffffffffffffffffffffffffffffffffffffffff\n      and\n      dup2\n      mstore\n      0x20\n      add\n      swap1\n      dup2\n      mstore\n      0x20\n      add\n      0x00\n      keccak256\n      0x00\n      swap1\n      sload\n      swap1\n      0x0100\n      exp\n      swap1\n      div\n      0xff\n      and\n        /* \"contracts/VeritasClinic.sol\":4369:4389  !isStaff[msg.sender] */\n      iszero\n        /* \"contracts/VeritasClinic.sol\":4361:4418  require(!isStaff[msg.sender], \"Staff already registered\") */\n      tag_188\n      jumpi\n      mload(0x40)\n      0x08c379a000000000000000000000000000000000000000000000000000000000\n      dup2\n      mstore\n      0x04\n      add\n      tag_189\n      swap1\n      tag_190\n      jump\t// in\n    tag_189:\n      mload(0x40)\n      dup1\n      swap2\n      sub\n      swap1\n      revert\n    tag_188:\n        /* \"contracts/VeritasClinic.sol\":4459:4460  0 */\n      0x00\n        /* \"contracts/VeritasClinic.sol\":4443:4448  _name */\n      dup3\n        /* \"contracts/VeritasClinic.sol\":4437:4456  bytes(_name).length */\n      mload\n        /* \"contracts/VeritasClinic.sol\":4437:4460  bytes(_name).length > 0 */\n      gt\n        /* \"contracts/VeritasClinic.sol\":4429:4485  require(bytes(_name).length > 0, \"Name cannot be empty\") */\n      tag_191\n      jumpi\n      mload(0x40)\n      0x08c379a000000000000000000000000000000000000000000000000000000000\n      dup2\n      mstore\n      0x04\n      add\n      tag_192\n      swap1\n      tag_193\n      jump\t// in\n    tag_192:\n      mload(0x40)\n      dup1\n      swap2\n      sub\n      swap1\n      revert\n    tag_191:\n        /* \"contracts/VeritasClinic.sol\":4566:4592  abi.encodePacked(\"Doctor\") */\n      add(0x20, mload(0x40))\n      tag_194\n      swap1\n      tag_89\n      jump\t// in\n    tag_194:\n      mload(0x40)\n      0x20\n      dup2\n      dup4\n      sub\n      sub\n      dup2\n      mstore\n      swap1\n      0x40\n      mstore\n        /* \"contracts/VeritasClinic.sol\":4556:4593  keccak256(abi.encodePacked(\"Doctor\")) */\n      dup1\n      mload\n      swap1\n      0x20\n      add\n      keccak256\n        /* \"contracts/VeritasClinic.sol\":4545:4550  _role */\n      dup2\n        /* \"contracts/VeritasClinic.sol\":4528:4551  abi.encodePacked(_role) */\n      add(0x20, mload(0x40))\n      tag_195\n      swap2\n      swap1\n      tag_130\n      jump\t// in\n    tag_195:\n      mload(0x40)\n      0x20\n      dup2\n      dup4\n      sub\n      sub\n      dup2\n      mstore\n      swap1\n      0x40\n      mstore\n        /* \"contracts/VeritasClinic.sol\":4518:4552  keccak256(abi.encodePacked(_role)) */\n      dup1\n      mload\n      swap1\n      0x20\n      add\n      keccak256\n        /* \"contracts/VeritasClinic.sol\":4518:4593  keccak256(abi.encodePacked(_role)) == keccak256(abi.encodePacked(\"Doctor\")) */\n      eq\n        /* \"contracts/VeritasClinic.sol\":4518:4684  keccak256(abi.encodePacked(_role)) == keccak256(abi.encodePacked(\"Doctor\")) ||... */\n      dup1\n      tag_196\n      jumpi\n      pop\n        /* \"contracts/VeritasClinic.sol\":4658:4683  abi.encodePacked(\"Nurse\") */\n      add(0x20, mload(0x40))\n      tag_197\n      swap1\n      tag_198\n      jump\t// in\n    tag_197:\n      mload(0x40)\n      0x20\n      dup2\n      dup4\n      sub\n      sub\n      dup2\n      mstore\n      swap1\n      0x40\n      mstore\n        /* \"contracts/VeritasClinic.sol\":4648:4684  keccak256(abi.encodePacked(\"Nurse\")) */\n      dup1\n      mload\n      swap1\n      0x20\n      add\n      keccak256\n        /* \"contracts/VeritasClinic.sol\":4637:4642  _role */\n      dup2\n        /* \"contracts/VeritasClinic.sol\":4620:4643  abi.encodePacked(_role) */\n      add(0x20, mload(0x40))\n      tag_199\n      swap2\n      swap1\n      tag_130\n      jump\t// in\n    tag_199:\n      mload(0x40)\n      0x20\n      dup2\n      dup4\n      sub\n      sub\n      dup2\n      mstore\n      swap1\n      0x40\n      mstore\n        /* \"contracts/VeritasClinic.sol\":4610:4644  keccak256(abi.encodePacked(_role)) */\n      dup1\n      mload\n      swap1\n      0x20\n      add\n      keccak256\n        /* \"contracts/VeritasClinic.sol\":4610:4684  keccak256(abi.encodePacked(_role)) == keccak256(abi.encodePacked(\"Nurse\")) */\n      eq\n        /* \"contracts/VeritasClinic.sol\":4518:4684  keccak256(abi.encodePacked(_role)) == keccak256(abi.encodePacked(\"Doctor\")) ||... */\n    tag_196:\n        /* \"contracts/VeritasClinic.sol\":4518:4780  keccak256(abi.encodePacked(_role)) == keccak256(abi.encodePacked(\"Doctor\")) ||... */\n      dup1\n      tag_200\n      jumpi\n      pop\n        /* \"contracts/VeritasClinic.sol\":4749:4779  abi.encodePacked(\"Pharmacist\") */\n      add(0x20, mload(0x40))\n      tag_201\n      swap1\n      tag_202\n      jump\t// in\n    tag_201:\n      mload(0x40)\n      0x20\n      dup2\n      dup4\n      sub\n      sub\n      dup2\n      mstore\n      swap1\n      0x40\n      mstore\n        /* \"contracts/VeritasClinic.sol\":4739:4780  keccak256(abi.encodePacked(\"Pharmacist\")) */\n      dup1\n      mload\n      swap1\n      0x20\n      add\n      keccak256\n        /* \"contracts/VeritasClinic.sol\":4728:4733  _role */\n      dup2\n        /* \"contracts/VeritasClinic.sol\":4711:4734  abi.encodePacked(_role) */\n      add(0x20, mload(0x40))\n      tag_203\n      swap2\n      swap1\n      tag_130\n      jump\t// in\n    tag_203:\n      mload(0x40)\n      0x20\n      dup2\n      dup4\n      sub\n      sub\n      dup2\n      mstore\n      swap1\n      0x40\n      mstore\n        /* \"contracts/VeritasClinic.sol\":4701:4735  keccak256(abi.encodePacked(_role)) */\n      dup1\n      mload\n      swap1\n      0x20\n      add\n      keccak256\n        /* \"contracts/VeritasClinic.sol\":4701:4780  keccak256(abi.encodePacked(_role)) == keccak256(abi.encodePacked(\"Pharmacist\")) */\n      eq\n        /* \"contracts/VeritasClinic.sol\":4518:4780  keccak256(abi.encodePacked(_role)) == keccak256(abi.encodePacked(\"Doctor\")) ||... */\n    tag_200:\n        /* \"contracts/VeritasClinic.sol\":4496:4849  require(... */\n      tag_204\n      jumpi\n      mload(0x40)\n      0x08c379a000000000000000000000000000000000000000000000000000000000\n      dup2\n      mstore\n      0x04\n      add\n      tag_205\n      swap1\n      tag_206\n      jump\t// in\n    tag_205:\n      mload(0x40)\n      dup1\n      swap2\n      sub\n      swap1\n      revert\n    tag_204:\n        /* \"contracts/VeritasClinic.sol\":4862:4883  Staff memory newStaff */\n      0x00\n        /* \"contracts/VeritasClinic.sol\":4886:4992  Staff({... */\n      mload(0x40)\n      dup1\n      0x60\n      add\n      0x40\n      mstore\n      dup1\n        /* \"contracts/VeritasClinic.sol\":4918:4928  msg.sender */\n      caller\n        /* \"contracts/VeritasClinic.sol\":4886:4992  Staff({... */\n      0xffffffffffffffffffffffffffffffffffffffff\n      and\n      dup2\n      mstore\n      0x20\n      add\n        /* \"contracts/VeritasClinic.sol\":4949:4954  _name */\n      dup5\n        /* \"contracts/VeritasClinic.sol\":4886:4992  Staff({... */\n      dup2\n      mstore\n      0x20\n      add\n        /* \"contracts/VeritasClinic.sol\":4975:4980  _role */\n      dup4\n        /* \"contracts/VeritasClinic.sol\":4886:4992  Staff({... */\n      dup2\n      mstore\n      pop\n        /* \"contracts/VeritasClinic.sol\":4862:4992  Staff memory newStaff = Staff({... */\n      swap1\n      pop\n        /* \"contracts/VeritasClinic.sol\":5005:5010  staff */\n      0x01\n        /* \"contracts/VeritasClinic.sol\":5016:5024  newStaff */\n      dup2\n        /* \"contracts/VeritasClinic.sol\":5005:5025  staff.push(newStaff) */\n      swap1\n      dup1\n      0x01\n      dup2\n      sload\n      add\n      dup1\n      dup3\n      sstore\n      dup1\n      swap2\n      pop\n      pop\n      0x01\n      swap1\n      sub\n      swap1\n      0x00\n      mstore\n      keccak256(0x00, 0x20)\n      swap1\n      0x03\n      mul\n      add\n      0x00\n      swap1\n      swap2\n      swap1\n      swap2\n      swap1\n      swap2\n      pop\n      0x00\n      dup3\n      add\n      mload\n      dup2\n      0x00\n      add\n      exp(0x0100, 0x00)\n      dup2\n      sload\n      dup2\n      0xffffffffffffffffffffffffffffffffffffffff\n      mul\n      not\n      and\n      swap1\n      dup4\n      0xffffffffffffffffffffffffffffffffffffffff\n      and\n      mul\n      or\n      swap1\n      sstore\n      pop\n      0x20\n      dup3\n      add\n      mload\n      dup2\n      0x01\n      add\n      swap1\n      dup2\n      tag_208\n      swap2\n      swap1\n      tag_142\n      jump\t// in\n    tag_208:\n      pop\n      0x40\n      dup3\n      add\n      mload\n      dup2\n      0x02\n      add\n      swap1\n      dup2\n      tag_209\n      swap2\n      swap1\n      tag_142\n      jump\t// in\n    tag_209:\n      pop\n      pop\n      pop\n        /* \"contracts/VeritasClinic.sol\":5076:5077  1 */\n      0x01\n        /* \"contracts/VeritasClinic.sol\":5061:5066  staff */\n      dup1\n        /* \"contracts/VeritasClinic.sol\":5061:5073  staff.length */\n      dup1\n      sload\n      swap1\n      pop\n        /* \"contracts/VeritasClinic.sol\":5061:5077  staff.length - 1 */\n      tag_210\n      swap2\n      swap1\n      tag_211\n      jump\t// in\n    tag_210:\n        /* \"contracts/VeritasClinic.sol\":5036:5046  staffIndex */\n      0x05\n        /* \"contracts/VeritasClinic.sol\":5036:5058  staffIndex[msg.sender] */\n      0x00\n        /* \"contracts/VeritasClinic.sol\":5047:5057  msg.sender */\n      caller\n        /* \"contracts/VeritasClinic.sol\":5036:5058  staffIndex[msg.sender] */\n      0xffffffffffffffffffffffffffffffffffffffff\n      and\n      0xffffffffffffffffffffffffffffffffffffffff\n      and\n      dup2\n      mstore\n      0x20\n      add\n      swap1\n      dup2\n      mstore\n      0x20\n      add\n      0x00\n      keccak256\n        /* \"contracts/VeritasClinic.sol\":5036:5077  staffIndex[msg.sender] = staff.length - 1 */\n      dup2\n      swap1\n      sstore\n      pop\n        /* \"contracts/VeritasClinic.sol\":5110:5114  true */\n      0x01\n        /* \"contracts/VeritasClinic.sol\":5088:5095  isStaff */\n      0x07\n        /* \"contracts/VeritasClinic.sol\":5088:5107  isStaff[msg.sender] */\n      0x00\n        /* \"contracts/VeritasClinic.sol\":5096:5106  msg.sender */\n      caller\n        /* \"contracts/VeritasClinic.sol\":5088:5107  isStaff[msg.sender] */\n      0xffffffffffffffffffffffffffffffffffffffff\n      and\n      0xffffffffffffffffffffffffffffffffffffffff\n      and\n      dup2\n      mstore\n      0x20\n      add\n      swap1\n      dup2\n      mstore\n      0x20\n      add\n      0x00\n      keccak256\n      0x00\n        /* \"contracts/VeritasClinic.sol\":5088:5114  isStaff[msg.sender] = true */\n      0x0100\n      exp\n      dup2\n      sload\n      dup2\n      0xff\n      mul\n      not\n      and\n      swap1\n      dup4\n      iszero\n      iszero\n      mul\n      or\n      swap1\n      sstore\n      pop\n        /* \"contracts/VeritasClinic.sol\":5148:5158  msg.sender */\n      caller\n        /* \"contracts/VeritasClinic.sol\":5132:5166  StaffRegistered(msg.sender, _role) */\n      0xffffffffffffffffffffffffffffffffffffffff\n      and\n      0xa030fd4c7d3464e2ab354cc6357d7c2e9b69a215a9ff95d0bea2dd9dacb592b7\n        /* \"contracts/VeritasClinic.sol\":5160:5165  _role */\n      dup4\n        /* \"contracts/VeritasClinic.sol\":5132:5166  StaffRegistered(msg.sender, _role) */\n      mload(0x40)\n      tag_212\n      swap2\n      swap1\n      tag_167\n      jump\t// in\n    tag_212:\n      mload(0x40)\n      dup1\n      swap2\n      sub\n      swap1\n      log2\n        /* \"contracts/VeritasClinic.sol\":4350:5174  {... */\n      pop\n        /* \"contracts/VeritasClinic.sol\":4278:5174  function registerStaff(string memory _name, string memory _role) public {... */\n      pop\n      pop\n      jump\t// out\n        /* \"contracts/VeritasClinic.sol\":7291:7529  function cancelAccessCode() public onlyStudent {... */\n    tag_37:\n        /* \"contracts/VeritasClinic.sol\":2398:2407  isStudent */\n      0x06\n        /* \"contracts/VeritasClinic.sol\":2398:2419  isStudent[msg.sender] */\n      0x00\n        /* \"contracts/VeritasClinic.sol\":2408:2418  msg.sender */\n      caller\n        /* \"contracts/VeritasClinic.sol\":2398:2419  isStudent[msg.sender] */\n      0xffffffffffffffffffffffffffffffffffffffff\n      and\n      0xffffffffffffffffffffffffffffffffffffffff\n      and\n      dup2\n      mstore\n      0x20\n      add\n      swap1\n      dup2\n      mstore\n      0x20\n      add\n      0x00\n      keccak256\n      0x00\n      swap1\n      sload\n      swap1\n      0x0100\n      exp\n      swap1\n      div\n      0xff\n      and\n        /* \"contracts/VeritasClinic.sol\":2390:2472  require(isStudent[msg.sender], \"Only registered students can perform this action\") */\n      tag_214\n      jumpi\n      mload(0x40)\n      0x08c379a000000000000000000000000000000000000000000000000000000000\n      dup2\n      mstore\n      0x04\n      add\n      tag_215\n      swap1\n      tag_176\n      jump\t// in\n    tag_215:\n      mload(0x40)\n      dup1\n      swap2\n      sub\n      swap1\n      revert\n    tag_214:\n        /* \"contracts/VeritasClinic.sol\":7349:7362  uint256 index */\n      0x00\n        /* \"contracts/VeritasClinic.sol\":7365:7377  studentIndex */\n      0x03\n        /* \"contracts/VeritasClinic.sol\":7365:7389  studentIndex[msg.sender] */\n      0x00\n        /* \"contracts/VeritasClinic.sol\":7378:7388  msg.sender */\n      caller\n        /* \"contracts/VeritasClinic.sol\":7365:7389  studentIndex[msg.sender] */\n      0xffffffffffffffffffffffffffffffffffffffff\n      and\n      0xffffffffffffffffffffffffffffffffffffffff\n      and\n      dup2\n      mstore\n      0x20\n      add\n      swap1\n      dup2\n      mstore\n      0x20\n      add\n      0x00\n      keccak256\n      sload\n        /* \"contracts/VeritasClinic.sol\":7349:7389  uint256 index = studentIndex[msg.sender] */\n      swap1\n      pop\n        /* \"contracts/VeritasClinic.sol\":7429:7430  0 */\n      0x00\n        /* \"contracts/VeritasClinic.sol\":7400:7408  students */\n      dup1\n        /* \"contracts/VeritasClinic.sol\":7409:7414  index */\n      dup3\n        /* \"contracts/VeritasClinic.sol\":7400:7415  students[index] */\n      dup2\n      sload\n      dup2\n      lt\n      tag_217\n      jumpi\n      tag_218\n      tag_92\n      jump\t// in\n    tag_218:\n    tag_217:\n      swap1\n      0x00\n      mstore\n      keccak256(0x00, 0x20)\n      swap1\n      0x09\n      mul\n      add\n        /* \"contracts/VeritasClinic.sol\":7400:7426  students[index].accessCode */\n      0x06\n      add\n        /* \"contracts/VeritasClinic.sol\":7400:7430  students[index].accessCode = 0 */\n      dup2\n      swap1\n      sstore\n      pop\n        /* \"contracts/VeritasClinic.sol\":7473:7474  0 */\n      0x00\n        /* \"contracts/VeritasClinic.sol\":7441:7449  students */\n      dup1\n        /* \"contracts/VeritasClinic.sol\":7450:7455  index */\n      dup3\n        /* \"contracts/VeritasClinic.sol\":7441:7456  students[index] */\n      dup2\n      sload\n      dup2\n      lt\n      tag_220\n      jumpi\n      tag_221\n      tag_92\n      jump\t// in\n    tag_221:\n    tag_220:\n      swap1\n      0x00\n      mstore\n      keccak256(0x00, 0x20)\n      swap1\n      0x09\n      mul\n      add\n        /* \"contracts/VeritasClinic.sol\":7441:7470  students[index].codeTimestamp */\n      0x07\n      add\n        /* \"contracts/VeritasClinic.sol\":7441:7474  students[index].codeTimestamp = 0 */\n      dup2\n      swap1\n      sstore\n      pop\n        /* \"contracts/VeritasClinic.sol\":7510:7520  msg.sender */\n      caller\n        /* \"contracts/VeritasClinic.sol\":7490:7521  AccessCodeCancelled(msg.sender) */\n      0xffffffffffffffffffffffffffffffffffffffff\n      and\n      0xdd8f91a332f5654eac96adcf2c43c93ed5cfcc4c7694c38f9513d174395bcc66\n      mload(0x40)\n      mload(0x40)\n      dup1\n      swap2\n      sub\n      swap1\n      log2\n        /* \"contracts/VeritasClinic.sol\":7338:7529  {... */\n      pop\n        /* \"contracts/VeritasClinic.sol\":7291:7529  function cancelAccessCode() public onlyStudent {... */\n      jump\t// out\n        /* \"contracts/VeritasClinic.sol\":2775:4218  function registerStudent(... */\n    tag_41:\n        /* \"contracts/VeritasClinic.sol\":2965:2974  isStudent */\n      0x06\n        /* \"contracts/VeritasClinic.sol\":2965:2986  isStudent[msg.sender] */\n      0x00\n        /* \"contracts/VeritasClinic.sol\":2975:2985  msg.sender */\n      caller\n        /* \"contracts/VeritasClinic.sol\":2965:2986  isStudent[msg.sender] */\n      0xffffffffffffffffffffffffffffffffffffffff\n      and\n      0xffffffffffffffffffffffffffffffffffffffff\n      and\n      dup2\n      mstore\n      0x20\n      add\n      swap1\n      dup2\n      mstore\n      0x20\n      add\n      0x00\n      keccak256\n      0x00\n      swap1\n      sload\n      swap1\n      0x0100\n      exp\n      swap1\n      div\n      0xff\n      and\n        /* \"contracts/VeritasClinic.sol\":2964:2986  !isStudent[msg.sender] */\n      iszero\n        /* \"contracts/VeritasClinic.sol\":2956:3017  require(!isStudent[msg.sender], \"Student already registered\") */\n      tag_224\n      jumpi\n      mload(0x40)\n      0x08c379a000000000000000000000000000000000000000000000000000000000\n      dup2\n      mstore\n      0x04\n      add\n      tag_225\n      swap1\n      tag_226\n      jump\t// in\n    tag_225:\n      mload(0x40)\n      dup1\n      swap2\n      sub\n      swap1\n      revert\n    tag_224:\n        /* \"contracts/VeritasClinic.sol\":3058:3059  0 */\n      0x00\n        /* \"contracts/VeritasClinic.sol\":3042:3047  _name */\n      dup5\n        /* \"contracts/VeritasClinic.sol\":3036:3055  bytes(_name).length */\n      mload\n        /* \"contracts/VeritasClinic.sol\":3036:3059  bytes(_name).length > 0 */\n      gt\n        /* \"contracts/VeritasClinic.sol\":3028:3084  require(bytes(_name).length > 0, \"Name cannot be empty\") */\n      tag_227\n      jumpi\n      mload(0x40)\n      0x08c379a000000000000000000000000000000000000000000000000000000000\n      dup2\n      mstore\n      0x04\n      add\n      tag_228\n      swap1\n      tag_193\n      jump\t// in\n    tag_228:\n      mload(0x40)\n      dup1\n      swap2\n      sub\n      swap1\n      revert\n    tag_227:\n        /* \"contracts/VeritasClinic.sol\":3120:3126  100000 */\n      0x0186a0\n        /* \"contracts/VeritasClinic.sol\":3103:3116  _matricNumber */\n      dup4\n        /* \"contracts/VeritasClinic.sol\":3103:3126  _matricNumber >= 100000 */\n      lt\n      iszero\n        /* \"contracts/VeritasClinic.sol\":3103:3153  _matricNumber >= 100000 && _matricNumber <= 999999 */\n      dup1\n      iszero\n      tag_229\n      jumpi\n      pop\n        /* \"contracts/VeritasClinic.sol\":3147:3153  999999 */\n      0x0f423f\n        /* \"contracts/VeritasClinic.sol\":3130:3143  _matricNumber */\n      dup4\n        /* \"contracts/VeritasClinic.sol\":3130:3153  _matricNumber <= 999999 */\n      gt\n      iszero\n        /* \"contracts/VeritasClinic.sol\":3103:3153  _matricNumber >= 100000 && _matricNumber <= 999999 */\n    tag_229:\n        /* \"contracts/VeritasClinic.sol\":3095:3188  require(_matricNumber >= 100000 && _matricNumber <= 999999, \"Matric number must be 6 digits\") */\n      tag_230\n      jumpi\n      mload(0x40)\n      0x08c379a000000000000000000000000000000000000000000000000000000000\n      dup2\n      mstore\n      0x04\n      add\n      tag_231\n      swap1\n      tag_232\n      jump\t// in\n    tag_231:\n      mload(0x40)\n      dup1\n      swap2\n      sub\n      swap1\n      revert\n    tag_230:\n        /* \"contracts/VeritasClinic.sol\":3219:3234  block.timestamp */\n      timestamp\n        /* \"contracts/VeritasClinic.sol\":3207:3215  _regDate */\n      dup3\n        /* \"contracts/VeritasClinic.sol\":3207:3234  _regDate <= block.timestamp */\n      gt\n      iszero\n        /* \"contracts/VeritasClinic.sol\":3199:3264  require(_regDate <= block.timestamp, \"Invalid registration date\") */\n      tag_233\n      jumpi\n      mload(0x40)\n      0x08c379a000000000000000000000000000000000000000000000000000000000\n      dup2\n      mstore\n      0x04\n      add\n      tag_234\n      swap1\n      tag_235\n      jump\t// in\n    tag_234:\n      mload(0x40)\n      dup1\n      swap2\n      sub\n      swap1\n      revert\n    tag_233:\n        /* \"contracts/VeritasClinic.sol\":3315:3316  0 */\n      0x00\n        /* \"contracts/VeritasClinic.sol\":3283:3296  matricToIndex */\n      0x04\n        /* \"contracts/VeritasClinic.sol\":3283:3311  matricToIndex[_matricNumber] */\n      0x00\n        /* \"contracts/VeritasClinic.sol\":3297:3310  _matricNumber */\n      dup6\n        /* \"contracts/VeritasClinic.sol\":3283:3311  matricToIndex[_matricNumber] */\n      dup2\n      mstore\n      0x20\n      add\n      swap1\n      dup2\n      mstore\n      0x20\n      add\n      0x00\n      keccak256\n      sload\n        /* \"contracts/VeritasClinic.sol\":3283:3316  matricToIndex[_matricNumber] == 0 */\n      eq\n        /* \"contracts/VeritasClinic.sol\":3283:3340  matricToIndex[_matricNumber] == 0 && students.length == 0 */\n      dup1\n      iszero\n      tag_236\n      jumpi\n      pop\n        /* \"contracts/VeritasClinic.sol\":3339:3340  0 */\n      0x00\n        /* \"contracts/VeritasClinic.sol\":3320:3328  students */\n      dup1\n        /* \"contracts/VeritasClinic.sol\":3320:3335  students.length */\n      dup1\n      sload\n      swap1\n      pop\n        /* \"contracts/VeritasClinic.sol\":3320:3340  students.length == 0 */\n      eq\n        /* \"contracts/VeritasClinic.sol\":3283:3340  matricToIndex[_matricNumber] == 0 && students.length == 0 */\n    tag_236:\n        /* \"contracts/VeritasClinic.sol\":3283:3377  matricToIndex[_matricNumber] == 0 && students.length == 0 || matricToIndex[_matricNumber] == 0 */\n      dup1\n      tag_237\n      jumpi\n      pop\n        /* \"contracts/VeritasClinic.sol\":3376:3377  0 */\n      0x00\n        /* \"contracts/VeritasClinic.sol\":3344:3357  matricToIndex */\n      0x04\n        /* \"contracts/VeritasClinic.sol\":3344:3372  matricToIndex[_matricNumber] */\n      0x00\n        /* \"contracts/VeritasClinic.sol\":3358:3371  _matricNumber */\n      dup6\n        /* \"contracts/VeritasClinic.sol\":3344:3372  matricToIndex[_matricNumber] */\n      dup2\n      mstore\n      0x20\n      add\n      swap1\n      dup2\n      mstore\n      0x20\n      add\n      0x00\n      keccak256\n      sload\n        /* \"contracts/VeritasClinic.sol\":3344:3377  matricToIndex[_matricNumber] == 0 */\n      eq\n        /* \"contracts/VeritasClinic.sol\":3283:3377  matricToIndex[_matricNumber] == 0 && students.length == 0 || matricToIndex[_matricNumber] == 0 */\n    tag_237:\n        /* \"contracts/VeritasClinic.sol\":3275:3428  require(matricToIndex[_matricNumber] == 0 && students.length == 0 || matricToIndex[_matricNumber] == 0, ... */\n      tag_238\n      jumpi\n      mload(0x40)\n      0x08c379a000000000000000000000000000000000000000000000000000000000\n      dup2\n      mstore\n      0x04\n      add\n      tag_239\n      swap1\n      tag_240\n      jump\t// in\n    tag_239:\n      mload(0x40)\n      dup1\n      swap2\n      sub\n      swap1\n      revert\n    tag_238:\n        /* \"contracts/VeritasClinic.sol\":3441:3459  uint256 accessCode */\n      0x00\n        /* \"contracts/VeritasClinic.sol\":3462:3492  generateRandomCode(msg.sender) */\n      tag_241\n        /* \"contracts/VeritasClinic.sol\":3481:3491  msg.sender */\n      caller\n        /* \"contracts/VeritasClinic.sol\":3462:3480  generateRandomCode */\n      tag_179\n        /* \"contracts/VeritasClinic.sol\":3462:3492  generateRandomCode(msg.sender) */\n      jump\t// in\n    tag_241:\n        /* \"contracts/VeritasClinic.sol\":3441:3492  uint256 accessCode = generateRandomCode(msg.sender) */\n      swap1\n      pop\n        /* \"contracts/VeritasClinic.sol\":3513:3538  Student memory newStudent */\n      0x00\n        /* \"contracts/VeritasClinic.sol\":3541:3894  Student({... */\n      mload(0x40)\n      dup1\n      0x0120\n      add\n      0x40\n      mstore\n      dup1\n        /* \"contracts/VeritasClinic.sol\":3577:3587  msg.sender */\n      caller\n        /* \"contracts/VeritasClinic.sol\":3541:3894  Student({... */\n      0xffffffffffffffffffffffffffffffffffffffff\n      and\n      dup2\n      mstore\n      0x20\n      add\n        /* \"contracts/VeritasClinic.sol\":3608:3613  _name */\n      dup8\n        /* \"contracts/VeritasClinic.sol\":3541:3894  Student({... */\n      dup2\n      mstore\n      0x20\n      add\n        /* \"contracts/VeritasClinic.sol\":3642:3655  _matricNumber */\n      dup7\n        /* \"contracts/VeritasClinic.sol\":3541:3894  Student({... */\n      dup2\n      mstore\n      0x20\n      add\n        /* \"contracts/VeritasClinic.sol\":3679:3687  _regDate */\n      dup6\n        /* \"contracts/VeritasClinic.sol\":3541:3894  Student({... */\n      dup2\n      mstore\n      0x20\n      add\n        /* \"contracts/VeritasClinic.sol\":3720:3737  _hostelRoomNumber */\n      dup5\n        /* \"contracts/VeritasClinic.sol\":3541:3894  Student({... */\n      dup2\n      mstore\n      0x20\n      add\n      mload(0x40)\n      dup1\n      0x20\n      add\n      0x40\n      mstore\n      dup1\n      0x00\n      dup2\n      mstore\n      pop\n      dup2\n      mstore\n      0x20\n      add\n        /* \"contracts/VeritasClinic.sol\":3795:3805  accessCode */\n      dup4\n        /* \"contracts/VeritasClinic.sol\":3541:3894  Student({... */\n      dup2\n      mstore\n      0x20\n      add\n        /* \"contracts/VeritasClinic.sol\":3835:3850  block.timestamp */\n      timestamp\n        /* \"contracts/VeritasClinic.sol\":3541:3894  Student({... */\n      dup2\n      mstore\n      0x20\n      add\n        /* \"contracts/VeritasClinic.sol\":3877:3882  false */\n      0x00\n        /* \"contracts/VeritasClinic.sol\":3541:3894  Student({... */\n      iszero\n      iszero\n      dup2\n      mstore\n      pop\n        /* \"contracts/VeritasClinic.sol\":3513:3894  Student memory newStudent = Student({... */\n      swap1\n      pop\n        /* \"contracts/VeritasClinic.sol\":3907:3915  students */\n      0x00\n        /* \"contracts/VeritasClinic.sol\":3921:3931  newStudent */\n      dup2\n        /* \"contracts/VeritasClinic.sol\":3907:3932  students.push(newStudent) */\n      swap1\n      dup1\n      0x01\n      dup2\n      sload\n      add\n      dup1\n      dup3\n      sstore\n      dup1\n      swap2\n      pop\n      pop\n      0x01\n      swap1\n      sub\n      swap1\n      0x00\n      mstore\n      keccak256(0x00, 0x20)\n      swap1\n      0x09\n      mul\n      add\n      0x00\n      swap1\n      swap2\n      swap1\n      swap2\n      swap1\n      swap2\n      pop\n      0x00\n      dup3\n      add\n      mload\n      dup2\n      0x00\n      add\n      exp(0x0100, 0x00)\n      dup2\n      sload\n      dup2\n      0xffffffffffffffffffffffffffffffffffffffff\n      mul\n      not\n      and\n      swap1\n      dup4\n      0xffffffffffffffffffffffffffffffffffffffff\n      and\n      mul\n      or\n      swap1\n      sstore\n      pop\n      0x20\n      dup3\n      add\n      mload\n      dup2\n      0x01\n      add\n      swap1\n      dup2\n      tag_243\n      swap2\n      swap1\n      tag_142\n      jump\t// in\n    tag_243:\n      pop\n      0x40\n      dup3\n      add\n      mload\n      dup2\n      0x02\n      add\n      sstore\n      0x60\n      dup3\n      add\n      mload\n      dup2\n      0x03\n      add\n      sstore\n      0x80\n      dup3\n      add\n      mload\n      dup2\n      0x04\n      add\n      swap1\n      dup2\n      tag_244\n      swap2\n      swap1\n      tag_142\n      jump\t// in\n    tag_244:\n      pop\n      0xa0\n      dup3\n      add\n      mload\n      dup2\n      0x05\n      add\n      swap1\n      dup2\n      tag_245\n      swap2\n      swap1\n      tag_142\n      jump\t// in\n    tag_245:\n      pop\n      0xc0\n      dup3\n      add\n      mload\n      dup2\n      0x06\n      add\n      sstore\n      0xe0\n      dup3\n      add\n      mload\n      dup2\n      0x07\n      add\n      sstore\n      0x0100\n      dup3\n      add\n      mload\n      dup2\n      0x08\n      add\n      exp(0x0100, 0x00)\n      dup2\n      sload\n      dup2\n      0xff\n      mul\n      not\n      and\n      swap1\n      dup4\n      iszero\n      iszero\n      mul\n      or\n      swap1\n      sstore\n      pop\n      pop\n      pop\n        /* \"contracts/VeritasClinic.sol\":3988:3989  1 */\n      0x01\n        /* \"contracts/VeritasClinic.sol\":3970:3978  students */\n      0x00\n        /* \"contracts/VeritasClinic.sol\":3970:3985  students.length */\n      dup1\n      sload\n      swap1\n      pop\n        /* \"contracts/VeritasClinic.sol\":3970:3989  students.length - 1 */\n      tag_246\n      swap2\n      swap1\n      tag_211\n      jump\t// in\n    tag_246:\n        /* \"contracts/VeritasClinic.sol\":3943:3955  studentIndex */\n      0x03\n        /* \"contracts/VeritasClinic.sol\":3943:3967  studentIndex[msg.sender] */\n      0x00\n        /* \"contracts/VeritasClinic.sol\":3956:3966  msg.sender */\n      caller\n        /* \"contracts/VeritasClinic.sol\":3943:3967  studentIndex[msg.sender] */\n      0xffffffffffffffffffffffffffffffffffffffff\n      and\n      0xffffffffffffffffffffffffffffffffffffffff\n      and\n      dup2\n      mstore\n      0x20\n      add\n      swap1\n      dup2\n      mstore\n      0x20\n      add\n      0x00\n      keccak256\n        /* \"contracts/VeritasClinic.sol\":3943:3989  studentIndex[msg.sender] = students.length - 1 */\n      dup2\n      swap1\n      sstore\n      pop\n        /* \"contracts/VeritasClinic.sol\":4049:4050  1 */\n      0x01\n        /* \"contracts/VeritasClinic.sol\":4031:4039  students */\n      0x00\n        /* \"contracts/VeritasClinic.sol\":4031:4046  students.length */\n      dup1\n      sload\n      swap1\n      pop\n        /* \"contracts/VeritasClinic.sol\":4031:4050  students.length - 1 */\n      tag_247\n      swap2\n      swap1\n      tag_211\n      jump\t// in\n    tag_247:\n        /* \"contracts/VeritasClinic.sol\":4000:4013  matricToIndex */\n      0x04\n        /* \"contracts/VeritasClinic.sol\":4000:4028  matricToIndex[_matricNumber] */\n      0x00\n        /* \"contracts/VeritasClinic.sol\":4014:4027  _matricNumber */\n      dup8\n        /* \"contracts/VeritasClinic.sol\":4000:4028  matricToIndex[_matricNumber] */\n      dup2\n      mstore\n      0x20\n      add\n      swap1\n      dup2\n      mstore\n      0x20\n      add\n      0x00\n      keccak256\n        /* \"contracts/VeritasClinic.sol\":4000:4050  matricToIndex[_matricNumber] = students.length - 1 */\n      dup2\n      swap1\n      sstore\n      pop\n        /* \"contracts/VeritasClinic.sol\":4085:4089  true */\n      0x01\n        /* \"contracts/VeritasClinic.sol\":4061:4070  isStudent */\n      0x06\n        /* \"contracts/VeritasClinic.sol\":4061:4082  isStudent[msg.sender] */\n      0x00\n        /* \"contracts/VeritasClinic.sol\":4071:4081  msg.sender */\n      caller\n        /* \"contracts/VeritasClinic.sol\":4061:4082  isStudent[msg.sender] */\n      0xffffffffffffffffffffffffffffffffffffffff\n      and\n      0xffffffffffffffffffffffffffffffffffffffff\n      and\n      dup2\n      mstore\n      0x20\n      add\n      swap1\n      dup2\n      mstore\n      0x20\n      add\n      0x00\n      keccak256\n      0x00\n        /* \"contracts/VeritasClinic.sol\":4061:4089  isStudent[msg.sender] = true */\n      0x0100\n      exp\n      dup2\n      sload\n      dup2\n      0xff\n      mul\n      not\n      and\n      swap1\n      dup4\n      iszero\n      iszero\n      mul\n      or\n      swap1\n      sstore\n      pop\n        /* \"contracts/VeritasClinic.sol\":4125:4135  msg.sender */\n      caller\n        /* \"contracts/VeritasClinic.sol\":4107:4151  StudentRegistered(msg.sender, _matricNumber) */\n      0xffffffffffffffffffffffffffffffffffffffff\n      and\n      0xf6557c3f758aba81a6954691eb0b4408d0e837b55d6fa550b1576e6292a9106c\n        /* \"contracts/VeritasClinic.sol\":4137:4150  _matricNumber */\n      dup7\n        /* \"contracts/VeritasClinic.sol\":4107:4151  StudentRegistered(msg.sender, _matricNumber) */\n      mload(0x40)\n      tag_248\n      swap2\n      swap1\n      tag_29\n      jump\t// in\n    tag_248:\n      mload(0x40)\n      dup1\n      swap2\n      sub\n      swap1\n      log2\n        /* \"contracts/VeritasClinic.sol\":4187:4197  msg.sender */\n      caller\n        /* \"contracts/VeritasClinic.sol\":4167:4210  AccessCodeGenerated(msg.sender, accessCode) */\n      0xffffffffffffffffffffffffffffffffffffffff\n      and\n      0x511f82b4a6612092391a59ddbe0940faeaef8c62498f9a2e7495af8770f0ef4f\n        /* \"contracts/VeritasClinic.sol\":4199:4209  accessCode */\n      dup4\n        /* \"contracts/VeritasClinic.sol\":4167:4210  AccessCodeGenerated(msg.sender, accessCode) */\n      mload(0x40)\n      tag_249\n      swap2\n      swap1\n      tag_29\n      jump\t// in\n    tag_249:\n      mload(0x40)\n      dup1\n      swap2\n      sub\n      swap1\n      log2\n        /* \"contracts/VeritasClinic.sol\":2945:4218  {... */\n      pop\n      pop\n        /* \"contracts/VeritasClinic.sol\":2775:4218  function registerStudent(... */\n      pop\n      pop\n      pop\n      pop\n      jump\t// out\n        /* \"contracts/VeritasClinic.sol\":8102:9018  function getStudent(address _patientAddr) public view returns (... */\n    tag_45:\n        /* \"contracts/VeritasClinic.sol\":8175:8193  string memory name */\n      0x60\n        /* \"contracts/VeritasClinic.sol\":8204:8224  uint256 matricNumber */\n      0x00\n        /* \"contracts/VeritasClinic.sol\":8235:8250  uint256 regDate */\n      dup1\n        /* \"contracts/VeritasClinic.sol\":8261:8291  string memory hostelRoomNumber */\n      0x60\n        /* \"contracts/VeritasClinic.sol\":8302:8328  string memory healthRecord */\n      dup1\n        /* \"contracts/VeritasClinic.sol\":8339:8357  uint256 accessCode */\n      0x00\n        /* \"contracts/VeritasClinic.sol\":8368:8383  bool isAdmitted */\n      dup1\n        /* \"contracts/VeritasClinic.sol\":8410:8419  isStudent */\n      0x06\n        /* \"contracts/VeritasClinic.sol\":8410:8433  isStudent[_patientAddr] */\n      0x00\n        /* \"contracts/VeritasClinic.sol\":8420:8432  _patientAddr */\n      dup10\n        /* \"contracts/VeritasClinic.sol\":8410:8433  isStudent[_patientAddr] */\n      0xffffffffffffffffffffffffffffffffffffffff\n      and\n      0xffffffffffffffffffffffffffffffffffffffff\n      and\n      dup2\n      mstore\n      0x20\n      add\n      swap1\n      dup2\n      mstore\n      0x20\n      add\n      0x00\n      keccak256\n      0x00\n      swap1\n      sload\n      swap1\n      0x0100\n      exp\n      swap1\n      div\n      0xff\n      and\n        /* \"contracts/VeritasClinic.sol\":8402:8460  require(isStudent[_patientAddr], \"Student not registered\") */\n      tag_251\n      jumpi\n      mload(0x40)\n      0x08c379a000000000000000000000000000000000000000000000000000000000\n      dup2\n      mstore\n      0x04\n      add\n      tag_252\n      swap1\n      tag_253\n      jump\t// in\n    tag_252:\n      mload(0x40)\n      dup1\n      swap2\n      sub\n      swap1\n      revert\n    tag_251:\n        /* \"contracts/VeritasClinic.sol\":8471:8484  uint256 index */\n      0x00\n        /* \"contracts/VeritasClinic.sol\":8487:8499  studentIndex */\n      0x03\n        /* \"contracts/VeritasClinic.sol\":8487:8513  studentIndex[_patientAddr] */\n      0x00\n        /* \"contracts/VeritasClinic.sol\":8500:8512  _patientAddr */\n      dup11\n        /* \"contracts/VeritasClinic.sol\":8487:8513  studentIndex[_patientAddr] */\n      0xffffffffffffffffffffffffffffffffffffffff\n      and\n      0xffffffffffffffffffffffffffffffffffffffff\n      and\n      dup2\n      mstore\n      0x20\n      add\n      swap1\n      dup2\n      mstore\n      0x20\n      add\n      0x00\n      keccak256\n      sload\n        /* \"contracts/VeritasClinic.sol\":8471:8513  uint256 index = studentIndex[_patientAddr] */\n      swap1\n      pop\n        /* \"contracts/VeritasClinic.sol\":8524:8546  Student memory student */\n      0x00\n        /* \"contracts/VeritasClinic.sol\":8549:8557  students */\n      dup1\n        /* \"contracts/VeritasClinic.sol\":8558:8563  index */\n      dup3\n        /* \"contracts/VeritasClinic.sol\":8549:8564  students[index] */\n      dup2\n      sload\n      dup2\n      lt\n      tag_254\n      jumpi\n      tag_255\n      tag_92\n      jump\t// in\n    tag_255:\n    tag_254:\n      swap1\n      0x00\n      mstore\n      keccak256(0x00, 0x20)\n      swap1\n      0x09\n      mul\n      add\n        /* \"contracts/VeritasClinic.sol\":8524:8564  Student memory student = students[index] */\n      mload(0x40)\n      dup1\n      0x0120\n      add\n      0x40\n      mstore\n      swap1\n      dup2\n      0x00\n      dup3\n      add\n      0x00\n      swap1\n      sload\n      swap1\n      0x0100\n      exp\n      swap1\n      div\n      0xffffffffffffffffffffffffffffffffffffffff\n      and\n      0xffffffffffffffffffffffffffffffffffffffff\n      and\n      0xffffffffffffffffffffffffffffffffffffffff\n      and\n      dup2\n      mstore\n      0x20\n      add\n      0x01\n      dup3\n      add\n      dup1\n      sload\n      tag_257\n      swap1\n      tag_74\n      jump\t// in\n    tag_257:\n      dup1\n      0x1f\n      add\n      0x20\n      dup1\n      swap2\n      div\n      mul\n      0x20\n      add\n      mload(0x40)\n      swap1\n      dup2\n      add\n      0x40\n      mstore\n      dup1\n      swap3\n      swap2\n      swap1\n      dup2\n      dup2\n      mstore\n      0x20\n      add\n      dup3\n      dup1\n      sload\n      tag_258\n      swap1\n      tag_74\n      jump\t// in\n    tag_258:\n      dup1\n      iszero\n      tag_259\n      jumpi\n      dup1\n      0x1f\n      lt\n      tag_260\n      jumpi\n      0x0100\n      dup1\n      dup4\n      sload\n      div\n      mul\n      dup4\n      mstore\n      swap2\n      0x20\n      add\n      swap2\n      jump(tag_259)\n    tag_260:\n      dup3\n      add\n      swap2\n      swap1\n      0x00\n      mstore\n      keccak256(0x00, 0x20)\n      swap1\n    tag_261:\n      dup2\n      sload\n      dup2\n      mstore\n      swap1\n      0x01\n      add\n      swap1\n      0x20\n      add\n      dup1\n      dup4\n      gt\n      tag_261\n      jumpi\n      dup3\n      swap1\n      sub\n      0x1f\n      and\n      dup3\n      add\n      swap2\n    tag_259:\n      pop\n      pop\n      pop\n      pop\n      pop\n      dup2\n      mstore\n      0x20\n      add\n      0x02\n      dup3\n      add\n      sload\n      dup2\n      mstore\n      0x20\n      add\n      0x03\n      dup3\n      add\n      sload\n      dup2\n      mstore\n      0x20\n      add\n      0x04\n      dup3\n      add\n      dup1\n      sload\n      tag_262\n      swap1\n      tag_74\n      jump\t// in\n    tag_262:\n      dup1\n      0x1f\n      add\n      0x20\n      dup1\n      swap2\n      div\n      mul\n      0x20\n      add\n      mload(0x40)\n      swap1\n      dup2\n      add\n      0x40\n      mstore\n      dup1\n      swap3\n      swap2\n      swap1\n      dup2\n      dup2\n      mstore\n      0x20\n      add\n      dup3\n      dup1\n      sload\n      tag_263\n      swap1\n      tag_74\n      jump\t// in\n    tag_263:\n      dup1\n      iszero\n      tag_264\n      jumpi\n      dup1\n      0x1f\n      lt\n      tag_265\n      jumpi\n      0x0100\n      dup1\n      dup4\n      sload\n      div\n      mul\n      dup4\n      mstore\n      swap2\n      0x20\n      add\n      swap2\n      jump(tag_264)\n    tag_265:\n      dup3\n      add\n      swap2\n      swap1\n      0x00\n      mstore\n      keccak256(0x00, 0x20)\n      swap1\n    tag_266:\n      dup2\n      sload\n      dup2\n      mstore\n      swap1\n      0x01\n      add\n      swap1\n      0x20\n      add\n      dup1\n      dup4\n      gt\n      tag_266\n      jumpi\n      dup3\n      swap1\n      sub\n      0x1f\n      and\n      dup3\n      add\n      swap2\n    tag_264:\n      pop\n      pop\n      pop\n      pop\n      pop\n      dup2\n      mstore\n      0x20\n      add\n      0x05\n      dup3\n      add\n      dup1\n      sload\n      tag_267\n      swap1\n      tag_74\n      jump\t// in\n    tag_267:\n      dup1\n      0x1f\n      add\n      0x20\n      dup1\n      swap2\n      div\n      mul\n      0x20\n      add\n      mload(0x40)\n      swap1\n      dup2\n      add\n      0x40\n      mstore\n      dup1\n      swap3\n      swap2\n      swap1\n      dup2\n      dup2\n      mstore\n      0x20\n      add\n      dup3\n      dup1\n      sload\n      tag_268\n      swap1\n      tag_74\n      jump\t// in\n    tag_268:\n      dup1\n      iszero\n      tag_269\n      jumpi\n      dup1\n      0x1f\n      lt\n      tag_270\n      jumpi\n      0x0100\n      dup1\n      dup4\n      sload\n      div\n      mul\n      dup4\n      mstore\n      swap2\n      0x20\n      add\n      swap2\n      jump(tag_269)\n    tag_270:\n      dup3\n      add\n      swap2\n      swap1\n      0x00\n      mstore\n      keccak256(0x00, 0x20)\n      swap1\n    tag_271:\n      dup2\n      sload\n      dup2\n      mstore\n      swap1\n      0x01\n      add\n      swap1\n      0x20\n      add\n      dup1\n      dup4\n      gt\n      tag_271\n      jumpi\n      dup3\n      swap1\n      sub\n      0x1f\n      and\n      dup3\n      add\n      swap2\n    tag_269:\n      pop\n      pop\n      pop\n      pop\n      pop\n      dup2\n      mstore\n      0x20\n      add\n      0x06\n      dup3\n      add\n      sload\n      dup2\n      mstore\n      0x20\n      add\n      0x07\n      dup3\n      add\n      sload\n      dup2\n      mstore\n      0x20\n      add\n      0x08\n      dup3\n      add\n      0x00\n      swap1\n      sload\n      swap1\n      0x0100\n      exp\n      swap1\n      div\n      0xff\n      and\n      iszero\n      iszero\n      iszero\n      iszero\n      dup2\n      mstore\n      pop\n      pop\n      swap1\n      pop\n        /* \"contracts/VeritasClinic.sol\":8585:8597  uint256 code */\n      0x00\n        /* \"contracts/VeritasClinic.sol\":8615:8627  _patientAddr */\n      dup11\n        /* \"contracts/VeritasClinic.sol\":8601:8627  msg.sender == _patientAddr */\n      0xffffffffffffffffffffffffffffffffffffffff\n      and\n        /* \"contracts/VeritasClinic.sol\":8601:8611  msg.sender */\n      caller\n        /* \"contracts/VeritasClinic.sol\":8601:8627  msg.sender == _patientAddr */\n      0xffffffffffffffffffffffffffffffffffffffff\n      and\n      eq\n        /* \"contracts/VeritasClinic.sol\":8601:8710  msg.sender == _patientAddr && ... */\n      dup1\n      iszero\n      tag_272\n      jumpi\n      pop\n        /* \"contracts/VeritasClinic.sol\":1477:1487  30 minutes */\n      0x0708\n        /* \"contracts/VeritasClinic.sol\":8675:8682  student */\n      dup3\n        /* \"contracts/VeritasClinic.sol\":8675:8696  student.codeTimestamp */\n      0xe0\n      add\n      mload\n        /* \"contracts/VeritasClinic.sol\":8675:8710  student.codeTimestamp + CODE_EXPIRY */\n      tag_273\n      swap2\n      swap1\n      tag_114\n      jump\t// in\n    tag_273:\n        /* \"contracts/VeritasClinic.sol\":8656:8671  block.timestamp */\n      timestamp\n        /* \"contracts/VeritasClinic.sol\":8656:8710  block.timestamp <= student.codeTimestamp + CODE_EXPIRY */\n      gt\n      iszero\n        /* \"contracts/VeritasClinic.sol\":8601:8710  msg.sender == _patientAddr && ... */\n    tag_272:\n        /* \"contracts/VeritasClinic.sol\":8600:8761  (msg.sender == _patientAddr && ... */\n      tag_274\n      jumpi\n        /* \"contracts/VeritasClinic.sol\":8760:8761  0 */\n      0x00\n        /* \"contracts/VeritasClinic.sol\":8600:8761  (msg.sender == _patientAddr && ... */\n      jump(tag_275)\n    tag_274:\n        /* \"contracts/VeritasClinic.sol\":8739:8746  student */\n      dup2\n        /* \"contracts/VeritasClinic.sol\":8739:8757  student.accessCode */\n      0xc0\n      add\n      mload\n        /* \"contracts/VeritasClinic.sol\":8600:8761  (msg.sender == _patientAddr && ... */\n    tag_275:\n        /* \"contracts/VeritasClinic.sol\":8585:8761  uint256 code = (msg.sender == _patientAddr && ... */\n      swap1\n      pop\n        /* \"contracts/VeritasClinic.sol\":8796:8803  student */\n      dup2\n        /* \"contracts/VeritasClinic.sol\":8796:8808  student.name */\n      0x20\n      add\n      mload\n        /* \"contracts/VeritasClinic.sol\":8823:8830  student */\n      dup3\n        /* \"contracts/VeritasClinic.sol\":8823:8843  student.matricNumber */\n      0x40\n      add\n      mload\n        /* \"contracts/VeritasClinic.sol\":8858:8865  student */\n      dup4\n        /* \"contracts/VeritasClinic.sol\":8858:8873  student.regDate */\n      0x60\n      add\n      mload\n        /* \"contracts/VeritasClinic.sol\":8888:8895  student */\n      dup5\n        /* \"contracts/VeritasClinic.sol\":8888:8912  student.hostelRoomNumber */\n      0x80\n      add\n      mload\n        /* \"contracts/VeritasClinic.sol\":8927:8934  student */\n      dup6\n        /* \"contracts/VeritasClinic.sol\":8927:8947  student.healthRecord */\n      0xa0\n      add\n      mload\n        /* \"contracts/VeritasClinic.sol\":8962:8966  code */\n      dup6\n        /* \"contracts/VeritasClinic.sol\":8981:8988  student */\n      dup8\n        /* \"contracts/VeritasClinic.sol\":8981:8999  student.isAdmitted */\n      0x0100\n      add\n      mload\n        /* \"contracts/VeritasClinic.sol\":8774:9010  return (... */\n      swap10\n      pop\n      swap10\n      pop\n      swap10\n      pop\n      swap10\n      pop\n      swap10\n      pop\n      swap10\n      pop\n      swap10\n      pop\n      pop\n      pop\n      pop\n        /* \"contracts/VeritasClinic.sol\":8102:9018  function getStudent(address _patientAddr) public view returns (... */\n      swap2\n      swap4\n      swap6\n      swap8\n      swap1\n      swap3\n      swap5\n      swap7\n      pop\n      jump\t// out\n        /* \"contracts/VeritasClinic.sol\":10662:10755  function getStaffCount() public view returns (uint256) {... */\n    tag_49:\n        /* \"contracts/VeritasClinic.sol\":10708:10715  uint256 */\n      0x00\n        /* \"contracts/VeritasClinic.sol\":10735:10740  staff */\n      0x01\n        /* \"contracts/VeritasClinic.sol\":10735:10747  staff.length */\n      dup1\n      sload\n      swap1\n      pop\n        /* \"contracts/VeritasClinic.sol\":10728:10747  return staff.length */\n      swap1\n      pop\n        /* \"contracts/VeritasClinic.sol\":10662:10755  function getStaffCount() public view returns (uint256) {... */\n      swap1\n      jump\t// out\n        /* \"contracts/VeritasClinic.sol\":10808:11187  function getPrescriptionCount(address _recipient) public view returns (uint256) {... */\n    tag_53:\n        /* \"contracts/VeritasClinic.sol\":10879:10886  uint256 */\n      0x00\n        /* \"contracts/VeritasClinic.sol\":10907:10914  isStaff */\n      0x07\n        /* \"contracts/VeritasClinic.sol\":10907:10926  isStaff[_recipient] */\n      0x00\n        /* \"contracts/VeritasClinic.sol\":10915:10925  _recipient */\n      dup4\n        /* \"contracts/VeritasClinic.sol\":10907:10926  isStaff[_recipient] */\n      0xffffffffffffffffffffffffffffffffffffffff\n      and\n      0xffffffffffffffffffffffffffffffffffffffff\n      and\n      dup2\n      mstore\n      0x20\n      add\n      swap1\n      dup2\n      mstore\n      0x20\n      add\n      0x00\n      keccak256\n      0x00\n      swap1\n      sload\n      swap1\n      0x0100\n      exp\n      swap1\n      div\n      0xff\n      and\n        /* \"contracts/VeritasClinic.sol\":10899:10953  require(isStaff[_recipient], \"Not a registered staff\") */\n      tag_278\n      jumpi\n      mload(0x40)\n      0x08c379a000000000000000000000000000000000000000000000000000000000\n      dup2\n      mstore\n      0x04\n      add\n      tag_279\n      swap1\n      tag_280\n      jump\t// in\n    tag_279:\n      mload(0x40)\n      dup1\n      swap2\n      sub\n      swap1\n      revert\n    tag_278:\n        /* \"contracts/VeritasClinic.sol\":10964:10977  uint256 count */\n      0x00\n        /* \"contracts/VeritasClinic.sol\":10997:11006  uint256 i */\n      dup1\n        /* \"contracts/VeritasClinic.sol\":10992:11157  for (uint256 i = 0; i < prescriptions.length; i++) {... */\n    tag_281:\n        /* \"contracts/VeritasClinic.sol\":11016:11029  prescriptions */\n      0x02\n        /* \"contracts/VeritasClinic.sol\":11016:11036  prescriptions.length */\n      dup1\n      sload\n      swap1\n      pop\n        /* \"contracts/VeritasClinic.sol\":11012:11013  i */\n      dup2\n        /* \"contracts/VeritasClinic.sol\":11012:11036  i < prescriptions.length */\n      lt\n        /* \"contracts/VeritasClinic.sol\":10992:11157  for (uint256 i = 0; i < prescriptions.length; i++) {... */\n      iszero\n      tag_282\n      jumpi\n        /* \"contracts/VeritasClinic.sol\":11092:11102  _recipient */\n      dup4\n        /* \"contracts/VeritasClinic.sol\":11062:11102  prescriptions[i].recipient == _recipient */\n      0xffffffffffffffffffffffffffffffffffffffff\n      and\n        /* \"contracts/VeritasClinic.sol\":11062:11075  prescriptions */\n      0x02\n        /* \"contracts/VeritasClinic.sol\":11076:11077  i */\n      dup3\n        /* \"contracts/VeritasClinic.sol\":11062:11078  prescriptions[i] */\n      dup2\n      sload\n      dup2\n      lt\n      tag_284\n      jumpi\n      tag_285\n      tag_92\n      jump\t// in\n    tag_285:\n    tag_284:\n      swap1\n      0x00\n      mstore\n      keccak256(0x00, 0x20)\n      swap1\n      0x05\n      mul\n      add\n        /* \"contracts/VeritasClinic.sol\":11062:11088  prescriptions[i].recipient */\n      0x03\n      add\n      0x00\n      swap1\n      sload\n      swap1\n      0x0100\n      exp\n      swap1\n      div\n      0xffffffffffffffffffffffffffffffffffffffff\n      and\n        /* \"contracts/VeritasClinic.sol\":11062:11102  prescriptions[i].recipient == _recipient */\n      0xffffffffffffffffffffffffffffffffffffffff\n      and\n      sub\n        /* \"contracts/VeritasClinic.sol\":11058:11146  if (prescriptions[i].recipient == _recipient) {... */\n      tag_287\n      jumpi\n        /* \"contracts/VeritasClinic.sol\":11123:11130  count++ */\n      dup2\n      dup1\n      tag_288\n      swap1\n      tag_289\n      jump\t// in\n    tag_288:\n      swap3\n      pop\n      pop\n        /* \"contracts/VeritasClinic.sol\":11058:11146  if (prescriptions[i].recipient == _recipient) {... */\n    tag_287:\n        /* \"contracts/VeritasClinic.sol\":11038:11041  i++ */\n      dup1\n      dup1\n      0x01\n      add\n      swap2\n      pop\n      pop\n        /* \"contracts/VeritasClinic.sol\":10992:11157  for (uint256 i = 0; i < prescriptions.length; i++) {... */\n      jump(tag_281)\n    tag_282:\n      pop\n        /* \"contracts/VeritasClinic.sol\":11174:11179  count */\n      dup1\n        /* \"contracts/VeritasClinic.sol\":11167:11179  return count */\n      swap2\n      pop\n      pop\n        /* \"contracts/VeritasClinic.sol\":10808:11187  function getPrescriptionCount(address _recipient) public view returns (uint256) {... */\n      swap2\n      swap1\n      pop\n      jump\t// out\n        /* \"contracts/VeritasClinic.sol\":9206:9601  function getStaff(address _staffAddr) public view returns (... */\n    tag_57:\n        /* \"contracts/VeritasClinic.sol\":9275:9293  string memory name */\n      0x60\n        /* \"contracts/VeritasClinic.sol\":9304:9322  string memory role */\n      dup1\n        /* \"contracts/VeritasClinic.sol\":9349:9356  isStaff */\n      0x07\n        /* \"contracts/VeritasClinic.sol\":9349:9368  isStaff[_staffAddr] */\n      0x00\n        /* \"contracts/VeritasClinic.sol\":9357:9367  _staffAddr */\n      dup5\n        /* \"contracts/VeritasClinic.sol\":9349:9368  isStaff[_staffAddr] */\n      0xffffffffffffffffffffffffffffffffffffffff\n      and\n      0xffffffffffffffffffffffffffffffffffffffff\n      and\n      dup2\n      mstore\n      0x20\n      add\n      swap1\n      dup2\n      mstore\n      0x20\n      add\n      0x00\n      keccak256\n      0x00\n      swap1\n      sload\n      swap1\n      0x0100\n      exp\n      swap1\n      div\n      0xff\n      and\n        /* \"contracts/VeritasClinic.sol\":9341:9393  require(isStaff[_staffAddr], \"Staff not registered\") */\n      tag_291\n      jumpi\n      mload(0x40)\n      0x08c379a000000000000000000000000000000000000000000000000000000000\n      dup2\n      mstore\n      0x04\n      add\n      tag_292\n      swap1\n      tag_293\n      jump\t// in\n    tag_292:\n      mload(0x40)\n      dup1\n      swap2\n      sub\n      swap1\n      revert\n    tag_291:\n        /* \"contracts/VeritasClinic.sol\":9404:9417  uint256 index */\n      0x00\n        /* \"contracts/VeritasClinic.sol\":9420:9430  staffIndex */\n      0x05\n        /* \"contracts/VeritasClinic.sol\":9420:9442  staffIndex[_staffAddr] */\n      0x00\n        /* \"contracts/VeritasClinic.sol\":9431:9441  _staffAddr */\n      dup6\n        /* \"contracts/VeritasClinic.sol\":9420:9442  staffIndex[_staffAddr] */\n      0xffffffffffffffffffffffffffffffffffffffff\n      and\n      0xffffffffffffffffffffffffffffffffffffffff\n      and\n      dup2\n      mstore\n      0x20\n      add\n      swap1\n      dup2\n      mstore\n      0x20\n      add\n      0x00\n      keccak256\n      sload\n        /* \"contracts/VeritasClinic.sol\":9404:9442  uint256 index = staffIndex[_staffAddr] */\n      swap1\n      pop\n        /* \"contracts/VeritasClinic.sol\":9453:9477  Staff memory staffMember */\n      0x00\n        /* \"contracts/VeritasClinic.sol\":9480:9485  staff */\n      0x01\n        /* \"contracts/VeritasClinic.sol\":9486:9491  index */\n      dup3\n        /* \"contracts/VeritasClinic.sol\":9480:9492  staff[index] */\n      dup2\n      sload\n      dup2\n      lt\n      tag_294\n      jumpi\n      tag_295\n      tag_92\n      jump\t// in\n    tag_295:\n    tag_294:\n      swap1\n      0x00\n      mstore\n      keccak256(0x00, 0x20)\n      swap1\n      0x03\n      mul\n      add\n        /* \"contracts/VeritasClinic.sol\":9453:9492  Staff memory staffMember = staff[index] */\n      mload(0x40)\n      dup1\n      0x60\n      add\n      0x40\n      mstore\n      swap1\n      dup2\n      0x00\n      dup3\n      add\n      0x00\n      swap1\n      sload\n      swap1\n      0x0100\n      exp\n      swap1\n      div\n      0xffffffffffffffffffffffffffffffffffffffff\n      and\n      0xffffffffffffffffffffffffffffffffffffffff\n      and\n      0xffffffffffffffffffffffffffffffffffffffff\n      and\n      dup2\n      mstore\n      0x20\n      add\n      0x01\n      dup3\n      add\n      dup1\n      sload\n      tag_297\n      swap1\n      tag_74\n      jump\t// in\n    tag_297:\n      dup1\n      0x1f\n      add\n      0x20\n      dup1\n      swap2\n      div\n      mul\n      0x20\n      add\n      mload(0x40)\n      swap1\n      dup2\n      add\n      0x40\n      mstore\n      dup1\n      swap3\n      swap2\n      swap1\n      dup2\n      dup2\n      mstore\n      0x20\n      add\n      dup3\n      dup1\n      sload\n      tag_298\n      swap1\n      tag_74\n      jump\t// in\n    tag_298:\n      dup1\n      iszero\n      tag_299\n      jumpi\n      dup1\n      0x1f\n      lt\n      tag_300\n      jumpi\n      0x0100\n      dup1\n      dup4\n      sload\n      div\n      mul\n      dup4\n      mstore\n      swap2\n      0x20\n      add\n      swap2\n      jump(tag_299)\n    tag_300:\n      dup3\n      add\n      swap2\n      swap1\n      0x00\n      mstore\n      keccak256(0x00, 0x20)\n      swap1\n    tag_301:\n      dup2\n      sload\n      dup2\n      mstore\n      swap1\n      0x01\n      add\n      swap1\n      0x20\n      add\n      dup1\n      dup4\n      gt\n      tag_301\n      jumpi\n      dup3\n      swap1\n      sub\n      0x1f\n      and\n      dup3\n      add\n      swap2\n    tag_299:\n      pop\n      pop\n      pop\n      pop\n      pop\n      dup2\n      mstore\n      0x20\n      add\n      0x02\n      dup3\n      add\n      dup1\n      sload\n      tag_302\n      swap1\n      tag_74\n      jump\t// in\n    tag_302:\n      dup1\n      0x1f\n      add\n      0x20\n      dup1\n      swap2\n      div\n      mul\n      0x20\n      add\n      mload(0x40)\n      swap1\n      dup2\n      add\n      0x40\n      mstore\n      dup1\n      swap3\n      swap2\n      swap1\n      dup2\n      dup2\n      mstore\n      0x20\n      add\n      dup3\n      dup1\n      sload\n      tag_303\n      swap1\n      tag_74\n      jump\t// in\n    tag_303:\n      dup1\n      iszero\n      tag_304\n      jumpi\n      dup1\n      0x1f\n      lt\n      tag_305\n      jumpi\n      0x0100\n      dup1\n      dup4\n      sload\n      div\n      mul\n      dup4\n      mstore\n      swap2\n      0x20\n      add\n      swap2\n      jump(tag_304)\n    tag_305:\n      dup3\n      add\n      swap2\n      swap1\n      0x00\n      mstore\n      keccak256(0x00, 0x20)\n      swap1\n    tag_306:\n      dup2\n      sload\n      dup2\n      mstore\n      swap1\n      0x01\n      add\n      swap1\n      0x20\n      add\n      dup1\n      dup4\n      gt\n      tag_306\n      jumpi\n      dup3\n      swap1\n      sub\n      0x1f\n      and\n      dup3\n      add\n      swap2\n    tag_304:\n      pop\n      pop\n      pop\n      pop\n      pop\n      dup2\n      mstore\n      pop\n      pop\n      swap1\n      pop\n        /* \"contracts/VeritasClinic.sol\":9535:9546  staffMember */\n      dup1\n        /* \"contracts/VeritasClinic.sol\":9535:9551  staffMember.name */\n      0x20\n      add\n      mload\n        /* \"contracts/VeritasClinic.sol\":9566:9577  staffMember */\n      dup2\n        /* \"contracts/VeritasClinic.sol\":9566:9582  staffMember.role */\n      0x40\n      add\n      mload\n        /* \"contracts/VeritasClinic.sol\":9513:9593  return (... */\n      swap4\n      pop\n      swap4\n      pop\n      pop\n      pop\n        /* \"contracts/VeritasClinic.sol\":9206:9601  function getStaff(address _staffAddr) public view returns (... */\n      swap2\n      pop\n      swap2\n      jump\t// out\n        /* \"contracts/VeritasClinic.sol\":7950:8049  function getAllStudents() public view returns (Student[] memory) {... */\n    tag_61:\n        /* \"contracts/VeritasClinic.sol\":7997:8013  Student[] memory */\n      0x60\n        /* \"contracts/VeritasClinic.sol\":8033:8041  students */\n      0x00\n        /* \"contracts/VeritasClinic.sol\":8026:8041  return students */\n      dup1\n      sload\n      dup1\n      0x20\n      mul\n      0x20\n      add\n      mload(0x40)\n      swap1\n      dup2\n      add\n      0x40\n      mstore\n      dup1\n      swap3\n      swap2\n      swap1\n      dup2\n      dup2\n      mstore\n      0x20\n      add\n      0x00\n      swap1\n    tag_308:\n      dup3\n      dup3\n      lt\n      iszero\n      tag_309\n      jumpi\n      dup4\n      dup3\n      swap1\n      0x00\n      mstore\n      keccak256(0x00, 0x20)\n      swap1\n      0x09\n      mul\n      add\n      mload(0x40)\n      dup1\n      0x0120\n      add\n      0x40\n      mstore\n      swap1\n      dup2\n      0x00\n      dup3\n      add\n      0x00\n      swap1\n      sload\n      swap1\n      0x0100\n      exp\n      swap1\n      div\n      0xffffffffffffffffffffffffffffffffffffffff\n      and\n      0xffffffffffffffffffffffffffffffffffffffff\n      and\n      0xffffffffffffffffffffffffffffffffffffffff\n      and\n      dup2\n      mstore\n      0x20\n      add\n      0x01\n      dup3\n      add\n      dup1\n      sload\n      tag_311\n      swap1\n      tag_74\n      jump\t// in\n    tag_311:\n      dup1\n      0x1f\n      add\n      0x20\n      dup1\n      swap2\n      div\n      mul\n      0x20\n      add\n      mload(0x40)\n      swap1\n      dup2\n      add\n      0x40\n      mstore\n      dup1\n      swap3\n      swap2\n      swap1\n      dup2\n      dup2\n      mstore\n      0x20\n      add\n      dup3\n      dup1\n      sload\n      tag_312\n      swap1\n      tag_74\n      jump\t// in\n    tag_312:\n      dup1\n      iszero\n      tag_313\n      jumpi\n      dup1\n      0x1f\n      lt\n      tag_314\n      jumpi\n      0x0100\n      dup1\n      dup4\n      sload\n      div\n      mul\n      dup4\n      mstore\n      swap2\n      0x20\n      add\n      swap2\n      jump(tag_313)\n    tag_314:\n      dup3\n      add\n      swap2\n      swap1\n      0x00\n      mstore\n      keccak256(0x00, 0x20)\n      swap1\n    tag_315:\n      dup2\n      sload\n      dup2\n      mstore\n      swap1\n      0x01\n      add\n      swap1\n      0x20\n      add\n      dup1\n      dup4\n      gt\n      tag_315\n      jumpi\n      dup3\n      swap1\n      sub\n      0x1f\n      and\n      dup3\n      add\n      swap2\n    tag_313:\n      pop\n      pop\n      pop\n      pop\n      pop\n      dup2\n      mstore\n      0x20\n      add\n      0x02\n      dup3\n      add\n      sload\n      dup2\n      mstore\n      0x20\n      add\n      0x03\n      dup3\n      add\n      sload\n      dup2\n      mstore\n      0x20\n      add\n      0x04\n      dup3\n      add\n      dup1\n      sload\n      tag_316\n      swap1\n      tag_74\n      jump\t// in\n    tag_316:\n      dup1\n      0x1f\n      add\n      0x20\n      dup1\n      swap2\n      div\n      mul\n      0x20\n      add\n      mload(0x40)\n      swap1\n      dup2\n      add\n      0x40\n      mstore\n      dup1\n      swap3\n      swap2\n      swap1\n      dup2\n      dup2\n      mstore\n      0x20\n      add\n      dup3\n      dup1\n      sload\n      tag_317\n      swap1\n      tag_74\n      jump\t// in\n    tag_317:\n      dup1\n      iszero\n      tag_318\n      jumpi\n      dup1\n      0x1f\n      lt\n      tag_319\n      jumpi\n      0x0100\n      dup1\n      dup4\n      sload\n      div\n      mul\n      dup4\n      mstore\n      swap2\n      0x20\n      add\n      swap2\n      jump(tag_318)\n    tag_319:\n      dup3\n      add\n      swap2\n      swap1\n      0x00\n      mstore\n      keccak256(0x00, 0x20)\n      swap1\n    tag_320:\n      dup2\n      sload\n      dup2\n      mstore\n      swap1\n      0x01\n      add\n      swap1\n      0x20\n      add\n      dup1\n      dup4\n      gt\n      tag_320\n      jumpi\n      dup3\n      swap1\n      sub\n      0x1f\n      and\n      dup3\n      add\n      swap2\n    tag_318:\n      pop\n      pop\n      pop\n      pop\n      pop\n      dup2\n      mstore\n      0x20\n      add\n      0x05\n      dup3\n      add\n      dup1\n      sload\n      tag_321\n      swap1\n      tag_74\n      jump\t// in\n    tag_321:\n      dup1\n      0x1f\n      add\n      0x20\n      dup1\n      swap2\n      div\n      mul\n      0x20\n      add\n      mload(0x40)\n      swap1\n      dup2\n      add\n      0x40\n      mstore\n      dup1\n      swap3\n      swap2\n      swap1\n      dup2\n      dup2\n      mstore\n      0x20\n      add\n      dup3\n      dup1\n      sload\n      tag_322\n      swap1\n      tag_74\n      jump\t// in\n    tag_322:\n      dup1\n      iszero\n      tag_323\n      jumpi\n      dup1\n      0x1f\n      lt\n      tag_324\n      jumpi\n      0x0100\n      dup1\n      dup4\n      sload\n      div\n      mul\n      dup4\n      mstore\n      swap2\n      0x20\n      add\n      swap2\n      jump(tag_323)\n    tag_324:\n      dup3\n      add\n      swap2\n      swap1\n      0x00\n      mstore\n      keccak256(0x00, 0x20)\n      swap1\n    tag_325:\n      dup2\n      sload\n      dup2\n      mstore\n      swap1\n      0x01\n      add\n      swap1\n      0x20\n      add\n      dup1\n      dup4\n      gt\n      tag_325\n      jumpi\n      dup3\n      swap1\n      sub\n      0x1f\n      and\n      dup3\n      add\n      swap2\n    tag_323:\n      pop\n      pop\n      pop\n      pop\n      pop\n      dup2\n      mstore\n      0x20\n      add\n      0x06\n      dup3\n      add\n      sload\n      dup2\n      mstore\n      0x20\n      add\n      0x07\n      dup3\n      add\n      sload\n      dup2\n      mstore\n      0x20\n      add\n      0x08\n      dup3\n      add\n      0x00\n      swap1\n      sload\n      swap1\n      0x0100\n      exp\n      swap1\n      div\n      0xff\n      and\n      iszero\n      iszero\n      iszero\n      iszero\n      dup2\n      mstore\n      pop\n      pop\n      dup2\n      mstore\n      0x20\n      add\n      swap1\n      0x01\n      add\n      swap1\n      jump(tag_308)\n    tag_309:\n      pop\n      pop\n      pop\n      pop\n      swap1\n      pop\n        /* \"contracts/VeritasClinic.sol\":7950:8049  function getAllStudents() public view returns (Student[] memory) {... */\n      swap1\n      jump\t// out\n        /* \"contracts/VeritasClinic.sol\":9677:10498  function getPrescriptions(address _recipient) public view returns (Prescription[] memory) {... */\n    tag_66:\n        /* \"contracts/VeritasClinic.sol\":9744:9765  Prescription[] memory */\n      0x60\n        /* \"contracts/VeritasClinic.sol\":9786:9793  isStaff */\n      0x07\n        /* \"contracts/VeritasClinic.sol\":9786:9805  isStaff[_recipient] */\n      0x00\n        /* \"contracts/VeritasClinic.sol\":9794:9804  _recipient */\n      dup4\n        /* \"contracts/VeritasClinic.sol\":9786:9805  isStaff[_recipient] */\n      0xffffffffffffffffffffffffffffffffffffffff\n      and\n      0xffffffffffffffffffffffffffffffffffffffff\n      and\n      dup2\n      mstore\n      0x20\n      add\n      swap1\n      dup2\n      mstore\n      0x20\n      add\n      0x00\n      keccak256\n      0x00\n      swap1\n      sload\n      swap1\n      0x0100\n      exp\n      swap1\n      div\n      0xff\n      and\n        /* \"contracts/VeritasClinic.sol\":9778:9832  require(isStaff[_recipient], \"Not a registered staff\") */\n      tag_327\n      jumpi\n      mload(0x40)\n      0x08c379a000000000000000000000000000000000000000000000000000000000\n      dup2\n      mstore\n      0x04\n      add\n      tag_328\n      swap1\n      tag_280\n      jump\t// in\n    tag_328:\n      mload(0x40)\n      dup1\n      swap2\n      sub\n      swap1\n      revert\n    tag_327:\n        /* \"contracts/VeritasClinic.sol\":9843:9856  uint256 count */\n      0x00\n        /* \"contracts/VeritasClinic.sol\":9932:9941  uint256 i */\n      dup1\n        /* \"contracts/VeritasClinic.sol\":9927:10092  for (uint256 i = 0; i < prescriptions.length; i++) {... */\n    tag_329:\n        /* \"contracts/VeritasClinic.sol\":9951:9964  prescriptions */\n      0x02\n        /* \"contracts/VeritasClinic.sol\":9951:9971  prescriptions.length */\n      dup1\n      sload\n      swap1\n      pop\n        /* \"contracts/VeritasClinic.sol\":9947:9948  i */\n      dup2\n        /* \"contracts/VeritasClinic.sol\":9947:9971  i < prescriptions.length */\n      lt\n        /* \"contracts/VeritasClinic.sol\":9927:10092  for (uint256 i = 0; i < prescriptions.length; i++) {... */\n      iszero\n      tag_330\n      jumpi\n        /* \"contracts/VeritasClinic.sol\":10027:10037  _recipient */\n      dup4\n        /* \"contracts/VeritasClinic.sol\":9997:10037  prescriptions[i].recipient == _recipient */\n      0xffffffffffffffffffffffffffffffffffffffff\n      and\n        /* \"contracts/VeritasClinic.sol\":9997:10010  prescriptions */\n      0x02\n        /* \"contracts/VeritasClinic.sol\":10011:10012  i */\n      dup3\n        /* \"contracts/VeritasClinic.sol\":9997:10013  prescriptions[i] */\n      dup2\n      sload\n      dup2\n      lt\n      tag_332\n      jumpi\n      tag_333\n      tag_92\n      jump\t// in\n    tag_333:\n    tag_332:\n      swap1\n      0x00\n      mstore\n      keccak256(0x00, 0x20)\n      swap1\n      0x05\n      mul\n      add\n        /* \"contracts/VeritasClinic.sol\":9997:10023  prescriptions[i].recipient */\n      0x03\n      add\n      0x00\n      swap1\n      sload\n      swap1\n      0x0100\n      exp\n      swap1\n      div\n      0xffffffffffffffffffffffffffffffffffffffff\n      and\n        /* \"contracts/VeritasClinic.sol\":9997:10037  prescriptions[i].recipient == _recipient */\n      0xffffffffffffffffffffffffffffffffffffffff\n      and\n      sub\n        /* \"contracts/VeritasClinic.sol\":9993:10081  if (prescriptions[i].recipient == _recipient) {... */\n      tag_335\n      jumpi\n        /* \"contracts/VeritasClinic.sol\":10058:10065  count++ */\n      dup2\n      dup1\n      tag_336\n      swap1\n      tag_289\n      jump\t// in\n    tag_336:\n      swap3\n      pop\n      pop\n        /* \"contracts/VeritasClinic.sol\":9993:10081  if (prescriptions[i].recipient == _recipient) {... */\n    tag_335:\n        /* \"contracts/VeritasClinic.sol\":9973:9976  i++ */\n      dup1\n      dup1\n      0x01\n      add\n      swap2\n      pop\n      pop\n        /* \"contracts/VeritasClinic.sol\":9927:10092  for (uint256 i = 0; i < prescriptions.length; i++) {... */\n      jump(tag_329)\n    tag_330:\n      pop\n        /* \"contracts/VeritasClinic.sol\":10146:10174  Prescription[] memory result */\n      0x00\n        /* \"contracts/VeritasClinic.sol\":10196:10201  count */\n      dup2\n        /* \"contracts/VeritasClinic.sol\":10177:10202  new Prescription[](count) */\n      0xffffffffffffffff\n      dup2\n      gt\n      iszero\n      tag_337\n      jumpi\n      tag_338\n      tag_339\n      jump\t// in\n    tag_338:\n    tag_337:\n      mload(0x40)\n      swap1\n      dup1\n      dup3\n      mstore\n      dup1\n      0x20\n      mul\n      0x20\n      add\n      dup3\n      add\n      0x40\n      mstore\n      dup1\n      iszero\n      tag_340\n      jumpi\n      dup2\n      0x20\n      add\n    tag_341:\n      tag_342\n      tag_343\n      jump\t// in\n    tag_342:\n      dup2\n      mstore\n      0x20\n      add\n      swap1\n      0x01\n      swap1\n      sub\n      swap1\n      dup2\n      tag_341\n      jumpi\n      swap1\n      pop\n    tag_340:\n      pop\n        /* \"contracts/VeritasClinic.sol\":10146:10202  Prescription[] memory result = new Prescription[](count) */\n      swap1\n      pop\n        /* \"contracts/VeritasClinic.sol\":10213:10226  uint256 index */\n      0x00\n        /* \"contracts/VeritasClinic.sol\":10246:10255  uint256 i */\n      dup1\n        /* \"contracts/VeritasClinic.sol\":10241:10457  for (uint256 i = 0; i < prescriptions.length; i++) {... */\n    tag_344:\n        /* \"contracts/VeritasClinic.sol\":10265:10278  prescriptions */\n      0x02\n        /* \"contracts/VeritasClinic.sol\":10265:10285  prescriptions.length */\n      dup1\n      sload\n      swap1\n      pop\n        /* \"contracts/VeritasClinic.sol\":10261:10262  i */\n      dup2\n        /* \"contracts/VeritasClinic.sol\":10261:10285  i < prescriptions.length */\n      lt\n        /* \"contracts/VeritasClinic.sol\":10241:10457  for (uint256 i = 0; i < prescriptions.length; i++) {... */\n      iszero\n      tag_345\n      jumpi\n        /* \"contracts/VeritasClinic.sol\":10341:10351  _recipient */\n      dup6\n        /* \"contracts/VeritasClinic.sol\":10311:10351  prescriptions[i].recipient == _recipient */\n      0xffffffffffffffffffffffffffffffffffffffff\n      and\n        /* \"contracts/VeritasClinic.sol\":10311:10324  prescriptions */\n      0x02\n        /* \"contracts/VeritasClinic.sol\":10325:10326  i */\n      dup3\n        /* \"contracts/VeritasClinic.sol\":10311:10327  prescriptions[i] */\n      dup2\n      sload\n      dup2\n      lt\n      tag_347\n      jumpi\n      tag_348\n      tag_92\n      jump\t// in\n    tag_348:\n    tag_347:\n      swap1\n      0x00\n      mstore\n      keccak256(0x00, 0x20)\n      swap1\n      0x05\n      mul\n      add\n        /* \"contracts/VeritasClinic.sol\":10311:10337  prescriptions[i].recipient */\n      0x03\n      add\n      0x00\n      swap1\n      sload\n      swap1\n      0x0100\n      exp\n      swap1\n      div\n      0xffffffffffffffffffffffffffffffffffffffff\n      and\n        /* \"contracts/VeritasClinic.sol\":10311:10351  prescriptions[i].recipient == _recipient */\n      0xffffffffffffffffffffffffffffffffffffffff\n      and\n      sub\n        /* \"contracts/VeritasClinic.sol\":10307:10446  if (prescriptions[i].recipient == _recipient) {... */\n      tag_350\n      jumpi\n        /* \"contracts/VeritasClinic.sol\":10388:10401  prescriptions */\n      0x02\n        /* \"contracts/VeritasClinic.sol\":10402:10403  i */\n      dup2\n        /* \"contracts/VeritasClinic.sol\":10388:10404  prescriptions[i] */\n      dup2\n      sload\n      dup2\n      lt\n      tag_351\n      jumpi\n      tag_352\n      tag_92\n      jump\t// in\n    tag_352:\n    tag_351:\n      swap1\n      0x00\n      mstore\n      keccak256(0x00, 0x20)\n      swap1\n      0x05\n      mul\n      add\n        /* \"contracts/VeritasClinic.sol\":10372:10404  result[index] = prescriptions[i] */\n      mload(0x40)\n      dup1\n      0xa0\n      add\n      0x40\n      mstore\n      swap1\n      dup2\n      0x00\n      dup3\n      add\n      dup1\n      sload\n      tag_354\n      swap1\n      tag_74\n      jump\t// in\n    tag_354:\n      dup1\n      0x1f\n      add\n      0x20\n      dup1\n      swap2\n      div\n      mul\n      0x20\n      add\n      mload(0x40)\n      swap1\n      dup2\n      add\n      0x40\n      mstore\n      dup1\n      swap3\n      swap2\n      swap1\n      dup2\n      dup2\n      mstore\n      0x20\n      add\n      dup3\n      dup1\n      sload\n      tag_355\n      swap1\n      tag_74\n      jump\t// in\n    tag_355:\n      dup1\n      iszero\n      tag_356\n      jumpi\n      dup1\n      0x1f\n      lt\n      tag_357\n      jumpi\n      0x0100\n      dup1\n      dup4\n      sload\n      div\n      mul\n      dup4\n      mstore\n      swap2\n      0x20\n      add\n      swap2\n      jump(tag_356)\n    tag_357:\n      dup3\n      add\n      swap2\n      swap1\n      0x00\n      mstore\n      keccak256(0x00, 0x20)\n      swap1\n    tag_358:\n      dup2\n      sload\n      dup2\n      mstore\n      swap1\n      0x01\n      add\n      swap1\n      0x20\n      add\n      dup1\n      dup4\n      gt\n      tag_358\n      jumpi\n      dup3\n      swap1\n      sub\n      0x1f\n      and\n      dup3\n      add\n      swap2\n    tag_356:\n      pop\n      pop\n      pop\n      pop\n      pop\n      dup2\n      mstore\n      0x20\n      add\n      0x01\n      dup3\n      add\n      sload\n      dup2\n      mstore\n      0x20\n      add\n      0x02\n      dup3\n      add\n      dup1\n      sload\n      tag_359\n      swap1\n      tag_74\n      jump\t// in\n    tag_359:\n      dup1\n      0x1f\n      add\n      0x20\n      dup1\n      swap2\n      div\n      mul\n      0x20\n      add\n      mload(0x40)\n      swap1\n      dup2\n      add\n      0x40\n      mstore\n      dup1\n      swap3\n      swap2\n      swap1\n      dup2\n      dup2\n      mstore\n      0x20\n      add\n      dup3\n      dup1\n      sload\n      tag_360\n      swap1\n      tag_74\n      jump\t// in\n    tag_360:\n      dup1\n      iszero\n      tag_361\n      jumpi\n      dup1\n      0x1f\n      lt\n      tag_362\n      jumpi\n      0x0100\n      dup1\n      dup4\n      sload\n      div\n      mul\n      dup4\n      mstore\n      swap2\n      0x20\n      add\n      swap2\n      jump(tag_361)\n    tag_362:\n      dup3\n      add\n      swap2\n      swap1\n      0x00\n      mstore\n      keccak256(0x00, 0x20)\n      swap1\n    tag_363:\n      dup2\n      sload\n      dup2\n      mstore\n      swap1\n      0x01\n      add\n      swap1\n      0x20\n      add\n      dup1\n      dup4\n      gt\n      tag_363\n      jumpi\n      dup3\n      swap1\n      sub\n      0x1f\n      and\n      dup3\n      add\n      swap2\n    tag_361:\n      pop\n      pop\n      pop\n      pop\n      pop\n      dup2\n      mstore\n      0x20\n      add\n      0x03\n      dup3\n      add\n      0x00\n      swap1\n      sload\n      swap1\n      0x0100\n      exp\n      swap1\n      div\n      0xffffffffffffffffffffffffffffffffffffffff\n      and\n      0xffffffffffffffffffffffffffffffffffffffff\n      and\n      0xffffffffffffffffffffffffffffffffffffffff\n      and\n      dup2\n      mstore\n      0x20\n      add\n      0x04\n      dup3\n      add\n      sload\n      dup2\n      mstore\n      pop\n      pop\n        /* \"contracts/VeritasClinic.sol\":10372:10378  result */\n      dup4\n        /* \"contracts/VeritasClinic.sol\":10379:10384  index */\n      dup4\n        /* \"contracts/VeritasClinic.sol\":10372:10385  result[index] */\n      dup2\n      mload\n      dup2\n      lt\n      tag_364\n      jumpi\n      tag_365\n      tag_92\n      jump\t// in\n    tag_365:\n    tag_364:\n      0x20\n      mul\n      0x20\n      add\n      add\n        /* \"contracts/VeritasClinic.sol\":10372:10404  result[index] = prescriptions[i] */\n      dup2\n      swap1\n      mstore\n      pop\n        /* \"contracts/VeritasClinic.sol\":10423:10430  index++ */\n      dup2\n      dup1\n      tag_366\n      swap1\n      tag_289\n      jump\t// in\n    tag_366:\n      swap3\n      pop\n      pop\n        /* \"contracts/VeritasClinic.sol\":10307:10446  if (prescriptions[i].recipient == _recipient) {... */\n    tag_350:\n        /* \"contracts/VeritasClinic.sol\":10287:10290  i++ */\n      dup1\n      dup1\n      0x01\n      add\n      swap2\n      pop\n      pop\n        /* \"contracts/VeritasClinic.sol\":10241:10457  for (uint256 i = 0; i < prescriptions.length; i++) {... */\n      jump(tag_344)\n    tag_345:\n      pop\n        /* \"contracts/VeritasClinic.sol\":10484:10490  result */\n      dup2\n        /* \"contracts/VeritasClinic.sol\":10477:10490  return result */\n      swap4\n      pop\n      pop\n      pop\n      pop\n        /* \"contracts/VeritasClinic.sol\":9677:10498  function getPrescriptions(address _recipient) public view returns (Prescription[] memory) {... */\n      swap2\n      swap1\n      pop\n      jump\t// out\n        /* \"contracts/VeritasClinic.sol\":2548:2736  function generateRandomCode(address _addr) private view returns (uint256) {... */\n    tag_179:\n        /* \"contracts/VeritasClinic.sol\":2613:2620  uint256 */\n      0x00\n        /* \"contracts/VeritasClinic.sol\":2721:2728  1000000 */\n      0x0f4240\n        /* \"contracts/VeritasClinic.sol\":2675:2690  block.timestamp */\n      timestamp\n        /* \"contracts/VeritasClinic.sol\":2692:2697  _addr */\n      dup4\n        /* \"contracts/VeritasClinic.sol\":2699:2715  block.prevrandao */\n      prevrandao\n        /* \"contracts/VeritasClinic.sol\":2658:2716  abi.encodePacked(block.timestamp, _addr, block.prevrandao) */\n      add(0x20, mload(0x40))\n      tag_368\n      swap4\n      swap3\n      swap2\n      swap1\n      tag_369\n      jump\t// in\n    tag_368:\n      mload(0x40)\n      0x20\n      dup2\n      dup4\n      sub\n      sub\n      dup2\n      mstore\n      swap1\n      0x40\n      mstore\n        /* \"contracts/VeritasClinic.sol\":2648:2717  keccak256(abi.encodePacked(block.timestamp, _addr, block.prevrandao)) */\n      dup1\n      mload\n      swap1\n      0x20\n      add\n      keccak256\n        /* \"contracts/VeritasClinic.sol\":2640:2718  uint256(keccak256(abi.encodePacked(block.timestamp, _addr, block.prevrandao))) */\n      0x00\n      shr\n        /* \"contracts/VeritasClinic.sol\":2640:2728  uint256(keccak256(abi.encodePacked(block.timestamp, _addr, block.prevrandao))) % 1000000 */\n      tag_370\n      swap2\n      swap1\n      tag_371\n      jump\t// in\n    tag_370:\n        /* \"contracts/VeritasClinic.sol\":2633:2728  return uint256(keccak256(abi.encodePacked(block.timestamp, _addr, block.prevrandao))) % 1000000 */\n      swap1\n      pop\n        /* \"contracts/VeritasClinic.sol\":2548:2736  function generateRandomCode(address _addr) private view returns (uint256) {... */\n      swap2\n      swap1\n      pop\n      jump\t// out\n    tag_343:\n      mload(0x40)\n      dup1\n      0xa0\n      add\n      0x40\n      mstore\n      dup1\n      0x60\n      dup2\n      mstore\n      0x20\n      add\n      0x00\n      dup2\n      mstore\n      0x20\n      add\n      0x60\n      dup2\n      mstore\n      0x20\n      add\n      and(0xffffffffffffffffffffffffffffffffffffffff, 0x00)\n      dup2\n      mstore\n      0x20\n      add\n      0x00\n      dup2\n      mstore\n      pop\n      swap1\n      jump\t// out\n        /* \"#utility.yul\":7:142   */\n    tag_372:\n        /* \"#utility.yul\":95:101   */\n      0x00\n        /* \"#utility.yul\":129:134   */\n      dup2\n        /* \"#utility.yul\":123:135   */\n      mload\n        /* \"#utility.yul\":113:135   */\n      swap1\n      pop\n        /* \"#utility.yul\":7:142   */\n      swap2\n      swap1\n      pop\n      jump\t// out\n        /* \"#utility.yul\":148:353   */\n    tag_373:\n        /* \"#utility.yul\":268:279   */\n      0x00\n        /* \"#utility.yul\":302:308   */\n      dup3\n        /* \"#utility.yul\":297:300   */\n      dup3\n        /* \"#utility.yul\":290:309   */\n      mstore\n        /* \"#utility.yul\":342:346   */\n      0x20\n        /* \"#utility.yul\":337:340   */\n      dup3\n        /* \"#utility.yul\":333:347   */\n      add\n        /* \"#utility.yul\":318:347   */\n      swap1\n      pop\n        /* \"#utility.yul\":148:353   */\n      swap3\n      swap2\n      pop\n      pop\n      jump\t// out\n        /* \"#utility.yul\":359:512   */\n    tag_374:\n        /* \"#utility.yul\":447:451   */\n      0x00\n        /* \"#utility.yul\":470:473   */\n      dup2\n        /* \"#utility.yul\":462:473   */\n      swap1\n      pop\n        /* \"#utility.yul\":500:504   */\n      0x20\n        /* \"#utility.yul\":495:498   */\n      dup3\n        /* \"#utility.yul\":491:505   */\n      add\n        /* \"#utility.yul\":483:505   */\n      swap1\n      pop\n        /* \"#utility.yul\":359:512   */\n      swap2\n      swap1\n      pop\n      jump\t// out\n        /* \"#utility.yul\":518:644   */\n    tag_375:\n        /* \"#utility.yul\":555:562   */\n      0x00\n        /* \"#utility.yul\":595:637   */\n      0xffffffffffffffffffffffffffffffffffffffff\n        /* \"#utility.yul\":588:593   */\n      dup3\n        /* \"#utility.yul\":584:638   */\n      and\n        /* \"#utility.yul\":573:638   */\n      swap1\n      pop\n        /* \"#utility.yul\":518:644   */\n      swap2\n      swap1\n      pop\n      jump\t// out\n        /* \"#utility.yul\":650:746   */\n    tag_376:\n        /* \"#utility.yul\":687:694   */\n      0x00\n        /* \"#utility.yul\":716:740   */\n      tag_505\n        /* \"#utility.yul\":734:739   */\n      dup3\n        /* \"#utility.yul\":716:740   */\n      tag_375\n      jump\t// in\n    tag_505:\n        /* \"#utility.yul\":705:740   */\n      swap1\n      pop\n        /* \"#utility.yul\":650:746   */\n      swap2\n      swap1\n      pop\n      jump\t// out\n        /* \"#utility.yul\":752:860   */\n    tag_377:\n        /* \"#utility.yul\":829:853   */\n      tag_507\n        /* \"#utility.yul\":847:852   */\n      dup2\n        /* \"#utility.yul\":829:853   */\n      tag_376\n      jump\t// in\n    tag_507:\n        /* \"#utility.yul\":824:827   */\n      dup3\n        /* \"#utility.yul\":817:854   */\n      mstore\n        /* \"#utility.yul\":752:860   */\n      pop\n      pop\n      jump\t// out\n        /* \"#utility.yul\":866:965   */\n    tag_378:\n        /* \"#utility.yul\":918:924   */\n      0x00\n        /* \"#utility.yul\":952:957   */\n      dup2\n        /* \"#utility.yul\":946:958   */\n      mload\n        /* \"#utility.yul\":936:958   */\n      swap1\n      pop\n        /* \"#utility.yul\":866:965   */\n      swap2\n      swap1\n      pop\n      jump\t// out\n        /* \"#utility.yul\":971:1130   */\n    tag_379:\n        /* \"#utility.yul\":1045:1056   */\n      0x00\n        /* \"#utility.yul\":1079:1085   */\n      dup3\n        /* \"#utility.yul\":1074:1077   */\n      dup3\n        /* \"#utility.yul\":1067:1086   */\n      mstore\n        /* \"#utility.yul\":1119:1123   */\n      0x20\n        /* \"#utility.yul\":1114:1117   */\n      dup3\n        /* \"#utility.yul\":1110:1124   */\n      add\n        /* \"#utility.yul\":1095:1124   */\n      swap1\n      pop\n        /* \"#utility.yul\":971:1130   */\n      swap3\n      swap2\n      pop\n      pop\n      jump\t// out\n        /* \"#utility.yul\":1136:1275   */\n    tag_380:\n        /* \"#utility.yul\":1225:1231   */\n      dup3\n        /* \"#utility.yul\":1220:1223   */\n      dup2\n        /* \"#utility.yul\":1215:1218   */\n      dup4\n        /* \"#utility.yul\":1209:1232   */\n      mcopy\n        /* \"#utility.yul\":1266:1267   */\n      0x00\n        /* \"#utility.yul\":1257:1263   */\n      dup4\n        /* \"#utility.yul\":1252:1255   */\n      dup4\n        /* \"#utility.yul\":1248:1264   */\n      add\n        /* \"#utility.yul\":1241:1268   */\n      mstore\n        /* \"#utility.yul\":1136:1275   */\n      pop\n      pop\n      pop\n      jump\t// out\n        /* \"#utility.yul\":1281:1383   */\n    tag_381:\n        /* \"#utility.yul\":1322:1328   */\n      0x00\n        /* \"#utility.yul\":1373:1375   */\n      0x1f\n        /* \"#utility.yul\":1369:1376   */\n      not\n        /* \"#utility.yul\":1364:1366   */\n      0x1f\n        /* \"#utility.yul\":1357:1362   */\n      dup4\n        /* \"#utility.yul\":1353:1367   */\n      add\n        /* \"#utility.yul\":1349:1377   */\n      and\n        /* \"#utility.yul\":1339:1377   */\n      swap1\n      pop\n        /* \"#utility.yul\":1281:1383   */\n      swap2\n      swap1\n      pop\n      jump\t// out\n        /* \"#utility.yul\":1389:1746   */\n    tag_382:\n        /* \"#utility.yul\":1467:1470   */\n      0x00\n        /* \"#utility.yul\":1495:1534   */\n      tag_513\n        /* \"#utility.yul\":1528:1533   */\n      dup3\n        /* \"#utility.yul\":1495:1534   */\n      tag_378\n      jump\t// in\n    tag_513:\n        /* \"#utility.yul\":1550:1611   */\n      tag_514\n        /* \"#utility.yul\":1604:1610   */\n      dup2\n        /* \"#utility.yul\":1599:1602   */\n      dup6\n        /* \"#utility.yul\":1550:1611   */\n      tag_379\n      jump\t// in\n    tag_514:\n        /* \"#utility.yul\":1543:1611   */\n      swap4\n      pop\n        /* \"#utility.yul\":1620:1685   */\n      tag_515\n        /* \"#utility.yul\":1678:1684   */\n      dup2\n        /* \"#utility.yul\":1673:1676   */\n      dup6\n        /* \"#utility.yul\":1666:1670   */\n      0x20\n        /* \"#utility.yul\":1659:1664   */\n      dup7\n        /* \"#utility.yul\":1655:1671   */\n      add\n        /* \"#utility.yul\":1620:1685   */\n      tag_380\n      jump\t// in\n    tag_515:\n        /* \"#utility.yul\":1710:1739   */\n      tag_516\n        /* \"#utility.yul\":1732:1738   */\n      dup2\n        /* \"#utility.yul\":1710:1739   */\n      tag_381\n      jump\t// in\n    tag_516:\n        /* \"#utility.yul\":1705:1708   */\n      dup5\n        /* \"#utility.yul\":1701:1740   */\n      add\n        /* \"#utility.yul\":1694:1740   */\n      swap2\n      pop\n        /* \"#utility.yul\":1471:1746   */\n      pop\n        /* \"#utility.yul\":1389:1746   */\n      swap3\n      swap2\n      pop\n      pop\n      jump\t// out\n        /* \"#utility.yul\":1830:2668   */\n    tag_383:\n        /* \"#utility.yul\":1931:1934   */\n      0x00\n        /* \"#utility.yul\":1967:1971   */\n      0x60\n        /* \"#utility.yul\":1962:1965   */\n      dup4\n        /* \"#utility.yul\":1958:1972   */\n      add\n        /* \"#utility.yul\":2059:2063   */\n      0x00\n        /* \"#utility.yul\":2052:2057   */\n      dup4\n        /* \"#utility.yul\":2048:2064   */\n      add\n        /* \"#utility.yul\":2042:2065   */\n      mload\n        /* \"#utility.yul\":2078:2141   */\n      tag_518\n        /* \"#utility.yul\":2135:2139   */\n      0x00\n        /* \"#utility.yul\":2130:2133   */\n      dup7\n        /* \"#utility.yul\":2126:2140   */\n      add\n        /* \"#utility.yul\":2112:2124   */\n      dup3\n        /* \"#utility.yul\":2078:2141   */\n      tag_377\n      jump\t// in\n    tag_518:\n        /* \"#utility.yul\":1982:2151   */\n      pop\n        /* \"#utility.yul\":2233:2237   */\n      0x20\n        /* \"#utility.yul\":2226:2231   */\n      dup4\n        /* \"#utility.yul\":2222:2238   */\n      add\n        /* \"#utility.yul\":2216:2239   */\n      mload\n        /* \"#utility.yul\":2286:2289   */\n      dup5\n        /* \"#utility.yul\":2280:2284   */\n      dup3\n        /* \"#utility.yul\":2276:2290   */\n      sub\n        /* \"#utility.yul\":2269:2273   */\n      0x20\n        /* \"#utility.yul\":2264:2267   */\n      dup7\n        /* \"#utility.yul\":2260:2274   */\n      add\n        /* \"#utility.yul\":2253:2291   */\n      mstore\n        /* \"#utility.yul\":2312:2385   */\n      tag_519\n        /* \"#utility.yul\":2380:2384   */\n      dup3\n        /* \"#utility.yul\":2366:2378   */\n      dup3\n        /* \"#utility.yul\":2312:2385   */\n      tag_382\n      jump\t// in\n    tag_519:\n        /* \"#utility.yul\":2304:2385   */\n      swap2\n      pop\n        /* \"#utility.yul\":2161:2396   */\n      pop\n        /* \"#utility.yul\":2478:2482   */\n      0x40\n        /* \"#utility.yul\":2471:2476   */\n      dup4\n        /* \"#utility.yul\":2467:2483   */\n      add\n        /* \"#utility.yul\":2461:2484   */\n      mload\n        /* \"#utility.yul\":2531:2534   */\n      dup5\n        /* \"#utility.yul\":2525:2529   */\n      dup3\n        /* \"#utility.yul\":2521:2535   */\n      sub\n        /* \"#utility.yul\":2514:2518   */\n      0x40\n        /* \"#utility.yul\":2509:2512   */\n      dup7\n        /* \"#utility.yul\":2505:2519   */\n      add\n        /* \"#utility.yul\":2498:2536   */\n      mstore\n        /* \"#utility.yul\":2557:2630   */\n      tag_520\n        /* \"#utility.yul\":2625:2629   */\n      dup3\n        /* \"#utility.yul\":2611:2623   */\n      dup3\n        /* \"#utility.yul\":2557:2630   */\n      tag_382\n      jump\t// in\n    tag_520:\n        /* \"#utility.yul\":2549:2630   */\n      swap2\n      pop\n        /* \"#utility.yul\":2406:2641   */\n      pop\n        /* \"#utility.yul\":2658:2662   */\n      dup1\n        /* \"#utility.yul\":2651:2662   */\n      swap2\n      pop\n        /* \"#utility.yul\":1936:2668   */\n      pop\n        /* \"#utility.yul\":1830:2668   */\n      swap3\n      swap2\n      pop\n      pop\n      jump\t// out\n        /* \"#utility.yul\":2674:2914   */\n    tag_384:\n        /* \"#utility.yul\":2785:2795   */\n      0x00\n        /* \"#utility.yul\":2820:2908   */\n      tag_522\n        /* \"#utility.yul\":2904:2907   */\n      dup4\n        /* \"#utility.yul\":2896:2902   */\n      dup4\n        /* \"#utility.yul\":2820:2908   */\n      tag_383\n      jump\t// in\n    tag_522:\n        /* \"#utility.yul\":2806:2908   */\n      swap1\n      pop\n        /* \"#utility.yul\":2674:2914   */\n      swap3\n      swap2\n      pop\n      pop\n      jump\t// out\n        /* \"#utility.yul\":2920:3054   */\n    tag_385:\n        /* \"#utility.yul\":3011:3015   */\n      0x00\n        /* \"#utility.yul\":3043:3047   */\n      0x20\n        /* \"#utility.yul\":3038:3041   */\n      dup3\n        /* \"#utility.yul\":3034:3048   */\n      add\n        /* \"#utility.yul\":3026:3048   */\n      swap1\n      pop\n        /* \"#utility.yul\":2920:3054   */\n      swap2\n      swap1\n      pop\n      jump\t// out\n        /* \"#utility.yul\":3142:4221   */\n    tag_386:\n        /* \"#utility.yul\":3303:3306   */\n      0x00\n        /* \"#utility.yul\":3332:3407   */\n      tag_525\n        /* \"#utility.yul\":3401:3406   */\n      dup3\n        /* \"#utility.yul\":3332:3407   */\n      tag_372\n      jump\t// in\n    tag_525:\n        /* \"#utility.yul\":3423:3530   */\n      tag_526\n        /* \"#utility.yul\":3523:3529   */\n      dup2\n        /* \"#utility.yul\":3518:3521   */\n      dup6\n        /* \"#utility.yul\":3423:3530   */\n      tag_373\n      jump\t// in\n    tag_526:\n        /* \"#utility.yul\":3416:3530   */\n      swap4\n      pop\n        /* \"#utility.yul\":3556:3559   */\n      dup4\n        /* \"#utility.yul\":3601:3605   */\n      0x20\n        /* \"#utility.yul\":3593:3599   */\n      dup3\n        /* \"#utility.yul\":3589:3606   */\n      mul\n        /* \"#utility.yul\":3584:3587   */\n      dup6\n        /* \"#utility.yul\":3580:3607   */\n      add\n        /* \"#utility.yul\":3631:3708   */\n      tag_527\n        /* \"#utility.yul\":3702:3707   */\n      dup6\n        /* \"#utility.yul\":3631:3708   */\n      tag_374\n      jump\t// in\n    tag_527:\n        /* \"#utility.yul\":3731:3738   */\n      dup1\n        /* \"#utility.yul\":3762:3763   */\n      0x00\n        /* \"#utility.yul\":3747:4176   */\n    tag_528:\n        /* \"#utility.yul\":3772:3778   */\n      dup6\n        /* \"#utility.yul\":3769:3770   */\n      dup2\n        /* \"#utility.yul\":3766:3779   */\n      lt\n        /* \"#utility.yul\":3747:4176   */\n      iszero\n      tag_530\n      jumpi\n        /* \"#utility.yul\":3843:3852   */\n      dup5\n        /* \"#utility.yul\":3837:3841   */\n      dup5\n        /* \"#utility.yul\":3833:3853   */\n      sub\n        /* \"#utility.yul\":3828:3831   */\n      dup10\n        /* \"#utility.yul\":3821:3854   */\n      mstore\n        /* \"#utility.yul\":3894:3900   */\n      dup2\n        /* \"#utility.yul\":3888:3901   */\n      mload\n        /* \"#utility.yul\":3922:4028   */\n      tag_531\n        /* \"#utility.yul\":4023:4027   */\n      dup6\n        /* \"#utility.yul\":4008:4021   */\n      dup3\n        /* \"#utility.yul\":3922:4028   */\n      tag_384\n      jump\t// in\n    tag_531:\n        /* \"#utility.yul\":3914:4028   */\n      swap5\n      pop\n        /* \"#utility.yul\":4051:4132   */\n      tag_532\n        /* \"#utility.yul\":4125:4131   */\n      dup4\n        /* \"#utility.yul\":4051:4132   */\n      tag_385\n      jump\t// in\n    tag_532:\n        /* \"#utility.yul\":4041:4132   */\n      swap3\n      pop\n        /* \"#utility.yul\":4161:4165   */\n      0x20\n        /* \"#utility.yul\":4156:4159   */\n      dup11\n        /* \"#utility.yul\":4152:4166   */\n      add\n        /* \"#utility.yul\":4145:4166   */\n      swap10\n      pop\n        /* \"#utility.yul\":3807:4176   */\n      pop\n        /* \"#utility.yul\":3794:3795   */\n      0x01\n        /* \"#utility.yul\":3791:3792   */\n      dup2\n        /* \"#utility.yul\":3787:3796   */\n      add\n        /* \"#utility.yul\":3782:3796   */\n      swap1\n      pop\n        /* \"#utility.yul\":3747:4176   */\n      jump(tag_528)\n    tag_530:\n        /* \"#utility.yul\":3751:3765   */\n      pop\n        /* \"#utility.yul\":4192:4196   */\n      dup3\n        /* \"#utility.yul\":4185:4196   */\n      swap8\n      pop\n        /* \"#utility.yul\":4212:4215   */\n      dup8\n        /* \"#utility.yul\":4205:4215   */\n      swap6\n      pop\n        /* \"#utility.yul\":3308:4221   */\n      pop\n      pop\n      pop\n      pop\n      pop\n        /* \"#utility.yul\":3142:4221   */\n      swap3\n      swap2\n      pop\n      pop\n      jump\t// out\n        /* \"#utility.yul\":4227:4684   */\n    tag_21:\n        /* \"#utility.yul\":4412:4416   */\n      0x00\n        /* \"#utility.yul\":4450:4452   */\n      0x20\n        /* \"#utility.yul\":4439:4448   */\n      dup3\n        /* \"#utility.yul\":4435:4453   */\n      add\n        /* \"#utility.yul\":4427:4453   */\n      swap1\n      pop\n        /* \"#utility.yul\":4499:4508   */\n      dup2\n        /* \"#utility.yul\":4493:4497   */\n      dup2\n        /* \"#utility.yul\":4489:4509   */\n      sub\n        /* \"#utility.yul\":4485:4486   */\n      0x00\n        /* \"#utility.yul\":4474:4483   */\n      dup4\n        /* \"#utility.yul\":4470:4487   */\n      add\n        /* \"#utility.yul\":4463:4510   */\n      mstore\n        /* \"#utility.yul\":4527:4677   */\n      tag_534\n        /* \"#utility.yul\":4672:4676   */\n      dup2\n        /* \"#utility.yul\":4663:4669   */\n      dup5\n        /* \"#utility.yul\":4527:4677   */\n      tag_386\n      jump\t// in\n    tag_534:\n        /* \"#utility.yul\":4519:4677   */\n      swap1\n      pop\n        /* \"#utility.yul\":4227:4684   */\n      swap3\n      swap2\n      pop\n      pop\n      jump\t// out\n        /* \"#utility.yul\":4690:4765   */\n    tag_387:\n        /* \"#utility.yul\":4723:4729   */\n      0x00\n        /* \"#utility.yul\":4756:4758   */\n      0x40\n        /* \"#utility.yul\":4750:4759   */\n      mload\n        /* \"#utility.yul\":4740:4759   */\n      swap1\n      pop\n        /* \"#utility.yul\":4690:4765   */\n      swap1\n      jump\t// out\n        /* \"#utility.yul\":4771:4888   */\n    tag_388:\n        /* \"#utility.yul\":4880:4881   */\n      0x00\n        /* \"#utility.yul\":4877:4878   */\n      dup1\n        /* \"#utility.yul\":4870:4882   */\n      revert\n        /* \"#utility.yul\":4894:5011   */\n    tag_389:\n        /* \"#utility.yul\":5003:5004   */\n      0x00\n        /* \"#utility.yul\":5000:5001   */\n      dup1\n        /* \"#utility.yul\":4993:5005   */\n      revert\n        /* \"#utility.yul\":5017:5094   */\n    tag_390:\n        /* \"#utility.yul\":5054:5061   */\n      0x00\n        /* \"#utility.yul\":5083:5088   */\n      dup2\n        /* \"#utility.yul\":5072:5088   */\n      swap1\n      pop\n        /* \"#utility.yul\":5017:5094   */\n      swap2\n      swap1\n      pop\n      jump\t// out\n        /* \"#utility.yul\":5100:5222   */\n    tag_391:\n        /* \"#utility.yul\":5173:5197   */\n      tag_540\n        /* \"#utility.yul\":5191:5196   */\n      dup2\n        /* \"#utility.yul\":5173:5197   */\n      tag_390\n      jump\t// in\n    tag_540:\n        /* \"#utility.yul\":5166:5171   */\n      dup2\n        /* \"#utility.yul\":5163:5198   */\n      eq\n        /* \"#utility.yul\":5153:5216   */\n      tag_541\n      jumpi\n        /* \"#utility.yul\":5212:5213   */\n      0x00\n        /* \"#utility.yul\":5209:5210   */\n      dup1\n        /* \"#utility.yul\":5202:5214   */\n      revert\n        /* \"#utility.yul\":5153:5216   */\n    tag_541:\n        /* \"#utility.yul\":5100:5222   */\n      pop\n      jump\t// out\n        /* \"#utility.yul\":5228:5367   */\n    tag_392:\n        /* \"#utility.yul\":5274:5279   */\n      0x00\n        /* \"#utility.yul\":5312:5318   */\n      dup2\n        /* \"#utility.yul\":5299:5319   */\n      calldataload\n        /* \"#utility.yul\":5290:5319   */\n      swap1\n      pop\n        /* \"#utility.yul\":5328:5361   */\n      tag_543\n        /* \"#utility.yul\":5355:5360   */\n      dup2\n        /* \"#utility.yul\":5328:5361   */\n      tag_391\n      jump\t// in\n    tag_543:\n        /* \"#utility.yul\":5228:5367   */\n      swap3\n      swap2\n      pop\n      pop\n      jump\t// out\n        /* \"#utility.yul\":5373:5490   */\n    tag_393:\n        /* \"#utility.yul\":5482:5483   */\n      0x00\n        /* \"#utility.yul\":5479:5480   */\n      dup1\n        /* \"#utility.yul\":5472:5484   */\n      revert\n        /* \"#utility.yul\":5496:5613   */\n    tag_394:\n        /* \"#utility.yul\":5605:5606   */\n      0x00\n        /* \"#utility.yul\":5602:5603   */\n      dup1\n        /* \"#utility.yul\":5595:5607   */\n      revert\n        /* \"#utility.yul\":5619:5799   */\n    tag_339:\n        /* \"#utility.yul\":5667:5744   */\n      0x4e487b7100000000000000000000000000000000000000000000000000000000\n        /* \"#utility.yul\":5664:5665   */\n      0x00\n        /* \"#utility.yul\":5657:5745   */\n      mstore\n        /* \"#utility.yul\":5764:5768   */\n      0x41\n        /* \"#utility.yul\":5761:5762   */\n      0x04\n        /* \"#utility.yul\":5754:5769   */\n      mstore\n        /* \"#utility.yul\":5788:5792   */\n      0x24\n        /* \"#utility.yul\":5785:5786   */\n      0x00\n        /* \"#utility.yul\":5778:5793   */\n      revert\n        /* \"#utility.yul\":5805:6086   */\n    tag_395:\n        /* \"#utility.yul\":5888:5915   */\n      tag_548\n        /* \"#utility.yul\":5910:5914   */\n      dup3\n        /* \"#utility.yul\":5888:5915   */\n      tag_381\n      jump\t// in\n    tag_548:\n        /* \"#utility.yul\":5880:5886   */\n      dup2\n        /* \"#utility.yul\":5876:5916   */\n      add\n        /* \"#utility.yul\":6018:6024   */\n      dup2\n        /* \"#utility.yul\":6006:6016   */\n      dup2\n        /* \"#utility.yul\":6003:6025   */\n      lt\n        /* \"#utility.yul\":5982:6000   */\n      0xffffffffffffffff\n        /* \"#utility.yul\":5970:5980   */\n      dup3\n        /* \"#utility.yul\":5967:6001   */\n      gt\n        /* \"#utility.yul\":5964:6026   */\n      or\n        /* \"#utility.yul\":5961:6049   */\n      iszero\n      tag_549\n      jumpi\n        /* \"#utility.yul\":6029:6047   */\n      tag_550\n      tag_339\n      jump\t// in\n    tag_550:\n        /* \"#utility.yul\":5961:6049   */\n    tag_549:\n        /* \"#utility.yul\":6069:6079   */\n      dup1\n        /* \"#utility.yul\":6065:6067   */\n      0x40\n        /* \"#utility.yul\":6058:6080   */\n      mstore\n        /* \"#utility.yul\":5848:6086   */\n      pop\n        /* \"#utility.yul\":5805:6086   */\n      pop\n      pop\n      jump\t// out\n        /* \"#utility.yul\":6092:6221   */\n    tag_396:\n        /* \"#utility.yul\":6126:6132   */\n      0x00\n        /* \"#utility.yul\":6153:6173   */\n      tag_552\n      tag_387\n      jump\t// in\n    tag_552:\n        /* \"#utility.yul\":6143:6173   */\n      swap1\n      pop\n        /* \"#utility.yul\":6182:6215   */\n      tag_553\n        /* \"#utility.yul\":6210:6214   */\n      dup3\n        /* \"#utility.yul\":6202:6208   */\n      dup3\n        /* \"#utility.yul\":6182:6215   */\n      tag_395\n      jump\t// in\n    tag_553:\n        /* \"#utility.yul\":6092:6221   */\n      swap2\n      swap1\n      pop\n      jump\t// out\n        /* \"#utility.yul\":6227:6535   */\n    tag_397:\n        /* \"#utility.yul\":6289:6293   */\n      0x00\n        /* \"#utility.yul\":6379:6397   */\n      0xffffffffffffffff\n        /* \"#utility.yul\":6371:6377   */\n      dup3\n        /* \"#utility.yul\":6368:6398   */\n      gt\n        /* \"#utility.yul\":6365:6421   */\n      iszero\n      tag_555\n      jumpi\n        /* \"#utility.yul\":6401:6419   */\n      tag_556\n      tag_339\n      jump\t// in\n    tag_556:\n        /* \"#utility.yul\":6365:6421   */\n    tag_555:\n        /* \"#utility.yul\":6439:6468   */\n      tag_557\n        /* \"#utility.yul\":6461:6467   */\n      dup3\n        /* \"#utility.yul\":6439:6468   */\n      tag_381\n      jump\t// in\n    tag_557:\n        /* \"#utility.yul\":6431:6468   */\n      swap1\n      pop\n        /* \"#utility.yul\":6523:6527   */\n      0x20\n        /* \"#utility.yul\":6517:6521   */\n      dup2\n        /* \"#utility.yul\":6513:6528   */\n      add\n        /* \"#utility.yul\":6505:6528   */\n      swap1\n      pop\n        /* \"#utility.yul\":6227:6535   */\n      swap2\n      swap1\n      pop\n      jump\t// out\n        /* \"#utility.yul\":6541:6689   */\n    tag_398:\n        /* \"#utility.yul\":6639:6645   */\n      dup3\n        /* \"#utility.yul\":6634:6637   */\n      dup2\n        /* \"#utility.yul\":6629:6632   */\n      dup4\n        /* \"#utility.yul\":6616:6646   */\n      calldatacopy\n        /* \"#utility.yul\":6680:6681   */\n      0x00\n        /* \"#utility.yul\":6671:6677   */\n      dup4\n        /* \"#utility.yul\":6666:6669   */\n      dup4\n        /* \"#utility.yul\":6662:6678   */\n      add\n        /* \"#utility.yul\":6655:6682   */\n      mstore\n        /* \"#utility.yul\":6541:6689   */\n      pop\n      pop\n      pop\n      jump\t// out\n        /* \"#utility.yul\":6695:7120   */\n    tag_399:\n        /* \"#utility.yul\":6773:6778   */\n      0x00\n        /* \"#utility.yul\":6798:6864   */\n      tag_560\n        /* \"#utility.yul\":6814:6863   */\n      tag_561\n        /* \"#utility.yul\":6856:6862   */\n      dup5\n        /* \"#utility.yul\":6814:6863   */\n      tag_397\n      jump\t// in\n    tag_561:\n        /* \"#utility.yul\":6798:6864   */\n      tag_396\n      jump\t// in\n    tag_560:\n        /* \"#utility.yul\":6789:6864   */\n      swap1\n      pop\n        /* \"#utility.yul\":6887:6893   */\n      dup3\n        /* \"#utility.yul\":6880:6885   */\n      dup2\n        /* \"#utility.yul\":6873:6894   */\n      mstore\n        /* \"#utility.yul\":6925:6929   */\n      0x20\n        /* \"#utility.yul\":6918:6923   */\n      dup2\n        /* \"#utility.yul\":6914:6930   */\n      add\n        /* \"#utility.yul\":6963:6966   */\n      dup5\n        /* \"#utility.yul\":6954:6960   */\n      dup5\n        /* \"#utility.yul\":6949:6952   */\n      dup5\n        /* \"#utility.yul\":6945:6961   */\n      add\n        /* \"#utility.yul\":6942:6967   */\n      gt\n        /* \"#utility.yul\":6939:7051   */\n      iszero\n      tag_562\n      jumpi\n        /* \"#utility.yul\":6970:7049   */\n      tag_563\n      tag_394\n      jump\t// in\n    tag_563:\n        /* \"#utility.yul\":6939:7051   */\n    tag_562:\n        /* \"#utility.yul\":7060:7114   */\n      tag_564\n        /* \"#utility.yul\":7107:7113   */\n      dup5\n        /* \"#utility.yul\":7102:7105   */\n      dup3\n        /* \"#utility.yul\":7097:7100   */\n      dup6\n        /* \"#utility.yul\":7060:7114   */\n      tag_398\n      jump\t// in\n    tag_564:\n        /* \"#utility.yul\":6779:7120   */\n      pop\n        /* \"#utility.yul\":6695:7120   */\n      swap4\n      swap3\n      pop\n      pop\n      pop\n      jump\t// out\n        /* \"#utility.yul\":7140:7480   */\n    tag_400:\n        /* \"#utility.yul\":7196:7201   */\n      0x00\n        /* \"#utility.yul\":7245:7248   */\n      dup3\n        /* \"#utility.yul\":7238:7242   */\n      0x1f\n        /* \"#utility.yul\":7230:7236   */\n      dup4\n        /* \"#utility.yul\":7226:7243   */\n      add\n        /* \"#utility.yul\":7222:7249   */\n      slt\n        /* \"#utility.yul\":7212:7334   */\n      tag_566\n      jumpi\n        /* \"#utility.yul\":7253:7332   */\n      tag_567\n      tag_393\n      jump\t// in\n    tag_567:\n        /* \"#utility.yul\":7212:7334   */\n    tag_566:\n        /* \"#utility.yul\":7370:7376   */\n      dup2\n        /* \"#utility.yul\":7357:7377   */\n      calldataload\n        /* \"#utility.yul\":7395:7474   */\n      tag_568\n        /* \"#utility.yul\":7470:7473   */\n      dup5\n        /* \"#utility.yul\":7462:7468   */\n      dup3\n        /* \"#utility.yul\":7455:7459   */\n      0x20\n        /* \"#utility.yul\":7447:7453   */\n      dup7\n        /* \"#utility.yul\":7443:7460   */\n      add\n        /* \"#utility.yul\":7395:7474   */\n      tag_399\n      jump\t// in\n    tag_568:\n        /* \"#utility.yul\":7386:7474   */\n      swap2\n      pop\n        /* \"#utility.yul\":7202:7480   */\n      pop\n        /* \"#utility.yul\":7140:7480   */\n      swap3\n      swap2\n      pop\n      pop\n      jump\t// out\n        /* \"#utility.yul\":7486:7576   */\n    tag_401:\n        /* \"#utility.yul\":7520:7527   */\n      0x00\n        /* \"#utility.yul\":7563:7568   */\n      dup2\n        /* \"#utility.yul\":7556:7569   */\n      iszero\n        /* \"#utility.yul\":7549:7570   */\n      iszero\n        /* \"#utility.yul\":7538:7570   */\n      swap1\n      pop\n        /* \"#utility.yul\":7486:7576   */\n      swap2\n      swap1\n      pop\n      jump\t// out\n        /* \"#utility.yul\":7582:7698   */\n    tag_402:\n        /* \"#utility.yul\":7652:7673   */\n      tag_571\n        /* \"#utility.yul\":7667:7672   */\n      dup2\n        /* \"#utility.yul\":7652:7673   */\n      tag_401\n      jump\t// in\n    tag_571:\n        /* \"#utility.yul\":7645:7650   */\n      dup2\n        /* \"#utility.yul\":7642:7674   */\n      eq\n        /* \"#utility.yul\":7632:7692   */\n      tag_572\n      jumpi\n        /* \"#utility.yul\":7688:7689   */\n      0x00\n        /* \"#utility.yul\":7685:7686   */\n      dup1\n        /* \"#utility.yul\":7678:7690   */\n      revert\n        /* \"#utility.yul\":7632:7692   */\n    tag_572:\n        /* \"#utility.yul\":7582:7698   */\n      pop\n      jump\t// out\n        /* \"#utility.yul\":7704:7837   */\n    tag_403:\n        /* \"#utility.yul\":7747:7752   */\n      0x00\n        /* \"#utility.yul\":7785:7791   */\n      dup2\n        /* \"#utility.yul\":7772:7792   */\n      calldataload\n        /* \"#utility.yul\":7763:7792   */\n      swap1\n      pop\n        /* \"#utility.yul\":7801:7831   */\n      tag_574\n        /* \"#utility.yul\":7825:7830   */\n      dup2\n        /* \"#utility.yul\":7801:7831   */\n      tag_402\n      jump\t// in\n    tag_574:\n        /* \"#utility.yul\":7704:7837   */\n      swap3\n      swap2\n      pop\n      pop\n      jump\t// out\n        /* \"#utility.yul\":7843:7965   */\n    tag_404:\n        /* \"#utility.yul\":7916:7940   */\n      tag_576\n        /* \"#utility.yul\":7934:7939   */\n      dup2\n        /* \"#utility.yul\":7916:7940   */\n      tag_376\n      jump\t// in\n    tag_576:\n        /* \"#utility.yul\":7909:7914   */\n      dup2\n        /* \"#utility.yul\":7906:7941   */\n      eq\n        /* \"#utility.yul\":7896:7959   */\n      tag_577\n      jumpi\n        /* \"#utility.yul\":7955:7956   */\n      0x00\n        /* \"#utility.yul\":7952:7953   */\n      dup1\n        /* \"#utility.yul\":7945:7957   */\n      revert\n        /* \"#utility.yul\":7896:7959   */\n    tag_577:\n        /* \"#utility.yul\":7843:7965   */\n      pop\n      jump\t// out\n        /* \"#utility.yul\":7971:8110   */\n    tag_405:\n        /* \"#utility.yul\":8017:8022   */\n      0x00\n        /* \"#utility.yul\":8055:8061   */\n      dup2\n        /* \"#utility.yul\":8042:8062   */\n      calldataload\n        /* \"#utility.yul\":8033:8062   */\n      swap1\n      pop\n        /* \"#utility.yul\":8071:8104   */\n      tag_579\n        /* \"#utility.yul\":8098:8103   */\n      dup2\n        /* \"#utility.yul\":8071:8104   */\n      tag_404\n      jump\t// in\n    tag_579:\n        /* \"#utility.yul\":7971:8110   */\n      swap3\n      swap2\n      pop\n      pop\n      jump\t// out\n        /* \"#utility.yul\":8116:9527   */\n    tag_24:\n        /* \"#utility.yul\":8237:8243   */\n      0x00\n        /* \"#utility.yul\":8245:8251   */\n      dup1\n        /* \"#utility.yul\":8253:8259   */\n      0x00\n        /* \"#utility.yul\":8261:8267   */\n      dup1\n        /* \"#utility.yul\":8269:8275   */\n      0x00\n        /* \"#utility.yul\":8277:8283   */\n      dup1\n        /* \"#utility.yul\":8326:8329   */\n      0xc0\n        /* \"#utility.yul\":8314:8323   */\n      dup8\n        /* \"#utility.yul\":8305:8312   */\n      dup10\n        /* \"#utility.yul\":8301:8324   */\n      sub\n        /* \"#utility.yul\":8297:8330   */\n      slt\n        /* \"#utility.yul\":8294:8414   */\n      iszero\n      tag_581\n      jumpi\n        /* \"#utility.yul\":8333:8412   */\n      tag_582\n      tag_388\n      jump\t// in\n    tag_582:\n        /* \"#utility.yul\":8294:8414   */\n    tag_581:\n        /* \"#utility.yul\":8453:8454   */\n      0x00\n        /* \"#utility.yul\":8478:8531   */\n      tag_583\n        /* \"#utility.yul\":8523:8530   */\n      dup10\n        /* \"#utility.yul\":8514:8520   */\n      dup3\n        /* \"#utility.yul\":8503:8512   */\n      dup11\n        /* \"#utility.yul\":8499:8521   */\n      add\n        /* \"#utility.yul\":8478:8531   */\n      tag_392\n      jump\t// in\n    tag_583:\n        /* \"#utility.yul\":8468:8531   */\n      swap7\n      pop\n        /* \"#utility.yul\":8424:8541   */\n      pop\n        /* \"#utility.yul\":8608:8610   */\n      0x20\n        /* \"#utility.yul\":8597:8606   */\n      dup8\n        /* \"#utility.yul\":8593:8611   */\n      add\n        /* \"#utility.yul\":8580:8612   */\n      calldataload\n        /* \"#utility.yul\":8639:8657   */\n      0xffffffffffffffff\n        /* \"#utility.yul\":8631:8637   */\n      dup2\n        /* \"#utility.yul\":8628:8658   */\n      gt\n        /* \"#utility.yul\":8625:8742   */\n      iszero\n      tag_584\n      jumpi\n        /* \"#utility.yul\":8661:8740   */\n      tag_585\n      tag_389\n      jump\t// in\n    tag_585:\n        /* \"#utility.yul\":8625:8742   */\n    tag_584:\n        /* \"#utility.yul\":8766:8829   */\n      tag_586\n        /* \"#utility.yul\":8821:8828   */\n      dup10\n        /* \"#utility.yul\":8812:8818   */\n      dup3\n        /* \"#utility.yul\":8801:8810   */\n      dup11\n        /* \"#utility.yul\":8797:8819   */\n      add\n        /* \"#utility.yul\":8766:8829   */\n      tag_400\n      jump\t// in\n    tag_586:\n        /* \"#utility.yul\":8756:8829   */\n      swap6\n      pop\n        /* \"#utility.yul\":8551:8839   */\n      pop\n        /* \"#utility.yul\":8906:8908   */\n      0x40\n        /* \"#utility.yul\":8895:8904   */\n      dup8\n        /* \"#utility.yul\":8891:8909   */\n      add\n        /* \"#utility.yul\":8878:8910   */\n      calldataload\n        /* \"#utility.yul\":8937:8955   */\n      0xffffffffffffffff\n        /* \"#utility.yul\":8929:8935   */\n      dup2\n        /* \"#utility.yul\":8926:8956   */\n      gt\n        /* \"#utility.yul\":8923:9040   */\n      iszero\n      tag_587\n      jumpi\n        /* \"#utility.yul\":8959:9038   */\n      tag_588\n      tag_389\n      jump\t// in\n    tag_588:\n        /* \"#utility.yul\":8923:9040   */\n    tag_587:\n        /* \"#utility.yul\":9064:9127   */\n      tag_589\n        /* \"#utility.yul\":9119:9126   */\n      dup10\n        /* \"#utility.yul\":9110:9116   */\n      dup3\n        /* \"#utility.yul\":9099:9108   */\n      dup11\n        /* \"#utility.yul\":9095:9117   */\n      add\n        /* \"#utility.yul\":9064:9127   */\n      tag_400\n      jump\t// in\n    tag_589:\n        /* \"#utility.yul\":9054:9127   */\n      swap5\n      pop\n        /* \"#utility.yul\":8849:9137   */\n      pop\n        /* \"#utility.yul\":9176:9178   */\n      0x60\n        /* \"#utility.yul\":9202:9255   */\n      tag_590\n        /* \"#utility.yul\":9247:9254   */\n      dup10\n        /* \"#utility.yul\":9238:9244   */\n      dup3\n        /* \"#utility.yul\":9227:9236   */\n      dup11\n        /* \"#utility.yul\":9223:9245   */\n      add\n        /* \"#utility.yul\":9202:9255   */\n      tag_392\n      jump\t// in\n    tag_590:\n        /* \"#utility.yul\":9192:9255   */\n      swap4\n      pop\n        /* \"#utility.yul\":9147:9265   */\n      pop\n        /* \"#utility.yul\":9304:9307   */\n      0x80\n        /* \"#utility.yul\":9331:9381   */\n      tag_591\n        /* \"#utility.yul\":9373:9380   */\n      dup10\n        /* \"#utility.yul\":9364:9370   */\n      dup3\n        /* \"#utility.yul\":9353:9362   */\n      dup11\n        /* \"#utility.yul\":9349:9371   */\n      add\n        /* \"#utility.yul\":9331:9381   */\n      tag_403\n      jump\t// in\n    tag_591:\n        /* \"#utility.yul\":9321:9381   */\n      swap3\n      pop\n        /* \"#utility.yul\":9275:9391   */\n      pop\n        /* \"#utility.yul\":9430:9433   */\n      0xa0\n        /* \"#utility.yul\":9457:9510   */\n      tag_592\n        /* \"#utility.yul\":9502:9509   */\n      dup10\n        /* \"#utility.yul\":9493:9499   */\n      dup3\n        /* \"#utility.yul\":9482:9491   */\n      dup11\n        /* \"#utility.yul\":9478:9500   */\n      add\n        /* \"#utility.yul\":9457:9510   */\n      tag_405\n      jump\t// in\n    tag_592:\n        /* \"#utility.yul\":9447:9510   */\n      swap2\n      pop\n        /* \"#utility.yul\":9401:9520   */\n      pop\n        /* \"#utility.yul\":8116:9527   */\n      swap3\n      swap6\n      pop\n      swap3\n      swap6\n      pop\n      swap3\n      swap6\n      jump\t// out\n        /* \"#utility.yul\":9533:9651   */\n    tag_406:\n        /* \"#utility.yul\":9620:9644   */\n      tag_594\n        /* \"#utility.yul\":9638:9643   */\n      dup2\n        /* \"#utility.yul\":9620:9644   */\n      tag_390\n      jump\t// in\n    tag_594:\n        /* \"#utility.yul\":9615:9618   */\n      dup3\n        /* \"#utility.yul\":9608:9645   */\n      mstore\n        /* \"#utility.yul\":9533:9651   */\n      pop\n      pop\n      jump\t// out\n        /* \"#utility.yul\":9657:9879   */\n    tag_29:\n        /* \"#utility.yul\":9750:9754   */\n      0x00\n        /* \"#utility.yul\":9788:9790   */\n      0x20\n        /* \"#utility.yul\":9777:9786   */\n      dup3\n        /* \"#utility.yul\":9773:9791   */\n      add\n        /* \"#utility.yul\":9765:9791   */\n      swap1\n      pop\n        /* \"#utility.yul\":9801:9872   */\n      tag_596\n        /* \"#utility.yul\":9869:9870   */\n      0x00\n        /* \"#utility.yul\":9858:9867   */\n      dup4\n        /* \"#utility.yul\":9854:9871   */\n      add\n        /* \"#utility.yul\":9845:9851   */\n      dup5\n        /* \"#utility.yul\":9801:9872   */\n      tag_406\n      jump\t// in\n    tag_596:\n        /* \"#utility.yul\":9657:9879   */\n      swap3\n      swap2\n      pop\n      pop\n      jump\t// out\n        /* \"#utility.yul\":9885:10719   */\n    tag_34:\n        /* \"#utility.yul\":9973:9979   */\n      0x00\n        /* \"#utility.yul\":9981:9987   */\n      dup1\n        /* \"#utility.yul\":10030:10032   */\n      0x40\n        /* \"#utility.yul\":10018:10027   */\n      dup4\n        /* \"#utility.yul\":10009:10016   */\n      dup6\n        /* \"#utility.yul\":10005:10028   */\n      sub\n        /* \"#utility.yul\":10001:10033   */\n      slt\n        /* \"#utility.yul\":9998:10117   */\n      iszero\n      tag_598\n      jumpi\n        /* \"#utility.yul\":10036:10115   */\n      tag_599\n      tag_388\n      jump\t// in\n    tag_599:\n        /* \"#utility.yul\":9998:10117   */\n    tag_598:\n        /* \"#utility.yul\":10184:10185   */\n      0x00\n        /* \"#utility.yul\":10173:10182   */\n      dup4\n        /* \"#utility.yul\":10169:10186   */\n      add\n        /* \"#utility.yul\":10156:10187   */\n      calldataload\n        /* \"#utility.yul\":10214:10232   */\n      0xffffffffffffffff\n        /* \"#utility.yul\":10206:10212   */\n      dup2\n        /* \"#utility.yul\":10203:10233   */\n      gt\n        /* \"#utility.yul\":10200:10317   */\n      iszero\n      tag_600\n      jumpi\n        /* \"#utility.yul\":10236:10315   */\n      tag_601\n      tag_389\n      jump\t// in\n    tag_601:\n        /* \"#utility.yul\":10200:10317   */\n    tag_600:\n        /* \"#utility.yul\":10341:10404   */\n      tag_602\n        /* \"#utility.yul\":10396:10403   */\n      dup6\n        /* \"#utility.yul\":10387:10393   */\n      dup3\n        /* \"#utility.yul\":10376:10385   */\n      dup7\n        /* \"#utility.yul\":10372:10394   */\n      add\n        /* \"#utility.yul\":10341:10404   */\n      tag_400\n      jump\t// in\n    tag_602:\n        /* \"#utility.yul\":10331:10404   */\n      swap3\n      pop\n        /* \"#utility.yul\":10127:10414   */\n      pop\n        /* \"#utility.yul\":10481:10483   */\n      0x20\n        /* \"#utility.yul\":10470:10479   */\n      dup4\n        /* \"#utility.yul\":10466:10484   */\n      add\n        /* \"#utility.yul\":10453:10485   */\n      calldataload\n        /* \"#utility.yul\":10512:10530   */\n      0xffffffffffffffff\n        /* \"#utility.yul\":10504:10510   */\n      dup2\n        /* \"#utility.yul\":10501:10531   */\n      gt\n        /* \"#utility.yul\":10498:10615   */\n      iszero\n      tag_603\n      jumpi\n        /* \"#utility.yul\":10534:10613   */\n      tag_604\n      tag_389\n      jump\t// in\n    tag_604:\n        /* \"#utility.yul\":10498:10615   */\n    tag_603:\n        /* \"#utility.yul\":10639:10702   */\n      tag_605\n        /* \"#utility.yul\":10694:10701   */\n      dup6\n        /* \"#utility.yul\":10685:10691   */\n      dup3\n        /* \"#utility.yul\":10674:10683   */\n      dup7\n        /* \"#utility.yul\":10670:10692   */\n      add\n        /* \"#utility.yul\":10639:10702   */\n      tag_400\n      jump\t// in\n    tag_605:\n        /* \"#utility.yul\":10629:10702   */\n      swap2\n      pop\n        /* \"#utility.yul\":10424:10712   */\n      pop\n        /* \"#utility.yul\":9885:10719   */\n      swap3\n      pop\n      swap3\n      swap1\n      pop\n      jump\t// out\n        /* \"#utility.yul\":10725:11850   */\n    tag_40:\n        /* \"#utility.yul\":10831:10837   */\n      0x00\n        /* \"#utility.yul\":10839:10845   */\n      dup1\n        /* \"#utility.yul\":10847:10853   */\n      0x00\n        /* \"#utility.yul\":10855:10861   */\n      dup1\n        /* \"#utility.yul\":10904:10907   */\n      0x80\n        /* \"#utility.yul\":10892:10901   */\n      dup6\n        /* \"#utility.yul\":10883:10890   */\n      dup8\n        /* \"#utility.yul\":10879:10902   */\n      sub\n        /* \"#utility.yul\":10875:10908   */\n      slt\n        /* \"#utility.yul\":10872:10992   */\n      iszero\n      tag_607\n      jumpi\n        /* \"#utility.yul\":10911:10990   */\n      tag_608\n      tag_388\n      jump\t// in\n    tag_608:\n        /* \"#utility.yul\":10872:10992   */\n    tag_607:\n        /* \"#utility.yul\":11059:11060   */\n      0x00\n        /* \"#utility.yul\":11048:11057   */\n      dup6\n        /* \"#utility.yul\":11044:11061   */\n      add\n        /* \"#utility.yul\":11031:11062   */\n      calldataload\n        /* \"#utility.yul\":11089:11107   */\n      0xffffffffffffffff\n        /* \"#utility.yul\":11081:11087   */\n      dup2\n        /* \"#utility.yul\":11078:11108   */\n      gt\n        /* \"#utility.yul\":11075:11192   */\n      iszero\n      tag_609\n      jumpi\n        /* \"#utility.yul\":11111:11190   */\n      tag_610\n      tag_389\n      jump\t// in\n    tag_610:\n        /* \"#utility.yul\":11075:11192   */\n    tag_609:\n        /* \"#utility.yul\":11216:11279   */\n      tag_611\n        /* \"#utility.yul\":11271:11278   */\n      dup8\n        /* \"#utility.yul\":11262:11268   */\n      dup3\n        /* \"#utility.yul\":11251:11260   */\n      dup9\n        /* \"#utility.yul\":11247:11269   */\n      add\n        /* \"#utility.yul\":11216:11279   */\n      tag_400\n      jump\t// in\n    tag_611:\n        /* \"#utility.yul\":11206:11279   */\n      swap5\n      pop\n        /* \"#utility.yul\":11002:11289   */\n      pop\n        /* \"#utility.yul\":11328:11330   */\n      0x20\n        /* \"#utility.yul\":11354:11407   */\n      tag_612\n        /* \"#utility.yul\":11399:11406   */\n      dup8\n        /* \"#utility.yul\":11390:11396   */\n      dup3\n        /* \"#utility.yul\":11379:11388   */\n      dup9\n        /* \"#utility.yul\":11375:11397   */\n      add\n        /* \"#utility.yul\":11354:11407   */\n      tag_392\n      jump\t// in\n    tag_612:\n        /* \"#utility.yul\":11344:11407   */\n      swap4\n      pop\n        /* \"#utility.yul\":11299:11417   */\n      pop\n        /* \"#utility.yul\":11456:11458   */\n      0x40\n        /* \"#utility.yul\":11482:11535   */\n      tag_613\n        /* \"#utility.yul\":11527:11534   */\n      dup8\n        /* \"#utility.yul\":11518:11524   */\n      dup3\n        /* \"#utility.yul\":11507:11516   */\n      dup9\n        /* \"#utility.yul\":11503:11525   */\n      add\n        /* \"#utility.yul\":11482:11535   */\n      tag_392\n      jump\t// in\n    tag_613:\n        /* \"#utility.yul\":11472:11535   */\n      swap3\n      pop\n        /* \"#utility.yul\":11427:11545   */\n      pop\n        /* \"#utility.yul\":11612:11614   */\n      0x60\n        /* \"#utility.yul\":11601:11610   */\n      dup6\n        /* \"#utility.yul\":11597:11615   */\n      add\n        /* \"#utility.yul\":11584:11616   */\n      calldataload\n        /* \"#utility.yul\":11643:11661   */\n      0xffffffffffffffff\n        /* \"#utility.yul\":11635:11641   */\n      dup2\n        /* \"#utility.yul\":11632:11662   */\n      gt\n        /* \"#utility.yul\":11629:11746   */\n      iszero\n      tag_614\n      jumpi\n        /* \"#utility.yul\":11665:11744   */\n      tag_615\n      tag_389\n      jump\t// in\n    tag_615:\n        /* \"#utility.yul\":11629:11746   */\n    tag_614:\n        /* \"#utility.yul\":11770:11833   */\n      tag_616\n        /* \"#utility.yul\":11825:11832   */\n      dup8\n        /* \"#utility.yul\":11816:11822   */\n      dup3\n        /* \"#utility.yul\":11805:11814   */\n      dup9\n        /* \"#utility.yul\":11801:11823   */\n      add\n        /* \"#utility.yul\":11770:11833   */\n      tag_400\n      jump\t// in\n    tag_616:\n        /* \"#utility.yul\":11760:11833   */\n      swap2\n      pop\n        /* \"#utility.yul\":11555:11843   */\n      pop\n        /* \"#utility.yul\":10725:11850   */\n      swap3\n      swap6\n      swap2\n      swap5\n      pop\n      swap3\n      pop\n      jump\t// out\n        /* \"#utility.yul\":11856:12185   */\n    tag_44:\n        /* \"#utility.yul\":11915:11921   */\n      0x00\n        /* \"#utility.yul\":11964:11966   */\n      0x20\n        /* \"#utility.yul\":11952:11961   */\n      dup3\n        /* \"#utility.yul\":11943:11950   */\n      dup5\n        /* \"#utility.yul\":11939:11962   */\n      sub\n        /* \"#utility.yul\":11935:11967   */\n      slt\n        /* \"#utility.yul\":11932:12051   */\n      iszero\n      tag_618\n      jumpi\n        /* \"#utility.yul\":11970:12049   */\n      tag_619\n      tag_388\n      jump\t// in\n    tag_619:\n        /* \"#utility.yul\":11932:12051   */\n    tag_618:\n        /* \"#utility.yul\":12090:12091   */\n      0x00\n        /* \"#utility.yul\":12115:12168   */\n      tag_620\n        /* \"#utility.yul\":12160:12167   */\n      dup5\n        /* \"#utility.yul\":12151:12157   */\n      dup3\n        /* \"#utility.yul\":12140:12149   */\n      dup6\n        /* \"#utility.yul\":12136:12158   */\n      add\n        /* \"#utility.yul\":12115:12168   */\n      tag_405\n      jump\t// in\n    tag_620:\n        /* \"#utility.yul\":12105:12168   */\n      swap2\n      pop\n        /* \"#utility.yul\":12061:12178   */\n      pop\n        /* \"#utility.yul\":11856:12185   */\n      swap3\n      swap2\n      pop\n      pop\n      jump\t// out\n        /* \"#utility.yul\":12191:12360   */\n    tag_407:\n        /* \"#utility.yul\":12275:12286   */\n      0x00\n        /* \"#utility.yul\":12309:12315   */\n      dup3\n        /* \"#utility.yul\":12304:12307   */\n      dup3\n        /* \"#utility.yul\":12297:12316   */\n      mstore\n        /* \"#utility.yul\":12349:12353   */\n      0x20\n        /* \"#utility.yul\":12344:12347   */\n      dup3\n        /* \"#utility.yul\":12340:12354   */\n      add\n        /* \"#utility.yul\":12325:12354   */\n      swap1\n      pop\n        /* \"#utility.yul\":12191:12360   */\n      swap3\n      swap2\n      pop\n      pop\n      jump\t// out\n        /* \"#utility.yul\":12366:12743   */\n    tag_408:\n        /* \"#utility.yul\":12454:12457   */\n      0x00\n        /* \"#utility.yul\":12482:12521   */\n      tag_623\n        /* \"#utility.yul\":12515:12520   */\n      dup3\n        /* \"#utility.yul\":12482:12521   */\n      tag_378\n      jump\t// in\n    tag_623:\n        /* \"#utility.yul\":12537:12608   */\n      tag_624\n        /* \"#utility.yul\":12601:12607   */\n      dup2\n        /* \"#utility.yul\":12596:12599   */\n      dup6\n        /* \"#utility.yul\":12537:12608   */\n      tag_407\n      jump\t// in\n    tag_624:\n        /* \"#utility.yul\":12530:12608   */\n      swap4\n      pop\n        /* \"#utility.yul\":12617:12682   */\n      tag_625\n        /* \"#utility.yul\":12675:12681   */\n      dup2\n        /* \"#utility.yul\":12670:12673   */\n      dup6\n        /* \"#utility.yul\":12663:12667   */\n      0x20\n        /* \"#utility.yul\":12656:12661   */\n      dup7\n        /* \"#utility.yul\":12652:12668   */\n      add\n        /* \"#utility.yul\":12617:12682   */\n      tag_380\n      jump\t// in\n    tag_625:\n        /* \"#utility.yul\":12707:12736   */\n      tag_626\n        /* \"#utility.yul\":12729:12735   */\n      dup2\n        /* \"#utility.yul\":12707:12736   */\n      tag_381\n      jump\t// in\n    tag_626:\n        /* \"#utility.yul\":12702:12705   */\n      dup5\n        /* \"#utility.yul\":12698:12737   */\n      add\n        /* \"#utility.yul\":12691:12737   */\n      swap2\n      pop\n        /* \"#utility.yul\":12458:12743   */\n      pop\n        /* \"#utility.yul\":12366:12743   */\n      swap3\n      swap2\n      pop\n      pop\n      jump\t// out\n        /* \"#utility.yul\":12749:12858   */\n    tag_409:\n        /* \"#utility.yul\":12830:12851   */\n      tag_628\n        /* \"#utility.yul\":12845:12850   */\n      dup2\n        /* \"#utility.yul\":12830:12851   */\n      tag_401\n      jump\t// in\n    tag_628:\n        /* \"#utility.yul\":12825:12828   */\n      dup3\n        /* \"#utility.yul\":12818:12852   */\n      mstore\n        /* \"#utility.yul\":12749:12858   */\n      pop\n      pop\n      jump\t// out\n        /* \"#utility.yul\":12864:14011   */\n    tag_47:\n        /* \"#utility.yul\":13179:13183   */\n      0x00\n        /* \"#utility.yul\":13217:13220   */\n      0xe0\n        /* \"#utility.yul\":13206:13215   */\n      dup3\n        /* \"#utility.yul\":13202:13221   */\n      add\n        /* \"#utility.yul\":13194:13221   */\n      swap1\n      pop\n        /* \"#utility.yul\":13267:13276   */\n      dup2\n        /* \"#utility.yul\":13261:13265   */\n      dup2\n        /* \"#utility.yul\":13257:13277   */\n      sub\n        /* \"#utility.yul\":13253:13254   */\n      0x00\n        /* \"#utility.yul\":13242:13251   */\n      dup4\n        /* \"#utility.yul\":13238:13255   */\n      add\n        /* \"#utility.yul\":13231:13278   */\n      mstore\n        /* \"#utility.yul\":13295:13373   */\n      tag_630\n        /* \"#utility.yul\":13368:13372   */\n      dup2\n        /* \"#utility.yul\":13359:13365   */\n      dup11\n        /* \"#utility.yul\":13295:13373   */\n      tag_408\n      jump\t// in\n    tag_630:\n        /* \"#utility.yul\":13287:13373   */\n      swap1\n      pop\n        /* \"#utility.yul\":13383:13455   */\n      tag_631\n        /* \"#utility.yul\":13451:13453   */\n      0x20\n        /* \"#utility.yul\":13440:13449   */\n      dup4\n        /* \"#utility.yul\":13436:13454   */\n      add\n        /* \"#utility.yul\":13427:13433   */\n      dup10\n        /* \"#utility.yul\":13383:13455   */\n      tag_406\n      jump\t// in\n    tag_631:\n        /* \"#utility.yul\":13465:13537   */\n      tag_632\n        /* \"#utility.yul\":13533:13535   */\n      0x40\n        /* \"#utility.yul\":13522:13531   */\n      dup4\n        /* \"#utility.yul\":13518:13536   */\n      add\n        /* \"#utility.yul\":13509:13515   */\n      dup9\n        /* \"#utility.yul\":13465:13537   */\n      tag_406\n      jump\t// in\n    tag_632:\n        /* \"#utility.yul\":13584:13593   */\n      dup2\n        /* \"#utility.yul\":13578:13582   */\n      dup2\n        /* \"#utility.yul\":13574:13594   */\n      sub\n        /* \"#utility.yul\":13569:13571   */\n      0x60\n        /* \"#utility.yul\":13558:13567   */\n      dup4\n        /* \"#utility.yul\":13554:13572   */\n      add\n        /* \"#utility.yul\":13547:13595   */\n      mstore\n        /* \"#utility.yul\":13612:13690   */\n      tag_633\n        /* \"#utility.yul\":13685:13689   */\n      dup2\n        /* \"#utility.yul\":13676:13682   */\n      dup8\n        /* \"#utility.yul\":13612:13690   */\n      tag_408\n      jump\t// in\n    tag_633:\n        /* \"#utility.yul\":13604:13690   */\n      swap1\n      pop\n        /* \"#utility.yul\":13738:13747   */\n      dup2\n        /* \"#utility.yul\":13732:13736   */\n      dup2\n        /* \"#utility.yul\":13728:13748   */\n      sub\n        /* \"#utility.yul\":13722:13725   */\n      0x80\n        /* \"#utility.yul\":13711:13720   */\n      dup4\n        /* \"#utility.yul\":13707:13726   */\n      add\n        /* \"#utility.yul\":13700:13749   */\n      mstore\n        /* \"#utility.yul\":13766:13844   */\n      tag_634\n        /* \"#utility.yul\":13839:13843   */\n      dup2\n        /* \"#utility.yul\":13830:13836   */\n      dup7\n        /* \"#utility.yul\":13766:13844   */\n      tag_408\n      jump\t// in\n    tag_634:\n        /* \"#utility.yul\":13758:13844   */\n      swap1\n      pop\n        /* \"#utility.yul\":13854:13927   */\n      tag_635\n        /* \"#utility.yul\":13922:13925   */\n      0xa0\n        /* \"#utility.yul\":13911:13920   */\n      dup4\n        /* \"#utility.yul\":13907:13926   */\n      add\n        /* \"#utility.yul\":13898:13904   */\n      dup6\n        /* \"#utility.yul\":13854:13927   */\n      tag_406\n      jump\t// in\n    tag_635:\n        /* \"#utility.yul\":13937:14004   */\n      tag_636\n        /* \"#utility.yul\":13999:14002   */\n      0xc0\n        /* \"#utility.yul\":13988:13997   */\n      dup4\n        /* \"#utility.yul\":13984:14003   */\n      add\n        /* \"#utility.yul\":13975:13981   */\n      dup5\n        /* \"#utility.yul\":13937:14004   */\n      tag_409\n      jump\t// in\n    tag_636:\n        /* \"#utility.yul\":12864:14011   */\n      swap9\n      swap8\n      pop\n      pop\n      pop\n      pop\n      pop\n      pop\n      pop\n      pop\n      jump\t// out\n        /* \"#utility.yul\":14017:14531   */\n    tag_59:\n        /* \"#utility.yul\":14178:14182   */\n      0x00\n        /* \"#utility.yul\":14216:14218   */\n      0x40\n        /* \"#utility.yul\":14205:14214   */\n      dup3\n        /* \"#utility.yul\":14201:14219   */\n      add\n        /* \"#utility.yul\":14193:14219   */\n      swap1\n      pop\n        /* \"#utility.yul\":14265:14274   */\n      dup2\n        /* \"#utility.yul\":14259:14263   */\n      dup2\n        /* \"#utility.yul\":14255:14275   */\n      sub\n        /* \"#utility.yul\":14251:14252   */\n      0x00\n        /* \"#utility.yul\":14240:14249   */\n      dup4\n        /* \"#utility.yul\":14236:14253   */\n      add\n        /* \"#utility.yul\":14229:14276   */\n      mstore\n        /* \"#utility.yul\":14293:14371   */\n      tag_638\n        /* \"#utility.yul\":14366:14370   */\n      dup2\n        /* \"#utility.yul\":14357:14363   */\n      dup6\n        /* \"#utility.yul\":14293:14371   */\n      tag_408\n      jump\t// in\n    tag_638:\n        /* \"#utility.yul\":14285:14371   */\n      swap1\n      pop\n        /* \"#utility.yul\":14418:14427   */\n      dup2\n        /* \"#utility.yul\":14412:14416   */\n      dup2\n        /* \"#utility.yul\":14408:14428   */\n      sub\n        /* \"#utility.yul\":14403:14405   */\n      0x20\n        /* \"#utility.yul\":14392:14401   */\n      dup4\n        /* \"#utility.yul\":14388:14406   */\n      add\n        /* \"#utility.yul\":14381:14429   */\n      mstore\n        /* \"#utility.yul\":14446:14524   */\n      tag_639\n        /* \"#utility.yul\":14519:14523   */\n      dup2\n        /* \"#utility.yul\":14510:14516   */\n      dup5\n        /* \"#utility.yul\":14446:14524   */\n      tag_408\n      jump\t// in\n    tag_639:\n        /* \"#utility.yul\":14438:14524   */\n      swap1\n      pop\n        /* \"#utility.yul\":14017:14531   */\n      swap4\n      swap3\n      pop\n      pop\n      pop\n      jump\t// out\n        /* \"#utility.yul\":14537:14674   */\n    tag_410:\n        /* \"#utility.yul\":14627:14633   */\n      0x00\n        /* \"#utility.yul\":14661:14666   */\n      dup2\n        /* \"#utility.yul\":14655:14667   */\n      mload\n        /* \"#utility.yul\":14645:14667   */\n      swap1\n      pop\n        /* \"#utility.yul\":14537:14674   */\n      swap2\n      swap1\n      pop\n      jump\t// out\n        /* \"#utility.yul\":14680:14887   */\n    tag_411:\n        /* \"#utility.yul\":14802:14813   */\n      0x00\n        /* \"#utility.yul\":14836:14842   */\n      dup3\n        /* \"#utility.yul\":14831:14834   */\n      dup3\n        /* \"#utility.yul\":14824:14843   */\n      mstore\n        /* \"#utility.yul\":14876:14880   */\n      0x20\n        /* \"#utility.yul\":14871:14874   */\n      dup3\n        /* \"#utility.yul\":14867:14881   */\n      add\n        /* \"#utility.yul\":14852:14881   */\n      swap1\n      pop\n        /* \"#utility.yul\":14680:14887   */\n      swap3\n      swap2\n      pop\n      pop\n      jump\t// out\n        /* \"#utility.yul\":14893:15048   */\n    tag_412:\n        /* \"#utility.yul\":14983:14987   */\n      0x00\n        /* \"#utility.yul\":15006:15009   */\n      dup2\n        /* \"#utility.yul\":14998:15009   */\n      swap1\n      pop\n        /* \"#utility.yul\":15036:15040   */\n      0x20\n        /* \"#utility.yul\":15031:15034   */\n      dup3\n        /* \"#utility.yul\":15027:15041   */\n      add\n        /* \"#utility.yul\":15019:15041   */\n      swap1\n      pop\n        /* \"#utility.yul\":14893:15048   */\n      swap2\n      swap1\n      pop\n      jump\t// out\n        /* \"#utility.yul\":15054:15162   */\n    tag_413:\n        /* \"#utility.yul\":15131:15155   */\n      tag_644\n        /* \"#utility.yul\":15149:15154   */\n      dup2\n        /* \"#utility.yul\":15131:15155   */\n      tag_390\n      jump\t// in\n    tag_644:\n        /* \"#utility.yul\":15126:15129   */\n      dup3\n        /* \"#utility.yul\":15119:15156   */\n      mstore\n        /* \"#utility.yul\":15054:15162   */\n      pop\n      pop\n      jump\t// out\n        /* \"#utility.yul\":15168:15267   */\n    tag_414:\n        /* \"#utility.yul\":15239:15260   */\n      tag_646\n        /* \"#utility.yul\":15254:15259   */\n      dup2\n        /* \"#utility.yul\":15239:15260   */\n      tag_401\n      jump\t// in\n    tag_646:\n        /* \"#utility.yul\":15234:15237   */\n      dup3\n        /* \"#utility.yul\":15227:15261   */\n      mstore\n        /* \"#utility.yul\":15168:15267   */\n      pop\n      pop\n      jump\t// out\n        /* \"#utility.yul\":15355:17366   */\n    tag_415:\n        /* \"#utility.yul\":15460:15463   */\n      0x00\n        /* \"#utility.yul\":15496:15502   */\n      0x0120\n        /* \"#utility.yul\":15491:15494   */\n      dup4\n        /* \"#utility.yul\":15487:15503   */\n      add\n        /* \"#utility.yul\":15592:15596   */\n      0x00\n        /* \"#utility.yul\":15585:15590   */\n      dup4\n        /* \"#utility.yul\":15581:15597   */\n      add\n        /* \"#utility.yul\":15575:15598   */\n      mload\n        /* \"#utility.yul\":15611:15674   */\n      tag_648\n        /* \"#utility.yul\":15668:15672   */\n      0x00\n        /* \"#utility.yul\":15663:15666   */\n      dup7\n        /* \"#utility.yul\":15659:15673   */\n      add\n        /* \"#utility.yul\":15645:15657   */\n      dup3\n        /* \"#utility.yul\":15611:15674   */\n      tag_377\n      jump\t// in\n    tag_648:\n        /* \"#utility.yul\":15513:15684   */\n      pop\n        /* \"#utility.yul\":15766:15770   */\n      0x20\n        /* \"#utility.yul\":15759:15764   */\n      dup4\n        /* \"#utility.yul\":15755:15771   */\n      add\n        /* \"#utility.yul\":15749:15772   */\n      mload\n        /* \"#utility.yul\":15819:15822   */\n      dup5\n        /* \"#utility.yul\":15813:15817   */\n      dup3\n        /* \"#utility.yul\":15809:15823   */\n      sub\n        /* \"#utility.yul\":15802:15806   */\n      0x20\n        /* \"#utility.yul\":15797:15800   */\n      dup7\n        /* \"#utility.yul\":15793:15807   */\n      add\n        /* \"#utility.yul\":15786:15824   */\n      mstore\n        /* \"#utility.yul\":15845:15918   */\n      tag_649\n        /* \"#utility.yul\":15913:15917   */\n      dup3\n        /* \"#utility.yul\":15899:15911   */\n      dup3\n        /* \"#utility.yul\":15845:15918   */\n      tag_382\n      jump\t// in\n    tag_649:\n        /* \"#utility.yul\":15837:15918   */\n      swap2\n      pop\n        /* \"#utility.yul\":15694:15929   */\n      pop\n        /* \"#utility.yul\":16019:16023   */\n      0x40\n        /* \"#utility.yul\":16012:16017   */\n      dup4\n        /* \"#utility.yul\":16008:16024   */\n      add\n        /* \"#utility.yul\":16002:16025   */\n      mload\n        /* \"#utility.yul\":16038:16101   */\n      tag_650\n        /* \"#utility.yul\":16095:16099   */\n      0x40\n        /* \"#utility.yul\":16090:16093   */\n      dup7\n        /* \"#utility.yul\":16086:16100   */\n      add\n        /* \"#utility.yul\":16072:16084   */\n      dup3\n        /* \"#utility.yul\":16038:16101   */\n      tag_413\n      jump\t// in\n    tag_650:\n        /* \"#utility.yul\":15939:16111   */\n      pop\n        /* \"#utility.yul\":16196:16200   */\n      0x60\n        /* \"#utility.yul\":16189:16194   */\n      dup4\n        /* \"#utility.yul\":16185:16201   */\n      add\n        /* \"#utility.yul\":16179:16202   */\n      mload\n        /* \"#utility.yul\":16215:16278   */\n      tag_651\n        /* \"#utility.yul\":16272:16276   */\n      0x60\n        /* \"#utility.yul\":16267:16270   */\n      dup7\n        /* \"#utility.yul\":16263:16277   */\n      add\n        /* \"#utility.yul\":16249:16261   */\n      dup3\n        /* \"#utility.yul\":16215:16278   */\n      tag_413\n      jump\t// in\n    tag_651:\n        /* \"#utility.yul\":16121:16288   */\n      pop\n        /* \"#utility.yul\":16382:16386   */\n      0x80\n        /* \"#utility.yul\":16375:16380   */\n      dup4\n        /* \"#utility.yul\":16371:16387   */\n      add\n        /* \"#utility.yul\":16365:16388   */\n      mload\n        /* \"#utility.yul\":16435:16438   */\n      dup5\n        /* \"#utility.yul\":16429:16433   */\n      dup3\n        /* \"#utility.yul\":16425:16439   */\n      sub\n        /* \"#utility.yul\":16418:16422   */\n      0x80\n        /* \"#utility.yul\":16413:16416   */\n      dup7\n        /* \"#utility.yul\":16409:16423   */\n      add\n        /* \"#utility.yul\":16402:16440   */\n      mstore\n        /* \"#utility.yul\":16461:16534   */\n      tag_652\n        /* \"#utility.yul\":16529:16533   */\n      dup3\n        /* \"#utility.yul\":16515:16527   */\n      dup3\n        /* \"#utility.yul\":16461:16534   */\n      tag_382\n      jump\t// in\n    tag_652:\n        /* \"#utility.yul\":16453:16534   */\n      swap2\n      pop\n        /* \"#utility.yul\":16298:16545   */\n      pop\n        /* \"#utility.yul\":16635:16639   */\n      0xa0\n        /* \"#utility.yul\":16628:16633   */\n      dup4\n        /* \"#utility.yul\":16624:16640   */\n      add\n        /* \"#utility.yul\":16618:16641   */\n      mload\n        /* \"#utility.yul\":16688:16691   */\n      dup5\n        /* \"#utility.yul\":16682:16686   */\n      dup3\n        /* \"#utility.yul\":16678:16692   */\n      sub\n        /* \"#utility.yul\":16671:16675   */\n      0xa0\n        /* \"#utility.yul\":16666:16669   */\n      dup7\n        /* \"#utility.yul\":16662:16676   */\n      add\n        /* \"#utility.yul\":16655:16693   */\n      mstore\n        /* \"#utility.yul\":16714:16787   */\n      tag_653\n        /* \"#utility.yul\":16782:16786   */\n      dup3\n        /* \"#utility.yul\":16768:16780   */\n      dup3\n        /* \"#utility.yul\":16714:16787   */\n      tag_382\n      jump\t// in\n    tag_653:\n        /* \"#utility.yul\":16706:16787   */\n      swap2\n      pop\n        /* \"#utility.yul\":16555:16798   */\n      pop\n        /* \"#utility.yul\":16886:16890   */\n      0xc0\n        /* \"#utility.yul\":16879:16884   */\n      dup4\n        /* \"#utility.yul\":16875:16891   */\n      add\n        /* \"#utility.yul\":16869:16892   */\n      mload\n        /* \"#utility.yul\":16905:16968   */\n      tag_654\n        /* \"#utility.yul\":16962:16966   */\n      0xc0\n        /* \"#utility.yul\":16957:16960   */\n      dup7\n        /* \"#utility.yul\":16953:16967   */\n      add\n        /* \"#utility.yul\":16939:16951   */\n      dup3\n        /* \"#utility.yul\":16905:16968   */\n      tag_413\n      jump\t// in\n    tag_654:\n        /* \"#utility.yul\":16808:16978   */\n      pop\n        /* \"#utility.yul\":17069:17073   */\n      0xe0\n        /* \"#utility.yul\":17062:17067   */\n      dup4\n        /* \"#utility.yul\":17058:17074   */\n      add\n        /* \"#utility.yul\":17052:17075   */\n      mload\n        /* \"#utility.yul\":17088:17151   */\n      tag_655\n        /* \"#utility.yul\":17145:17149   */\n      0xe0\n        /* \"#utility.yul\":17140:17143   */\n      dup7\n        /* \"#utility.yul\":17136:17150   */\n      add\n        /* \"#utility.yul\":17122:17134   */\n      dup3\n        /* \"#utility.yul\":17088:17151   */\n      tag_413\n      jump\t// in\n    tag_655:\n        /* \"#utility.yul\":16988:17161   */\n      pop\n        /* \"#utility.yul\":17249:17255   */\n      0x0100\n        /* \"#utility.yul\":17242:17247   */\n      dup4\n        /* \"#utility.yul\":17238:17256   */\n      add\n        /* \"#utility.yul\":17232:17257   */\n      mload\n        /* \"#utility.yul\":17270:17329   */\n      tag_656\n        /* \"#utility.yul\":17321:17327   */\n      0x0100\n        /* \"#utility.yul\":17316:17319   */\n      dup7\n        /* \"#utility.yul\":17312:17328   */\n      add\n        /* \"#utility.yul\":17298:17310   */\n      dup3\n        /* \"#utility.yul\":17270:17329   */\n      tag_414\n      jump\t// in\n    tag_656:\n        /* \"#utility.yul\":17171:17339   */\n      pop\n        /* \"#utility.yul\":17356:17360   */\n      dup1\n        /* \"#utility.yul\":17349:17360   */\n      swap2\n      pop\n        /* \"#utility.yul\":15465:17366   */\n      pop\n        /* \"#utility.yul\":15355:17366   */\n      swap3\n      swap2\n      pop\n      pop\n      jump\t// out\n        /* \"#utility.yul\":17372:17620   */\n    tag_416:\n        /* \"#utility.yul\":17487:17497   */\n      0x00\n        /* \"#utility.yul\":17522:17614   */\n      tag_658\n        /* \"#utility.yul\":17610:17613   */\n      dup4\n        /* \"#utility.yul\":17602:17608   */\n      dup4\n        /* \"#utility.yul\":17522:17614   */\n      tag_415\n      jump\t// in\n    tag_658:\n        /* \"#utility.yul\":17508:17614   */\n      swap1\n      pop\n        /* \"#utility.yul\":17372:17620   */\n      swap3\n      swap2\n      pop\n      pop\n      jump\t// out\n        /* \"#utility.yul\":17626:17762   */\n    tag_417:\n        /* \"#utility.yul\":17719:17723   */\n      0x00\n        /* \"#utility.yul\":17751:17755   */\n      0x20\n        /* \"#utility.yul\":17746:17749   */\n      dup3\n        /* \"#utility.yul\":17742:17756   */\n      add\n        /* \"#utility.yul\":17734:17756   */\n      swap1\n      pop\n        /* \"#utility.yul\":17626:17762   */\n      swap2\n      swap1\n      pop\n      jump\t// out\n        /* \"#utility.yul\":17854:18949   */\n    tag_418:\n        /* \"#utility.yul\":18019:18022   */\n      0x00\n        /* \"#utility.yul\":18048:18125   */\n      tag_661\n        /* \"#utility.yul\":18119:18124   */\n      dup3\n        /* \"#utility.yul\":18048:18125   */\n      tag_410\n      jump\t// in\n    tag_661:\n        /* \"#utility.yul\":18141:18250   */\n      tag_662\n        /* \"#utility.yul\":18243:18249   */\n      dup2\n        /* \"#utility.yul\":18238:18241   */\n      dup6\n        /* \"#utility.yul\":18141:18250   */\n      tag_411\n      jump\t// in\n    tag_662:\n        /* \"#utility.yul\":18134:18250   */\n      swap4\n      pop\n        /* \"#utility.yul\":18276:18279   */\n      dup4\n        /* \"#utility.yul\":18321:18325   */\n      0x20\n        /* \"#utility.yul\":18313:18319   */\n      dup3\n        /* \"#utility.yul\":18309:18326   */\n      mul\n        /* \"#utility.yul\":18304:18307   */\n      dup6\n        /* \"#utility.yul\":18300:18327   */\n      add\n        /* \"#utility.yul\":18351:18430   */\n      tag_663\n        /* \"#utility.yul\":18424:18429   */\n      dup6\n        /* \"#utility.yul\":18351:18430   */\n      tag_412\n      jump\t// in\n    tag_663:\n        /* \"#utility.yul\":18453:18460   */\n      dup1\n        /* \"#utility.yul\":18484:18485   */\n      0x00\n        /* \"#utility.yul\":18469:18904   */\n    tag_664:\n        /* \"#utility.yul\":18494:18500   */\n      dup6\n        /* \"#utility.yul\":18491:18492   */\n      dup2\n        /* \"#utility.yul\":18488:18501   */\n      lt\n        /* \"#utility.yul\":18469:18904   */\n      iszero\n      tag_666\n      jumpi\n        /* \"#utility.yul\":18565:18574   */\n      dup5\n        /* \"#utility.yul\":18559:18563   */\n      dup5\n        /* \"#utility.yul\":18555:18575   */\n      sub\n        /* \"#utility.yul\":18550:18553   */\n      dup10\n        /* \"#utility.yul\":18543:18576   */\n      mstore\n        /* \"#utility.yul\":18616:18622   */\n      dup2\n        /* \"#utility.yul\":18610:18623   */\n      mload\n        /* \"#utility.yul\":18644:18754   */\n      tag_667\n        /* \"#utility.yul\":18749:18753   */\n      dup6\n        /* \"#utility.yul\":18734:18747   */\n      dup3\n        /* \"#utility.yul\":18644:18754   */\n      tag_416\n      jump\t// in\n    tag_667:\n        /* \"#utility.yul\":18636:18754   */\n      swap5\n      pop\n        /* \"#utility.yul\":18777:18860   */\n      tag_668\n        /* \"#utility.yul\":18853:18859   */\n      dup4\n        /* \"#utility.yul\":18777:18860   */\n      tag_417\n      jump\t// in\n    tag_668:\n        /* \"#utility.yul\":18767:18860   */\n      swap3\n      pop\n        /* \"#utility.yul\":18889:18893   */\n      0x20\n        /* \"#utility.yul\":18884:18887   */\n      dup11\n        /* \"#utility.yul\":18880:18894   */\n      add\n        /* \"#utility.yul\":18873:18894   */\n      swap10\n      pop\n        /* \"#utility.yul\":18529:18904   */\n      pop\n        /* \"#utility.yul\":18516:18517   */\n      0x01\n        /* \"#utility.yul\":18513:18514   */\n      dup2\n        /* \"#utility.yul\":18509:18518   */\n      add\n        /* \"#utility.yul\":18504:18518   */\n      swap1\n      pop\n        /* \"#utility.yul\":18469:18904   */\n      jump(tag_664)\n    tag_666:\n        /* \"#utility.yul\":18473:18487   */\n      pop\n        /* \"#utility.yul\":18920:18924   */\n      dup3\n        /* \"#utility.yul\":18913:18924   */\n      swap8\n      pop\n        /* \"#utility.yul\":18940:18943   */\n      dup8\n        /* \"#utility.yul\":18933:18943   */\n      swap6\n      pop\n        /* \"#utility.yul\":18024:18949   */\n      pop\n      pop\n      pop\n      pop\n      pop\n        /* \"#utility.yul\":17854:18949   */\n      swap3\n      swap2\n      pop\n      pop\n      jump\t// out\n        /* \"#utility.yul\":18955:19420   */\n    tag_63:\n        /* \"#utility.yul\":19144:19148   */\n      0x00\n        /* \"#utility.yul\":19182:19184   */\n      0x20\n        /* \"#utility.yul\":19171:19180   */\n      dup3\n        /* \"#utility.yul\":19167:19185   */\n      add\n        /* \"#utility.yul\":19159:19185   */\n      swap1\n      pop\n        /* \"#utility.yul\":19231:19240   */\n      dup2\n        /* \"#utility.yul\":19225:19229   */\n      dup2\n        /* \"#utility.yul\":19221:19241   */\n      sub\n        /* \"#utility.yul\":19217:19218   */\n      0x00\n        /* \"#utility.yul\":19206:19215   */\n      dup4\n        /* \"#utility.yul\":19202:19219   */\n      add\n        /* \"#utility.yul\":19195:19242   */\n      mstore\n        /* \"#utility.yul\":19259:19413   */\n      tag_670\n        /* \"#utility.yul\":19408:19412   */\n      dup2\n        /* \"#utility.yul\":19399:19405   */\n      dup5\n        /* \"#utility.yul\":19259:19413   */\n      tag_418\n      jump\t// in\n    tag_670:\n        /* \"#utility.yul\":19251:19413   */\n      swap1\n      pop\n        /* \"#utility.yul\":18955:19420   */\n      swap3\n      swap2\n      pop\n      pop\n      jump\t// out\n        /* \"#utility.yul\":19426:19568   */\n    tag_419:\n        /* \"#utility.yul\":19521:19527   */\n      0x00\n        /* \"#utility.yul\":19555:19560   */\n      dup2\n        /* \"#utility.yul\":19549:19561   */\n      mload\n        /* \"#utility.yul\":19539:19561   */\n      swap1\n      pop\n        /* \"#utility.yul\":19426:19568   */\n      swap2\n      swap1\n      pop\n      jump\t// out\n        /* \"#utility.yul\":19574:19786   */\n    tag_420:\n        /* \"#utility.yul\":19701:19712   */\n      0x00\n        /* \"#utility.yul\":19735:19741   */\n      dup3\n        /* \"#utility.yul\":19730:19733   */\n      dup3\n        /* \"#utility.yul\":19723:19742   */\n      mstore\n        /* \"#utility.yul\":19775:19779   */\n      0x20\n        /* \"#utility.yul\":19770:19773   */\n      dup3\n        /* \"#utility.yul\":19766:19780   */\n      add\n        /* \"#utility.yul\":19751:19780   */\n      swap1\n      pop\n        /* \"#utility.yul\":19574:19786   */\n      swap3\n      swap2\n      pop\n      pop\n      jump\t// out\n        /* \"#utility.yul\":19792:19952   */\n    tag_421:\n        /* \"#utility.yul\":19887:19891   */\n      0x00\n        /* \"#utility.yul\":19910:19913   */\n      dup2\n        /* \"#utility.yul\":19902:19913   */\n      swap1\n      pop\n        /* \"#utility.yul\":19940:19944   */\n      0x20\n        /* \"#utility.yul\":19935:19938   */\n      dup3\n        /* \"#utility.yul\":19931:19945   */\n      add\n        /* \"#utility.yul\":19923:19945   */\n      swap1\n      pop\n        /* \"#utility.yul\":19792:19952   */\n      swap2\n      swap1\n      pop\n      jump\t// out\n        /* \"#utility.yul\":20050:21278   */\n    tag_422:\n        /* \"#utility.yul\":20165:20168   */\n      0x00\n        /* \"#utility.yul\":20201:20205   */\n      0xa0\n        /* \"#utility.yul\":20196:20199   */\n      dup4\n        /* \"#utility.yul\":20192:20206   */\n      add\n        /* \"#utility.yul\":20295:20299   */\n      0x00\n        /* \"#utility.yul\":20288:20293   */\n      dup4\n        /* \"#utility.yul\":20284:20300   */\n      add\n        /* \"#utility.yul\":20278:20301   */\n      mload\n        /* \"#utility.yul\":20348:20351   */\n      dup5\n        /* \"#utility.yul\":20342:20346   */\n      dup3\n        /* \"#utility.yul\":20338:20352   */\n      sub\n        /* \"#utility.yul\":20331:20335   */\n      0x00\n        /* \"#utility.yul\":20326:20329   */\n      dup7\n        /* \"#utility.yul\":20322:20336   */\n      add\n        /* \"#utility.yul\":20315:20353   */\n      mstore\n        /* \"#utility.yul\":20374:20447   */\n      tag_675\n        /* \"#utility.yul\":20442:20446   */\n      dup3\n        /* \"#utility.yul\":20428:20440   */\n      dup3\n        /* \"#utility.yul\":20374:20447   */\n      tag_382\n      jump\t// in\n    tag_675:\n        /* \"#utility.yul\":20366:20447   */\n      swap2\n      pop\n        /* \"#utility.yul\":20216:20458   */\n      pop\n        /* \"#utility.yul\":20548:20552   */\n      0x20\n        /* \"#utility.yul\":20541:20546   */\n      dup4\n        /* \"#utility.yul\":20537:20553   */\n      add\n        /* \"#utility.yul\":20531:20554   */\n      mload\n        /* \"#utility.yul\":20567:20630   */\n      tag_676\n        /* \"#utility.yul\":20624:20628   */\n      0x20\n        /* \"#utility.yul\":20619:20622   */\n      dup7\n        /* \"#utility.yul\":20615:20629   */\n      add\n        /* \"#utility.yul\":20601:20613   */\n      dup3\n        /* \"#utility.yul\":20567:20630   */\n      tag_413\n      jump\t// in\n    tag_676:\n        /* \"#utility.yul\":20468:20640   */\n      pop\n        /* \"#utility.yul\":20730:20734   */\n      0x40\n        /* \"#utility.yul\":20723:20728   */\n      dup4\n        /* \"#utility.yul\":20719:20735   */\n      add\n        /* \"#utility.yul\":20713:20736   */\n      mload\n        /* \"#utility.yul\":20783:20786   */\n      dup5\n        /* \"#utility.yul\":20777:20781   */\n      dup3\n        /* \"#utility.yul\":20773:20787   */\n      sub\n        /* \"#utility.yul\":20766:20770   */\n      0x40\n        /* \"#utility.yul\":20761:20764   */\n      dup7\n        /* \"#utility.yul\":20757:20771   */\n      add\n        /* \"#utility.yul\":20750:20788   */\n      mstore\n        /* \"#utility.yul\":20809:20882   */\n      tag_677\n        /* \"#utility.yul\":20877:20881   */\n      dup3\n        /* \"#utility.yul\":20863:20875   */\n      dup3\n        /* \"#utility.yul\":20809:20882   */\n      tag_382\n      jump\t// in\n    tag_677:\n        /* \"#utility.yul\":20801:20882   */\n      swap2\n      pop\n        /* \"#utility.yul\":20650:20893   */\n      pop\n        /* \"#utility.yul\":20980:20984   */\n      0x60\n        /* \"#utility.yul\":20973:20978   */\n      dup4\n        /* \"#utility.yul\":20969:20985   */\n      add\n        /* \"#utility.yul\":20963:20986   */\n      mload\n        /* \"#utility.yul\":20999:21062   */\n      tag_678\n        /* \"#utility.yul\":21056:21060   */\n      0x60\n        /* \"#utility.yul\":21051:21054   */\n      dup7\n        /* \"#utility.yul\":21047:21061   */\n      add\n        /* \"#utility.yul\":21033:21045   */\n      dup3\n        /* \"#utility.yul\":20999:21062   */\n      tag_377\n      jump\t// in\n    tag_678:\n        /* \"#utility.yul\":20903:21072   */\n      pop\n        /* \"#utility.yul\":21159:21163   */\n      0x80\n        /* \"#utility.yul\":21152:21157   */\n      dup4\n        /* \"#utility.yul\":21148:21164   */\n      add\n        /* \"#utility.yul\":21142:21165   */\n      mload\n        /* \"#utility.yul\":21178:21241   */\n      tag_679\n        /* \"#utility.yul\":21235:21239   */\n      0x80\n        /* \"#utility.yul\":21230:21233   */\n      dup7\n        /* \"#utility.yul\":21226:21240   */\n      add\n        /* \"#utility.yul\":21212:21224   */\n      dup3\n        /* \"#utility.yul\":21178:21241   */\n      tag_413\n      jump\t// in\n    tag_679:\n        /* \"#utility.yul\":21082:21251   */\n      pop\n        /* \"#utility.yul\":21268:21272   */\n      dup1\n        /* \"#utility.yul\":21261:21272   */\n      swap2\n      pop\n        /* \"#utility.yul\":20170:21278   */\n      pop\n        /* \"#utility.yul\":20050:21278   */\n      swap3\n      swap2\n      pop\n      pop\n      jump\t// out\n        /* \"#utility.yul\":21284:21552   */\n    tag_423:\n        /* \"#utility.yul\":21409:21419   */\n      0x00\n        /* \"#utility.yul\":21444:21546   */\n      tag_681\n        /* \"#utility.yul\":21542:21545   */\n      dup4\n        /* \"#utility.yul\":21534:21540   */\n      dup4\n        /* \"#utility.yul\":21444:21546   */\n      tag_422\n      jump\t// in\n    tag_681:\n        /* \"#utility.yul\":21430:21546   */\n      swap1\n      pop\n        /* \"#utility.yul\":21284:21552   */\n      swap3\n      swap2\n      pop\n      pop\n      jump\t// out\n        /* \"#utility.yul\":21558:21699   */\n    tag_424:\n        /* \"#utility.yul\":21656:21660   */\n      0x00\n        /* \"#utility.yul\":21688:21692   */\n      0x20\n        /* \"#utility.yul\":21683:21686   */\n      dup3\n        /* \"#utility.yul\":21679:21693   */\n      add\n        /* \"#utility.yul\":21671:21693   */\n      swap1\n      pop\n        /* \"#utility.yul\":21558:21699   */\n      swap2\n      swap1\n      pop\n      jump\t// out\n        /* \"#utility.yul\":21801:22936   */\n    tag_425:\n        /* \"#utility.yul\":21976:21979   */\n      0x00\n        /* \"#utility.yul\":22005:22087   */\n      tag_684\n        /* \"#utility.yul\":22081:22086   */\n      dup3\n        /* \"#utility.yul\":22005:22087   */\n      tag_419\n      jump\t// in\n    tag_684:\n        /* \"#utility.yul\":22103:22217   */\n      tag_685\n        /* \"#utility.yul\":22210:22216   */\n      dup2\n        /* \"#utility.yul\":22205:22208   */\n      dup6\n        /* \"#utility.yul\":22103:22217   */\n      tag_420\n      jump\t// in\n    tag_685:\n        /* \"#utility.yul\":22096:22217   */\n      swap4\n      pop\n        /* \"#utility.yul\":22243:22246   */\n      dup4\n        /* \"#utility.yul\":22288:22292   */\n      0x20\n        /* \"#utility.yul\":22280:22286   */\n      dup3\n        /* \"#utility.yul\":22276:22293   */\n      mul\n        /* \"#utility.yul\":22271:22274   */\n      dup6\n        /* \"#utility.yul\":22267:22294   */\n      add\n        /* \"#utility.yul\":22318:22402   */\n      tag_686\n        /* \"#utility.yul\":22396:22401   */\n      dup6\n        /* \"#utility.yul\":22318:22402   */\n      tag_421\n      jump\t// in\n    tag_686:\n        /* \"#utility.yul\":22425:22432   */\n      dup1\n        /* \"#utility.yul\":22456:22457   */\n      0x00\n        /* \"#utility.yul\":22441:22891   */\n    tag_687:\n        /* \"#utility.yul\":22466:22472   */\n      dup6\n        /* \"#utility.yul\":22463:22464   */\n      dup2\n        /* \"#utility.yul\":22460:22473   */\n      lt\n        /* \"#utility.yul\":22441:22891   */\n      iszero\n      tag_689\n      jumpi\n        /* \"#utility.yul\":22537:22546   */\n      dup5\n        /* \"#utility.yul\":22531:22535   */\n      dup5\n        /* \"#utility.yul\":22527:22547   */\n      sub\n        /* \"#utility.yul\":22522:22525   */\n      dup10\n        /* \"#utility.yul\":22515:22548   */\n      mstore\n        /* \"#utility.yul\":22588:22594   */\n      dup2\n        /* \"#utility.yul\":22582:22595   */\n      mload\n        /* \"#utility.yul\":22616:22736   */\n      tag_690\n        /* \"#utility.yul\":22731:22735   */\n      dup6\n        /* \"#utility.yul\":22716:22729   */\n      dup3\n        /* \"#utility.yul\":22616:22736   */\n      tag_423\n      jump\t// in\n    tag_690:\n        /* \"#utility.yul\":22608:22736   */\n      swap5\n      pop\n        /* \"#utility.yul\":22759:22847   */\n      tag_691\n        /* \"#utility.yul\":22840:22846   */\n      dup4\n        /* \"#utility.yul\":22759:22847   */\n      tag_424\n      jump\t// in\n    tag_691:\n        /* \"#utility.yul\":22749:22847   */\n      swap3\n      pop\n        /* \"#utility.yul\":22876:22880   */\n      0x20\n        /* \"#utility.yul\":22871:22874   */\n      dup11\n        /* \"#utility.yul\":22867:22881   */\n      add\n        /* \"#utility.yul\":22860:22881   */\n      swap10\n      pop\n        /* \"#utility.yul\":22501:22891   */\n      pop\n        /* \"#utility.yul\":22488:22489   */\n      0x01\n        /* \"#utility.yul\":22485:22486   */\n      dup2\n        /* \"#utility.yul\":22481:22490   */\n      add\n        /* \"#utility.yul\":22476:22490   */\n      swap1\n      pop\n        /* \"#utility.yul\":22441:22891   */\n      jump(tag_687)\n    tag_689:\n        /* \"#utility.yul\":22445:22459   */\n      pop\n        /* \"#utility.yul\":22907:22911   */\n      dup3\n        /* \"#utility.yul\":22900:22911   */\n      swap8\n      pop\n        /* \"#utility.yul\":22927:22930   */\n      dup8\n        /* \"#utility.yul\":22920:22930   */\n      swap6\n      pop\n        /* \"#utility.yul\":21981:22936   */\n      pop\n      pop\n      pop\n      pop\n      pop\n        /* \"#utility.yul\":21801:22936   */\n      swap3\n      swap2\n      pop\n      pop\n      jump\t// out\n        /* \"#utility.yul\":22942:23427   */\n    tag_68:\n        /* \"#utility.yul\":23141:23145   */\n      0x00\n        /* \"#utility.yul\":23179:23181   */\n      0x20\n        /* \"#utility.yul\":23168:23177   */\n      dup3\n        /* \"#utility.yul\":23164:23182   */\n      add\n        /* \"#utility.yul\":23156:23182   */\n      swap1\n      pop\n        /* \"#utility.yul\":23228:23237   */\n      dup2\n        /* \"#utility.yul\":23222:23226   */\n      dup2\n        /* \"#utility.yul\":23218:23238   */\n      sub\n        /* \"#utility.yul\":23214:23215   */\n      0x00\n        /* \"#utility.yul\":23203:23212   */\n      dup4\n        /* \"#utility.yul\":23199:23216   */\n      add\n        /* \"#utility.yul\":23192:23239   */\n      mstore\n        /* \"#utility.yul\":23256:23420   */\n      tag_693\n        /* \"#utility.yul\":23415:23419   */\n      dup2\n        /* \"#utility.yul\":23406:23412   */\n      dup5\n        /* \"#utility.yul\":23256:23420   */\n      tag_425\n      jump\t// in\n    tag_693:\n        /* \"#utility.yul\":23248:23420   */\n      swap1\n      pop\n        /* \"#utility.yul\":22942:23427   */\n      swap3\n      swap2\n      pop\n      pop\n      jump\t// out\n        /* \"#utility.yul\":23433:23613   */\n    tag_426:\n        /* \"#utility.yul\":23481:23558   */\n      0x4e487b7100000000000000000000000000000000000000000000000000000000\n        /* \"#utility.yul\":23478:23479   */\n      0x00\n        /* \"#utility.yul\":23471:23559   */\n      mstore\n        /* \"#utility.yul\":23578:23582   */\n      0x22\n        /* \"#utility.yul\":23575:23576   */\n      0x04\n        /* \"#utility.yul\":23568:23583   */\n      mstore\n        /* \"#utility.yul\":23602:23606   */\n      0x24\n        /* \"#utility.yul\":23599:23600   */\n      0x00\n        /* \"#utility.yul\":23592:23607   */\n      revert\n        /* \"#utility.yul\":23619:23939   */\n    tag_74:\n        /* \"#utility.yul\":23663:23669   */\n      0x00\n        /* \"#utility.yul\":23700:23701   */\n      0x02\n        /* \"#utility.yul\":23694:23698   */\n      dup3\n        /* \"#utility.yul\":23690:23702   */\n      div\n        /* \"#utility.yul\":23680:23702   */\n      swap1\n      pop\n        /* \"#utility.yul\":23747:23748   */\n      0x01\n        /* \"#utility.yul\":23741:23745   */\n      dup3\n        /* \"#utility.yul\":23737:23749   */\n      and\n        /* \"#utility.yul\":23768:23786   */\n      dup1\n        /* \"#utility.yul\":23758:23839   */\n      tag_696\n      jumpi\n        /* \"#utility.yul\":23824:23828   */\n      0x7f\n        /* \"#utility.yul\":23816:23822   */\n      dup3\n        /* \"#utility.yul\":23812:23829   */\n      and\n        /* \"#utility.yul\":23802:23829   */\n      swap2\n      pop\n        /* \"#utility.yul\":23758:23839   */\n    tag_696:\n        /* \"#utility.yul\":23886:23888   */\n      0x20\n        /* \"#utility.yul\":23878:23884   */\n      dup3\n        /* \"#utility.yul\":23875:23889   */\n      lt\n        /* \"#utility.yul\":23855:23873   */\n      dup2\n        /* \"#utility.yul\":23852:23890   */\n      sub\n        /* \"#utility.yul\":23849:23933   */\n      tag_697\n      jumpi\n        /* \"#utility.yul\":23905:23923   */\n      tag_698\n      tag_426\n      jump\t// in\n    tag_698:\n        /* \"#utility.yul\":23849:23933   */\n    tag_697:\n        /* \"#utility.yul\":23670:23939   */\n      pop\n        /* \"#utility.yul\":23619:23939   */\n      swap2\n      swap1\n      pop\n      jump\t// out\n        /* \"#utility.yul\":23945:24177   */\n    tag_427:\n        /* \"#utility.yul\":24085:24119   */\n      0x4f6e6c7920726567697374657265642073746166662063616e20706572666f72\n        /* \"#utility.yul\":24081:24082   */\n      0x00\n        /* \"#utility.yul\":24073:24079   */\n      dup3\n        /* \"#utility.yul\":24069:24083   */\n      add\n        /* \"#utility.yul\":24062:24120   */\n      mstore\n        /* \"#utility.yul\":24154:24169   */\n      0x6d207468697320616374696f6e00000000000000000000000000000000000000\n        /* \"#utility.yul\":24149:24151   */\n      0x20\n        /* \"#utility.yul\":24141:24147   */\n      dup3\n        /* \"#utility.yul\":24137:24152   */\n      add\n        /* \"#utility.yul\":24130:24170   */\n      mstore\n        /* \"#utility.yul\":23945:24177   */\n      pop\n      jump\t// out\n        /* \"#utility.yul\":24183:24549   */\n    tag_428:\n        /* \"#utility.yul\":24325:24328   */\n      0x00\n        /* \"#utility.yul\":24346:24413   */\n      tag_701\n        /* \"#utility.yul\":24410:24412   */\n      0x2d\n        /* \"#utility.yul\":24405:24408   */\n      dup4\n        /* \"#utility.yul\":24346:24413   */\n      tag_407\n      jump\t// in\n    tag_701:\n        /* \"#utility.yul\":24339:24413   */\n      swap2\n      pop\n        /* \"#utility.yul\":24422:24515   */\n      tag_702\n        /* \"#utility.yul\":24511:24514   */\n      dup3\n        /* \"#utility.yul\":24422:24515   */\n      tag_427\n      jump\t// in\n    tag_702:\n        /* \"#utility.yul\":24540:24542   */\n      0x40\n        /* \"#utility.yul\":24535:24538   */\n      dup3\n        /* \"#utility.yul\":24531:24543   */\n      add\n        /* \"#utility.yul\":24524:24543   */\n      swap1\n      pop\n        /* \"#utility.yul\":24183:24549   */\n      swap2\n      swap1\n      pop\n      jump\t// out\n        /* \"#utility.yul\":24555:24974   */\n    tag_87:\n        /* \"#utility.yul\":24721:24725   */\n      0x00\n        /* \"#utility.yul\":24759:24761   */\n      0x20\n        /* \"#utility.yul\":24748:24757   */\n      dup3\n        /* \"#utility.yul\":24744:24762   */\n      add\n        /* \"#utility.yul\":24736:24762   */\n      swap1\n      pop\n        /* \"#utility.yul\":24808:24817   */\n      dup2\n        /* \"#utility.yul\":24802:24806   */\n      dup2\n        /* \"#utility.yul\":24798:24818   */\n      sub\n        /* \"#utility.yul\":24794:24795   */\n      0x00\n        /* \"#utility.yul\":24783:24792   */\n      dup4\n        /* \"#utility.yul\":24779:24796   */\n      add\n        /* \"#utility.yul\":24772:24819   */\n      mstore\n        /* \"#utility.yul\":24836:24967   */\n      tag_704\n        /* \"#utility.yul\":24962:24966   */\n      dup2\n        /* \"#utility.yul\":24836:24967   */\n      tag_428\n      jump\t// in\n    tag_704:\n        /* \"#utility.yul\":24828:24967   */\n      swap1\n      pop\n        /* \"#utility.yul\":24555:24974   */\n      swap2\n      swap1\n      pop\n      jump\t// out\n        /* \"#utility.yul\":24980:25128   */\n    tag_429:\n        /* \"#utility.yul\":25082:25093   */\n      0x00\n        /* \"#utility.yul\":25119:25122   */\n      dup2\n        /* \"#utility.yul\":25104:25122   */\n      swap1\n      pop\n        /* \"#utility.yul\":24980:25128   */\n      swap3\n      swap2\n      pop\n      pop\n      jump\t// out\n        /* \"#utility.yul\":25134:25290   */\n    tag_430:\n        /* \"#utility.yul\":25274:25282   */\n      0x446f63746f720000000000000000000000000000000000000000000000000000\n        /* \"#utility.yul\":25270:25271   */\n      0x00\n        /* \"#utility.yul\":25262:25268   */\n      dup3\n        /* \"#utility.yul\":25258:25272   */\n      add\n        /* \"#utility.yul\":25251:25283   */\n      mstore\n        /* \"#utility.yul\":25134:25290   */\n      pop\n      jump\t// out\n        /* \"#utility.yul\":25296:25696   */\n    tag_431:\n        /* \"#utility.yul\":25456:25459   */\n      0x00\n        /* \"#utility.yul\":25477:25561   */\n      tag_708\n        /* \"#utility.yul\":25559:25560   */\n      0x06\n        /* \"#utility.yul\":25554:25557   */\n      dup4\n        /* \"#utility.yul\":25477:25561   */\n      tag_429\n      jump\t// in\n    tag_708:\n        /* \"#utility.yul\":25470:25561   */\n      swap2\n      pop\n        /* \"#utility.yul\":25570:25663   */\n      tag_709\n        /* \"#utility.yul\":25659:25662   */\n      dup3\n        /* \"#utility.yul\":25570:25663   */\n      tag_430\n      jump\t// in\n    tag_709:\n        /* \"#utility.yul\":25688:25689   */\n      0x06\n        /* \"#utility.yul\":25683:25686   */\n      dup3\n        /* \"#utility.yul\":25679:25690   */\n      add\n        /* \"#utility.yul\":25672:25690   */\n      swap1\n      pop\n        /* \"#utility.yul\":25296:25696   */\n      swap2\n      swap1\n      pop\n      jump\t// out\n        /* \"#utility.yul\":25702:26083   */\n    tag_89:\n        /* \"#utility.yul\":25887:25890   */\n      0x00\n        /* \"#utility.yul\":25909:26057   */\n      tag_711\n        /* \"#utility.yul\":26053:26056   */\n      dup3\n        /* \"#utility.yul\":25909:26057   */\n      tag_431\n      jump\t// in\n    tag_711:\n        /* \"#utility.yul\":25902:26057   */\n      swap2\n      pop\n        /* \"#utility.yul\":26074:26077   */\n      dup2\n        /* \"#utility.yul\":26067:26077   */\n      swap1\n      pop\n        /* \"#utility.yul\":25702:26083   */\n      swap2\n      swap1\n      pop\n      jump\t// out\n        /* \"#utility.yul\":26089:26269   */\n    tag_92:\n        /* \"#utility.yul\":26137:26214   */\n      0x4e487b7100000000000000000000000000000000000000000000000000000000\n        /* \"#utility.yul\":26134:26135   */\n      0x00\n        /* \"#utility.yul\":26127:26215   */\n      mstore\n        /* \"#utility.yul\":26234:26238   */\n      0x32\n        /* \"#utility.yul\":26231:26232   */\n      0x04\n        /* \"#utility.yul\":26224:26239   */\n      mstore\n        /* \"#utility.yul\":26258:26262   */\n      0x24\n        /* \"#utility.yul\":26255:26256   */\n      0x00\n        /* \"#utility.yul\":26248:26263   */\n      revert\n        /* \"#utility.yul\":26275:26416   */\n    tag_432:\n        /* \"#utility.yul\":26324:26328   */\n      0x00\n        /* \"#utility.yul\":26347:26350   */\n      dup2\n        /* \"#utility.yul\":26339:26350   */\n      swap1\n      pop\n        /* \"#utility.yul\":26370:26373   */\n      dup2\n        /* \"#utility.yul\":26367:26368   */\n      0x00\n        /* \"#utility.yul\":26360:26374   */\n      mstore\n        /* \"#utility.yul\":26404:26408   */\n      0x20\n        /* \"#utility.yul\":26401:26402   */\n      0x00\n        /* \"#utility.yul\":26391:26409   */\n      keccak256\n        /* \"#utility.yul\":26383:26409   */\n      swap1\n      pop\n        /* \"#utility.yul\":26275:26416   */\n      swap2\n      swap1\n      pop\n      jump\t// out\n        /* \"#utility.yul\":26446:27320   */\n    tag_433:\n        /* \"#utility.yul\":26549:26552   */\n      0x00\n        /* \"#utility.yul\":26586:26591   */\n      dup2\n        /* \"#utility.yul\":26580:26592   */\n      sload\n        /* \"#utility.yul\":26615:26651   */\n      tag_715\n        /* \"#utility.yul\":26641:26650   */\n      dup2\n        /* \"#utility.yul\":26615:26651   */\n      tag_74\n      jump\t// in\n    tag_715:\n        /* \"#utility.yul\":26667:26756   */\n      tag_716\n        /* \"#utility.yul\":26749:26755   */\n      dup2\n        /* \"#utility.yul\":26744:26747   */\n      dup7\n        /* \"#utility.yul\":26667:26756   */\n      tag_429\n      jump\t// in\n    tag_716:\n        /* \"#utility.yul\":26660:26756   */\n      swap5\n      pop\n        /* \"#utility.yul\":26787:26788   */\n      0x01\n        /* \"#utility.yul\":26776:26785   */\n      dup3\n        /* \"#utility.yul\":26772:26789   */\n      and\n        /* \"#utility.yul\":26803:26804   */\n      0x00\n        /* \"#utility.yul\":26798:26964   */\n      dup2\n      eq\n      tag_718\n      jumpi\n        /* \"#utility.yul\":26978:26979   */\n      0x01\n        /* \"#utility.yul\":26973:27314   */\n      dup2\n      eq\n      tag_719\n      jumpi\n        /* \"#utility.yul\":26765:27314   */\n      jump(tag_717)\n        /* \"#utility.yul\":26798:26964   */\n    tag_718:\n        /* \"#utility.yul\":26882:26886   */\n      0xff\n        /* \"#utility.yul\":26878:26887   */\n      not\n        /* \"#utility.yul\":26867:26876   */\n      dup4\n        /* \"#utility.yul\":26863:26888   */\n      and\n        /* \"#utility.yul\":26858:26861   */\n      dup7\n        /* \"#utility.yul\":26851:26889   */\n      mstore\n        /* \"#utility.yul\":26944:26950   */\n      dup2\n        /* \"#utility.yul\":26937:26951   */\n      iszero\n        /* \"#utility.yul\":26930:26952   */\n      iszero\n        /* \"#utility.yul\":26922:26928   */\n      dup3\n        /* \"#utility.yul\":26918:26953   */\n      mul\n        /* \"#utility.yul\":26913:26916   */\n      dup7\n        /* \"#utility.yul\":26909:26954   */\n      add\n        /* \"#utility.yul\":26902:26954   */\n      swap4\n      pop\n        /* \"#utility.yul\":26798:26964   */\n      jump(tag_717)\n        /* \"#utility.yul\":26973:27314   */\n    tag_719:\n        /* \"#utility.yul\":27040:27078   */\n      tag_720\n        /* \"#utility.yul\":27072:27077   */\n      dup6\n        /* \"#utility.yul\":27040:27078   */\n      tag_432\n      jump\t// in\n    tag_720:\n        /* \"#utility.yul\":27100:27101   */\n      0x00\n        /* \"#utility.yul\":27114:27268   */\n    tag_721:\n        /* \"#utility.yul\":27128:27134   */\n      dup4\n        /* \"#utility.yul\":27125:27126   */\n      dup2\n        /* \"#utility.yul\":27122:27135   */\n      lt\n        /* \"#utility.yul\":27114:27268   */\n      iszero\n      tag_723\n      jumpi\n        /* \"#utility.yul\":27202:27209   */\n      dup2\n        /* \"#utility.yul\":27196:27210   */\n      sload\n        /* \"#utility.yul\":27192:27193   */\n      dup2\n        /* \"#utility.yul\":27187:27190   */\n      dup10\n        /* \"#utility.yul\":27183:27194   */\n      add\n        /* \"#utility.yul\":27176:27211   */\n      mstore\n        /* \"#utility.yul\":27252:27253   */\n      0x01\n        /* \"#utility.yul\":27243:27250   */\n      dup3\n        /* \"#utility.yul\":27239:27254   */\n      add\n        /* \"#utility.yul\":27228:27254   */\n      swap2\n      pop\n        /* \"#utility.yul\":27150:27154   */\n      0x20\n        /* \"#utility.yul\":27147:27148   */\n      dup2\n        /* \"#utility.yul\":27143:27155   */\n      add\n        /* \"#utility.yul\":27138:27155   */\n      swap1\n      pop\n        /* \"#utility.yul\":27114:27268   */\n      jump(tag_721)\n    tag_723:\n        /* \"#utility.yul\":27297:27303   */\n      dup4\n        /* \"#utility.yul\":27292:27295   */\n      dup9\n        /* \"#utility.yul\":27288:27304   */\n      add\n        /* \"#utility.yul\":27281:27304   */\n      swap6\n      pop\n        /* \"#utility.yul\":26980:27314   */\n      pop\n      pop\n        /* \"#utility.yul\":26765:27314   */\n    tag_717:\n      pop\n        /* \"#utility.yul\":26553:27320   */\n      pop\n      pop\n        /* \"#utility.yul\":26446:27320   */\n      swap3\n      swap2\n      pop\n      pop\n      jump\t// out\n        /* \"#utility.yul\":27326:27595   */\n    tag_95:\n        /* \"#utility.yul\":27455:27458   */\n      0x00\n        /* \"#utility.yul\":27477:27569   */\n      tag_725\n        /* \"#utility.yul\":27565:27568   */\n      dup3\n        /* \"#utility.yul\":27556:27562   */\n      dup5\n        /* \"#utility.yul\":27477:27569   */\n      tag_433\n      jump\t// in\n    tag_725:\n        /* \"#utility.yul\":27470:27569   */\n      swap2\n      pop\n        /* \"#utility.yul\":27586:27589   */\n      dup2\n        /* \"#utility.yul\":27579:27589   */\n      swap1\n      pop\n        /* \"#utility.yul\":27326:27595   */\n      swap3\n      swap2\n      pop\n      pop\n      jump\t// out\n        /* \"#utility.yul\":27601:27824   */\n    tag_434:\n        /* \"#utility.yul\":27741:27775   */\n      0x4f6e6c7920646f63746f72732063616e20706572666f726d2074686973206163\n        /* \"#utility.yul\":27737:27738   */\n      0x00\n        /* \"#utility.yul\":27729:27735   */\n      dup3\n        /* \"#utility.yul\":27725:27739   */\n      add\n        /* \"#utility.yul\":27718:27776   */\n      mstore\n        /* \"#utility.yul\":27810:27816   */\n      0x74696f6e00000000000000000000000000000000000000000000000000000000\n        /* \"#utility.yul\":27805:27807   */\n      0x20\n        /* \"#utility.yul\":27797:27803   */\n      dup3\n        /* \"#utility.yul\":27793:27808   */\n      add\n        /* \"#utility.yul\":27786:27817   */\n      mstore\n        /* \"#utility.yul\":27601:27824   */\n      pop\n      jump\t// out\n        /* \"#utility.yul\":27830:28196   */\n    tag_435:\n        /* \"#utility.yul\":27972:27975   */\n      0x00\n        /* \"#utility.yul\":27993:28060   */\n      tag_728\n        /* \"#utility.yul\":28057:28059   */\n      0x24\n        /* \"#utility.yul\":28052:28055   */\n      dup4\n        /* \"#utility.yul\":27993:28060   */\n      tag_407\n      jump\t// in\n    tag_728:\n        /* \"#utility.yul\":27986:28060   */\n      swap2\n      pop\n        /* \"#utility.yul\":28069:28162   */\n      tag_729\n        /* \"#utility.yul\":28158:28161   */\n      dup3\n        /* \"#utility.yul\":28069:28162   */\n      tag_434\n      jump\t// in\n    tag_729:\n        /* \"#utility.yul\":28187:28189   */\n      0x40\n        /* \"#utility.yul\":28182:28185   */\n      dup3\n        /* \"#utility.yul\":28178:28190   */\n      add\n        /* \"#utility.yul\":28171:28190   */\n      swap1\n      pop\n        /* \"#utility.yul\":27830:28196   */\n      swap2\n      swap1\n      pop\n      jump\t// out\n        /* \"#utility.yul\":28202:28621   */\n    tag_98:\n        /* \"#utility.yul\":28368:28372   */\n      0x00\n        /* \"#utility.yul\":28406:28408   */\n      0x20\n        /* \"#utility.yul\":28395:28404   */\n      dup3\n        /* \"#utility.yul\":28391:28409   */\n      add\n        /* \"#utility.yul\":28383:28409   */\n      swap1\n      pop\n        /* \"#utility.yul\":28455:28464   */\n      dup2\n        /* \"#utility.yul\":28449:28453   */\n      dup2\n        /* \"#utility.yul\":28445:28465   */\n      sub\n        /* \"#utility.yul\":28441:28442   */\n      0x00\n        /* \"#utility.yul\":28430:28439   */\n      dup4\n        /* \"#utility.yul\":28426:28443   */\n      add\n        /* \"#utility.yul\":28419:28466   */\n      mstore\n        /* \"#utility.yul\":28483:28614   */\n      tag_731\n        /* \"#utility.yul\":28609:28613   */\n      dup2\n        /* \"#utility.yul\":28483:28614   */\n      tag_435\n      jump\t// in\n    tag_731:\n        /* \"#utility.yul\":28475:28614   */\n      swap1\n      pop\n        /* \"#utility.yul\":28202:28621   */\n      swap2\n      swap1\n      pop\n      jump\t// out\n        /* \"#utility.yul\":28627:28799   */\n    tag_436:\n        /* \"#utility.yul\":28767:28791   */\n      0x50617469656e74206e6f74207265676973746572656400000000000000000000\n        /* \"#utility.yul\":28763:28764   */\n      0x00\n        /* \"#utility.yul\":28755:28761   */\n      dup3\n        /* \"#utility.yul\":28751:28765   */\n      add\n        /* \"#utility.yul\":28744:28792   */\n      mstore\n        /* \"#utility.yul\":28627:28799   */\n      pop\n      jump\t// out\n        /* \"#utility.yul\":28805:29171   */\n    tag_437:\n        /* \"#utility.yul\":28947:28950   */\n      0x00\n        /* \"#utility.yul\":28968:29035   */\n      tag_734\n        /* \"#utility.yul\":29032:29034   */\n      0x16\n        /* \"#utility.yul\":29027:29030   */\n      dup4\n        /* \"#utility.yul\":28968:29035   */\n      tag_407\n      jump\t// in\n    tag_734:\n        /* \"#utility.yul\":28961:29035   */\n      swap2\n      pop\n        /* \"#utility.yul\":29044:29137   */\n      tag_735\n        /* \"#utility.yul\":29133:29136   */\n      dup3\n        /* \"#utility.yul\":29044:29137   */\n      tag_436\n      jump\t// in\n    tag_735:\n        /* \"#utility.yul\":29162:29164   */\n      0x20\n        /* \"#utility.yul\":29157:29160   */\n      dup3\n        /* \"#utility.yul\":29153:29165   */\n      add\n        /* \"#utility.yul\":29146:29165   */\n      swap1\n      pop\n        /* \"#utility.yul\":28805:29171   */\n      swap2\n      swap1\n      pop\n      jump\t// out\n        /* \"#utility.yul\":29177:29596   */\n    tag_103:\n        /* \"#utility.yul\":29343:29347   */\n      0x00\n        /* \"#utility.yul\":29381:29383   */\n      0x20\n        /* \"#utility.yul\":29370:29379   */\n      dup3\n        /* \"#utility.yul\":29366:29384   */\n      add\n        /* \"#utility.yul\":29358:29384   */\n      swap1\n      pop\n        /* \"#utility.yul\":29430:29439   */\n      dup2\n        /* \"#utility.yul\":29424:29428   */\n      dup2\n        /* \"#utility.yul\":29420:29440   */\n      sub\n        /* \"#utility.yul\":29416:29417   */\n      0x00\n        /* \"#utility.yul\":29405:29414   */\n      dup4\n        /* \"#utility.yul\":29401:29418   */\n      add\n        /* \"#utility.yul\":29394:29441   */\n      mstore\n        /* \"#utility.yul\":29458:29589   */\n      tag_737\n        /* \"#utility.yul\":29584:29588   */\n      dup2\n        /* \"#utility.yul\":29458:29589   */\n      tag_437\n      jump\t// in\n    tag_737:\n        /* \"#utility.yul\":29450:29589   */\n      swap1\n      pop\n        /* \"#utility.yul\":29177:29596   */\n      swap2\n      swap1\n      pop\n      jump\t// out\n        /* \"#utility.yul\":29602:29771   */\n    tag_438:\n        /* \"#utility.yul\":29742:29763   */\n      0x496e76616c69642061636365737320636f646500000000000000000000000000\n        /* \"#utility.yul\":29738:29739   */\n      0x00\n        /* \"#utility.yul\":29730:29736   */\n      dup3\n        /* \"#utility.yul\":29726:29740   */\n      add\n        /* \"#utility.yul\":29719:29764   */\n      mstore\n        /* \"#utility.yul\":29602:29771   */\n      pop\n      jump\t// out\n        /* \"#utility.yul\":29777:30143   */\n    tag_439:\n        /* \"#utility.yul\":29919:29922   */\n      0x00\n        /* \"#utility.yul\":29940:30007   */\n      tag_740\n        /* \"#utility.yul\":30004:30006   */\n      0x13\n        /* \"#utility.yul\":29999:30002   */\n      dup4\n        /* \"#utility.yul\":29940:30007   */\n      tag_407\n      jump\t// in\n    tag_740:\n        /* \"#utility.yul\":29933:30007   */\n      swap2\n      pop\n        /* \"#utility.yul\":30016:30109   */\n      tag_741\n        /* \"#utility.yul\":30105:30108   */\n      dup3\n        /* \"#utility.yul\":30016:30109   */\n      tag_438\n      jump\t// in\n    tag_741:\n        /* \"#utility.yul\":30134:30136   */\n      0x20\n        /* \"#utility.yul\":30129:30132   */\n      dup3\n        /* \"#utility.yul\":30125:30137   */\n      add\n        /* \"#utility.yul\":30118:30137   */\n      swap1\n      pop\n        /* \"#utility.yul\":29777:30143   */\n      swap2\n      swap1\n      pop\n      jump\t// out\n        /* \"#utility.yul\":30149:30568   */\n    tag_109:\n        /* \"#utility.yul\":30315:30319   */\n      0x00\n        /* \"#utility.yul\":30353:30355   */\n      0x20\n        /* \"#utility.yul\":30342:30351   */\n      dup3\n        /* \"#utility.yul\":30338:30356   */\n      add\n        /* \"#utility.yul\":30330:30356   */\n      swap1\n      pop\n        /* \"#utility.yul\":30402:30411   */\n      dup2\n        /* \"#utility.yul\":30396:30400   */\n      dup2\n        /* \"#utility.yul\":30392:30412   */\n      sub\n        /* \"#utility.yul\":30388:30389   */\n      0x00\n        /* \"#utility.yul\":30377:30386   */\n      dup4\n        /* \"#utility.yul\":30373:30390   */\n      add\n        /* \"#utility.yul\":30366:30413   */\n      mstore\n        /* \"#utility.yul\":30430:30561   */\n      tag_743\n        /* \"#utility.yul\":30556:30560   */\n      dup2\n        /* \"#utility.yul\":30430:30561   */\n      tag_439\n      jump\t// in\n    tag_743:\n        /* \"#utility.yul\":30422:30561   */\n      swap1\n      pop\n        /* \"#utility.yul\":30149:30568   */\n      swap2\n      swap1\n      pop\n      jump\t// out\n        /* \"#utility.yul\":30574:30754   */\n    tag_440:\n        /* \"#utility.yul\":30622:30699   */\n      0x4e487b7100000000000000000000000000000000000000000000000000000000\n        /* \"#utility.yul\":30619:30620   */\n      0x00\n        /* \"#utility.yul\":30612:30700   */\n      mstore\n        /* \"#utility.yul\":30719:30723   */\n      0x11\n        /* \"#utility.yul\":30716:30717   */\n      0x04\n        /* \"#utility.yul\":30709:30724   */\n      mstore\n        /* \"#utility.yul\":30743:30747   */\n      0x24\n        /* \"#utility.yul\":30740:30741   */\n      0x00\n        /* \"#utility.yul\":30733:30748   */\n      revert\n        /* \"#utility.yul\":30760:30951   */\n    tag_114:\n        /* \"#utility.yul\":30800:30803   */\n      0x00\n        /* \"#utility.yul\":30819:30839   */\n      tag_746\n        /* \"#utility.yul\":30837:30838   */\n      dup3\n        /* \"#utility.yul\":30819:30839   */\n      tag_390\n      jump\t// in\n    tag_746:\n        /* \"#utility.yul\":30814:30839   */\n      swap2\n      pop\n        /* \"#utility.yul\":30853:30873   */\n      tag_747\n        /* \"#utility.yul\":30871:30872   */\n      dup4\n        /* \"#utility.yul\":30853:30873   */\n      tag_390\n      jump\t// in\n    tag_747:\n        /* \"#utility.yul\":30848:30873   */\n      swap3\n      pop\n        /* \"#utility.yul\":30896:30897   */\n      dup3\n        /* \"#utility.yul\":30893:30894   */\n      dup3\n        /* \"#utility.yul\":30889:30898   */\n      add\n        /* \"#utility.yul\":30882:30898   */\n      swap1\n      pop\n        /* \"#utility.yul\":30917:30920   */\n      dup1\n        /* \"#utility.yul\":30914:30915   */\n      dup3\n        /* \"#utility.yul\":30911:30921   */\n      gt\n        /* \"#utility.yul\":30908:30944   */\n      iszero\n      tag_748\n      jumpi\n        /* \"#utility.yul\":30924:30942   */\n      tag_749\n      tag_440\n      jump\t// in\n    tag_749:\n        /* \"#utility.yul\":30908:30944   */\n    tag_748:\n        /* \"#utility.yul\":30760:30951   */\n      swap3\n      swap2\n      pop\n      pop\n      jump\t// out\n        /* \"#utility.yul\":30957:31126   */\n    tag_441:\n        /* \"#utility.yul\":31097:31118   */\n      0x41636365737320636f6465206578706972656400000000000000000000000000\n        /* \"#utility.yul\":31093:31094   */\n      0x00\n        /* \"#utility.yul\":31085:31091   */\n      dup3\n        /* \"#utility.yul\":31081:31095   */\n      add\n        /* \"#utility.yul\":31074:31119   */\n      mstore\n        /* \"#utility.yul\":30957:31126   */\n      pop\n      jump\t// out\n        /* \"#utility.yul\":31132:31498   */\n    tag_442:\n        /* \"#utility.yul\":31274:31277   */\n      0x00\n        /* \"#utility.yul\":31295:31362   */\n      tag_752\n        /* \"#utility.yul\":31359:31361   */\n      0x13\n        /* \"#utility.yul\":31354:31357   */\n      dup4\n        /* \"#utility.yul\":31295:31362   */\n      tag_407\n      jump\t// in\n    tag_752:\n        /* \"#utility.yul\":31288:31362   */\n      swap2\n      pop\n        /* \"#utility.yul\":31371:31464   */\n      tag_753\n        /* \"#utility.yul\":31460:31463   */\n      dup3\n        /* \"#utility.yul\":31371:31464   */\n      tag_441\n      jump\t// in\n    tag_753:\n        /* \"#utility.yul\":31489:31491   */\n      0x20\n        /* \"#utility.yul\":31484:31487   */\n      dup3\n        /* \"#utility.yul\":31480:31492   */\n      add\n        /* \"#utility.yul\":31473:31492   */\n      swap1\n      pop\n        /* \"#utility.yul\":31132:31498   */\n      swap2\n      swap1\n      pop\n      jump\t// out\n        /* \"#utility.yul\":31504:31923   */\n    tag_117:\n        /* \"#utility.yul\":31670:31674   */\n      0x00\n        /* \"#utility.yul\":31708:31710   */\n      0x20\n        /* \"#utility.yul\":31697:31706   */\n      dup3\n        /* \"#utility.yul\":31693:31711   */\n      add\n        /* \"#utility.yul\":31685:31711   */\n      swap1\n      pop\n        /* \"#utility.yul\":31757:31766   */\n      dup2\n        /* \"#utility.yul\":31751:31755   */\n      dup2\n        /* \"#utility.yul\":31747:31767   */\n      sub\n        /* \"#utility.yul\":31743:31744   */\n      0x00\n        /* \"#utility.yul\":31732:31741   */\n      dup4\n        /* \"#utility.yul\":31728:31745   */\n      add\n        /* \"#utility.yul\":31721:31768   */\n      mstore\n        /* \"#utility.yul\":31785:31916   */\n      tag_755\n        /* \"#utility.yul\":31911:31915   */\n      dup2\n        /* \"#utility.yul\":31785:31916   */\n      tag_442\n      jump\t// in\n    tag_755:\n        /* \"#utility.yul\":31777:31916   */\n      swap1\n      pop\n        /* \"#utility.yul\":31504:31923   */\n      swap2\n      swap1\n      pop\n      jump\t// out\n        /* \"#utility.yul\":31929:32108   */\n    tag_443:\n        /* \"#utility.yul\":32069:32100   */\n      0x4865616c7468207265636f72642063616e6e6f7420626520656d707479000000\n        /* \"#utility.yul\":32065:32066   */\n      0x00\n        /* \"#utility.yul\":32057:32063   */\n      dup3\n        /* \"#utility.yul\":32053:32067   */\n      add\n        /* \"#utility.yul\":32046:32101   */\n      mstore\n        /* \"#utility.yul\":31929:32108   */\n      pop\n      jump\t// out\n        /* \"#utility.yul\":32114:32480   */\n    tag_444:\n        /* \"#utility.yul\":32256:32259   */\n      0x00\n        /* \"#utility.yul\":32277:32344   */\n      tag_758\n        /* \"#utility.yul\":32341:32343   */\n      0x1d\n        /* \"#utility.yul\":32336:32339   */\n      dup4\n        /* \"#utility.yul\":32277:32344   */\n      tag_407\n      jump\t// in\n    tag_758:\n        /* \"#utility.yul\":32270:32344   */\n      swap2\n      pop\n        /* \"#utility.yul\":32353:32446   */\n      tag_759\n        /* \"#utility.yul\":32442:32445   */\n      dup3\n        /* \"#utility.yul\":32353:32446   */\n      tag_443\n      jump\t// in\n    tag_759:\n        /* \"#utility.yul\":32471:32473   */\n      0x20\n        /* \"#utility.yul\":32466:32469   */\n      dup3\n        /* \"#utility.yul\":32462:32474   */\n      add\n        /* \"#utility.yul\":32455:32474   */\n      swap1\n      pop\n        /* \"#utility.yul\":32114:32480   */\n      swap2\n      swap1\n      pop\n      jump\t// out\n        /* \"#utility.yul\":32486:32905   */\n    tag_120:\n        /* \"#utility.yul\":32652:32656   */\n      0x00\n        /* \"#utility.yul\":32690:32692   */\n      0x20\n        /* \"#utility.yul\":32679:32688   */\n      dup3\n        /* \"#utility.yul\":32675:32693   */\n      add\n        /* \"#utility.yul\":32667:32693   */\n      swap1\n      pop\n        /* \"#utility.yul\":32739:32748   */\n      dup2\n        /* \"#utility.yul\":32733:32737   */\n      dup2\n        /* \"#utility.yul\":32729:32749   */\n      sub\n        /* \"#utility.yul\":32725:32726   */\n      0x00\n        /* \"#utility.yul\":32714:32723   */\n      dup4\n        /* \"#utility.yul\":32710:32727   */\n      add\n        /* \"#utility.yul\":32703:32750   */\n      mstore\n        /* \"#utility.yul\":32767:32898   */\n      tag_761\n        /* \"#utility.yul\":32893:32897   */\n      dup2\n        /* \"#utility.yul\":32767:32898   */\n      tag_444\n      jump\t// in\n    tag_761:\n        /* \"#utility.yul\":32759:32898   */\n      swap1\n      pop\n        /* \"#utility.yul\":32486:32905   */\n      swap2\n      swap1\n      pop\n      jump\t// out\n        /* \"#utility.yul\":32911:33089   */\n    tag_445:\n        /* \"#utility.yul\":33051:33081   */\n      0x507265736372697074696f6e2063616e6e6f7420626520656d70747900000000\n        /* \"#utility.yul\":33047:33048   */\n      0x00\n        /* \"#utility.yul\":33039:33045   */\n      dup3\n        /* \"#utility.yul\":33035:33049   */\n      add\n        /* \"#utility.yul\":33028:33082   */\n      mstore\n        /* \"#utility.yul\":32911:33089   */\n      pop\n      jump\t// out\n        /* \"#utility.yul\":33095:33461   */\n    tag_446:\n        /* \"#utility.yul\":33237:33240   */\n      0x00\n        /* \"#utility.yul\":33258:33325   */\n      tag_764\n        /* \"#utility.yul\":33322:33324   */\n      0x1c\n        /* \"#utility.yul\":33317:33320   */\n      dup4\n        /* \"#utility.yul\":33258:33325   */\n      tag_407\n      jump\t// in\n    tag_764:\n        /* \"#utility.yul\":33251:33325   */\n      swap2\n      pop\n        /* \"#utility.yul\":33334:33427   */\n      tag_765\n        /* \"#utility.yul\":33423:33426   */\n      dup3\n        /* \"#utility.yul\":33334:33427   */\n      tag_445\n      jump\t// in\n    tag_765:\n        /* \"#utility.yul\":33452:33454   */\n      0x20\n        /* \"#utility.yul\":33447:33450   */\n      dup3\n        /* \"#utility.yul\":33443:33455   */\n      add\n        /* \"#utility.yul\":33436:33455   */\n      swap1\n      pop\n        /* \"#utility.yul\":33095:33461   */\n      swap2\n      swap1\n      pop\n      jump\t// out\n        /* \"#utility.yul\":33467:33886   */\n    tag_123:\n        /* \"#utility.yul\":33633:33637   */\n      0x00\n        /* \"#utility.yul\":33671:33673   */\n      0x20\n        /* \"#utility.yul\":33660:33669   */\n      dup3\n        /* \"#utility.yul\":33656:33674   */\n      add\n        /* \"#utility.yul\":33648:33674   */\n      swap1\n      pop\n        /* \"#utility.yul\":33720:33729   */\n      dup2\n        /* \"#utility.yul\":33714:33718   */\n      dup2\n        /* \"#utility.yul\":33710:33730   */\n      sub\n        /* \"#utility.yul\":33706:33707   */\n      0x00\n        /* \"#utility.yul\":33695:33704   */\n      dup4\n        /* \"#utility.yul\":33691:33708   */\n      add\n        /* \"#utility.yul\":33684:33731   */\n      mstore\n        /* \"#utility.yul\":33748:33879   */\n      tag_767\n        /* \"#utility.yul\":33874:33878   */\n      dup2\n        /* \"#utility.yul\":33748:33879   */\n      tag_446\n      jump\t// in\n    tag_767:\n        /* \"#utility.yul\":33740:33879   */\n      swap1\n      pop\n        /* \"#utility.yul\":33467:33886   */\n      swap2\n      swap1\n      pop\n      jump\t// out\n        /* \"#utility.yul\":33892:34113   */\n    tag_447:\n        /* \"#utility.yul\":34032:34066   */\n      0x526563697069656e74206d757374206265207265676973746572656420737461\n        /* \"#utility.yul\":34028:34029   */\n      0x00\n        /* \"#utility.yul\":34020:34026   */\n      dup3\n        /* \"#utility.yul\":34016:34030   */\n      add\n        /* \"#utility.yul\":34009:34067   */\n      mstore\n        /* \"#utility.yul\":34101:34105   */\n      0x6666000000000000000000000000000000000000000000000000000000000000\n        /* \"#utility.yul\":34096:34098   */\n      0x20\n        /* \"#utility.yul\":34088:34094   */\n      dup3\n        /* \"#utility.yul\":34084:34099   */\n      add\n        /* \"#utility.yul\":34077:34106   */\n      mstore\n        /* \"#utility.yul\":33892:34113   */\n      pop\n      jump\t// out\n        /* \"#utility.yul\":34119:34485   */\n    tag_448:\n        /* \"#utility.yul\":34261:34264   */\n      0x00\n        /* \"#utility.yul\":34282:34349   */\n      tag_770\n        /* \"#utility.yul\":34346:34348   */\n      0x22\n        /* \"#utility.yul\":34341:34344   */\n      dup4\n        /* \"#utility.yul\":34282:34349   */\n      tag_407\n      jump\t// in\n    tag_770:\n        /* \"#utility.yul\":34275:34349   */\n      swap2\n      pop\n        /* \"#utility.yul\":34358:34451   */\n      tag_771\n        /* \"#utility.yul\":34447:34450   */\n      dup3\n        /* \"#utility.yul\":34358:34451   */\n      tag_447\n      jump\t// in\n    tag_771:\n        /* \"#utility.yul\":34476:34478   */\n      0x40\n        /* \"#utility.yul\":34471:34474   */\n      dup3\n        /* \"#utility.yul\":34467:34479   */\n      add\n        /* \"#utility.yul\":34460:34479   */\n      swap1\n      pop\n        /* \"#utility.yul\":34119:34485   */\n      swap2\n      swap1\n      pop\n      jump\t// out\n        /* \"#utility.yul\":34491:34910   */\n    tag_126:\n        /* \"#utility.yul\":34657:34661   */\n      0x00\n        /* \"#utility.yul\":34695:34697   */\n      0x20\n        /* \"#utility.yul\":34684:34693   */\n      dup3\n        /* \"#utility.yul\":34680:34698   */\n      add\n        /* \"#utility.yul\":34672:34698   */\n      swap1\n      pop\n        /* \"#utility.yul\":34744:34753   */\n      dup2\n        /* \"#utility.yul\":34738:34742   */\n      dup2\n        /* \"#utility.yul\":34734:34754   */\n      sub\n        /* \"#utility.yul\":34730:34731   */\n      0x00\n        /* \"#utility.yul\":34719:34728   */\n      dup4\n        /* \"#utility.yul\":34715:34732   */\n      add\n        /* \"#utility.yul\":34708:34755   */\n      mstore\n        /* \"#utility.yul\":34772:34903   */\n      tag_773\n        /* \"#utility.yul\":34898:34902   */\n      dup2\n        /* \"#utility.yul\":34772:34903   */\n      tag_448\n      jump\t// in\n    tag_773:\n        /* \"#utility.yul\":34764:34903   */\n      swap1\n      pop\n        /* \"#utility.yul\":34491:34910   */\n      swap2\n      swap1\n      pop\n      jump\t// out\n        /* \"#utility.yul\":34916:35306   */\n    tag_449:\n        /* \"#utility.yul\":35022:35025   */\n      0x00\n        /* \"#utility.yul\":35050:35089   */\n      tag_775\n        /* \"#utility.yul\":35083:35088   */\n      dup3\n        /* \"#utility.yul\":35050:35089   */\n      tag_378\n      jump\t// in\n    tag_775:\n        /* \"#utility.yul\":35105:35194   */\n      tag_776\n        /* \"#utility.yul\":35187:35193   */\n      dup2\n        /* \"#utility.yul\":35182:35185   */\n      dup6\n        /* \"#utility.yul\":35105:35194   */\n      tag_429\n      jump\t// in\n    tag_776:\n        /* \"#utility.yul\":35098:35194   */\n      swap4\n      pop\n        /* \"#utility.yul\":35203:35268   */\n      tag_777\n        /* \"#utility.yul\":35261:35267   */\n      dup2\n        /* \"#utility.yul\":35256:35259   */\n      dup6\n        /* \"#utility.yul\":35249:35253   */\n      0x20\n        /* \"#utility.yul\":35242:35247   */\n      dup7\n        /* \"#utility.yul\":35238:35254   */\n      add\n        /* \"#utility.yul\":35203:35268   */\n      tag_380\n      jump\t// in\n    tag_777:\n        /* \"#utility.yul\":35293:35299   */\n      dup1\n        /* \"#utility.yul\":35288:35291   */\n      dup5\n        /* \"#utility.yul\":35284:35300   */\n      add\n        /* \"#utility.yul\":35277:35300   */\n      swap2\n      pop\n        /* \"#utility.yul\":35026:35306   */\n      pop\n        /* \"#utility.yul\":34916:35306   */\n      swap3\n      swap2\n      pop\n      pop\n      jump\t// out\n        /* \"#utility.yul\":35312:35587   */\n    tag_130:\n        /* \"#utility.yul\":35444:35447   */\n      0x00\n        /* \"#utility.yul\":35466:35561   */\n      tag_779\n        /* \"#utility.yul\":35557:35560   */\n      dup3\n        /* \"#utility.yul\":35548:35554   */\n      dup5\n        /* \"#utility.yul\":35466:35561   */\n      tag_449\n      jump\t// in\n    tag_779:\n        /* \"#utility.yul\":35459:35561   */\n      swap2\n      pop\n        /* \"#utility.yul\":35578:35581   */\n      dup2\n        /* \"#utility.yul\":35571:35581   */\n      swap1\n      pop\n        /* \"#utility.yul\":35312:35587   */\n      swap3\n      swap2\n      pop\n      pop\n      jump\t// out\n        /* \"#utility.yul\":35593:35765   */\n    tag_450:\n        /* \"#utility.yul\":35733:35757   */\n      0x496e76616c696420726563697069656e7420726f6c6500000000000000000000\n        /* \"#utility.yul\":35729:35730   */\n      0x00\n        /* \"#utility.yul\":35721:35727   */\n      dup3\n        /* \"#utility.yul\":35717:35731   */\n      add\n        /* \"#utility.yul\":35710:35758   */\n      mstore\n        /* \"#utility.yul\":35593:35765   */\n      pop\n      jump\t// out\n        /* \"#utility.yul\":35771:36137   */\n    tag_451:\n        /* \"#utility.yul\":35913:35916   */\n      0x00\n        /* \"#utility.yul\":35934:36001   */\n      tag_782\n        /* \"#utility.yul\":35998:36000   */\n      0x16\n        /* \"#utility.yul\":35993:35996   */\n      dup4\n        /* \"#utility.yul\":35934:36001   */\n      tag_407\n      jump\t// in\n    tag_782:\n        /* \"#utility.yul\":35927:36001   */\n      swap2\n      pop\n        /* \"#utility.yul\":36010:36103   */\n      tag_783\n        /* \"#utility.yul\":36099:36102   */\n      dup3\n        /* \"#utility.yul\":36010:36103   */\n      tag_450\n      jump\t// in\n    tag_783:\n        /* \"#utility.yul\":36128:36130   */\n      0x20\n        /* \"#utility.yul\":36123:36126   */\n      dup3\n        /* \"#utility.yul\":36119:36131   */\n      add\n        /* \"#utility.yul\":36112:36131   */\n      swap1\n      pop\n        /* \"#utility.yul\":35771:36137   */\n      swap2\n      swap1\n      pop\n      jump\t// out\n        /* \"#utility.yul\":36143:36562   */\n    tag_137:\n        /* \"#utility.yul\":36309:36313   */\n      0x00\n        /* \"#utility.yul\":36347:36349   */\n      0x20\n        /* \"#utility.yul\":36336:36345   */\n      dup3\n        /* \"#utility.yul\":36332:36350   */\n      add\n        /* \"#utility.yul\":36324:36350   */\n      swap1\n      pop\n        /* \"#utility.yul\":36396:36405   */\n      dup2\n        /* \"#utility.yul\":36390:36394   */\n      dup2\n        /* \"#utility.yul\":36386:36406   */\n      sub\n        /* \"#utility.yul\":36382:36383   */\n      0x00\n        /* \"#utility.yul\":36371:36380   */\n      dup4\n        /* \"#utility.yul\":36367:36384   */\n      add\n        /* \"#utility.yul\":36360:36407   */\n      mstore\n        /* \"#utility.yul\":36424:36555   */\n      tag_785\n        /* \"#utility.yul\":36550:36554   */\n      dup2\n        /* \"#utility.yul\":36424:36555   */\n      tag_451\n      jump\t// in\n    tag_785:\n        /* \"#utility.yul\":36416:36555   */\n      swap1\n      pop\n        /* \"#utility.yul\":36143:36562   */\n      swap2\n      swap1\n      pop\n      jump\t// out\n        /* \"#utility.yul\":36568:36661   */\n    tag_452:\n        /* \"#utility.yul\":36605:36611   */\n      0x00\n        /* \"#utility.yul\":36652:36654   */\n      0x20\n        /* \"#utility.yul\":36647:36649   */\n      0x1f\n        /* \"#utility.yul\":36640:36645   */\n      dup4\n        /* \"#utility.yul\":36636:36650   */\n      add\n        /* \"#utility.yul\":36632:36655   */\n      div\n        /* \"#utility.yul\":36622:36655   */\n      swap1\n      pop\n        /* \"#utility.yul\":36568:36661   */\n      swap2\n      swap1\n      pop\n      jump\t// out\n        /* \"#utility.yul\":36667:36774   */\n    tag_453:\n        /* \"#utility.yul\":36711:36719   */\n      0x00\n        /* \"#utility.yul\":36761:36766   */\n      dup3\n        /* \"#utility.yul\":36755:36759   */\n      dup3\n        /* \"#utility.yul\":36751:36767   */\n      shl\n        /* \"#utility.yul\":36730:36767   */\n      swap1\n      pop\n        /* \"#utility.yul\":36667:36774   */\n      swap3\n      swap2\n      pop\n      pop\n      jump\t// out\n        /* \"#utility.yul\":36780:37173   */\n    tag_454:\n        /* \"#utility.yul\":36849:36855   */\n      0x00\n        /* \"#utility.yul\":36899:36900   */\n      0x08\n        /* \"#utility.yul\":36887:36897   */\n      dup4\n        /* \"#utility.yul\":36883:36901   */\n      mul\n        /* \"#utility.yul\":36922:37019   */\n      tag_789\n        /* \"#utility.yul\":36952:37018   */\n      0xffffffffffffffffffffffffffffffffffffffffffffffffffffffffffffffff\n        /* \"#utility.yul\":36941:36950   */\n      dup3\n        /* \"#utility.yul\":36922:37019   */\n      tag_453\n      jump\t// in\n    tag_789:\n        /* \"#utility.yul\":37040:37079   */\n      tag_790\n        /* \"#utility.yul\":37070:37078   */\n      dup7\n        /* \"#utility.yul\":37059:37068   */\n      dup4\n        /* \"#utility.yul\":37040:37079   */\n      tag_453\n      jump\t// in\n    tag_790:\n        /* \"#utility.yul\":37028:37079   */\n      swap6\n      pop\n        /* \"#utility.yul\":37112:37116   */\n      dup1\n        /* \"#utility.yul\":37108:37117   */\n      not\n        /* \"#utility.yul\":37101:37106   */\n      dup5\n        /* \"#utility.yul\":37097:37118   */\n      and\n        /* \"#utility.yul\":37088:37118   */\n      swap4\n      pop\n        /* \"#utility.yul\":37161:37165   */\n      dup1\n        /* \"#utility.yul\":37151:37159   */\n      dup7\n        /* \"#utility.yul\":37147:37166   */\n      and\n        /* \"#utility.yul\":37140:37145   */\n      dup5\n        /* \"#utility.yul\":37137:37167   */\n      or\n        /* \"#utility.yul\":37127:37167   */\n      swap3\n      pop\n        /* \"#utility.yul\":36856:37173   */\n      pop\n      pop\n        /* \"#utility.yul\":36780:37173   */\n      swap4\n      swap3\n      pop\n      pop\n      pop\n      jump\t// out\n        /* \"#utility.yul\":37179:37239   */\n    tag_455:\n        /* \"#utility.yul\":37207:37210   */\n      0x00\n        /* \"#utility.yul\":37228:37233   */\n      dup2\n        /* \"#utility.yul\":37221:37233   */\n      swap1\n      pop\n        /* \"#utility.yul\":37179:37239   */\n      swap2\n      swap1\n      pop\n      jump\t// out\n        /* \"#utility.yul\":37245:37387   */\n    tag_456:\n        /* \"#utility.yul\":37295:37304   */\n      0x00\n        /* \"#utility.yul\":37328:37381   */\n      tag_793\n        /* \"#utility.yul\":37346:37380   */\n      tag_794\n        /* \"#utility.yul\":37355:37379   */\n      tag_795\n        /* \"#utility.yul\":37373:37378   */\n      dup5\n        /* \"#utility.yul\":37355:37379   */\n      tag_390\n      jump\t// in\n    tag_795:\n        /* \"#utility.yul\":37346:37380   */\n      tag_455\n      jump\t// in\n    tag_794:\n        /* \"#utility.yul\":37328:37381   */\n      tag_390\n      jump\t// in\n    tag_793:\n        /* \"#utility.yul\":37315:37381   */\n      swap1\n      pop\n        /* \"#utility.yul\":37245:37387   */\n      swap2\n      swap1\n      pop\n      jump\t// out\n        /* \"#utility.yul\":37393:37468   */\n    tag_457:\n        /* \"#utility.yul\":37436:37439   */\n      0x00\n        /* \"#utility.yul\":37457:37462   */\n      dup2\n        /* \"#utility.yul\":37450:37462   */\n      swap1\n      pop\n        /* \"#utility.yul\":37393:37468   */\n      swap2\n      swap1\n      pop\n      jump\t// out\n        /* \"#utility.yul\":37474:37743   */\n    tag_458:\n        /* \"#utility.yul\":37584:37623   */\n      tag_798\n        /* \"#utility.yul\":37615:37622   */\n      dup4\n        /* \"#utility.yul\":37584:37623   */\n      tag_456\n      jump\t// in\n    tag_798:\n        /* \"#utility.yul\":37645:37736   */\n      tag_799\n        /* \"#utility.yul\":37694:37735   */\n      tag_800\n        /* \"#utility.yul\":37718:37734   */\n      dup3\n        /* \"#utility.yul\":37694:37735   */\n      tag_457\n      jump\t// in\n    tag_800:\n        /* \"#utility.yul\":37686:37692   */\n      dup5\n        /* \"#utility.yul\":37679:37683   */\n      dup5\n        /* \"#utility.yul\":37673:37684   */\n      sload\n        /* \"#utility.yul\":37645:37736   */\n      tag_454\n      jump\t// in\n    tag_799:\n        /* \"#utility.yul\":37639:37643   */\n      dup3\n        /* \"#utility.yul\":37632:37737   */\n      sstore\n        /* \"#utility.yul\":37550:37743   */\n      pop\n        /* \"#utility.yul\":37474:37743   */\n      pop\n      pop\n      pop\n      jump\t// out\n        /* \"#utility.yul\":37749:37822   */\n    tag_459:\n        /* \"#utility.yul\":37794:37797   */\n      0x00\n        /* \"#utility.yul\":37749:37822   */\n      swap1\n      jump\t// out\n        /* \"#utility.yul\":37828:38017   */\n    tag_460:\n        /* \"#utility.yul\":37905:37937   */\n      tag_803\n      tag_459\n      jump\t// in\n    tag_803:\n        /* \"#utility.yul\":37946:38011   */\n      tag_804\n        /* \"#utility.yul\":38004:38010   */\n      dup2\n        /* \"#utility.yul\":37996:38002   */\n      dup5\n        /* \"#utility.yul\":37990:37994   */\n      dup5\n        /* \"#utility.yul\":37946:38011   */\n      tag_458\n      jump\t// in\n    tag_804:\n        /* \"#utility.yul\":37881:38017   */\n      pop\n        /* \"#utility.yul\":37828:38017   */\n      pop\n      pop\n      jump\t// out\n        /* \"#utility.yul\":38023:38209   */\n    tag_461:\n        /* \"#utility.yul\":38083:38203   */\n    tag_806:\n        /* \"#utility.yul\":38100:38103   */\n      dup2\n        /* \"#utility.yul\":38093:38098   */\n      dup2\n        /* \"#utility.yul\":38090:38104   */\n      lt\n        /* \"#utility.yul\":38083:38203   */\n      iszero\n      tag_808\n      jumpi\n        /* \"#utility.yul\":38154:38193   */\n      tag_809\n        /* \"#utility.yul\":38191:38192   */\n      0x00\n        /* \"#utility.yul\":38184:38189   */\n      dup3\n        /* \"#utility.yul\":38154:38193   */\n      tag_460\n      jump\t// in\n    tag_809:\n        /* \"#utility.yul\":38127:38128   */\n      0x01\n        /* \"#utility.yul\":38120:38125   */\n      dup2\n        /* \"#utility.yul\":38116:38129   */\n      add\n        /* \"#utility.yul\":38107:38129   */\n      swap1\n      pop\n        /* \"#utility.yul\":38083:38203   */\n      jump(tag_806)\n    tag_808:\n        /* \"#utility.yul\":38023:38209   */\n      pop\n      pop\n      jump\t// out\n        /* \"#utility.yul\":38215:38758   */\n    tag_462:\n        /* \"#utility.yul\":38316:38318   */\n      0x1f\n        /* \"#utility.yul\":38311:38314   */\n      dup3\n        /* \"#utility.yul\":38308:38319   */\n      gt\n        /* \"#utility.yul\":38305:38751   */\n      iszero\n      tag_811\n      jumpi\n        /* \"#utility.yul\":38350:38388   */\n      tag_812\n        /* \"#utility.yul\":38382:38387   */\n      dup2\n        /* \"#utility.yul\":38350:38388   */\n      tag_432\n      jump\t// in\n    tag_812:\n        /* \"#utility.yul\":38434:38463   */\n      tag_813\n        /* \"#utility.yul\":38452:38462   */\n      dup5\n        /* \"#utility.yul\":38434:38463   */\n      tag_452\n      jump\t// in\n    tag_813:\n        /* \"#utility.yul\":38424:38432   */\n      dup2\n        /* \"#utility.yul\":38420:38464   */\n      add\n        /* \"#utility.yul\":38617:38619   */\n      0x20\n        /* \"#utility.yul\":38605:38615   */\n      dup6\n        /* \"#utility.yul\":38602:38620   */\n      lt\n        /* \"#utility.yul\":38599:38648   */\n      iszero\n      tag_814\n      jumpi\n        /* \"#utility.yul\":38638:38646   */\n      dup2\n        /* \"#utility.yul\":38623:38646   */\n      swap1\n      pop\n        /* \"#utility.yul\":38599:38648   */\n    tag_814:\n        /* \"#utility.yul\":38661:38741   */\n      tag_815\n        /* \"#utility.yul\":38717:38739   */\n      tag_816\n        /* \"#utility.yul\":38735:38738   */\n      dup6\n        /* \"#utility.yul\":38717:38739   */\n      tag_452\n      jump\t// in\n    tag_816:\n        /* \"#utility.yul\":38707:38715   */\n      dup4\n        /* \"#utility.yul\":38703:38740   */\n      add\n        /* \"#utility.yul\":38690:38701   */\n      dup3\n        /* \"#utility.yul\":38661:38741   */\n      tag_461\n      jump\t// in\n    tag_815:\n        /* \"#utility.yul\":38320:38751   */\n      pop\n      pop\n        /* \"#utility.yul\":38305:38751   */\n    tag_811:\n        /* \"#utility.yul\":38215:38758   */\n      pop\n      pop\n      pop\n      jump\t// out\n        /* \"#utility.yul\":38764:38881   */\n    tag_463:\n        /* \"#utility.yul\":38818:38826   */\n      0x00\n        /* \"#utility.yul\":38868:38873   */\n      dup3\n        /* \"#utility.yul\":38862:38866   */\n      dup3\n        /* \"#utility.yul\":38858:38874   */\n      shr\n        /* \"#utility.yul\":38837:38874   */\n      swap1\n      pop\n        /* \"#utility.yul\":38764:38881   */\n      swap3\n      swap2\n      pop\n      pop\n      jump\t// out\n        /* \"#utility.yul\":38887:39056   */\n    tag_464:\n        /* \"#utility.yul\":38931:38937   */\n      0x00\n        /* \"#utility.yul\":38964:39015   */\n      tag_819\n        /* \"#utility.yul\":39012:39013   */\n      0x00\n        /* \"#utility.yul\":39008:39014   */\n      not\n        /* \"#utility.yul\":39000:39005   */\n      dup5\n        /* \"#utility.yul\":38997:38998   */\n      0x08\n        /* \"#utility.yul\":38993:39006   */\n      mul\n        /* \"#utility.yul\":38964:39015   */\n      tag_463\n      jump\t// in\n    tag_819:\n        /* \"#utility.yul\":38960:39016   */\n      not\n        /* \"#utility.yul\":39045:39049   */\n      dup1\n        /* \"#utility.yul\":39039:39043   */\n      dup4\n        /* \"#utility.yul\":39035:39050   */\n      and\n        /* \"#utility.yul\":39025:39050   */\n      swap2\n      pop\n        /* \"#utility.yul\":38938:39056   */\n      pop\n        /* \"#utility.yul\":38887:39056   */\n      swap3\n      swap2\n      pop\n      pop\n      jump\t// out\n        /* \"#utility.yul\":39061:39356   */\n    tag_465:\n        /* \"#utility.yul\":39137:39141   */\n      0x00\n        /* \"#utility.yul\":39283:39312   */\n      tag_821\n        /* \"#utility.yul\":39308:39311   */\n      dup4\n        /* \"#utility.yul\":39302:39306   */\n      dup4\n        /* \"#utility.yul\":39283:39312   */\n      tag_464\n      jump\t// in\n    tag_821:\n        /* \"#utility.yul\":39275:39312   */\n      swap2\n      pop\n        /* \"#utility.yul\":39345:39348   */\n      dup3\n        /* \"#utility.yul\":39342:39343   */\n      0x02\n        /* \"#utility.yul\":39338:39349   */\n      mul\n        /* \"#utility.yul\":39332:39336   */\n      dup3\n        /* \"#utility.yul\":39329:39350   */\n      or\n        /* \"#utility.yul\":39321:39350   */\n      swap1\n      pop\n        /* \"#utility.yul\":39061:39356   */\n      swap3\n      swap2\n      pop\n      pop\n      jump\t// out\n        /* \"#utility.yul\":39361:40756   */\n    tag_142:\n        /* \"#utility.yul\":39478:39515   */\n      tag_823\n        /* \"#utility.yul\":39511:39514   */\n      dup3\n        /* \"#utility.yul\":39478:39515   */\n      tag_378\n      jump\t// in\n    tag_823:\n        /* \"#utility.yul\":39580:39598   */\n      0xffffffffffffffff\n        /* \"#utility.yul\":39572:39578   */\n      dup2\n        /* \"#utility.yul\":39569:39599   */\n      gt\n        /* \"#utility.yul\":39566:39622   */\n      iszero\n      tag_824\n      jumpi\n        /* \"#utility.yul\":39602:39620   */\n      tag_825\n      tag_339\n      jump\t// in\n    tag_825:\n        /* \"#utility.yul\":39566:39622   */\n    tag_824:\n        /* \"#utility.yul\":39646:39684   */\n      tag_826\n        /* \"#utility.yul\":39678:39682   */\n      dup3\n        /* \"#utility.yul\":39672:39683   */\n      sload\n        /* \"#utility.yul\":39646:39684   */\n      tag_74\n      jump\t// in\n    tag_826:\n        /* \"#utility.yul\":39731:39798   */\n      tag_827\n        /* \"#utility.yul\":39791:39797   */\n      dup3\n        /* \"#utility.yul\":39783:39789   */\n      dup3\n        /* \"#utility.yul\":39777:39781   */\n      dup6\n        /* \"#utility.yul\":39731:39798   */\n      tag_462\n      jump\t// in\n    tag_827:\n        /* \"#utility.yul\":39825:39826   */\n      0x00\n        /* \"#utility.yul\":39849:39853   */\n      0x20\n        /* \"#utility.yul\":39836:39853   */\n      swap1\n      pop\n        /* \"#utility.yul\":39881:39883   */\n      0x1f\n        /* \"#utility.yul\":39873:39879   */\n      dup4\n        /* \"#utility.yul\":39870:39884   */\n      gt\n        /* \"#utility.yul\":39898:39899   */\n      0x01\n        /* \"#utility.yul\":39893:40511   */\n      dup2\n      eq\n      tag_829\n      jumpi\n        /* \"#utility.yul\":40555:40556   */\n      0x00\n        /* \"#utility.yul\":40572:40578   */\n      dup5\n        /* \"#utility.yul\":40569:40646   */\n      iszero\n      tag_830\n      jumpi\n        /* \"#utility.yul\":40621:40630   */\n      dup3\n        /* \"#utility.yul\":40616:40619   */\n      dup8\n        /* \"#utility.yul\":40612:40631   */\n      add\n        /* \"#utility.yul\":40606:40632   */\n      mload\n        /* \"#utility.yul\":40597:40632   */\n      swap1\n      pop\n        /* \"#utility.yul\":40569:40646   */\n    tag_830:\n        /* \"#utility.yul\":40672:40739   */\n      tag_831\n        /* \"#utility.yul\":40732:40738   */\n      dup6\n        /* \"#utility.yul\":40725:40730   */\n      dup3\n        /* \"#utility.yul\":40672:40739   */\n      tag_465\n      jump\t// in\n    tag_831:\n        /* \"#utility.yul\":40666:40670   */\n      dup7\n        /* \"#utility.yul\":40659:40740   */\n      sstore\n        /* \"#utility.yul\":40528:40750   */\n      pop\n        /* \"#utility.yul\":39863:40750   */\n      jump(tag_828)\n        /* \"#utility.yul\":39893:40511   */\n    tag_829:\n        /* \"#utility.yul\":39945:39949   */\n      0x1f\n        /* \"#utility.yul\":39941:39950   */\n      not\n        /* \"#utility.yul\":39933:39939   */\n      dup5\n        /* \"#utility.yul\":39929:39951   */\n      and\n        /* \"#utility.yul\":39979:40016   */\n      tag_832\n        /* \"#utility.yul\":40011:40015   */\n      dup7\n        /* \"#utility.yul\":39979:40016   */\n      tag_432\n      jump\t// in\n    tag_832:\n        /* \"#utility.yul\":40038:40039   */\n      0x00\n        /* \"#utility.yul\":40052:40260   */\n    tag_833:\n        /* \"#utility.yul\":40066:40073   */\n      dup3\n        /* \"#utility.yul\":40063:40064   */\n      dup2\n        /* \"#utility.yul\":40060:40074   */\n      lt\n        /* \"#utility.yul\":40052:40260   */\n      iszero\n      tag_835\n      jumpi\n        /* \"#utility.yul\":40145:40154   */\n      dup5\n        /* \"#utility.yul\":40140:40143   */\n      dup10\n        /* \"#utility.yul\":40136:40155   */\n      add\n        /* \"#utility.yul\":40130:40156   */\n      mload\n        /* \"#utility.yul\":40122:40128   */\n      dup3\n        /* \"#utility.yul\":40115:40157   */\n      sstore\n        /* \"#utility.yul\":40196:40197   */\n      0x01\n        /* \"#utility.yul\":40188:40194   */\n      dup3\n        /* \"#utility.yul\":40184:40198   */\n      add\n        /* \"#utility.yul\":40174:40198   */\n      swap2\n      pop\n        /* \"#utility.yul\":40243:40245   */\n      0x20\n        /* \"#utility.yul\":40232:40241   */\n      dup6\n        /* \"#utility.yul\":40228:40246   */\n      add\n        /* \"#utility.yul\":40215:40246   */\n      swap5\n      pop\n        /* \"#utility.yul\":40089:40093   */\n      0x20\n        /* \"#utility.yul\":40086:40087   */\n      dup2\n        /* \"#utility.yul\":40082:40094   */\n      add\n        /* \"#utility.yul\":40077:40094   */\n      swap1\n      pop\n        /* \"#utility.yul\":40052:40260   */\n      jump(tag_833)\n    tag_835:\n        /* \"#utility.yul\":40288:40294   */\n      dup7\n        /* \"#utility.yul\":40279:40286   */\n      dup4\n        /* \"#utility.yul\":40276:40295   */\n      lt\n        /* \"#utility.yul\":40273:40452   */\n      iszero\n      tag_836\n      jumpi\n        /* \"#utility.yul\":40346:40355   */\n      dup5\n        /* \"#utility.yul\":40341:40344   */\n      dup10\n        /* \"#utility.yul\":40337:40356   */\n      add\n        /* \"#utility.yul\":40331:40357   */\n      mload\n        /* \"#utility.yul\":40389:40437   */\n      tag_837\n        /* \"#utility.yul\":40431:40435   */\n      0x1f\n        /* \"#utility.yul\":40423:40429   */\n      dup10\n        /* \"#utility.yul\":40419:40436   */\n      and\n        /* \"#utility.yul\":40408:40417   */\n      dup3\n        /* \"#utility.yul\":40389:40437   */\n      tag_464\n      jump\t// in\n    tag_837:\n        /* \"#utility.yul\":40381:40387   */\n      dup4\n        /* \"#utility.yul\":40374:40438   */\n      sstore\n        /* \"#utility.yul\":40296:40452   */\n      pop\n        /* \"#utility.yul\":40273:40452   */\n    tag_836:\n        /* \"#utility.yul\":40498:40499   */\n      0x01\n        /* \"#utility.yul\":40494:40495   */\n      0x02\n        /* \"#utility.yul\":40486:40492   */\n      dup9\n        /* \"#utility.yul\":40482:40496   */\n      mul\n        /* \"#utility.yul\":40478:40500   */\n      add\n        /* \"#utility.yul\":40472:40476   */\n      dup9\n        /* \"#utility.yul\":40465:40501   */\n      sstore\n        /* \"#utility.yul\":39900:40511   */\n      pop\n      pop\n      pop\n        /* \"#utility.yul\":39863:40750   */\n    tag_828:\n      pop\n        /* \"#utility.yul\":39453:40756   */\n      pop\n      pop\n      pop\n        /* \"#utility.yul\":39361:40756   */\n      pop\n      pop\n      jump\t// out\n        /* \"#utility.yul\":40762:41075   */\n    tag_167:\n        /* \"#utility.yul\":40875:40879   */\n      0x00\n        /* \"#utility.yul\":40913:40915   */\n      0x20\n        /* \"#utility.yul\":40902:40911   */\n      dup3\n        /* \"#utility.yul\":40898:40916   */\n      add\n        /* \"#utility.yul\":40890:40916   */\n      swap1\n      pop\n        /* \"#utility.yul\":40962:40971   */\n      dup2\n        /* \"#utility.yul\":40956:40960   */\n      dup2\n        /* \"#utility.yul\":40952:40972   */\n      sub\n        /* \"#utility.yul\":40948:40949   */\n      0x00\n        /* \"#utility.yul\":40937:40946   */\n      dup4\n        /* \"#utility.yul\":40933:40950   */\n      add\n        /* \"#utility.yul\":40926:40973   */\n      mstore\n        /* \"#utility.yul\":40990:41068   */\n      tag_839\n        /* \"#utility.yul\":41063:41067   */\n      dup2\n        /* \"#utility.yul\":41054:41060   */\n      dup5\n        /* \"#utility.yul\":40990:41068   */\n      tag_408\n      jump\t// in\n    tag_839:\n        /* \"#utility.yul\":40982:41068   */\n      swap1\n      pop\n        /* \"#utility.yul\":40762:41075   */\n      swap3\n      swap2\n      pop\n      pop\n      jump\t// out\n        /* \"#utility.yul\":41081:41316   */\n    tag_466:\n        /* \"#utility.yul\":41221:41255   */\n      0x4f6e6c7920726567697374657265642073747564656e74732063616e20706572\n        /* \"#utility.yul\":41217:41218   */\n      0x00\n        /* \"#utility.yul\":41209:41215   */\n      dup3\n        /* \"#utility.yul\":41205:41219   */\n      add\n        /* \"#utility.yul\":41198:41256   */\n      mstore\n        /* \"#utility.yul\":41290:41308   */\n      0x666f726d207468697320616374696f6e00000000000000000000000000000000\n        /* \"#utility.yul\":41285:41287   */\n      0x20\n        /* \"#utility.yul\":41277:41283   */\n      dup3\n        /* \"#utility.yul\":41273:41288   */\n      add\n        /* \"#utility.yul\":41266:41309   */\n      mstore\n        /* \"#utility.yul\":41081:41316   */\n      pop\n      jump\t// out\n        /* \"#utility.yul\":41322:41688   */\n    tag_467:\n        /* \"#utility.yul\":41464:41467   */\n      0x00\n        /* \"#utility.yul\":41485:41552   */\n      tag_842\n        /* \"#utility.yul\":41549:41551   */\n      0x30\n        /* \"#utility.yul\":41544:41547   */\n      dup4\n        /* \"#utility.yul\":41485:41552   */\n      tag_407\n      jump\t// in\n    tag_842:\n        /* \"#utility.yul\":41478:41552   */\n      swap2\n      pop\n        /* \"#utility.yul\":41561:41654   */\n      tag_843\n        /* \"#utility.yul\":41650:41653   */\n      dup3\n        /* \"#utility.yul\":41561:41654   */\n      tag_466\n      jump\t// in\n    tag_843:\n        /* \"#utility.yul\":41679:41681   */\n      0x40\n        /* \"#utility.yul\":41674:41677   */\n      dup3\n        /* \"#utility.yul\":41670:41682   */\n      add\n        /* \"#utility.yul\":41663:41682   */\n      swap1\n      pop\n        /* \"#utility.yul\":41322:41688   */\n      swap2\n      swap1\n      pop\n      jump\t// out\n        /* \"#utility.yul\":41694:42113   */\n    tag_176:\n        /* \"#utility.yul\":41860:41864   */\n      0x00\n        /* \"#utility.yul\":41898:41900   */\n      0x20\n        /* \"#utility.yul\":41887:41896   */\n      dup3\n        /* \"#utility.yul\":41883:41901   */\n      add\n        /* \"#utility.yul\":41875:41901   */\n      swap1\n      pop\n        /* \"#utility.yul\":41947:41956   */\n      dup2\n        /* \"#utility.yul\":41941:41945   */\n      dup2\n        /* \"#utility.yul\":41937:41957   */\n      sub\n        /* \"#utility.yul\":41933:41934   */\n      0x00\n        /* \"#utility.yul\":41922:41931   */\n      dup4\n        /* \"#utility.yul\":41918:41935   */\n      add\n        /* \"#utility.yul\":41911:41958   */\n      mstore\n        /* \"#utility.yul\":41975:42106   */\n      tag_845\n        /* \"#utility.yul\":42101:42105   */\n      dup2\n        /* \"#utility.yul\":41975:42106   */\n      tag_467\n      jump\t// in\n    tag_845:\n        /* \"#utility.yul\":41967:42106   */\n      swap1\n      pop\n        /* \"#utility.yul\":41694:42113   */\n      swap2\n      swap1\n      pop\n      jump\t// out\n        /* \"#utility.yul\":42119:42293   */\n    tag_468:\n        /* \"#utility.yul\":42259:42285   */\n      0x537461666620616c726561647920726567697374657265640000000000000000\n        /* \"#utility.yul\":42255:42256   */\n      0x00\n        /* \"#utility.yul\":42247:42253   */\n      dup3\n        /* \"#utility.yul\":42243:42257   */\n      add\n        /* \"#utility.yul\":42236:42286   */\n      mstore\n        /* \"#utility.yul\":42119:42293   */\n      pop\n      jump\t// out\n        /* \"#utility.yul\":42299:42665   */\n    tag_469:\n        /* \"#utility.yul\":42441:42444   */\n      0x00\n        /* \"#utility.yul\":42462:42529   */\n      tag_848\n        /* \"#utility.yul\":42526:42528   */\n      0x18\n        /* \"#utility.yul\":42521:42524   */\n      dup4\n        /* \"#utility.yul\":42462:42529   */\n      tag_407\n      jump\t// in\n    tag_848:\n        /* \"#utility.yul\":42455:42529   */\n      swap2\n      pop\n        /* \"#utility.yul\":42538:42631   */\n      tag_849\n        /* \"#utility.yul\":42627:42630   */\n      dup3\n        /* \"#utility.yul\":42538:42631   */\n      tag_468\n      jump\t// in\n    tag_849:\n        /* \"#utility.yul\":42656:42658   */\n      0x20\n        /* \"#utility.yul\":42651:42654   */\n      dup3\n        /* \"#utility.yul\":42647:42659   */\n      add\n        /* \"#utility.yul\":42640:42659   */\n      swap1\n      pop\n        /* \"#utility.yul\":42299:42665   */\n      swap2\n      swap1\n      pop\n      jump\t// out\n        /* \"#utility.yul\":42671:43090   */\n    tag_190:\n        /* \"#utility.yul\":42837:42841   */\n      0x00\n        /* \"#utility.yul\":42875:42877   */\n      0x20\n        /* \"#utility.yul\":42864:42873   */\n      dup3\n        /* \"#utility.yul\":42860:42878   */\n      add\n        /* \"#utility.yul\":42852:42878   */\n      swap1\n      pop\n        /* \"#utility.yul\":42924:42933   */\n      dup2\n        /* \"#utility.yul\":42918:42922   */\n      dup2\n        /* \"#utility.yul\":42914:42934   */\n      sub\n        /* \"#utility.yul\":42910:42911   */\n      0x00\n        /* \"#utility.yul\":42899:42908   */\n      dup4\n        /* \"#utility.yul\":42895:42912   */\n      add\n        /* \"#utility.yul\":42888:42935   */\n      mstore\n        /* \"#utility.yul\":42952:43083   */\n      tag_851\n        /* \"#utility.yul\":43078:43082   */\n      dup2\n        /* \"#utility.yul\":42952:43083   */\n      tag_469\n      jump\t// in\n    tag_851:\n        /* \"#utility.yul\":42944:43083   */\n      swap1\n      pop\n        /* \"#utility.yul\":42671:43090   */\n      swap2\n      swap1\n      pop\n      jump\t// out\n        /* \"#utility.yul\":43096:43266   */\n    tag_470:\n        /* \"#utility.yul\":43236:43258   */\n      0x4e616d652063616e6e6f7420626520656d707479000000000000000000000000\n        /* \"#utility.yul\":43232:43233   */\n      0x00\n        /* \"#utility.yul\":43224:43230   */\n      dup3\n        /* \"#utility.yul\":43220:43234   */\n      add\n        /* \"#utility.yul\":43213:43259   */\n      mstore\n        /* \"#utility.yul\":43096:43266   */\n      pop\n      jump\t// out\n        /* \"#utility.yul\":43272:43638   */\n    tag_471:\n        /* \"#utility.yul\":43414:43417   */\n      0x00\n        /* \"#utility.yul\":43435:43502   */\n      tag_854\n        /* \"#utility.yul\":43499:43501   */\n      0x14\n        /* \"#utility.yul\":43494:43497   */\n      dup4\n        /* \"#utility.yul\":43435:43502   */\n      tag_407\n      jump\t// in\n    tag_854:\n        /* \"#utility.yul\":43428:43502   */\n      swap2\n      pop\n        /* \"#utility.yul\":43511:43604   */\n      tag_855\n        /* \"#utility.yul\":43600:43603   */\n      dup3\n        /* \"#utility.yul\":43511:43604   */\n      tag_470\n      jump\t// in\n    tag_855:\n        /* \"#utility.yul\":43629:43631   */\n      0x20\n        /* \"#utility.yul\":43624:43627   */\n      dup3\n        /* \"#utility.yul\":43620:43632   */\n      add\n        /* \"#utility.yul\":43613:43632   */\n      swap1\n      pop\n        /* \"#utility.yul\":43272:43638   */\n      swap2\n      swap1\n      pop\n      jump\t// out\n        /* \"#utility.yul\":43644:44063   */\n    tag_193:\n        /* \"#utility.yul\":43810:43814   */\n      0x00\n        /* \"#utility.yul\":43848:43850   */\n      0x20\n        /* \"#utility.yul\":43837:43846   */\n      dup3\n        /* \"#utility.yul\":43833:43851   */\n      add\n        /* \"#utility.yul\":43825:43851   */\n      swap1\n      pop\n        /* \"#utility.yul\":43897:43906   */\n      dup2\n        /* \"#utility.yul\":43891:43895   */\n      dup2\n        /* \"#utility.yul\":43887:43907   */\n      sub\n        /* \"#utility.yul\":43883:43884   */\n      0x00\n        /* \"#utility.yul\":43872:43881   */\n      dup4\n        /* \"#utility.yul\":43868:43885   */\n      add\n        /* \"#utility.yul\":43861:43908   */\n      mstore\n        /* \"#utility.yul\":43925:44056   */\n      tag_857\n        /* \"#utility.yul\":44051:44055   */\n      dup2\n        /* \"#utility.yul\":43925:44056   */\n      tag_471\n      jump\t// in\n    tag_857:\n        /* \"#utility.yul\":43917:44056   */\n      swap1\n      pop\n        /* \"#utility.yul\":43644:44063   */\n      swap2\n      swap1\n      pop\n      jump\t// out\n        /* \"#utility.yul\":44069:44224   */\n    tag_472:\n        /* \"#utility.yul\":44209:44216   */\n      0x4e75727365000000000000000000000000000000000000000000000000000000\n        /* \"#utility.yul\":44205:44206   */\n      0x00\n        /* \"#utility.yul\":44197:44203   */\n      dup3\n        /* \"#utility.yul\":44193:44207   */\n      add\n        /* \"#utility.yul\":44186:44217   */\n      mstore\n        /* \"#utility.yul\":44069:44224   */\n      pop\n      jump\t// out\n        /* \"#utility.yul\":44230:44630   */\n    tag_473:\n        /* \"#utility.yul\":44390:44393   */\n      0x00\n        /* \"#utility.yul\":44411:44495   */\n      tag_860\n        /* \"#utility.yul\":44493:44494   */\n      0x05\n        /* \"#utility.yul\":44488:44491   */\n      dup4\n        /* \"#utility.yul\":44411:44495   */\n      tag_429\n      jump\t// in\n    tag_860:\n        /* \"#utility.yul\":44404:44495   */\n      swap2\n      pop\n        /* \"#utility.yul\":44504:44597   */\n      tag_861\n        /* \"#utility.yul\":44593:44596   */\n      dup3\n        /* \"#utility.yul\":44504:44597   */\n      tag_472\n      jump\t// in\n    tag_861:\n        /* \"#utility.yul\":44622:44623   */\n      0x05\n        /* \"#utility.yul\":44617:44620   */\n      dup3\n        /* \"#utility.yul\":44613:44624   */\n      add\n        /* \"#utility.yul\":44606:44624   */\n      swap1\n      pop\n        /* \"#utility.yul\":44230:44630   */\n      swap2\n      swap1\n      pop\n      jump\t// out\n        /* \"#utility.yul\":44636:45017   */\n    tag_198:\n        /* \"#utility.yul\":44821:44824   */\n      0x00\n        /* \"#utility.yul\":44843:44991   */\n      tag_863\n        /* \"#utility.yul\":44987:44990   */\n      dup3\n        /* \"#utility.yul\":44843:44991   */\n      tag_473\n      jump\t// in\n    tag_863:\n        /* \"#utility.yul\":44836:44991   */\n      swap2\n      pop\n        /* \"#utility.yul\":45008:45011   */\n      dup2\n        /* \"#utility.yul\":45001:45011   */\n      swap1\n      pop\n        /* \"#utility.yul\":44636:45017   */\n      swap2\n      swap1\n      pop\n      jump\t// out\n        /* \"#utility.yul\":45023:45183   */\n    tag_474:\n        /* \"#utility.yul\":45163:45175   */\n      0x506861726d616369737400000000000000000000000000000000000000000000\n        /* \"#utility.yul\":45159:45160   */\n      0x00\n        /* \"#utility.yul\":45151:45157   */\n      dup3\n        /* \"#utility.yul\":45147:45161   */\n      add\n        /* \"#utility.yul\":45140:45176   */\n      mstore\n        /* \"#utility.yul\":45023:45183   */\n      pop\n      jump\t// out\n        /* \"#utility.yul\":45189:45591   */\n    tag_475:\n        /* \"#utility.yul\":45349:45352   */\n      0x00\n        /* \"#utility.yul\":45370:45455   */\n      tag_866\n        /* \"#utility.yul\":45452:45454   */\n      0x0a\n        /* \"#utility.yul\":45447:45450   */\n      dup4\n        /* \"#utility.yul\":45370:45455   */\n      tag_429\n      jump\t// in\n    tag_866:\n        /* \"#utility.yul\":45363:45455   */\n      swap2\n      pop\n        /* \"#utility.yul\":45464:45557   */\n      tag_867\n        /* \"#utility.yul\":45553:45556   */\n      dup3\n        /* \"#utility.yul\":45464:45557   */\n      tag_474\n      jump\t// in\n    tag_867:\n        /* \"#utility.yul\":45582:45584   */\n      0x0a\n        /* \"#utility.yul\":45577:45580   */\n      dup3\n        /* \"#utility.yul\":45573:45585   */\n      add\n        /* \"#utility.yul\":45566:45585   */\n      swap1\n      pop\n        /* \"#utility.yul\":45189:45591   */\n      swap2\n      swap1\n      pop\n      jump\t// out\n        /* \"#utility.yul\":45597:45978   */\n    tag_202:\n        /* \"#utility.yul\":45782:45785   */\n      0x00\n        /* \"#utility.yul\":45804:45952   */\n      tag_869\n        /* \"#utility.yul\":45948:45951   */\n      dup3\n        /* \"#utility.yul\":45804:45952   */\n      tag_475\n      jump\t// in\n    tag_869:\n        /* \"#utility.yul\":45797:45952   */\n      swap2\n      pop\n        /* \"#utility.yul\":45969:45972   */\n      dup2\n        /* \"#utility.yul\":45962:45972   */\n      swap1\n      pop\n        /* \"#utility.yul\":45597:45978   */\n      swap2\n      swap1\n      pop\n      jump\t// out\n        /* \"#utility.yul\":45984:46212   */\n    tag_476:\n        /* \"#utility.yul\":46124:46158   */\n      0x526f6c65206d75737420626520446f63746f722c204e757273652c206f722050\n        /* \"#utility.yul\":46120:46121   */\n      0x00\n        /* \"#utility.yul\":46112:46118   */\n      dup3\n        /* \"#utility.yul\":46108:46122   */\n      add\n        /* \"#utility.yul\":46101:46159   */\n      mstore\n        /* \"#utility.yul\":46193:46204   */\n      0x6861726d61636973740000000000000000000000000000000000000000000000\n        /* \"#utility.yul\":46188:46190   */\n      0x20\n        /* \"#utility.yul\":46180:46186   */\n      dup3\n        /* \"#utility.yul\":46176:46191   */\n      add\n        /* \"#utility.yul\":46169:46205   */\n      mstore\n        /* \"#utility.yul\":45984:46212   */\n      pop\n      jump\t// out\n        /* \"#utility.yul\":46218:46584   */\n    tag_477:\n        /* \"#utility.yul\":46360:46363   */\n      0x00\n        /* \"#utility.yul\":46381:46448   */\n      tag_872\n        /* \"#utility.yul\":46445:46447   */\n      0x29\n        /* \"#utility.yul\":46440:46443   */\n      dup4\n        /* \"#utility.yul\":46381:46448   */\n      tag_407\n      jump\t// in\n    tag_872:\n        /* \"#utility.yul\":46374:46448   */\n      swap2\n      pop\n        /* \"#utility.yul\":46457:46550   */\n      tag_873\n        /* \"#utility.yul\":46546:46549   */\n      dup3\n        /* \"#utility.yul\":46457:46550   */\n      tag_476\n      jump\t// in\n    tag_873:\n        /* \"#utility.yul\":46575:46577   */\n      0x40\n        /* \"#utility.yul\":46570:46573   */\n      dup3\n        /* \"#utility.yul\":46566:46578   */\n      add\n        /* \"#utility.yul\":46559:46578   */\n      swap1\n      pop\n        /* \"#utility.yul\":46218:46584   */\n      swap2\n      swap1\n      pop\n      jump\t// out\n        /* \"#utility.yul\":46590:47009   */\n    tag_206:\n        /* \"#utility.yul\":46756:46760   */\n      0x00\n        /* \"#utility.yul\":46794:46796   */\n      0x20\n        /* \"#utility.yul\":46783:46792   */\n      dup3\n        /* \"#utility.yul\":46779:46797   */\n      add\n        /* \"#utility.yul\":46771:46797   */\n      swap1\n      pop\n        /* \"#utility.yul\":46843:46852   */\n      dup2\n        /* \"#utility.yul\":46837:46841   */\n      dup2\n        /* \"#utility.yul\":46833:46853   */\n      sub\n        /* \"#utility.yul\":46829:46830   */\n      0x00\n        /* \"#utility.yul\":46818:46827   */\n      dup4\n        /* \"#utility.yul\":46814:46831   */\n      add\n        /* \"#utility.yul\":46807:46854   */\n      mstore\n        /* \"#utility.yul\":46871:47002   */\n      tag_875\n        /* \"#utility.yul\":46997:47001   */\n      dup2\n        /* \"#utility.yul\":46871:47002   */\n      tag_477\n      jump\t// in\n    tag_875:\n        /* \"#utility.yul\":46863:47002   */\n      swap1\n      pop\n        /* \"#utility.yul\":46590:47009   */\n      swap2\n      swap1\n      pop\n      jump\t// out\n        /* \"#utility.yul\":47015:47209   */\n    tag_211:\n        /* \"#utility.yul\":47055:47059   */\n      0x00\n        /* \"#utility.yul\":47075:47095   */\n      tag_877\n        /* \"#utility.yul\":47093:47094   */\n      dup3\n        /* \"#utility.yul\":47075:47095   */\n      tag_390\n      jump\t// in\n    tag_877:\n        /* \"#utility.yul\":47070:47095   */\n      swap2\n      pop\n        /* \"#utility.yul\":47109:47129   */\n      tag_878\n        /* \"#utility.yul\":47127:47128   */\n      dup4\n        /* \"#utility.yul\":47109:47129   */\n      tag_390\n      jump\t// in\n    tag_878:\n        /* \"#utility.yul\":47104:47129   */\n      swap3\n      pop\n        /* \"#utility.yul\":47153:47154   */\n      dup3\n        /* \"#utility.yul\":47150:47151   */\n      dup3\n        /* \"#utility.yul\":47146:47155   */\n      sub\n        /* \"#utility.yul\":47138:47155   */\n      swap1\n      pop\n        /* \"#utility.yul\":47177:47178   */\n      dup2\n        /* \"#utility.yul\":47171:47175   */\n      dup2\n        /* \"#utility.yul\":47168:47179   */\n      gt\n        /* \"#utility.yul\":47165:47202   */\n      iszero\n      tag_879\n      jumpi\n        /* \"#utility.yul\":47182:47200   */\n      tag_880\n      tag_440\n      jump\t// in\n    tag_880:\n        /* \"#utility.yul\":47165:47202   */\n    tag_879:\n        /* \"#utility.yul\":47015:47209   */\n      swap3\n      swap2\n      pop\n      pop\n      jump\t// out\n        /* \"#utility.yul\":47215:47391   */\n    tag_478:\n        /* \"#utility.yul\":47355:47383   */\n      0x53747564656e7420616c72656164792072656769737465726564000000000000\n        /* \"#utility.yul\":47351:47352   */\n      0x00\n        /* \"#utility.yul\":47343:47349   */\n      dup3\n        /* \"#utility.yul\":47339:47353   */\n      add\n        /* \"#utility.yul\":47332:47384   */\n      mstore\n        /* \"#utility.yul\":47215:47391   */\n      pop\n      jump\t// out\n        /* \"#utility.yul\":47397:47763   */\n    tag_479:\n        /* \"#utility.yul\":47539:47542   */\n      0x00\n        /* \"#utility.yul\":47560:47627   */\n      tag_883\n        /* \"#utility.yul\":47624:47626   */\n      0x1a\n        /* \"#utility.yul\":47619:47622   */\n      dup4\n        /* \"#utility.yul\":47560:47627   */\n      tag_407\n      jump\t// in\n    tag_883:\n        /* \"#utility.yul\":47553:47627   */\n      swap2\n      pop\n        /* \"#utility.yul\":47636:47729   */\n      tag_884\n        /* \"#utility.yul\":47725:47728   */\n      dup3\n        /* \"#utility.yul\":47636:47729   */\n      tag_478\n      jump\t// in\n    tag_884:\n        /* \"#utility.yul\":47754:47756   */\n      0x20\n        /* \"#utility.yul\":47749:47752   */\n      dup3\n        /* \"#utility.yul\":47745:47757   */\n      add\n        /* \"#utility.yul\":47738:47757   */\n      swap1\n      pop\n        /* \"#utility.yul\":47397:47763   */\n      swap2\n      swap1\n      pop\n      jump\t// out\n        /* \"#utility.yul\":47769:48188   */\n    tag_226:\n        /* \"#utility.yul\":47935:47939   */\n      0x00\n        /* \"#utility.yul\":47973:47975   */\n      0x20\n        /* \"#utility.yul\":47962:47971   */\n      dup3\n        /* \"#utility.yul\":47958:47976   */\n      add\n        /* \"#utility.yul\":47950:47976   */\n      swap1\n      pop\n        /* \"#utility.yul\":48022:48031   */\n      dup2\n        /* \"#utility.yul\":48016:48020   */\n      dup2\n        /* \"#utility.yul\":48012:48032   */\n      sub\n        /* \"#utility.yul\":48008:48009   */\n      0x00\n        /* \"#utility.yul\":47997:48006   */\n      dup4\n        /* \"#utility.yul\":47993:48010   */\n      add\n        /* \"#utility.yul\":47986:48033   */\n      mstore\n        /* \"#utility.yul\":48050:48181   */\n      tag_886\n        /* \"#utility.yul\":48176:48180   */\n      dup2\n        /* \"#utility.yul\":48050:48181   */\n      tag_479\n      jump\t// in\n    tag_886:\n        /* \"#utility.yul\":48042:48181   */\n      swap1\n      pop\n        /* \"#utility.yul\":47769:48188   */\n      swap2\n      swap1\n      pop\n      jump\t// out\n        /* \"#utility.yul\":48194:48374   */\n    tag_480:\n        /* \"#utility.yul\":48334:48366   */\n      0x4d6174726963206e756d626572206d7573742062652036206469676974730000\n        /* \"#utility.yul\":48330:48331   */\n      0x00\n        /* \"#utility.yul\":48322:48328   */\n      dup3\n        /* \"#utility.yul\":48318:48332   */\n      add\n        /* \"#utility.yul\":48311:48367   */\n      mstore\n        /* \"#utility.yul\":48194:48374   */\n      pop\n      jump\t// out\n        /* \"#utility.yul\":48380:48746   */\n    tag_481:\n        /* \"#utility.yul\":48522:48525   */\n      0x00\n        /* \"#utility.yul\":48543:48610   */\n      tag_889\n        /* \"#utility.yul\":48607:48609   */\n      0x1e\n        /* \"#utility.yul\":48602:48605   */\n      dup4\n        /* \"#utility.yul\":48543:48610   */\n      tag_407\n      jump\t// in\n    tag_889:\n        /* \"#utility.yul\":48536:48610   */\n      swap2\n      pop\n        /* \"#utility.yul\":48619:48712   */\n      tag_890\n        /* \"#utility.yul\":48708:48711   */\n      dup3\n        /* \"#utility.yul\":48619:48712   */\n      tag_480\n      jump\t// in\n    tag_890:\n        /* \"#utility.yul\":48737:48739   */\n      0x20\n        /* \"#utility.yul\":48732:48735   */\n      dup3\n        /* \"#utility.yul\":48728:48740   */\n      add\n        /* \"#utility.yul\":48721:48740   */\n      swap1\n      pop\n        /* \"#utility.yul\":48380:48746   */\n      swap2\n      swap1\n      pop\n      jump\t// out\n        /* \"#utility.yul\":48752:49171   */\n    tag_232:\n        /* \"#utility.yul\":48918:48922   */\n      0x00\n        /* \"#utility.yul\":48956:48958   */\n      0x20\n        /* \"#utility.yul\":48945:48954   */\n      dup3\n        /* \"#utility.yul\":48941:48959   */\n      add\n        /* \"#utility.yul\":48933:48959   */\n      swap1\n      pop\n        /* \"#utility.yul\":49005:49014   */\n      dup2\n        /* \"#utility.yul\":48999:49003   */\n      dup2\n        /* \"#utility.yul\":48995:49015   */\n      sub\n        /* \"#utility.yul\":48991:48992   */\n      0x00\n        /* \"#utility.yul\":48980:48989   */\n      dup4\n        /* \"#utility.yul\":48976:48993   */\n      add\n        /* \"#utility.yul\":48969:49016   */\n      mstore\n        /* \"#utility.yul\":49033:49164   */\n      tag_892\n        /* \"#utility.yul\":49159:49163   */\n      dup2\n        /* \"#utility.yul\":49033:49164   */\n      tag_481\n      jump\t// in\n    tag_892:\n        /* \"#utility.yul\":49025:49164   */\n      swap1\n      pop\n        /* \"#utility.yul\":48752:49171   */\n      swap2\n      swap1\n      pop\n      jump\t// out\n        /* \"#utility.yul\":49177:49352   */\n    tag_482:\n        /* \"#utility.yul\":49317:49344   */\n      0x496e76616c696420726567697374726174696f6e206461746500000000000000\n        /* \"#utility.yul\":49313:49314   */\n      0x00\n        /* \"#utility.yul\":49305:49311   */\n      dup3\n        /* \"#utility.yul\":49301:49315   */\n      add\n        /* \"#utility.yul\":49294:49345   */\n      mstore\n        /* \"#utility.yul\":49177:49352   */\n      pop\n      jump\t// out\n        /* \"#utility.yul\":49358:49724   */\n    tag_483:\n        /* \"#utility.yul\":49500:49503   */\n      0x00\n        /* \"#utility.yul\":49521:49588   */\n      tag_895\n        /* \"#utility.yul\":49585:49587   */\n      0x19\n        /* \"#utility.yul\":49580:49583   */\n      dup4\n        /* \"#utility.yul\":49521:49588   */\n      tag_407\n      jump\t// in\n    tag_895:\n        /* \"#utility.yul\":49514:49588   */\n      swap2\n      pop\n        /* \"#utility.yul\":49597:49690   */\n      tag_896\n        /* \"#utility.yul\":49686:49689   */\n      dup3\n        /* \"#utility.yul\":49597:49690   */\n      tag_482\n      jump\t// in\n    tag_896:\n        /* \"#utility.yul\":49715:49717   */\n      0x20\n        /* \"#utility.yul\":49710:49713   */\n      dup3\n        /* \"#utility.yul\":49706:49718   */\n      add\n        /* \"#utility.yul\":49699:49718   */\n      swap1\n      pop\n        /* \"#utility.yul\":49358:49724   */\n      swap2\n      swap1\n      pop\n      jump\t// out\n        /* \"#utility.yul\":49730:50149   */\n    tag_235:\n        /* \"#utility.yul\":49896:49900   */\n      0x00\n        /* \"#utility.yul\":49934:49936   */\n      0x20\n        /* \"#utility.yul\":49923:49932   */\n      dup3\n        /* \"#utility.yul\":49919:49937   */\n      add\n        /* \"#utility.yul\":49911:49937   */\n      swap1\n      pop\n        /* \"#utility.yul\":49983:49992   */\n      dup2\n        /* \"#utility.yul\":49977:49981   */\n      dup2\n        /* \"#utility.yul\":49973:49993   */\n      sub\n        /* \"#utility.yul\":49969:49970   */\n      0x00\n        /* \"#utility.yul\":49958:49967   */\n      dup4\n        /* \"#utility.yul\":49954:49971   */\n      add\n        /* \"#utility.yul\":49947:49994   */\n      mstore\n        /* \"#utility.yul\":50011:50142   */\n      tag_898\n        /* \"#utility.yul\":50137:50141   */\n      dup2\n        /* \"#utility.yul\":50011:50142   */\n      tag_483\n      jump\t// in\n    tag_898:\n        /* \"#utility.yul\":50003:50142   */\n      swap1\n      pop\n        /* \"#utility.yul\":49730:50149   */\n      swap2\n      swap1\n      pop\n      jump\t// out\n        /* \"#utility.yul\":50155:50333   */\n    tag_484:\n        /* \"#utility.yul\":50295:50325   */\n      0x4d6174726963206e756d62657220616c72656164792065786973747300000000\n        /* \"#utility.yul\":50291:50292   */\n      0x00\n        /* \"#utility.yul\":50283:50289   */\n      dup3\n        /* \"#utility.yul\":50279:50293   */\n      add\n        /* \"#utility.yul\":50272:50326   */\n      mstore\n        /* \"#utility.yul\":50155:50333   */\n      pop\n      jump\t// out\n        /* \"#utility.yul\":50339:50705   */\n    tag_485:\n        /* \"#utility.yul\":50481:50484   */\n      0x00\n        /* \"#utility.yul\":50502:50569   */\n      tag_901\n        /* \"#utility.yul\":50566:50568   */\n      0x1c\n        /* \"#utility.yul\":50561:50564   */\n      dup4\n        /* \"#utility.yul\":50502:50569   */\n      tag_407\n      jump\t// in\n    tag_901:\n        /* \"#utility.yul\":50495:50569   */\n      swap2\n      pop\n        /* \"#utility.yul\":50578:50671   */\n      tag_902\n        /* \"#utility.yul\":50667:50670   */\n      dup3\n        /* \"#utility.yul\":50578:50671   */\n      tag_484\n      jump\t// in\n    tag_902:\n        /* \"#utility.yul\":50696:50698   */\n      0x20\n        /* \"#utility.yul\":50691:50694   */\n      dup3\n        /* \"#utility.yul\":50687:50699   */\n      add\n        /* \"#utility.yul\":50680:50699   */\n      swap1\n      pop\n        /* \"#utility.yul\":50339:50705   */\n      swap2\n      swap1\n      pop\n      jump\t// out\n        /* \"#utility.yul\":50711:51130   */\n    tag_240:\n        /* \"#utility.yul\":50877:50881   */\n      0x00\n        /* \"#utility.yul\":50915:50917   */\n      0x20\n        /* \"#utility.yul\":50904:50913   */\n      dup3\n        /* \"#utility.yul\":50900:50918   */\n      add\n        /* \"#utility.yul\":50892:50918   */\n      swap1\n      pop\n        /* \"#utility.yul\":50964:50973   */\n      dup2\n        /* \"#utility.yul\":50958:50962   */\n      dup2\n        /* \"#utility.yul\":50954:50974   */\n      sub\n        /* \"#utility.yul\":50950:50951   */\n      0x00\n        /* \"#utility.yul\":50939:50948   */\n      dup4\n        /* \"#utility.yul\":50935:50952   */\n      add\n        /* \"#utility.yul\":50928:50975   */\n      mstore\n        /* \"#utility.yul\":50992:51123   */\n      tag_904\n        /* \"#utility.yul\":51118:51122   */\n      dup2\n        /* \"#utility.yul\":50992:51123   */\n      tag_485\n      jump\t// in\n    tag_904:\n        /* \"#utility.yul\":50984:51123   */\n      swap1\n      pop\n        /* \"#utility.yul\":50711:51130   */\n      swap2\n      swap1\n      pop\n      jump\t// out\n        /* \"#utility.yul\":51136:51308   */\n    tag_486:\n        /* \"#utility.yul\":51276:51300   */\n      0x53747564656e74206e6f74207265676973746572656400000000000000000000\n        /* \"#utility.yul\":51272:51273   */\n      0x00\n        /* \"#utility.yul\":51264:51270   */\n      dup3\n        /* \"#utility.yul\":51260:51274   */\n      add\n        /* \"#utility.yul\":51253:51301   */\n      mstore\n        /* \"#utility.yul\":51136:51308   */\n      pop\n      jump\t// out\n        /* \"#utility.yul\":51314:51680   */\n    tag_487:\n        /* \"#utility.yul\":51456:51459   */\n      0x00\n        /* \"#utility.yul\":51477:51544   */\n      tag_907\n        /* \"#utility.yul\":51541:51543   */\n      0x16\n        /* \"#utility.yul\":51536:51539   */\n      dup4\n        /* \"#utility.yul\":51477:51544   */\n      tag_407\n      jump\t// in\n    tag_907:\n        /* \"#utility.yul\":51470:51544   */\n      swap2\n      pop\n        /* \"#utility.yul\":51553:51646   */\n      tag_908\n        /* \"#utility.yul\":51642:51645   */\n      dup3\n        /* \"#utility.yul\":51553:51646   */\n      tag_486\n      jump\t// in\n    tag_908:\n        /* \"#utility.yul\":51671:51673   */\n      0x20\n        /* \"#utility.yul\":51666:51669   */\n      dup3\n        /* \"#utility.yul\":51662:51674   */\n      add\n        /* \"#utility.yul\":51655:51674   */\n      swap1\n      pop\n        /* \"#utility.yul\":51314:51680   */\n      swap2\n      swap1\n      pop\n      jump\t// out\n        /* \"#utility.yul\":51686:52105   */\n    tag_253:\n        /* \"#utility.yul\":51852:51856   */\n      0x00\n        /* \"#utility.yul\":51890:51892   */\n      0x20\n        /* \"#utility.yul\":51879:51888   */\n      dup3\n        /* \"#utility.yul\":51875:51893   */\n      add\n        /* \"#utility.yul\":51867:51893   */\n      swap1\n      pop\n        /* \"#utility.yul\":51939:51948   */\n      dup2\n        /* \"#utility.yul\":51933:51937   */\n      dup2\n        /* \"#utility.yul\":51929:51949   */\n      sub\n        /* \"#utility.yul\":51925:51926   */\n      0x00\n        /* \"#utility.yul\":51914:51923   */\n      dup4\n        /* \"#utility.yul\":51910:51927   */\n      add\n        /* \"#utility.yul\":51903:51950   */\n      mstore\n        /* \"#utility.yul\":51967:52098   */\n      tag_910\n        /* \"#utility.yul\":52093:52097   */\n      dup2\n        /* \"#utility.yul\":51967:52098   */\n      tag_487\n      jump\t// in\n    tag_910:\n        /* \"#utility.yul\":51959:52098   */\n      swap1\n      pop\n        /* \"#utility.yul\":51686:52105   */\n      swap2\n      swap1\n      pop\n      jump\t// out\n        /* \"#utility.yul\":52111:52283   */\n    tag_488:\n        /* \"#utility.yul\":52251:52275   */\n      0x4e6f742061207265676973746572656420737461666600000000000000000000\n        /* \"#utility.yul\":52247:52248   */\n      0x00\n        /* \"#utility.yul\":52239:52245   */\n      dup3\n        /* \"#utility.yul\":52235:52249   */\n      add\n        /* \"#utility.yul\":52228:52276   */\n      mstore\n        /* \"#utility.yul\":52111:52283   */\n      pop\n      jump\t// out\n        /* \"#utility.yul\":52289:52655   */\n    tag_489:\n        /* \"#utility.yul\":52431:52434   */\n      0x00\n        /* \"#utility.yul\":52452:52519   */\n      tag_913\n        /* \"#utility.yul\":52516:52518   */\n      0x16\n        /* \"#utility.yul\":52511:52514   */\n      dup4\n        /* \"#utility.yul\":52452:52519   */\n      tag_407\n      jump\t// in\n    tag_913:\n        /* \"#utility.yul\":52445:52519   */\n      swap2\n      pop\n        /* \"#utility.yul\":52528:52621   */\n      tag_914\n        /* \"#utility.yul\":52617:52620   */\n      dup3\n        /* \"#utility.yul\":52528:52621   */\n      tag_488\n      jump\t// in\n    tag_914:\n        /* \"#utility.yul\":52646:52648   */\n      0x20\n        /* \"#utility.yul\":52641:52644   */\n      dup3\n        /* \"#utility.yul\":52637:52649   */\n      add\n        /* \"#utility.yul\":52630:52649   */\n      swap1\n      pop\n        /* \"#utility.yul\":52289:52655   */\n      swap2\n      swap1\n      pop\n      jump\t// out\n        /* \"#utility.yul\":52661:53080   */\n    tag_280:\n        /* \"#utility.yul\":52827:52831   */\n      0x00\n        /* \"#utility.yul\":52865:52867   */\n      0x20\n        /* \"#utility.yul\":52854:52863   */\n      dup3\n        /* \"#utility.yul\":52850:52868   */\n      add\n        /* \"#utility.yul\":52842:52868   */\n      swap1\n      pop\n        /* \"#utility.yul\":52914:52923   */\n      dup2\n        /* \"#utility.yul\":52908:52912   */\n      dup2\n        /* \"#utility.yul\":52904:52924   */\n      sub\n        /* \"#utility.yul\":52900:52901   */\n      0x00\n        /* \"#utility.yul\":52889:52898   */\n      dup4\n        /* \"#utility.yul\":52885:52902   */\n      add\n        /* \"#utility.yul\":52878:52925   */\n      mstore\n        /* \"#utility.yul\":52942:53073   */\n      tag_916\n        /* \"#utility.yul\":53068:53072   */\n      dup2\n        /* \"#utility.yul\":52942:53073   */\n      tag_489\n      jump\t// in\n    tag_916:\n        /* \"#utility.yul\":52934:53073   */\n      swap1\n      pop\n        /* \"#utility.yul\":52661:53080   */\n      swap2\n      swap1\n      pop\n      jump\t// out\n        /* \"#utility.yul\":53086:53319   */\n    tag_289:\n        /* \"#utility.yul\":53125:53128   */\n      0x00\n        /* \"#utility.yul\":53148:53172   */\n      tag_918\n        /* \"#utility.yul\":53166:53171   */\n      dup3\n        /* \"#utility.yul\":53148:53172   */\n      tag_390\n      jump\t// in\n    tag_918:\n        /* \"#utility.yul\":53139:53172   */\n      swap2\n      pop\n        /* \"#utility.yul\":53194:53260   */\n      0xffffffffffffffffffffffffffffffffffffffffffffffffffffffffffffffff\n        /* \"#utility.yul\":53187:53192   */\n      dup3\n        /* \"#utility.yul\":53184:53261   */\n      sub\n        /* \"#utility.yul\":53181:53284   */\n      tag_919\n      jumpi\n        /* \"#utility.yul\":53264:53282   */\n      tag_920\n      tag_440\n      jump\t// in\n    tag_920:\n        /* \"#utility.yul\":53181:53284   */\n    tag_919:\n        /* \"#utility.yul\":53311:53312   */\n      0x01\n        /* \"#utility.yul\":53304:53309   */\n      dup3\n        /* \"#utility.yul\":53300:53313   */\n      add\n        /* \"#utility.yul\":53293:53313   */\n      swap1\n      pop\n        /* \"#utility.yul\":53086:53319   */\n      swap2\n      swap1\n      pop\n      jump\t// out\n        /* \"#utility.yul\":53325:53495   */\n    tag_490:\n        /* \"#utility.yul\":53465:53487   */\n      0x5374616666206e6f742072656769737465726564000000000000000000000000\n        /* \"#utility.yul\":53461:53462   */\n      0x00\n        /* \"#utility.yul\":53453:53459   */\n      dup3\n        /* \"#utility.yul\":53449:53463   */\n      add\n        /* \"#utility.yul\":53442:53488   */\n      mstore\n        /* \"#utility.yul\":53325:53495   */\n      pop\n      jump\t// out\n        /* \"#utility.yul\":53501:53867   */\n    tag_491:\n        /* \"#utility.yul\":53643:53646   */\n      0x00\n        /* \"#utility.yul\":53664:53731   */\n      tag_923\n        /* \"#utility.yul\":53728:53730   */\n      0x14\n        /* \"#utility.yul\":53723:53726   */\n      dup4\n        /* \"#utility.yul\":53664:53731   */\n      tag_407\n      jump\t// in\n    tag_923:\n        /* \"#utility.yul\":53657:53731   */\n      swap2\n      pop\n        /* \"#utility.yul\":53740:53833   */\n      tag_924\n        /* \"#utility.yul\":53829:53832   */\n      dup3\n        /* \"#utility.yul\":53740:53833   */\n      tag_490\n      jump\t// in\n    tag_924:\n        /* \"#utility.yul\":53858:53860   */\n      0x20\n        /* \"#utility.yul\":53853:53856   */\n      dup3\n        /* \"#utility.yul\":53849:53861   */\n      add\n        /* \"#utility.yul\":53842:53861   */\n      swap1\n      pop\n        /* \"#utility.yul\":53501:53867   */\n      swap2\n      swap1\n      pop\n      jump\t// out\n        /* \"#utility.yul\":53873:54292   */\n    tag_293:\n        /* \"#utility.yul\":54039:54043   */\n      0x00\n        /* \"#utility.yul\":54077:54079   */\n      0x20\n        /* \"#utility.yul\":54066:54075   */\n      dup3\n        /* \"#utility.yul\":54062:54080   */\n      add\n        /* \"#utility.yul\":54054:54080   */\n      swap1\n      pop\n        /* \"#utility.yul\":54126:54135   */\n      dup2\n        /* \"#utility.yul\":54120:54124   */\n      dup2\n        /* \"#utility.yul\":54116:54136   */\n      sub\n        /* \"#utility.yul\":54112:54113   */\n      0x00\n        /* \"#utility.yul\":54101:54110   */\n      dup4\n        /* \"#utility.yul\":54097:54114   */\n      add\n        /* \"#utility.yul\":54090:54137   */\n      mstore\n        /* \"#utility.yul\":54154:54285   */\n      tag_926\n        /* \"#utility.yul\":54280:54284   */\n      dup2\n        /* \"#utility.yul\":54154:54285   */\n      tag_491\n      jump\t// in\n    tag_926:\n        /* \"#utility.yul\":54146:54285   */\n      swap1\n      pop\n        /* \"#utility.yul\":53873:54292   */\n      swap2\n      swap1\n      pop\n      jump\t// out\n        /* \"#utility.yul\":54298:54377   */\n    tag_492:\n        /* \"#utility.yul\":54337:54344   */\n      0x00\n        /* \"#utility.yul\":54366:54371   */\n      dup2\n        /* \"#utility.yul\":54355:54371   */\n      swap1\n      pop\n        /* \"#utility.yul\":54298:54377   */\n      swap2\n      swap1\n      pop\n      jump\t// out\n        /* \"#utility.yul\":54383:54540   */\n    tag_493:\n        /* \"#utility.yul\":54488:54533   */\n      tag_929\n        /* \"#utility.yul\":54508:54532   */\n      tag_930\n        /* \"#utility.yul\":54526:54531   */\n      dup3\n        /* \"#utility.yul\":54508:54532   */\n      tag_390\n      jump\t// in\n    tag_930:\n        /* \"#utility.yul\":54488:54533   */\n      tag_492\n      jump\t// in\n    tag_929:\n        /* \"#utility.yul\":54483:54486   */\n      dup3\n        /* \"#utility.yul\":54476:54534   */\n      mstore\n        /* \"#utility.yul\":54383:54540   */\n      pop\n      pop\n      jump\t// out\n        /* \"#utility.yul\":54546:54640   */\n    tag_494:\n        /* \"#utility.yul\":54579:54587   */\n      0x00\n        /* \"#utility.yul\":54627:54632   */\n      dup2\n        /* \"#utility.yul\":54623:54625   */\n      0x60\n        /* \"#utility.yul\":54619:54633   */\n      shl\n        /* \"#utility.yul\":54598:54633   */\n      swap1\n      pop\n        /* \"#utility.yul\":54546:54640   */\n      swap2\n      swap1\n      pop\n      jump\t// out\n        /* \"#utility.yul\":54646:54740   */\n    tag_495:\n        /* \"#utility.yul\":54685:54692   */\n      0x00\n        /* \"#utility.yul\":54714:54734   */\n      tag_933\n        /* \"#utility.yul\":54728:54733   */\n      dup3\n        /* \"#utility.yul\":54714:54734   */\n      tag_494\n      jump\t// in\n    tag_933:\n        /* \"#utility.yul\":54703:54734   */\n      swap1\n      pop\n        /* \"#utility.yul\":54646:54740   */\n      swap2\n      swap1\n      pop\n      jump\t// out\n        /* \"#utility.yul\":54746:54846   */\n    tag_496:\n        /* \"#utility.yul\":54785:54792   */\n      0x00\n        /* \"#utility.yul\":54814:54840   */\n      tag_935\n        /* \"#utility.yul\":54834:54839   */\n      dup3\n        /* \"#utility.yul\":54814:54840   */\n      tag_495\n      jump\t// in\n    tag_935:\n        /* \"#utility.yul\":54803:54840   */\n      swap1\n      pop\n        /* \"#utility.yul\":54746:54846   */\n      swap2\n      swap1\n      pop\n      jump\t// out\n        /* \"#utility.yul\":54852:55009   */\n    tag_497:\n        /* \"#utility.yul\":54957:55002   */\n      tag_937\n        /* \"#utility.yul\":54977:55001   */\n      tag_938\n        /* \"#utility.yul\":54995:55000   */\n      dup3\n        /* \"#utility.yul\":54977:55001   */\n      tag_376\n      jump\t// in\n    tag_938:\n        /* \"#utility.yul\":54957:55002   */\n      tag_496\n      jump\t// in\n    tag_937:\n        /* \"#utility.yul\":54952:54955   */\n      dup3\n        /* \"#utility.yul\":54945:55003   */\n      mstore\n        /* \"#utility.yul\":54852:55009   */\n      pop\n      pop\n      jump\t// out\n        /* \"#utility.yul\":55015:55553   */\n    tag_369:\n        /* \"#utility.yul\":55183:55186   */\n      0x00\n        /* \"#utility.yul\":55198:55273   */\n      tag_940\n        /* \"#utility.yul\":55269:55272   */\n      dup3\n        /* \"#utility.yul\":55260:55266   */\n      dup7\n        /* \"#utility.yul\":55198:55273   */\n      tag_493\n      jump\t// in\n    tag_940:\n        /* \"#utility.yul\":55298:55300   */\n      0x20\n        /* \"#utility.yul\":55293:55296   */\n      dup3\n        /* \"#utility.yul\":55289:55301   */\n      add\n        /* \"#utility.yul\":55282:55301   */\n      swap2\n      pop\n        /* \"#utility.yul\":55311:55386   */\n      tag_941\n        /* \"#utility.yul\":55382:55385   */\n      dup3\n        /* \"#utility.yul\":55373:55379   */\n      dup6\n        /* \"#utility.yul\":55311:55386   */\n      tag_497\n      jump\t// in\n    tag_941:\n        /* \"#utility.yul\":55411:55413   */\n      0x14\n        /* \"#utility.yul\":55406:55409   */\n      dup3\n        /* \"#utility.yul\":55402:55414   */\n      add\n        /* \"#utility.yul\":55395:55414   */\n      swap2\n      pop\n        /* \"#utility.yul\":55424:55499   */\n      tag_942\n        /* \"#utility.yul\":55495:55498   */\n      dup3\n        /* \"#utility.yul\":55486:55492   */\n      dup5\n        /* \"#utility.yul\":55424:55499   */\n      tag_493\n      jump\t// in\n    tag_942:\n        /* \"#utility.yul\":55524:55526   */\n      0x20\n        /* \"#utility.yul\":55519:55522   */\n      dup3\n        /* \"#utility.yul\":55515:55527   */\n      add\n        /* \"#utility.yul\":55508:55527   */\n      swap2\n      pop\n        /* \"#utility.yul\":55544:55547   */\n      dup2\n        /* \"#utility.yul\":55537:55547   */\n      swap1\n      pop\n        /* \"#utility.yul\":55015:55553   */\n      swap5\n      swap4\n      pop\n      pop\n      pop\n      pop\n      jump\t// out\n        /* \"#utility.yul\":55559:55739   */\n    tag_498:\n        /* \"#utility.yul\":55607:55684   */\n      0x4e487b7100000000000000000000000000000000000000000000000000000000\n        /* \"#utility.yul\":55604:55605   */\n      0x00\n        /* \"#utility.yul\":55597:55685   */\n      mstore\n        /* \"#utility.yul\":55704:55708   */\n      0x12\n        /* \"#utility.yul\":55701:55702   */\n      0x04\n        /* \"#utility.yul\":55694:55709   */\n      mstore\n        /* \"#utility.yul\":55728:55732   */\n      0x24\n        /* \"#utility.yul\":55725:55726   */\n      0x00\n        /* \"#utility.yul\":55718:55733   */\n      revert\n        /* \"#utility.yul\":55745:55921   */\n    tag_371:\n        /* \"#utility.yul\":55777:55778   */\n      0x00\n        /* \"#utility.yul\":55794:55814   */\n      tag_945\n        /* \"#utility.yul\":55812:55813   */\n      dup3\n        /* \"#utility.yul\":55794:55814   */\n      tag_390\n      jump\t// in\n    tag_945:\n        /* \"#utility.yul\":55789:55814   */\n      swap2\n      pop\n        /* \"#utility.yul\":55828:55848   */\n      tag_946\n        /* \"#utility.yul\":55846:55847   */\n      dup4\n        /* \"#utility.yul\":55828:55848   */\n      tag_390\n      jump\t// in\n    tag_946:\n        /* \"#utility.yul\":55823:55848   */\n      swap3\n      pop\n        /* \"#utility.yul\":55867:55868   */\n      dup3\n        /* \"#utility.yul\":55857:55892   */\n      tag_947\n      jumpi\n        /* \"#utility.yul\":55872:55890   */\n      tag_948\n      tag_498\n      jump\t// in\n    tag_948:\n        /* \"#utility.yul\":55857:55892   */\n    tag_947:\n        /* \"#utility.yul\":55913:55914   */\n      dup3\n        /* \"#utility.yul\":55910:55911   */\n      dup3\n        /* \"#utility.yul\":55906:55915   */\n      mod\n        /* \"#utility.yul\":55901:55915   */\n      swap1\n      pop\n        /* \"#utility.yul\":55745:55921   */\n      swap3\n      swap2\n      pop\n      pop\n      jump\t// out\n\n    auxdata: 0xa26469706673582212204e53571c8a074de29a48bbe1e52f6d64e5f912872b03a54bff5bb1ed876dc91664736f6c634300081a0033\n}\n",
				"bytecode": {
					"linkReferences": {},
					"object": "6080604052348015600e575f80fd5b5061414f8061001c5f395ff3fe608060405234801561000f575f80fd5b50600436106100cd575f3560e01c80636148c54c1161008a578063d3c9acc111610064578063d3c9acc1146101c9578063ddd79504146101f9578063e9e309271461022a578063f8f3f38214610248576100cd565b80636148c54c146101595780636b7b44d714610175578063b99b0703146101ab576100cd565b8063032e0868146100d1578063141254cb146100ef57806341e0c4071461010b5780634f60d01814610129578063572344f11461013357806358d7430e1461014f575b5f80fd5b6100d9610278565b6040516100e6919061290c565b60405180910390f35b61010960048036038101906101049190612afb565b610448565b005b610113610d15565b6040516101209190612bcb565b60405180910390f35b610131610d20565b005b61014d60048036038101906101489190612be4565b610e96565b005b610157611260565b005b610173600480360381019061016e9190612c5a565b6113be565b005b61018f600480360381019061018a9190612cf6565b61187e565b6040516101a29796959493929190612d78565b60405180910390f35b6101b3611c60565b6040516101c09190612bcb565b60405180910390f35b6101e360048036038101906101de9190612cf6565b611c6c565b6040516101f09190612bcb565b60405180910390f35b610213600480360381019061020e9190612cf6565b611da1565b604051610221929190612dfa565b60405180910390f35b610232612025565b60405161023f9190612fd8565b60405180910390f35b610262600480360381019061025d9190612cf6565b6122c7565b60405161026f919061312d565b60405180910390f35b60606001805480602002602001604051908101604052809291908181526020015f905b8282101561043f578382905f5260205f2090600302016040518060600160405290815f82015f9054906101000a900473ffffffffffffffffffffffffffffffffffffffff1673ffffffffffffffffffffffffffffffffffffffff1673ffffffffffffffffffffffffffffffffffffffff1681526020016001820180546103209061317a565b80601f016020809104026020016040519081016040528092919081815260200182805461034c9061317a565b80156103975780601f1061036e57610100808354040283529160200191610397565b820191905f5260205f20905b81548152906001019060200180831161037a57829003601f168201915b505050505081526020016002820180546103b09061317a565b80601f01602080910402602001604051908101604052809291908181526020018280546103dc9061317a565b80156104275780601f106103fe57610100808354040283529160200191610427565b820191905f5260205f20905b81548152906001019060200180831161040a57829003601f168201915b5050505050815250508152602001906001019061029b565b50505050905090565b60075f3373ffffffffffffffffffffffffffffffffffffffff1673ffffffffffffffffffffffffffffffffffffffff1681526020019081526020015f205f9054906101000a900460ff166104d1576040517f08c379a00000000000000000000000000000000000000000000000000000000081526004016104c89061321a565b60405180910390fd5b5f60055f3373ffffffffffffffffffffffffffffffffffffffff1673ffffffffffffffffffffffffffffffffffffffff1681526020019081526020015f205490506040516020016105219061328c565b604051602081830303815290604052805190602001206001828154811061054b5761054a6132a0565b5b905f5260205f20906003020160020160405160200161056a919061335f565b60405160208183030381529060405280519060200120146105c0576040517f08c379a00000000000000000000000000000000000000000000000000000000081526004016105b7906133e5565b60405180910390fd5b5f60045f8981526020019081526020015f20541415806105e357505f8080549050115b610622576040517f08c379a00000000000000000000000000000000000000000000000000000000081526004016106199061344d565b60405180910390fd5b5f60045f8981526020019081526020015f20549050845f828154811061064b5761064a6132a0565b5b905f5260205f209060090201600601541461069b576040517f08c379a0000000000000000000000000000000000000000000000000000000008152600401610692906134b5565b60405180910390fd5b6107085f82815481106106b1576106b06132a0565b5b905f5260205f209060090201600701546106cb9190613500565b42111561070d576040517f08c379a00000000000000000000000000000000000000000000000000000000081526004016107049061357d565b60405180910390fd5b5f875111610750576040517f08c379a0000000000000000000000000000000000000000000000000000000008152600401610747906135e5565b60405180910390fd5b5f865111610793576040517f08c379a000000000000000000000000000000000000000000000000000000000815260040161078a9061364d565b60405180910390fd5b60075f8473ffffffffffffffffffffffffffffffffffffffff1673ffffffffffffffffffffffffffffffffffffffff1681526020019081526020015f205f9054906101000a900460ff1661081c576040517f08c379a0000000000000000000000000000000000000000000000000000000008152600401610813906136db565b60405180910390fd5b5f60055f8573ffffffffffffffffffffffffffffffffffffffff1673ffffffffffffffffffffffffffffffffffffffff1681526020019081526020015f205490505f8561089e576040518060400160405280600a81526020017f506861726d6163697374000000000000000000000000000000000000000000008152506108d5565b6040518060400160405280600581526020017f4e757273650000000000000000000000000000000000000000000000000000008152505b9050806040516020016108e89190613729565b6040516020818303038152906040528051906020012060018381548110610912576109116132a0565b5b905f5260205f209060030201600201604051602001610931919061335f565b6040516020818303038152906040528051906020012014610987576040517f08c379a000000000000000000000000000000000000000000000000000000000815260040161097e90613789565b60405180910390fd5b885f848154811061099b5761099a6132a0565b5b905f5260205f20906009020160050190816109b69190613932565b50855f84815481106109cb576109ca6132a0565b5b905f5260205f2090600902016008015f6101000a81548160ff0219169083151502179055505f808481548110610a0457610a036132a0565b5b905f5260205f209060090201600601819055505f808481548110610a2b57610a2a6132a0565b5b905f5260205f209060090201600701819055505f6040518060a001604052805f8681548110610a5d57610a5c6132a0565b5b905f5260205f2090600902016001018054610a779061317a565b80601f0160208091040260200160405190810160405280929190818152602001828054610aa39061317a565b8015610aee5780601f10610ac557610100808354040283529160200191610aee565b820191905f5260205f20905b815481529060010190602001808311610ad157829003601f168201915b505050505081526020018c81526020018a81526020018773ffffffffffffffffffffffffffffffffffffffff168152602001428152509050600281908060018154018082558091505060019003905f5260205f2090600502015f909190919091505f820151815f019081610b629190613932565b50602082015181600101556040820151816002019081610b829190613932565b506060820151816003015f6101000a81548173ffffffffffffffffffffffffffffffffffffffff021916908373ffffffffffffffffffffffffffffffffffffffff1602179055506080820151816004015550505f8481548110610be857610be76132a0565b5b905f5260205f2090600902015f015f9054906101000a900473ffffffffffffffffffffffffffffffffffffffff1673ffffffffffffffffffffffffffffffffffffffff167f496728c3966d39323f4b0f6f4a7a5e1f1cbbc87338b4a1d5942049e331ae28178b604051610c5b9190613a01565b60405180910390a28573ffffffffffffffffffffffffffffffffffffffff165f8581548110610c8d57610c8c6132a0565b5b905f5260205f2090600902015f015f9054906101000a900473ffffffffffffffffffffffffffffffffffffffff1673ffffffffffffffffffffffffffffffffffffffff167f4f3e584412b404b8ea3e8ae1652df00170eb8b52474dece1592acffd5d7714438b604051610d009190613a01565b60405180910390a35050505050505050505050565b5f8080549050905090565b60065f3373ffffffffffffffffffffffffffffffffffffffff1673ffffffffffffffffffffffffffffffffffffffff1681526020019081526020015f205f9054906101000a900460ff16610da9576040517f08c379a0000000000000000000000000000000000000000000000000000000008152600401610da090613a91565b60405180910390fd5b5f60035f3373ffffffffffffffffffffffffffffffffffffffff1673ffffffffffffffffffffffffffffffffffffffff1681526020019081526020015f205490505f610df4336126c9565b9050805f8381548110610e0a57610e096132a0565b5b905f5260205f20906009020160060181905550425f8381548110610e3157610e306132a0565b5b905f5260205f209060090201600701819055503373ffffffffffffffffffffffffffffffffffffffff167f511f82b4a6612092391a59ddbe0940faeaef8c62498f9a2e7495af8770f0ef4f82604051610e8a9190612bcb565b60405180910390a25050565b60075f3373ffffffffffffffffffffffffffffffffffffffff1673ffffffffffffffffffffffffffffffffffffffff1681526020019081526020015f205f9054906101000a900460ff1615610f20576040517f08c379a0000000000000000000000000000000000000000000000000000000008152600401610f1790613af9565b60405180910390fd5b5f825111610f63576040517f08c379a0000000000000000000000000000000000000000000000000000000008152600401610f5a90613b61565b60405180910390fd5b604051602001610f729061328c565b6040516020818303038152906040528051906020012081604051602001610f999190613729565b6040516020818303038152906040528051906020012014806110045750604051602001610fc590613bc9565b6040516020818303038152906040528051906020012081604051602001610fec9190613729565b60405160208183030381529060405280519060200120145b80611058575060405160200161101990613c27565b60405160208183030381529060405280519060200120816040516020016110409190613729565b60405160208183030381529060405280519060200120145b611097576040517f08c379a000000000000000000000000000000000000000000000000000000000815260040161108e90613cab565b60405180910390fd5b5f60405180606001604052803373ffffffffffffffffffffffffffffffffffffffff168152602001848152602001838152509050600181908060018154018082558091505060019003905f5260205f2090600302015f909190919091505f820151815f015f6101000a81548173ffffffffffffffffffffffffffffffffffffffff021916908373ffffffffffffffffffffffffffffffffffffffff160217905550602082015181600101908161114d9190613932565b5060408201518160020190816111639190613932565b505050600180805490506111779190613cc9565b60055f3373ffffffffffffffffffffffffffffffffffffffff1673ffffffffffffffffffffffffffffffffffffffff1681526020019081526020015f2081905550600160075f3373ffffffffffffffffffffffffffffffffffffffff1673ffffffffffffffffffffffffffffffffffffffff1681526020019081526020015f205f6101000a81548160ff0219169083151502179055503373ffffffffffffffffffffffffffffffffffffffff167fa030fd4c7d3464e2ab354cc6357d7c2e9b69a215a9ff95d0bea2dd9dacb592b7836040516112539190613a01565b60405180910390a2505050565b60065f3373ffffffffffffffffffffffffffffffffffffffff1673ffffffffffffffffffffffffffffffffffffffff1681526020019081526020015f205f9054906101000a900460ff166112e9576040517f08c379a00000000000000000000000000000000000000000000000000000000081526004016112e090613a91565b60405180910390fd5b5f60035f3373ffffffffffffffffffffffffffffffffffffffff1673ffffffffffffffffffffffffffffffffffffffff1681526020019081526020015f205490505f80828154811061133e5761133d6132a0565b5b905f5260205f209060090201600601819055505f808281548110611365576113646132a0565b5b905f5260205f209060090201600701819055503373ffffffffffffffffffffffffffffffffffffffff167fdd8f91a332f5654eac96adcf2c43c93ed5cfcc4c7694c38f9513d174395bcc6660405160405180910390a250565b60065f3373ffffffffffffffffffffffffffffffffffffffff1673ffffffffffffffffffffffffffffffffffffffff1681526020019081526020015f205f9054906101000a900460ff1615611448576040517f08c379a000000000000000000000000000000000000000000000000000000000815260040161143f90613d46565b60405180910390fd5b5f84511161148b576040517f08c379a000000000000000000000000000000000000000000000000000000000815260040161148290613b61565b60405180910390fd5b620186a083101580156114a15750620f423f8311155b6114e0576040517f08c379a00000000000000000000000000000000000000000000000000000000081526004016114d790613dae565b60405180910390fd5b42821115611523576040517f08c379a000000000000000000000000000000000000000000000000000000000815260040161151a90613e16565b60405180910390fd5b5f60045f8581526020019081526020015f205414801561154657505f8080549050145b8061156157505f60045f8581526020019081526020015f2054145b6115a0576040517f08c379a000000000000000000000000000000000000000000000000000000000815260040161159790613e7e565b60405180910390fd5b5f6115aa336126c9565b90505f6040518061012001604052803373ffffffffffffffffffffffffffffffffffffffff16815260200187815260200186815260200185815260200184815260200160405180602001604052805f81525081526020018381526020014281526020015f151581525090505f81908060018154018082558091505060019003905f5260205f2090600902015f909190919091505f820151815f015f6101000a81548173ffffffffffffffffffffffffffffffffffffffff021916908373ffffffffffffffffffffffffffffffffffffffff16021790555060208201518160010190816116969190613932565b50604082015181600201556060820151816003015560808201518160040190816116c09190613932565b5060a08201518160050190816116d69190613932565b5060c0820151816006015560e08201518160070155610100820151816008015f6101000a81548160ff021916908315150217905550505060015f8054905061171e9190613cc9565b60035f3373ffffffffffffffffffffffffffffffffffffffff1673ffffffffffffffffffffffffffffffffffffffff1681526020019081526020015f208190555060015f805490506117709190613cc9565b60045f8781526020019081526020015f2081905550600160065f3373ffffffffffffffffffffffffffffffffffffffff1673ffffffffffffffffffffffffffffffffffffffff1681526020019081526020015f205f6101000a81548160ff0219169083151502179055503373ffffffffffffffffffffffffffffffffffffffff167ff6557c3f758aba81a6954691eb0b4408d0e837b55d6fa550b1576e6292a9106c866040516118209190612bcb565b60405180910390a23373ffffffffffffffffffffffffffffffffffffffff167f511f82b4a6612092391a59ddbe0940faeaef8c62498f9a2e7495af8770f0ef4f8360405161186e9190612bcb565b60405180910390a2505050505050565b60605f806060805f8060065f8973ffffffffffffffffffffffffffffffffffffffff1673ffffffffffffffffffffffffffffffffffffffff1681526020019081526020015f205f9054906101000a900460ff16611910576040517f08c379a000000000000000000000000000000000000000000000000000000000815260040161190790613ee6565b60405180910390fd5b5f60035f8a73ffffffffffffffffffffffffffffffffffffffff1673ffffffffffffffffffffffffffffffffffffffff1681526020019081526020015f205490505f808281548110611965576119646132a0565b5b905f5260205f209060090201604051806101200160405290815f82015f9054906101000a900473ffffffffffffffffffffffffffffffffffffffff1673ffffffffffffffffffffffffffffffffffffffff1673ffffffffffffffffffffffffffffffffffffffff1681526020016001820180546119e19061317a565b80601f0160208091040260200160405190810160405280929190818152602001828054611a0d9061317a565b8015611a585780601f10611a2f57610100808354040283529160200191611a58565b820191905f5260205f20905b815481529060010190602001808311611a3b57829003601f168201915b505050505081526020016002820154815260200160038201548152602001600482018054611a859061317a565b80601f0160208091040260200160405190810160405280929190818152602001828054611ab19061317a565b8015611afc5780601f10611ad357610100808354040283529160200191611afc565b820191905f5260205f20905b815481529060010190602001808311611adf57829003601f168201915b50505050508152602001600582018054611b159061317a565b80601f0160208091040260200160405190810160405280929190818152602001828054611b419061317a565b8015611b8c5780601f10611b6357610100808354040283529160200191611b8c565b820191905f5260205f20905b815481529060010190602001808311611b6f57829003601f168201915b505050505081526020016006820154815260200160078201548152602001600882015f9054906101000a900460ff16151515158152505090505f8a73ffffffffffffffffffffffffffffffffffffffff163373ffffffffffffffffffffffffffffffffffffffff16148015611c1257506107088260e00151611c0e9190613500565b4211155b611c1c575f611c22565b8160c001515b905081602001518260400151836060015184608001518560a00151858761010001519950995099509950995099509950505050919395979092949650565b5f600180549050905090565b5f60075f8373ffffffffffffffffffffffffffffffffffffffff1673ffffffffffffffffffffffffffffffffffffffff1681526020019081526020015f205f9054906101000a900460ff16611cf6576040517f08c379a0000000000000000000000000000000000000000000000000000000008152600401611ced90613f4e565b60405180910390fd5b5f805b600280549050811015611d97578373ffffffffffffffffffffffffffffffffffffffff1660028281548110611d3157611d306132a0565b5b905f5260205f2090600502016003015f9054906101000a900473ffffffffffffffffffffffffffffffffffffffff1673ffffffffffffffffffffffffffffffffffffffff1603611d8a578180611d8690613f6c565b9250505b8080600101915050611cf9565b5080915050919050565b60608060075f8473ffffffffffffffffffffffffffffffffffffffff1673ffffffffffffffffffffffffffffffffffffffff1681526020019081526020015f205f9054906101000a900460ff16611e2d576040517f08c379a0000000000000000000000000000000000000000000000000000000008152600401611e2490613ffd565b60405180910390fd5b5f60055f8573ffffffffffffffffffffffffffffffffffffffff1673ffffffffffffffffffffffffffffffffffffffff1681526020019081526020015f205490505f60018281548110611e8357611e826132a0565b5b905f5260205f2090600302016040518060600160405290815f82015f9054906101000a900473ffffffffffffffffffffffffffffffffffffffff1673ffffffffffffffffffffffffffffffffffffffff1673ffffffffffffffffffffffffffffffffffffffff168152602001600182018054611efe9061317a565b80601f0160208091040260200160405190810160405280929190818152602001828054611f2a9061317a565b8015611f755780601f10611f4c57610100808354040283529160200191611f75565b820191905f5260205f20905b815481529060010190602001808311611f5857829003601f168201915b50505050508152602001600282018054611f8e9061317a565b80601f0160208091040260200160405190810160405280929190818152602001828054611fba9061317a565b80156120055780601f10611fdc57610100808354040283529160200191612005565b820191905f5260205f20905b815481529060010190602001808311611fe857829003601f168201915b505050505081525050905080602001518160400151935093505050915091565b60605f805480602002602001604051908101604052809291908181526020015f905b828210156122be578382905f5260205f209060090201604051806101200160405290815f82015f9054906101000a900473ffffffffffffffffffffffffffffffffffffffff1673ffffffffffffffffffffffffffffffffffffffff1673ffffffffffffffffffffffffffffffffffffffff1681526020016001820180546120cd9061317a565b80601f01602080910402602001604051908101604052809291908181526020018280546120f99061317a565b80156121445780601f1061211b57610100808354040283529160200191612144565b820191905f5260205f20905b81548152906001019060200180831161212757829003601f168201915b5050505050815260200160028201548152602001600382015481526020016004820180546121719061317a565b80601f016020809104026020016040519081016040528092919081815260200182805461219d9061317a565b80156121e85780601f106121bf576101008083540402835291602001916121e8565b820191905f5260205f20905b8154815290600101906020018083116121cb57829003601f168201915b505050505081526020016005820180546122019061317a565b80601f016020809104026020016040519081016040528092919081815260200182805461222d9061317a565b80156122785780601f1061224f57610100808354040283529160200191612278565b820191905f5260205f20905b81548152906001019060200180831161225b57829003601f168201915b505050505081526020016006820154815260200160078201548152602001600882015f9054906101000a900460ff16151515158152505081526020019060010190612047565b50505050905090565b606060075f8373ffffffffffffffffffffffffffffffffffffffff1673ffffffffffffffffffffffffffffffffffffffff1681526020019081526020015f205f9054906101000a900460ff16612352576040517f08c379a000000000000000000000000000000000000000000000000000000000815260040161234990613f4e565b60405180910390fd5b5f805b6002805490508110156123f3578373ffffffffffffffffffffffffffffffffffffffff166002828154811061238d5761238c6132a0565b5b905f5260205f2090600502016003015f9054906101000a900473ffffffffffffffffffffffffffffffffffffffff1673ffffffffffffffffffffffffffffffffffffffff16036123e65781806123e290613f6c565b9250505b8080600101915050612355565b505f8167ffffffffffffffff81111561240f5761240e612978565b5b60405190808252806020026020018201604052801561244857816020015b61243561270c565b81526020019060019003908161242d5790505b5090505f805b6002805490508110156126bd578573ffffffffffffffffffffffffffffffffffffffff1660028281548110612486576124856132a0565b5b905f5260205f2090600502016003015f9054906101000a900473ffffffffffffffffffffffffffffffffffffffff1673ffffffffffffffffffffffffffffffffffffffff16036126b057600281815481106124e4576124e36132a0565b5b905f5260205f2090600502016040518060a00160405290815f8201805461250a9061317a565b80601f01602080910402602001604051908101604052809291908181526020018280546125369061317a565b80156125815780601f1061255857610100808354040283529160200191612581565b820191905f5260205f20905b81548152906001019060200180831161256457829003601f168201915b50505050508152602001600182015481526020016002820180546125a49061317a565b80601f01602080910402602001604051908101604052809291908181526020018280546125d09061317a565b801561261b5780601f106125f25761010080835404028352916020019161261b565b820191905f5260205f20905b8154815290600101906020018083116125fe57829003601f168201915b50505050508152602001600382015f9054906101000a900473ffffffffffffffffffffffffffffffffffffffff1673ffffffffffffffffffffffffffffffffffffffff1673ffffffffffffffffffffffffffffffffffffffff168152602001600482015481525050838381518110612696576126956132a0565b5b602002602001018190525081806126ac90613f6c565b9250505b808060010191505061244e565b50819350505050919050565b5f620f42404283446040516020016126e393929190614080565b604051602081830303815290604052805190602001205f1c61270591906140e9565b9050919050565b6040518060a00160405280606081526020015f8152602001606081526020015f73ffffffffffffffffffffffffffffffffffffffff1681526020015f81525090565b5f81519050919050565b5f82825260208201905092915050565b5f819050602082019050919050565b5f73ffffffffffffffffffffffffffffffffffffffff82169050919050565b5f6127a082612777565b9050919050565b6127b081612796565b82525050565b5f81519050919050565b5f82825260208201905092915050565b8281835e5f83830152505050565b5f601f19601f8301169050919050565b5f6127f8826127b6565b61280281856127c0565b93506128128185602086016127d0565b61281b816127de565b840191505092915050565b5f606083015f83015161283b5f8601826127a7565b506020830151848203602086015261285382826127ee565b9150506040830151848203604086015261286d82826127ee565b9150508091505092915050565b5f6128858383612826565b905092915050565b5f602082019050919050565b5f6128a38261274e565b6128ad8185612758565b9350836020820285016128bf85612768565b805f5b858110156128fa57848403895281516128db858261287a565b94506128e68361288d565b925060208a019950506001810190506128c2565b50829750879550505050505092915050565b5f6020820190508181035f8301526129248184612899565b905092915050565b5f604051905090565b5f80fd5b5f80fd5b5f819050919050565b61294f8161293d565b8114612959575f80fd5b50565b5f8135905061296a81612946565b92915050565b5f80fd5b5f80fd5b7f4e487b71000000000000000000000000000000000000000000000000000000005f52604160045260245ffd5b6129ae826127de565b810181811067ffffffffffffffff821117156129cd576129cc612978565b5b80604052505050565b5f6129df61292c565b90506129eb82826129a5565b919050565b5f67ffffffffffffffff821115612a0a57612a09612978565b5b612a13826127de565b9050602081019050919050565b828183375f83830152505050565b5f612a40612a3b846129f0565b6129d6565b905082815260208101848484011115612a5c57612a5b612974565b5b612a67848285612a20565b509392505050565b5f82601f830112612a8357612a82612970565b5b8135612a93848260208601612a2e565b91505092915050565b5f8115159050919050565b612ab081612a9c565b8114612aba575f80fd5b50565b5f81359050612acb81612aa7565b92915050565b612ada81612796565b8114612ae4575f80fd5b50565b5f81359050612af581612ad1565b92915050565b5f805f805f8060c08789031215612b1557612b14612935565b5b5f612b2289828a0161295c565b965050602087013567ffffffffffffffff811115612b4357612b42612939565b5b612b4f89828a01612a6f565b955050604087013567ffffffffffffffff811115612b7057612b6f612939565b5b612b7c89828a01612a6f565b9450506060612b8d89828a0161295c565b9350506080612b9e89828a01612abd565b92505060a0612baf89828a01612ae7565b9150509295509295509295565b612bc58161293d565b82525050565b5f602082019050612bde5f830184612bbc565b92915050565b5f8060408385031215612bfa57612bf9612935565b5b5f83013567ffffffffffffffff811115612c1757612c16612939565b5b612c2385828601612a6f565b925050602083013567ffffffffffffffff811115612c4457612c43612939565b5b612c5085828601612a6f565b9150509250929050565b5f805f8060808587031215612c7257612c71612935565b5b5f85013567ffffffffffffffff811115612c8f57612c8e612939565b5b612c9b87828801612a6f565b9450506020612cac8782880161295c565b9350506040612cbd8782880161295c565b925050606085013567ffffffffffffffff811115612cde57612cdd612939565b5b612cea87828801612a6f565b91505092959194509250565b5f60208284031215612d0b57612d0a612935565b5b5f612d1884828501612ae7565b91505092915050565b5f82825260208201905092915050565b5f612d3b826127b6565b612d458185612d21565b9350612d558185602086016127d0565b612d5e816127de565b840191505092915050565b612d7281612a9c565b82525050565b5f60e0820190508181035f830152612d90818a612d31565b9050612d9f6020830189612bbc565b612dac6040830188612bbc565b8181036060830152612dbe8187612d31565b90508181036080830152612dd28186612d31565b9050612de160a0830185612bbc565b612dee60c0830184612d69565b98975050505050505050565b5f6040820190508181035f830152612e128185612d31565b90508181036020830152612e268184612d31565b90509392505050565b5f81519050919050565b5f82825260208201905092915050565b5f819050602082019050919050565b612e618161293d565b82525050565b612e7081612a9c565b82525050565b5f61012083015f830151612e8c5f8601826127a7565b5060208301518482036020860152612ea482826127ee565b9150506040830151612eb96040860182612e58565b506060830151612ecc6060860182612e58565b5060808301518482036080860152612ee482826127ee565b91505060a083015184820360a0860152612efe82826127ee565b91505060c0830151612f1360c0860182612e58565b5060e0830151612f2660e0860182612e58565b50610100830151612f3b610100860182612e67565b508091505092915050565b5f612f518383612e76565b905092915050565b5f602082019050919050565b5f612f6f82612e2f565b612f798185612e39565b935083602082028501612f8b85612e49565b805f5b85811015612fc65784840389528151612fa78582612f46565b9450612fb283612f59565b925060208a01995050600181019050612f8e565b50829750879550505050505092915050565b5f6020820190508181035f830152612ff08184612f65565b905092915050565b5f81519050919050565b5f82825260208201905092915050565b5f819050602082019050919050565b5f60a083015f8301518482035f86015261303b82826127ee565b91505060208301516130506020860182612e58565b506040830151848203604086015261306882826127ee565b915050606083015161307d60608601826127a7565b5060808301516130906080860182612e58565b508091505092915050565b5f6130a68383613021565b905092915050565b5f602082019050919050565b5f6130c482612ff8565b6130ce8185613002565b9350836020820285016130e085613012565b805f5b8581101561311b57848403895281516130fc858261309b565b9450613107836130ae565b925060208a019950506001810190506130e3565b50829750879550505050505092915050565b5f6020820190508181035f83015261314581846130ba565b905092915050565b7f4e487b71000000000000000000000000000000000000000000000000000000005f52602260045260245ffd5b5f600282049050600182168061319157607f821691505b6020821081036131a4576131a361314d565b5b50919050565b7f4f6e6c7920726567697374657265642073746166662063616e20706572666f725f8201527f6d207468697320616374696f6e00000000000000000000000000000000000000602082015250565b5f613204602d83612d21565b915061320f826131aa565b604082019050919050565b5f6020820190508181035f830152613231816131f8565b9050919050565b5f81905092915050565b7f446f63746f7200000000000000000000000000000000000000000000000000005f82015250565b5f613276600683613238565b915061328182613242565b600682019050919050565b5f6132968261326a565b9150819050919050565b7f4e487b71000000000000000000000000000000000000000000000000000000005f52603260045260245ffd5b5f819050815f5260205f209050919050565b5f81546132eb8161317a565b6132f58186613238565b9450600182165f811461330f576001811461332457613356565b60ff1983168652811515820286019350613356565b61332d856132cd565b5f5b8381101561334e5781548189015260018201915060208101905061332f565b838801955050505b50505092915050565b5f61336a82846132df565b915081905092915050565b7f4f6e6c7920646f63746f72732063616e20706572666f726d20746869732061635f8201527f74696f6e00000000000000000000000000000000000000000000000000000000602082015250565b5f6133cf602483612d21565b91506133da82613375565b604082019050919050565b5f6020820190508181035f8301526133fc816133c3565b9050919050565b7f50617469656e74206e6f742072656769737465726564000000000000000000005f82015250565b5f613437601683612d21565b915061344282613403565b602082019050919050565b5f6020820190508181035f8301526134648161342b565b9050919050565b7f496e76616c69642061636365737320636f6465000000000000000000000000005f82015250565b5f61349f601383612d21565b91506134aa8261346b565b602082019050919050565b5f6020820190508181035f8301526134cc81613493565b9050919050565b7f4e487b71000000000000000000000000000000000000000000000000000000005f52601160045260245ffd5b5f61350a8261293d565b91506135158361293d565b925082820190508082111561352d5761352c6134d3565b5b92915050565b7f41636365737320636f64652065787069726564000000000000000000000000005f82015250565b5f613567601383612d21565b915061357282613533565b602082019050919050565b5f6020820190508181035f8301526135948161355b565b9050919050565b7f4865616c7468207265636f72642063616e6e6f7420626520656d7074790000005f82015250565b5f6135cf601d83612d21565b91506135da8261359b565b602082019050919050565b5f6020820190508181035f8301526135fc816135c3565b9050919050565b7f507265736372697074696f6e2063616e6e6f7420626520656d707479000000005f82015250565b5f613637601c83612d21565b915061364282613603565b602082019050919050565b5f6020820190508181035f8301526136648161362b565b9050919050565b7f526563697069656e74206d7573742062652072656769737465726564207374615f8201527f6666000000000000000000000000000000000000000000000000000000000000602082015250565b5f6136c5602283612d21565b91506136d08261366b565b604082019050919050565b5f6020820190508181035f8301526136f2816136b9565b9050919050565b5f613703826127b6565b61370d8185613238565b935061371d8185602086016127d0565b80840191505092915050565b5f61373482846136f9565b915081905092915050565b7f496e76616c696420726563697069656e7420726f6c65000000000000000000005f82015250565b5f613773601683612d21565b915061377e8261373f565b602082019050919050565b5f6020820190508181035f8301526137a081613767565b9050919050565b5f6020601f8301049050919050565b5f82821b905092915050565b5f600883026137f17fffffffffffffffffffffffffffffffffffffffffffffffffffffffffffffffff826137b6565b6137fb86836137b6565b95508019841693508086168417925050509392505050565b5f819050919050565b5f61383661383161382c8461293d565b613813565b61293d565b9050919050565b5f819050919050565b61384f8361381c565b61386361385b8261383d565b8484546137c2565b825550505050565b5f90565b61387761386b565b613882818484613846565b505050565b5b818110156138a55761389a5f8261386f565b600181019050613888565b5050565b601f8211156138ea576138bb816132cd565b6138c4846137a7565b810160208510156138d3578190505b6138e76138df856137a7565b830182613887565b50505b505050565b5f82821c905092915050565b5f61390a5f19846008026138ef565b1980831691505092915050565b5f61392283836138fb565b9150826002028217905092915050565b61393b826127b6565b67ffffffffffffffff81111561395457613953612978565b5b61395e825461317a565b6139698282856138a9565b5f60209050601f83116001811461399a575f8415613988578287015190505b6139928582613917565b8655506139f9565b601f1984166139a8866132cd565b5f5b828110156139cf578489015182556001820191506020850194506020810190506139aa565b868310156139ec57848901516139e8601f8916826138fb565b8355505b6001600288020188555050505b505050505050565b5f6020820190508181035f830152613a198184612d31565b905092915050565b7f4f6e6c7920726567697374657265642073747564656e74732063616e207065725f8201527f666f726d207468697320616374696f6e00000000000000000000000000000000602082015250565b5f613a7b603083612d21565b9150613a8682613a21565b604082019050919050565b5f6020820190508181035f830152613aa881613a6f565b9050919050565b7f537461666620616c7265616479207265676973746572656400000000000000005f82015250565b5f613ae3601883612d21565b9150613aee82613aaf565b602082019050919050565b5f6020820190508181035f830152613b1081613ad7565b9050919050565b7f4e616d652063616e6e6f7420626520656d7074790000000000000000000000005f82015250565b5f613b4b601483612d21565b9150613b5682613b17565b602082019050919050565b5f6020820190508181035f830152613b7881613b3f565b9050919050565b7f4e757273650000000000000000000000000000000000000000000000000000005f82015250565b5f613bb3600583613238565b9150613bbe82613b7f565b600582019050919050565b5f613bd382613ba7565b9150819050919050565b7f506861726d6163697374000000000000000000000000000000000000000000005f82015250565b5f613c11600a83613238565b9150613c1c82613bdd565b600a82019050919050565b5f613c3182613c05565b9150819050919050565b7f526f6c65206d75737420626520446f63746f722c204e757273652c206f7220505f8201527f6861726d61636973740000000000000000000000000000000000000000000000602082015250565b5f613c95602983612d21565b9150613ca082613c3b565b604082019050919050565b5f6020820190508181035f830152613cc281613c89565b9050919050565b5f613cd38261293d565b9150613cde8361293d565b9250828203905081811115613cf657613cf56134d3565b5b92915050565b7f53747564656e7420616c726561647920726567697374657265640000000000005f82015250565b5f613d30601a83612d21565b9150613d3b82613cfc565b602082019050919050565b5f6020820190508181035f830152613d5d81613d24565b9050919050565b7f4d6174726963206e756d626572206d75737420626520362064696769747300005f82015250565b5f613d98601e83612d21565b9150613da382613d64565b602082019050919050565b5f6020820190508181035f830152613dc581613d8c565b9050919050565b7f496e76616c696420726567697374726174696f6e2064617465000000000000005f82015250565b5f613e00601983612d21565b9150613e0b82613dcc565b602082019050919050565b5f6020820190508181035f830152613e2d81613df4565b9050919050565b7f4d6174726963206e756d62657220616c726561647920657869737473000000005f82015250565b5f613e68601c83612d21565b9150613e7382613e34565b602082019050919050565b5f6020820190508181035f830152613e9581613e5c565b9050919050565b7f53747564656e74206e6f742072656769737465726564000000000000000000005f82015250565b5f613ed0601683612d21565b9150613edb82613e9c565b602082019050919050565b5f6020820190508181035f830152613efd81613ec4565b9050919050565b7f4e6f7420612072656769737465726564207374616666000000000000000000005f82015250565b5f613f38601683612d21565b9150613f4382613f04565b602082019050919050565b5f6020820190508181035f830152613f6581613f2c565b9050919050565b5f613f768261293d565b91507fffffffffffffffffffffffffffffffffffffffffffffffffffffffffffffffff8203613fa857613fa76134d3565b5b600182019050919050565b7f5374616666206e6f7420726567697374657265640000000000000000000000005f82015250565b5f613fe7601483612d21565b9150613ff282613fb3565b602082019050919050565b5f6020820190508181035f83015261401481613fdb565b9050919050565b5f819050919050565b6140356140308261293d565b61401b565b82525050565b5f8160601b9050919050565b5f6140518261403b565b9050919050565b5f61406282614047565b9050919050565b61407a61407582612796565b614058565b82525050565b5f61408b8286614024565b60208201915061409b8285614069565b6014820191506140ab8284614024565b602082019150819050949350505050565b7f4e487b71000000000000000000000000000000000000000000000000000000005f52601260045260245ffd5b5f6140f38261293d565b91506140fe8361293d565b92508261410e5761410d6140bc565b5b82820690509291505056fea26469706673582212204e53571c8a074de29a48bbe1e52f6d64e5f912872b03a54bff5bb1ed876dc91664736f6c634300081a0033",
					"opcodes": "PUSH1 0x80 PUSH1 0x40 MSTORE CALLVALUE DUP1 ISZERO PUSH1 0xE JUMPI PUSH0 DUP1 REVERT JUMPDEST POP PUSH2 0x414F DUP1 PUSH2 0x1C PUSH0 CODECOPY PUSH0 RETURN INVALID PUSH1 0x80 PUSH1 0x40 MSTORE CALLVALUE DUP1 ISZERO PUSH2 0xF JUMPI PUSH0 DUP1 REVERT JUMPDEST POP PUSH1 0x4 CALLDATASIZE LT PUSH2 0xCD JUMPI PUSH0 CALLDATALOAD PUSH1 0xE0 SHR DUP1 PUSH4 0x6148C54C GT PUSH2 0x8A JUMPI DUP1 PUSH4 0xD3C9ACC1 GT PUSH2 0x64 JUMPI DUP1 PUSH4 0xD3C9ACC1 EQ PUSH2 0x1C9 JUMPI DUP1 PUSH4 0xDDD79504 EQ PUSH2 0x1F9 JUMPI DUP1 PUSH4 0xE9E30927 EQ PUSH2 0x22A JUMPI DUP1 PUSH4 0xF8F3F382 EQ PUSH2 0x248 JUMPI PUSH2 0xCD JUMP JUMPDEST DUP1 PUSH4 0x6148C54C EQ PUSH2 0x159 JUMPI DUP1 PUSH4 0x6B7B44D7 EQ PUSH2 0x175 JUMPI DUP1 PUSH4 0xB99B0703 EQ PUSH2 0x1AB JUMPI PUSH2 0xCD JUMP JUMPDEST DUP1 PUSH4 0x32E0868 EQ PUSH2 0xD1 JUMPI DUP1 PUSH4 0x141254CB EQ PUSH2 0xEF JUMPI DUP1 PUSH4 0x41E0C407 EQ PUSH2 0x10B JUMPI DUP1 PUSH4 0x4F60D018 EQ PUSH2 0x129 JUMPI DUP1 PUSH4 0x572344F1 EQ PUSH2 0x133 JUMPI DUP1 PUSH4 0x58D7430E EQ PUSH2 0x14F JUMPI JUMPDEST PUSH0 DUP1 REVERT JUMPDEST PUSH2 0xD9 PUSH2 0x278 JUMP JUMPDEST PUSH1 0x40 MLOAD PUSH2 0xE6 SWAP2 SWAP1 PUSH2 0x290C JUMP JUMPDEST PUSH1 0x40 MLOAD DUP1 SWAP2 SUB SWAP1 RETURN JUMPDEST PUSH2 0x109 PUSH1 0x4 DUP1 CALLDATASIZE SUB DUP2 ADD SWAP1 PUSH2 0x104 SWAP2 SWAP1 PUSH2 0x2AFB JUMP JUMPDEST PUSH2 0x448 JUMP JUMPDEST STOP JUMPDEST PUSH2 0x113 PUSH2 0xD15 JUMP JUMPDEST PUSH1 0x40 MLOAD PUSH2 0x120 SWAP2 SWAP1 PUSH2 0x2BCB JUMP JUMPDEST PUSH1 0x40 MLOAD DUP1 SWAP2 SUB SWAP1 RETURN JUMPDEST PUSH2 0x131 PUSH2 0xD20 JUMP JUMPDEST STOP JUMPDEST PUSH2 0x14D PUSH1 0x4 DUP1 CALLDATASIZE SUB DUP2 ADD SWAP1 PUSH2 0x148 SWAP2 SWAP1 PUSH2 0x2BE4 JUMP JUMPDEST PUSH2 0xE96 JUMP JUMPDEST STOP JUMPDEST PUSH2 0x157 PUSH2 0x1260 JUMP JUMPDEST STOP JUMPDEST PUSH2 0x173 PUSH1 0x4 DUP1 CALLDATASIZE SUB DUP2 ADD SWAP1 PUSH2 0x16E SWAP2 SWAP1 PUSH2 0x2C5A JUMP JUMPDEST PUSH2 0x13BE JUMP JUMPDEST STOP JUMPDEST PUSH2 0x18F PUSH1 0x4 DUP1 CALLDATASIZE SUB DUP2 ADD SWAP1 PUSH2 0x18A SWAP2 SWAP1 PUSH2 0x2CF6 JUMP JUMPDEST PUSH2 0x187E JUMP JUMPDEST PUSH1 0x40 MLOAD PUSH2 0x1A2 SWAP8 SWAP7 SWAP6 SWAP5 SWAP4 SWAP3 SWAP2 SWAP1 PUSH2 0x2D78 JUMP JUMPDEST PUSH1 0x40 MLOAD DUP1 SWAP2 SUB SWAP1 RETURN JUMPDEST PUSH2 0x1B3 PUSH2 0x1C60 JUMP JUMPDEST PUSH1 0x40 MLOAD PUSH2 0x1C0 SWAP2 SWAP1 PUSH2 0x2BCB JUMP JUMPDEST PUSH1 0x40 MLOAD DUP1 SWAP2 SUB SWAP1 RETURN JUMPDEST PUSH2 0x1E3 PUSH1 0x4 DUP1 CALLDATASIZE SUB DUP2 ADD SWAP1 PUSH2 0x1DE SWAP2 SWAP1 PUSH2 0x2CF6 JUMP JUMPDEST PUSH2 0x1C6C JUMP JUMPDEST PUSH1 0x40 MLOAD PUSH2 0x1F0 SWAP2 SWAP1 PUSH2 0x2BCB JUMP JUMPDEST PUSH1 0x40 MLOAD DUP1 SWAP2 SUB SWAP1 RETURN JUMPDEST PUSH2 0x213 PUSH1 0x4 DUP1 CALLDATASIZE SUB DUP2 ADD SWAP1 PUSH2 0x20E SWAP2 SWAP1 PUSH2 0x2CF6 JUMP JUMPDEST PUSH2 0x1DA1 JUMP JUMPDEST PUSH1 0x40 MLOAD PUSH2 0x221 SWAP3 SWAP2 SWAP1 PUSH2 0x2DFA JUMP JUMPDEST PUSH1 0x40 MLOAD DUP1 SWAP2 SUB SWAP1 RETURN JUMPDEST PUSH2 0x232 PUSH2 0x2025 JUMP JUMPDEST PUSH1 0x40 MLOAD PUSH2 0x23F SWAP2 SWAP1 PUSH2 0x2FD8 JUMP JUMPDEST PUSH1 0x40 MLOAD DUP1 SWAP2 SUB SWAP1 RETURN JUMPDEST PUSH2 0x262 PUSH1 0x4 DUP1 CALLDATASIZE SUB DUP2 ADD SWAP1 PUSH2 0x25D SWAP2 SWAP1 PUSH2 0x2CF6 JUMP JUMPDEST PUSH2 0x22C7 JUMP JUMPDEST PUSH1 0x40 MLOAD PUSH2 0x26F SWAP2 SWAP1 PUSH2 0x312D JUMP JUMPDEST PUSH1 0x40 MLOAD DUP1 SWAP2 SUB SWAP1 RETURN JUMPDEST PUSH1 0x60 PUSH1 0x1 DUP1 SLOAD DUP1 PUSH1 0x20 MUL PUSH1 0x20 ADD PUSH1 0x40 MLOAD SWAP1 DUP2 ADD PUSH1 0x40 MSTORE DUP1 SWAP3 SWAP2 SWAP1 DUP2 DUP2 MSTORE PUSH1 0x20 ADD PUSH0 SWAP1 JUMPDEST DUP3 DUP3 LT ISZERO PUSH2 0x43F JUMPI DUP4 DUP3 SWAP1 PUSH0 MSTORE PUSH1 0x20 PUSH0 KECCAK256 SWAP1 PUSH1 0x3 MUL ADD PUSH1 0x40 MLOAD DUP1 PUSH1 0x60 ADD PUSH1 0x40 MSTORE SWAP1 DUP2 PUSH0 DUP3 ADD PUSH0 SWAP1 SLOAD SWAP1 PUSH2 0x100 EXP SWAP1 DIV PUSH20 0xFFFFFFFFFFFFFFFFFFFFFFFFFFFFFFFFFFFFFFFF AND PUSH20 0xFFFFFFFFFFFFFFFFFFFFFFFFFFFFFFFFFFFFFFFF AND PUSH20 0xFFFFFFFFFFFFFFFFFFFFFFFFFFFFFFFFFFFFFFFF AND DUP2 MSTORE PUSH1 0x20 ADD PUSH1 0x1 DUP3 ADD DUP1 SLOAD PUSH2 0x320 SWAP1 PUSH2 0x317A JUMP JUMPDEST DUP1 PUSH1 0x1F ADD PUSH1 0x20 DUP1 SWAP2 DIV MUL PUSH1 0x20 ADD PUSH1 0x40 MLOAD SWAP1 DUP2 ADD PUSH1 0x40 MSTORE DUP1 SWAP3 SWAP2 SWAP1 DUP2 DUP2 MSTORE PUSH1 0x20 ADD DUP3 DUP1 SLOAD PUSH2 0x34C SWAP1 PUSH2 0x317A JUMP JUMPDEST DUP1 ISZERO PUSH2 0x397 JUMPI DUP1 PUSH1 0x1F LT PUSH2 0x36E JUMPI PUSH2 0x100 DUP1 DUP4 SLOAD DIV MUL DUP4 MSTORE SWAP2 PUSH1 0x20 ADD SWAP2 PUSH2 0x397 JUMP JUMPDEST DUP3 ADD SWAP2 SWAP1 PUSH0 MSTORE PUSH1 0x20 PUSH0 KECCAK256 SWAP1 JUMPDEST DUP2 SLOAD DUP2 MSTORE SWAP1 PUSH1 0x1 ADD SWAP1 PUSH1 0x20 ADD DUP1 DUP4 GT PUSH2 0x37A JUMPI DUP3 SWAP1 SUB PUSH1 0x1F AND DUP3 ADD SWAP2 JUMPDEST POP POP POP POP POP DUP2 MSTORE PUSH1 0x20 ADD PUSH1 0x2 DUP3 ADD DUP1 SLOAD PUSH2 0x3B0 SWAP1 PUSH2 0x317A JUMP JUMPDEST DUP1 PUSH1 0x1F ADD PUSH1 0x20 DUP1 SWAP2 DIV MUL PUSH1 0x20 ADD PUSH1 0x40 MLOAD SWAP1 DUP2 ADD PUSH1 0x40 MSTORE DUP1 SWAP3 SWAP2 SWAP1 DUP2 DUP2 MSTORE PUSH1 0x20 ADD DUP3 DUP1 SLOAD PUSH2 0x3DC SWAP1 PUSH2 0x317A JUMP JUMPDEST DUP1 ISZERO PUSH2 0x427 JUMPI DUP1 PUSH1 0x1F LT PUSH2 0x3FE JUMPI PUSH2 0x100 DUP1 DUP4 SLOAD DIV MUL DUP4 MSTORE SWAP2 PUSH1 0x20 ADD SWAP2 PUSH2 0x427 JUMP JUMPDEST DUP3 ADD SWAP2 SWAP1 PUSH0 MSTORE PUSH1 0x20 PUSH0 KECCAK256 SWAP1 JUMPDEST DUP2 SLOAD DUP2 MSTORE SWAP1 PUSH1 0x1 ADD SWAP1 PUSH1 0x20 ADD DUP1 DUP4 GT PUSH2 0x40A JUMPI DUP3 SWAP1 SUB PUSH1 0x1F AND DUP3 ADD SWAP2 JUMPDEST POP POP POP POP POP DUP2 MSTORE POP POP DUP2 MSTORE PUSH1 0x20 ADD SWAP1 PUSH1 0x1 ADD SWAP1 PUSH2 0x29B JUMP JUMPDEST POP POP POP POP SWAP1 POP SWAP1 JUMP JUMPDEST PUSH1 0x7 PUSH0 CALLER PUSH20 0xFFFFFFFFFFFFFFFFFFFFFFFFFFFFFFFFFFFFFFFF AND PUSH20 0xFFFFFFFFFFFFFFFFFFFFFFFFFFFFFFFFFFFFFFFF AND DUP2 MSTORE PUSH1 0x20 ADD SWAP1 DUP2 MSTORE PUSH1 0x20 ADD PUSH0 KECCAK256 PUSH0 SWAP1 SLOAD SWAP1 PUSH2 0x100 EXP SWAP1 DIV PUSH1 0xFF AND PUSH2 0x4D1 JUMPI PUSH1 0x40 MLOAD PUSH32 0x8C379A000000000000000000000000000000000000000000000000000000000 DUP2 MSTORE PUSH1 0x4 ADD PUSH2 0x4C8 SWAP1 PUSH2 0x321A JUMP JUMPDEST PUSH1 0x40 MLOAD DUP1 SWAP2 SUB SWAP1 REVERT JUMPDEST PUSH0 PUSH1 0x5 PUSH0 CALLER PUSH20 0xFFFFFFFFFFFFFFFFFFFFFFFFFFFFFFFFFFFFFFFF AND PUSH20 0xFFFFFFFFFFFFFFFFFFFFFFFFFFFFFFFFFFFFFFFF AND DUP2 MSTORE PUSH1 0x20 ADD SWAP1 DUP2 MSTORE PUSH1 0x20 ADD PUSH0 KECCAK256 SLOAD SWAP1 POP PUSH1 0x40 MLOAD PUSH1 0x20 ADD PUSH2 0x521 SWAP1 PUSH2 0x328C JUMP JUMPDEST PUSH1 0x40 MLOAD PUSH1 0x20 DUP2 DUP4 SUB SUB DUP2 MSTORE SWAP1 PUSH1 0x40 MSTORE DUP1 MLOAD SWAP1 PUSH1 0x20 ADD KECCAK256 PUSH1 0x1 DUP3 DUP2 SLOAD DUP2 LT PUSH2 0x54B JUMPI PUSH2 0x54A PUSH2 0x32A0 JUMP JUMPDEST JUMPDEST SWAP1 PUSH0 MSTORE PUSH1 0x20 PUSH0 KECCAK256 SWAP1 PUSH1 0x3 MUL ADD PUSH1 0x2 ADD PUSH1 0x40 MLOAD PUSH1 0x20 ADD PUSH2 0x56A SWAP2 SWAP1 PUSH2 0x335F JUMP JUMPDEST PUSH1 0x40 MLOAD PUSH1 0x20 DUP2 DUP4 SUB SUB DUP2 MSTORE SWAP1 PUSH1 0x40 MSTORE DUP1 MLOAD SWAP1 PUSH1 0x20 ADD KECCAK256 EQ PUSH2 0x5C0 JUMPI PUSH1 0x40 MLOAD PUSH32 0x8C379A000000000000000000000000000000000000000000000000000000000 DUP2 MSTORE PUSH1 0x4 ADD PUSH2 0x5B7 SWAP1 PUSH2 0x33E5 JUMP JUMPDEST PUSH1 0x40 MLOAD DUP1 SWAP2 SUB SWAP1 REVERT JUMPDEST PUSH0 PUSH1 0x4 PUSH0 DUP10 DUP2 MSTORE PUSH1 0x20 ADD SWAP1 DUP2 MSTORE PUSH1 0x20 ADD PUSH0 KECCAK256 SLOAD EQ ISZERO DUP1 PUSH2 0x5E3 JUMPI POP PUSH0 DUP1 DUP1 SLOAD SWAP1 POP GT JUMPDEST PUSH2 0x622 JUMPI PUSH1 0x40 MLOAD PUSH32 0x8C379A000000000000000000000000000000000000000000000000000000000 DUP2 MSTORE PUSH1 0x4 ADD PUSH2 0x619 SWAP1 PUSH2 0x344D JUMP JUMPDEST PUSH1 0x40 MLOAD DUP1 SWAP2 SUB SWAP1 REVERT JUMPDEST PUSH0 PUSH1 0x4 PUSH0 DUP10 DUP2 MSTORE PUSH1 0x20 ADD SWAP1 DUP2 MSTORE PUSH1 0x20 ADD PUSH0 KECCAK256 SLOAD SWAP1 POP DUP5 PUSH0 DUP3 DUP2 SLOAD DUP2 LT PUSH2 0x64B JUMPI PUSH2 0x64A PUSH2 0x32A0 JUMP JUMPDEST JUMPDEST SWAP1 PUSH0 MSTORE PUSH1 0x20 PUSH0 KECCAK256 SWAP1 PUSH1 0x9 MUL ADD PUSH1 0x6 ADD SLOAD EQ PUSH2 0x69B JUMPI PUSH1 0x40 MLOAD PUSH32 0x8C379A000000000000000000000000000000000000000000000000000000000 DUP2 MSTORE PUSH1 0x4 ADD PUSH2 0x692 SWAP1 PUSH2 0x34B5 JUMP JUMPDEST PUSH1 0x40 MLOAD DUP1 SWAP2 SUB SWAP1 REVERT JUMPDEST PUSH2 0x708 PUSH0 DUP3 DUP2 SLOAD DUP2 LT PUSH2 0x6B1 JUMPI PUSH2 0x6B0 PUSH2 0x32A0 JUMP JUMPDEST JUMPDEST SWAP1 PUSH0 MSTORE PUSH1 0x20 PUSH0 KECCAK256 SWAP1 PUSH1 0x9 MUL ADD PUSH1 0x7 ADD SLOAD PUSH2 0x6CB SWAP2 SWAP1 PUSH2 0x3500 JUMP JUMPDEST TIMESTAMP GT ISZERO PUSH2 0x70D JUMPI PUSH1 0x40 MLOAD PUSH32 0x8C379A000000000000000000000000000000000000000000000000000000000 DUP2 MSTORE PUSH1 0x4 ADD PUSH2 0x704 SWAP1 PUSH2 0x357D JUMP JUMPDEST PUSH1 0x40 MLOAD DUP1 SWAP2 SUB SWAP1 REVERT JUMPDEST PUSH0 DUP8 MLOAD GT PUSH2 0x750 JUMPI PUSH1 0x40 MLOAD PUSH32 0x8C379A000000000000000000000000000000000000000000000000000000000 DUP2 MSTORE PUSH1 0x4 ADD PUSH2 0x747 SWAP1 PUSH2 0x35E5 JUMP JUMPDEST PUSH1 0x40 MLOAD DUP1 SWAP2 SUB SWAP1 REVERT JUMPDEST PUSH0 DUP7 MLOAD GT PUSH2 0x793 JUMPI PUSH1 0x40 MLOAD PUSH32 0x8C379A000000000000000000000000000000000000000000000000000000000 DUP2 MSTORE PUSH1 0x4 ADD PUSH2 0x78A SWAP1 PUSH2 0x364D JUMP JUMPDEST PUSH1 0x40 MLOAD DUP1 SWAP2 SUB SWAP1 REVERT JUMPDEST PUSH1 0x7 PUSH0 DUP5 PUSH20 0xFFFFFFFFFFFFFFFFFFFFFFFFFFFFFFFFFFFFFFFF AND PUSH20 0xFFFFFFFFFFFFFFFFFFFFFFFFFFFFFFFFFFFFFFFF AND DUP2 MSTORE PUSH1 0x20 ADD SWAP1 DUP2 MSTORE PUSH1 0x20 ADD PUSH0 KECCAK256 PUSH0 SWAP1 SLOAD SWAP1 PUSH2 0x100 EXP SWAP1 DIV PUSH1 0xFF AND PUSH2 0x81C JUMPI PUSH1 0x40 MLOAD PUSH32 0x8C379A000000000000000000000000000000000000000000000000000000000 DUP2 MSTORE PUSH1 0x4 ADD PUSH2 0x813 SWAP1 PUSH2 0x36DB JUMP JUMPDEST PUSH1 0x40 MLOAD DUP1 SWAP2 SUB SWAP1 REVERT JUMPDEST PUSH0 PUSH1 0x5 PUSH0 DUP6 PUSH20 0xFFFFFFFFFFFFFFFFFFFFFFFFFFFFFFFFFFFFFFFF AND PUSH20 0xFFFFFFFFFFFFFFFFFFFFFFFFFFFFFFFFFFFFFFFF AND DUP2 MSTORE PUSH1 0x20 ADD SWAP1 DUP2 MSTORE PUSH1 0x20 ADD PUSH0 KECCAK256 SLOAD SWAP1 POP PUSH0 DUP6 PUSH2 0x89E JUMPI PUSH1 0x40 MLOAD DUP1 PUSH1 0x40 ADD PUSH1 0x40 MSTORE DUP1 PUSH1 0xA DUP2 MSTORE PUSH1 0x20 ADD PUSH32 0x506861726D616369737400000000000000000000000000000000000000000000 DUP2 MSTORE POP PUSH2 0x8D5 JUMP JUMPDEST PUSH1 0x40 MLOAD DUP1 PUSH1 0x40 ADD PUSH1 0x40 MSTORE DUP1 PUSH1 0x5 DUP2 MSTORE PUSH1 0x20 ADD PUSH32 0x4E75727365000000000000000000000000000000000000000000000000000000 DUP2 MSTORE POP JUMPDEST SWAP1 POP DUP1 PUSH1 0x40 MLOAD PUSH1 0x20 ADD PUSH2 0x8E8 SWAP2 SWAP1 PUSH2 0x3729 JUMP JUMPDEST PUSH1 0x40 MLOAD PUSH1 0x20 DUP2 DUP4 SUB SUB DUP2 MSTORE SWAP1 PUSH1 0x40 MSTORE DUP1 MLOAD SWAP1 PUSH1 0x20 ADD KECCAK256 PUSH1 0x1 DUP4 DUP2 SLOAD DUP2 LT PUSH2 0x912 JUMPI PUSH2 0x911 PUSH2 0x32A0 JUMP JUMPDEST JUMPDEST SWAP1 PUSH0 MSTORE PUSH1 0x20 PUSH0 KECCAK256 SWAP1 PUSH1 0x3 MUL ADD PUSH1 0x2 ADD PUSH1 0x40 MLOAD PUSH1 0x20 ADD PUSH2 0x931 SWAP2 SWAP1 PUSH2 0x335F JUMP JUMPDEST PUSH1 0x40 MLOAD PUSH1 0x20 DUP2 DUP4 SUB SUB DUP2 MSTORE SWAP1 PUSH1 0x40 MSTORE DUP1 MLOAD SWAP1 PUSH1 0x20 ADD KECCAK256 EQ PUSH2 0x987 JUMPI PUSH1 0x40 MLOAD PUSH32 0x8C379A000000000000000000000000000000000000000000000000000000000 DUP2 MSTORE PUSH1 0x4 ADD PUSH2 0x97E SWAP1 PUSH2 0x3789 JUMP JUMPDEST PUSH1 0x40 MLOAD DUP1 SWAP2 SUB SWAP1 REVERT JUMPDEST DUP9 PUSH0 DUP5 DUP2 SLOAD DUP2 LT PUSH2 0x99B JUMPI PUSH2 0x99A PUSH2 0x32A0 JUMP JUMPDEST JUMPDEST SWAP1 PUSH0 MSTORE PUSH1 0x20 PUSH0 KECCAK256 SWAP1 PUSH1 0x9 MUL ADD PUSH1 0x5 ADD SWAP1 DUP2 PUSH2 0x9B6 SWAP2 SWAP1 PUSH2 0x3932 JUMP JUMPDEST POP DUP6 PUSH0 DUP5 DUP2 SLOAD DUP2 LT PUSH2 0x9CB JUMPI PUSH2 0x9CA PUSH2 0x32A0 JUMP JUMPDEST JUMPDEST SWAP1 PUSH0 MSTORE PUSH1 0x20 PUSH0 KECCAK256 SWAP1 PUSH1 0x9 MUL ADD PUSH1 0x8 ADD PUSH0 PUSH2 0x100 EXP DUP2 SLOAD DUP2 PUSH1 0xFF MUL NOT AND SWAP1 DUP4 ISZERO ISZERO MUL OR SWAP1 SSTORE POP PUSH0 DUP1 DUP5 DUP2 SLOAD DUP2 LT PUSH2 0xA04 JUMPI PUSH2 0xA03 PUSH2 0x32A0 JUMP JUMPDEST JUMPDEST SWAP1 PUSH0 MSTORE PUSH1 0x20 PUSH0 KECCAK256 SWAP1 PUSH1 0x9 MUL ADD PUSH1 0x6 ADD DUP2 SWAP1 SSTORE POP PUSH0 DUP1 DUP5 DUP2 SLOAD DUP2 LT PUSH2 0xA2B JUMPI PUSH2 0xA2A PUSH2 0x32A0 JUMP JUMPDEST JUMPDEST SWAP1 PUSH0 MSTORE PUSH1 0x20 PUSH0 KECCAK256 SWAP1 PUSH1 0x9 MUL ADD PUSH1 0x7 ADD DUP2 SWAP1 SSTORE POP PUSH0 PUSH1 0x40 MLOAD DUP1 PUSH1 0xA0 ADD PUSH1 0x40 MSTORE DUP1 PUSH0 DUP7 DUP2 SLOAD DUP2 LT PUSH2 0xA5D JUMPI PUSH2 0xA5C PUSH2 0x32A0 JUMP JUMPDEST JUMPDEST SWAP1 PUSH0 MSTORE PUSH1 0x20 PUSH0 KECCAK256 SWAP1 PUSH1 0x9 MUL ADD PUSH1 0x1 ADD DUP1 SLOAD PUSH2 0xA77 SWAP1 PUSH2 0x317A JUMP JUMPDEST DUP1 PUSH1 0x1F ADD PUSH1 0x20 DUP1 SWAP2 DIV MUL PUSH1 0x20 ADD PUSH1 0x40 MLOAD SWAP1 DUP2 ADD PUSH1 0x40 MSTORE DUP1 SWAP3 SWAP2 SWAP1 DUP2 DUP2 MSTORE PUSH1 0x20 ADD DUP3 DUP1 SLOAD PUSH2 0xAA3 SWAP1 PUSH2 0x317A JUMP JUMPDEST DUP1 ISZERO PUSH2 0xAEE JUMPI DUP1 PUSH1 0x1F LT PUSH2 0xAC5 JUMPI PUSH2 0x100 DUP1 DUP4 SLOAD DIV MUL DUP4 MSTORE SWAP2 PUSH1 0x20 ADD SWAP2 PUSH2 0xAEE JUMP JUMPDEST DUP3 ADD SWAP2 SWAP1 PUSH0 MSTORE PUSH1 0x20 PUSH0 KECCAK256 SWAP1 JUMPDEST DUP2 SLOAD DUP2 MSTORE SWAP1 PUSH1 0x1 ADD SWAP1 PUSH1 0x20 ADD DUP1 DUP4 GT PUSH2 0xAD1 JUMPI DUP3 SWAP1 SUB PUSH1 0x1F AND DUP3 ADD SWAP2 JUMPDEST POP POP POP POP POP DUP2 MSTORE PUSH1 0x20 ADD DUP13 DUP2 MSTORE PUSH1 0x20 ADD DUP11 DUP2 MSTORE PUSH1 0x20 ADD DUP8 PUSH20 0xFFFFFFFFFFFFFFFFFFFFFFFFFFFFFFFFFFFFFFFF AND DUP2 MSTORE PUSH1 0x20 ADD TIMESTAMP DUP2 MSTORE POP SWAP1 POP PUSH1 0x2 DUP2 SWAP1 DUP1 PUSH1 0x1 DUP2 SLOAD ADD DUP1 DUP3 SSTORE DUP1 SWAP2 POP POP PUSH1 0x1 SWAP1 SUB SWAP1 PUSH0 MSTORE PUSH1 0x20 PUSH0 KECCAK256 SWAP1 PUSH1 0x5 MUL ADD PUSH0 SWAP1 SWAP2 SWAP1 SWAP2 SWAP1 SWAP2 POP PUSH0 DUP3 ADD MLOAD DUP2 PUSH0 ADD SWAP1 DUP2 PUSH2 0xB62 SWAP2 SWAP1 PUSH2 0x3932 JUMP JUMPDEST POP PUSH1 0x20 DUP3 ADD MLOAD DUP2 PUSH1 0x1 ADD SSTORE PUSH1 0x40 DUP3 ADD MLOAD DUP2 PUSH1 0x2 ADD SWAP1 DUP2 PUSH2 0xB82 SWAP2 SWAP1 PUSH2 0x3932 JUMP JUMPDEST POP PUSH1 0x60 DUP3 ADD MLOAD DUP2 PUSH1 0x3 ADD PUSH0 PUSH2 0x100 EXP DUP2 SLOAD DUP2 PUSH20 0xFFFFFFFFFFFFFFFFFFFFFFFFFFFFFFFFFFFFFFFF MUL NOT AND SWAP1 DUP4 PUSH20 0xFFFFFFFFFFFFFFFFFFFFFFFFFFFFFFFFFFFFFFFF AND MUL OR SWAP1 SSTORE POP PUSH1 0x80 DUP3 ADD MLOAD DUP2 PUSH1 0x4 ADD SSTORE POP POP PUSH0 DUP5 DUP2 SLOAD DUP2 LT PUSH2 0xBE8 JUMPI PUSH2 0xBE7 PUSH2 0x32A0 JUMP JUMPDEST JUMPDEST SWAP1 PUSH0 MSTORE PUSH1 0x20 PUSH0 KECCAK256 SWAP1 PUSH1 0x9 MUL ADD PUSH0 ADD PUSH0 SWAP1 SLOAD SWAP1 PUSH2 0x100 EXP SWAP1 DIV PUSH20 0xFFFFFFFFFFFFFFFFFFFFFFFFFFFFFFFFFFFFFFFF AND PUSH20 0xFFFFFFFFFFFFFFFFFFFFFFFFFFFFFFFFFFFFFFFF AND PUSH32 0x496728C3966D39323F4B0F6F4A7A5E1F1CBBC87338B4A1D5942049E331AE2817 DUP12 PUSH1 0x40 MLOAD PUSH2 0xC5B SWAP2 SWAP1 PUSH2 0x3A01 JUMP JUMPDEST PUSH1 0x40 MLOAD DUP1 SWAP2 SUB SWAP1 LOG2 DUP6 PUSH20 0xFFFFFFFFFFFFFFFFFFFFFFFFFFFFFFFFFFFFFFFF AND PUSH0 DUP6 DUP2 SLOAD DUP2 LT PUSH2 0xC8D JUMPI PUSH2 0xC8C PUSH2 0x32A0 JUMP JUMPDEST JUMPDEST SWAP1 PUSH0 MSTORE PUSH1 0x20 PUSH0 KECCAK256 SWAP1 PUSH1 0x9 MUL ADD PUSH0 ADD PUSH0 SWAP1 SLOAD SWAP1 PUSH2 0x100 EXP SWAP1 DIV PUSH20 0xFFFFFFFFFFFFFFFFFFFFFFFFFFFFFFFFFFFFFFFF AND PUSH20 0xFFFFFFFFFFFFFFFFFFFFFFFFFFFFFFFFFFFFFFFF AND PUSH32 0x4F3E584412B404B8EA3E8AE1652DF00170EB8B52474DECE1592ACFFD5D771443 DUP12 PUSH1 0x40 MLOAD PUSH2 0xD00 SWAP2 SWAP1 PUSH2 0x3A01 JUMP JUMPDEST PUSH1 0x40 MLOAD DUP1 SWAP2 SUB SWAP1 LOG3 POP POP POP POP POP POP POP POP POP POP POP JUMP JUMPDEST PUSH0 DUP1 DUP1 SLOAD SWAP1 POP SWAP1 POP SWAP1 JUMP JUMPDEST PUSH1 0x6 PUSH0 CALLER PUSH20 0xFFFFFFFFFFFFFFFFFFFFFFFFFFFFFFFFFFFFFFFF AND PUSH20 0xFFFFFFFFFFFFFFFFFFFFFFFFFFFFFFFFFFFFFFFF AND DUP2 MSTORE PUSH1 0x20 ADD SWAP1 DUP2 MSTORE PUSH1 0x20 ADD PUSH0 KECCAK256 PUSH0 SWAP1 SLOAD SWAP1 PUSH2 0x100 EXP SWAP1 DIV PUSH1 0xFF AND PUSH2 0xDA9 JUMPI PUSH1 0x40 MLOAD PUSH32 0x8C379A000000000000000000000000000000000000000000000000000000000 DUP2 MSTORE PUSH1 0x4 ADD PUSH2 0xDA0 SWAP1 PUSH2 0x3A91 JUMP JUMPDEST PUSH1 0x40 MLOAD DUP1 SWAP2 SUB SWAP1 REVERT JUMPDEST PUSH0 PUSH1 0x3 PUSH0 CALLER PUSH20 0xFFFFFFFFFFFFFFFFFFFFFFFFFFFFFFFFFFFFFFFF AND PUSH20 0xFFFFFFFFFFFFFFFFFFFFFFFFFFFFFFFFFFFFFFFF AND DUP2 MSTORE PUSH1 0x20 ADD SWAP1 DUP2 MSTORE PUSH1 0x20 ADD PUSH0 KECCAK256 SLOAD SWAP1 POP PUSH0 PUSH2 0xDF4 CALLER PUSH2 0x26C9 JUMP JUMPDEST SWAP1 POP DUP1 PUSH0 DUP4 DUP2 SLOAD DUP2 LT PUSH2 0xE0A JUMPI PUSH2 0xE09 PUSH2 0x32A0 JUMP JUMPDEST JUMPDEST SWAP1 PUSH0 MSTORE PUSH1 0x20 PUSH0 KECCAK256 SWAP1 PUSH1 0x9 MUL ADD PUSH1 0x6 ADD DUP2 SWAP1 SSTORE POP TIMESTAMP PUSH0 DUP4 DUP2 SLOAD DUP2 LT PUSH2 0xE31 JUMPI PUSH2 0xE30 PUSH2 0x32A0 JUMP JUMPDEST JUMPDEST SWAP1 PUSH0 MSTORE PUSH1 0x20 PUSH0 KECCAK256 SWAP1 PUSH1 0x9 MUL ADD PUSH1 0x7 ADD DUP2 SWAP1 SSTORE POP CALLER PUSH20 0xFFFFFFFFFFFFFFFFFFFFFFFFFFFFFFFFFFFFFFFF AND PUSH32 0x511F82B4A6612092391A59DDBE0940FAEAEF8C62498F9A2E7495AF8770F0EF4F DUP3 PUSH1 0x40 MLOAD PUSH2 0xE8A SWAP2 SWAP1 PUSH2 0x2BCB JUMP JUMPDEST PUSH1 0x40 MLOAD DUP1 SWAP2 SUB SWAP1 LOG2 POP POP JUMP JUMPDEST PUSH1 0x7 PUSH0 CALLER PUSH20 0xFFFFFFFFFFFFFFFFFFFFFFFFFFFFFFFFFFFFFFFF AND PUSH20 0xFFFFFFFFFFFFFFFFFFFFFFFFFFFFFFFFFFFFFFFF AND DUP2 MSTORE PUSH1 0x20 ADD SWAP1 DUP2 MSTORE PUSH1 0x20 ADD PUSH0 KECCAK256 PUSH0 SWAP1 SLOAD SWAP1 PUSH2 0x100 EXP SWAP1 DIV PUSH1 0xFF AND ISZERO PUSH2 0xF20 JUMPI PUSH1 0x40 MLOAD PUSH32 0x8C379A000000000000000000000000000000000000000000000000000000000 DUP2 MSTORE PUSH1 0x4 ADD PUSH2 0xF17 SWAP1 PUSH2 0x3AF9 JUMP JUMPDEST PUSH1 0x40 MLOAD DUP1 SWAP2 SUB SWAP1 REVERT JUMPDEST PUSH0 DUP3 MLOAD GT PUSH2 0xF63 JUMPI PUSH1 0x40 MLOAD PUSH32 0x8C379A000000000000000000000000000000000000000000000000000000000 DUP2 MSTORE PUSH1 0x4 ADD PUSH2 0xF5A SWAP1 PUSH2 0x3B61 JUMP JUMPDEST PUSH1 0x40 MLOAD DUP1 SWAP2 SUB SWAP1 REVERT JUMPDEST PUSH1 0x40 MLOAD PUSH1 0x20 ADD PUSH2 0xF72 SWAP1 PUSH2 0x328C JUMP JUMPDEST PUSH1 0x40 MLOAD PUSH1 0x20 DUP2 DUP4 SUB SUB DUP2 MSTORE SWAP1 PUSH1 0x40 MSTORE DUP1 MLOAD SWAP1 PUSH1 0x20 ADD KECCAK256 DUP2 PUSH1 0x40 MLOAD PUSH1 0x20 ADD PUSH2 0xF99 SWAP2 SWAP1 PUSH2 0x3729 JUMP JUMPDEST PUSH1 0x40 MLOAD PUSH1 0x20 DUP2 DUP4 SUB SUB DUP2 MSTORE SWAP1 PUSH1 0x40 MSTORE DUP1 MLOAD SWAP1 PUSH1 0x20 ADD KECCAK256 EQ DUP1 PUSH2 0x1004 JUMPI POP PUSH1 0x40 MLOAD PUSH1 0x20 ADD PUSH2 0xFC5 SWAP1 PUSH2 0x3BC9 JUMP JUMPDEST PUSH1 0x40 MLOAD PUSH1 0x20 DUP2 DUP4 SUB SUB DUP2 MSTORE SWAP1 PUSH1 0x40 MSTORE DUP1 MLOAD SWAP1 PUSH1 0x20 ADD KECCAK256 DUP2 PUSH1 0x40 MLOAD PUSH1 0x20 ADD PUSH2 0xFEC SWAP2 SWAP1 PUSH2 0x3729 JUMP JUMPDEST PUSH1 0x40 MLOAD PUSH1 0x20 DUP2 DUP4 SUB SUB DUP2 MSTORE SWAP1 PUSH1 0x40 MSTORE DUP1 MLOAD SWAP1 PUSH1 0x20 ADD KECCAK256 EQ JUMPDEST DUP1 PUSH2 0x1058 JUMPI POP PUSH1 0x40 MLOAD PUSH1 0x20 ADD PUSH2 0x1019 SWAP1 PUSH2 0x3C27 JUMP JUMPDEST PUSH1 0x40 MLOAD PUSH1 0x20 DUP2 DUP4 SUB SUB DUP2 MSTORE SWAP1 PUSH1 0x40 MSTORE DUP1 MLOAD SWAP1 PUSH1 0x20 ADD KECCAK256 DUP2 PUSH1 0x40 MLOAD PUSH1 0x20 ADD PUSH2 0x1040 SWAP2 SWAP1 PUSH2 0x3729 JUMP JUMPDEST PUSH1 0x40 MLOAD PUSH1 0x20 DUP2 DUP4 SUB SUB DUP2 MSTORE SWAP1 PUSH1 0x40 MSTORE DUP1 MLOAD SWAP1 PUSH1 0x20 ADD KECCAK256 EQ JUMPDEST PUSH2 0x1097 JUMPI PUSH1 0x40 MLOAD PUSH32 0x8C379A000000000000000000000000000000000000000000000000000000000 DUP2 MSTORE PUSH1 0x4 ADD PUSH2 0x108E SWAP1 PUSH2 0x3CAB JUMP JUMPDEST PUSH1 0x40 MLOAD DUP1 SWAP2 SUB SWAP1 REVERT JUMPDEST PUSH0 PUSH1 0x40 MLOAD DUP1 PUSH1 0x60 ADD PUSH1 0x40 MSTORE DUP1 CALLER PUSH20 0xFFFFFFFFFFFFFFFFFFFFFFFFFFFFFFFFFFFFFFFF AND DUP2 MSTORE PUSH1 0x20 ADD DUP5 DUP2 MSTORE PUSH1 0x20 ADD DUP4 DUP2 MSTORE POP SWAP1 POP PUSH1 0x1 DUP2 SWAP1 DUP1 PUSH1 0x1 DUP2 SLOAD ADD DUP1 DUP3 SSTORE DUP1 SWAP2 POP POP PUSH1 0x1 SWAP1 SUB SWAP1 PUSH0 MSTORE PUSH1 0x20 PUSH0 KECCAK256 SWAP1 PUSH1 0x3 MUL ADD PUSH0 SWAP1 SWAP2 SWAP1 SWAP2 SWAP1 SWAP2 POP PUSH0 DUP3 ADD MLOAD DUP2 PUSH0 ADD PUSH0 PUSH2 0x100 EXP DUP2 SLOAD DUP2 PUSH20 0xFFFFFFFFFFFFFFFFFFFFFFFFFFFFFFFFFFFFFFFF MUL NOT AND SWAP1 DUP4 PUSH20 0xFFFFFFFFFFFFFFFFFFFFFFFFFFFFFFFFFFFFFFFF AND MUL OR SWAP1 SSTORE POP PUSH1 0x20 DUP3 ADD MLOAD DUP2 PUSH1 0x1 ADD SWAP1 DUP2 PUSH2 0x114D SWAP2 SWAP1 PUSH2 0x3932 JUMP JUMPDEST POP PUSH1 0x40 DUP3 ADD MLOAD DUP2 PUSH1 0x2 ADD SWAP1 DUP2 PUSH2 0x1163 SWAP2 SWAP1 PUSH2 0x3932 JUMP JUMPDEST POP POP POP PUSH1 0x1 DUP1 DUP1 SLOAD SWAP1 POP PUSH2 0x1177 SWAP2 SWAP1 PUSH2 0x3CC9 JUMP JUMPDEST PUSH1 0x5 PUSH0 CALLER PUSH20 0xFFFFFFFFFFFFFFFFFFFFFFFFFFFFFFFFFFFFFFFF AND PUSH20 0xFFFFFFFFFFFFFFFFFFFFFFFFFFFFFFFFFFFFFFFF AND DUP2 MSTORE PUSH1 0x20 ADD SWAP1 DUP2 MSTORE PUSH1 0x20 ADD PUSH0 KECCAK256 DUP2 SWAP1 SSTORE POP PUSH1 0x1 PUSH1 0x7 PUSH0 CALLER PUSH20 0xFFFFFFFFFFFFFFFFFFFFFFFFFFFFFFFFFFFFFFFF AND PUSH20 0xFFFFFFFFFFFFFFFFFFFFFFFFFFFFFFFFFFFFFFFF AND DUP2 MSTORE PUSH1 0x20 ADD SWAP1 DUP2 MSTORE PUSH1 0x20 ADD PUSH0 KECCAK256 PUSH0 PUSH2 0x100 EXP DUP2 SLOAD DUP2 PUSH1 0xFF MUL NOT AND SWAP1 DUP4 ISZERO ISZERO MUL OR SWAP1 SSTORE POP CALLER PUSH20 0xFFFFFFFFFFFFFFFFFFFFFFFFFFFFFFFFFFFFFFFF AND PUSH32 0xA030FD4C7D3464E2AB354CC6357D7C2E9B69A215A9FF95D0BEA2DD9DACB592B7 DUP4 PUSH1 0x40 MLOAD PUSH2 0x1253 SWAP2 SWAP1 PUSH2 0x3A01 JUMP JUMPDEST PUSH1 0x40 MLOAD DUP1 SWAP2 SUB SWAP1 LOG2 POP POP POP JUMP JUMPDEST PUSH1 0x6 PUSH0 CALLER PUSH20 0xFFFFFFFFFFFFFFFFFFFFFFFFFFFFFFFFFFFFFFFF AND PUSH20 0xFFFFFFFFFFFFFFFFFFFFFFFFFFFFFFFFFFFFFFFF AND DUP2 MSTORE PUSH1 0x20 ADD SWAP1 DUP2 MSTORE PUSH1 0x20 ADD PUSH0 KECCAK256 PUSH0 SWAP1 SLOAD SWAP1 PUSH2 0x100 EXP SWAP1 DIV PUSH1 0xFF AND PUSH2 0x12E9 JUMPI PUSH1 0x40 MLOAD PUSH32 0x8C379A000000000000000000000000000000000000000000000000000000000 DUP2 MSTORE PUSH1 0x4 ADD PUSH2 0x12E0 SWAP1 PUSH2 0x3A91 JUMP JUMPDEST PUSH1 0x40 MLOAD DUP1 SWAP2 SUB SWAP1 REVERT JUMPDEST PUSH0 PUSH1 0x3 PUSH0 CALLER PUSH20 0xFFFFFFFFFFFFFFFFFFFFFFFFFFFFFFFFFFFFFFFF AND PUSH20 0xFFFFFFFFFFFFFFFFFFFFFFFFFFFFFFFFFFFFFFFF AND DUP2 MSTORE PUSH1 0x20 ADD SWAP1 DUP2 MSTORE PUSH1 0x20 ADD PUSH0 KECCAK256 SLOAD SWAP1 POP PUSH0 DUP1 DUP3 DUP2 SLOAD DUP2 LT PUSH2 0x133E JUMPI PUSH2 0x133D PUSH2 0x32A0 JUMP JUMPDEST JUMPDEST SWAP1 PUSH0 MSTORE PUSH1 0x20 PUSH0 KECCAK256 SWAP1 PUSH1 0x9 MUL ADD PUSH1 0x6 ADD DUP2 SWAP1 SSTORE POP PUSH0 DUP1 DUP3 DUP2 SLOAD DUP2 LT PUSH2 0x1365 JUMPI PUSH2 0x1364 PUSH2 0x32A0 JUMP JUMPDEST JUMPDEST SWAP1 PUSH0 MSTORE PUSH1 0x20 PUSH0 KECCAK256 SWAP1 PUSH1 0x9 MUL ADD PUSH1 0x7 ADD DUP2 SWAP1 SSTORE POP CALLER PUSH20 0xFFFFFFFFFFFFFFFFFFFFFFFFFFFFFFFFFFFFFFFF AND PUSH32 0xDD8F91A332F5654EAC96ADCF2C43C93ED5CFCC4C7694C38F9513D174395BCC66 PUSH1 0x40 MLOAD PUSH1 0x40 MLOAD DUP1 SWAP2 SUB SWAP1 LOG2 POP JUMP JUMPDEST PUSH1 0x6 PUSH0 CALLER PUSH20 0xFFFFFFFFFFFFFFFFFFFFFFFFFFFFFFFFFFFFFFFF AND PUSH20 0xFFFFFFFFFFFFFFFFFFFFFFFFFFFFFFFFFFFFFFFF AND DUP2 MSTORE PUSH1 0x20 ADD SWAP1 DUP2 MSTORE PUSH1 0x20 ADD PUSH0 KECCAK256 PUSH0 SWAP1 SLOAD SWAP1 PUSH2 0x100 EXP SWAP1 DIV PUSH1 0xFF AND ISZERO PUSH2 0x1448 JUMPI PUSH1 0x40 MLOAD PUSH32 0x8C379A000000000000000000000000000000000000000000000000000000000 DUP2 MSTORE PUSH1 0x4 ADD PUSH2 0x143F SWAP1 PUSH2 0x3D46 JUMP JUMPDEST PUSH1 0x40 MLOAD DUP1 SWAP2 SUB SWAP1 REVERT JUMPDEST PUSH0 DUP5 MLOAD GT PUSH2 0x148B JUMPI PUSH1 0x40 MLOAD PUSH32 0x8C379A000000000000000000000000000000000000000000000000000000000 DUP2 MSTORE PUSH1 0x4 ADD PUSH2 0x1482 SWAP1 PUSH2 0x3B61 JUMP JUMPDEST PUSH1 0x40 MLOAD DUP1 SWAP2 SUB SWAP1 REVERT JUMPDEST PUSH3 0x186A0 DUP4 LT ISZERO DUP1 ISZERO PUSH2 0x14A1 JUMPI POP PUSH3 0xF423F DUP4 GT ISZERO JUMPDEST PUSH2 0x14E0 JUMPI PUSH1 0x40 MLOAD PUSH32 0x8C379A000000000000000000000000000000000000000000000000000000000 DUP2 MSTORE PUSH1 0x4 ADD PUSH2 0x14D7 SWAP1 PUSH2 0x3DAE JUMP JUMPDEST PUSH1 0x40 MLOAD DUP1 SWAP2 SUB SWAP1 REVERT JUMPDEST TIMESTAMP DUP3 GT ISZERO PUSH2 0x1523 JUMPI PUSH1 0x40 MLOAD PUSH32 0x8C379A000000000000000000000000000000000000000000000000000000000 DUP2 MSTORE PUSH1 0x4 ADD PUSH2 0x151A SWAP1 PUSH2 0x3E16 JUMP JUMPDEST PUSH1 0x40 MLOAD DUP1 SWAP2 SUB SWAP1 REVERT JUMPDEST PUSH0 PUSH1 0x4 PUSH0 DUP6 DUP2 MSTORE PUSH1 0x20 ADD SWAP1 DUP2 MSTORE PUSH1 0x20 ADD PUSH0 KECCAK256 SLOAD EQ DUP1 ISZERO PUSH2 0x1546 JUMPI POP PUSH0 DUP1 DUP1 SLOAD SWAP1 POP EQ JUMPDEST DUP1 PUSH2 0x1561 JUMPI POP PUSH0 PUSH1 0x4 PUSH0 DUP6 DUP2 MSTORE PUSH1 0x20 ADD SWAP1 DUP2 MSTORE PUSH1 0x20 ADD PUSH0 KECCAK256 SLOAD EQ JUMPDEST PUSH2 0x15A0 JUMPI PUSH1 0x40 MLOAD PUSH32 0x8C379A000000000000000000000000000000000000000000000000000000000 DUP2 MSTORE PUSH1 0x4 ADD PUSH2 0x1597 SWAP1 PUSH2 0x3E7E JUMP JUMPDEST PUSH1 0x40 MLOAD DUP1 SWAP2 SUB SWAP1 REVERT JUMPDEST PUSH0 PUSH2 0x15AA CALLER PUSH2 0x26C9 JUMP JUMPDEST SWAP1 POP PUSH0 PUSH1 0x40 MLOAD DUP1 PUSH2 0x120 ADD PUSH1 0x40 MSTORE DUP1 CALLER PUSH20 0xFFFFFFFFFFFFFFFFFFFFFFFFFFFFFFFFFFFFFFFF AND DUP2 MSTORE PUSH1 0x20 ADD DUP8 DUP2 MSTORE PUSH1 0x20 ADD DUP7 DUP2 MSTORE PUSH1 0x20 ADD DUP6 DUP2 MSTORE PUSH1 0x20 ADD DUP5 DUP2 MSTORE PUSH1 0x20 ADD PUSH1 0x40 MLOAD DUP1 PUSH1 0x20 ADD PUSH1 0x40 MSTORE DUP1 PUSH0 DUP2 MSTORE POP DUP2 MSTORE PUSH1 0x20 ADD DUP4 DUP2 MSTORE PUSH1 0x20 ADD TIMESTAMP DUP2 MSTORE PUSH1 0x20 ADD PUSH0 ISZERO ISZERO DUP2 MSTORE POP SWAP1 POP PUSH0 DUP2 SWAP1 DUP1 PUSH1 0x1 DUP2 SLOAD ADD DUP1 DUP3 SSTORE DUP1 SWAP2 POP POP PUSH1 0x1 SWAP1 SUB SWAP1 PUSH0 MSTORE PUSH1 0x20 PUSH0 KECCAK256 SWAP1 PUSH1 0x9 MUL ADD PUSH0 SWAP1 SWAP2 SWAP1 SWAP2 SWAP1 SWAP2 POP PUSH0 DUP3 ADD MLOAD DUP2 PUSH0 ADD PUSH0 PUSH2 0x100 EXP DUP2 SLOAD DUP2 PUSH20 0xFFFFFFFFFFFFFFFFFFFFFFFFFFFFFFFFFFFFFFFF MUL NOT AND SWAP1 DUP4 PUSH20 0xFFFFFFFFFFFFFFFFFFFFFFFFFFFFFFFFFFFFFFFF AND MUL OR SWAP1 SSTORE POP PUSH1 0x20 DUP3 ADD MLOAD DUP2 PUSH1 0x1 ADD SWAP1 DUP2 PUSH2 0x1696 SWAP2 SWAP1 PUSH2 0x3932 JUMP JUMPDEST POP PUSH1 0x40 DUP3 ADD MLOAD DUP2 PUSH1 0x2 ADD SSTORE PUSH1 0x60 DUP3 ADD MLOAD DUP2 PUSH1 0x3 ADD SSTORE PUSH1 0x80 DUP3 ADD MLOAD DUP2 PUSH1 0x4 ADD SWAP1 DUP2 PUSH2 0x16C0 SWAP2 SWAP1 PUSH2 0x3932 JUMP JUMPDEST POP PUSH1 0xA0 DUP3 ADD MLOAD DUP2 PUSH1 0x5 ADD SWAP1 DUP2 PUSH2 0x16D6 SWAP2 SWAP1 PUSH2 0x3932 JUMP JUMPDEST POP PUSH1 0xC0 DUP3 ADD MLOAD DUP2 PUSH1 0x6 ADD SSTORE PUSH1 0xE0 DUP3 ADD MLOAD DUP2 PUSH1 0x7 ADD SSTORE PUSH2 0x100 DUP3 ADD MLOAD DUP2 PUSH1 0x8 ADD PUSH0 PUSH2 0x100 EXP DUP2 SLOAD DUP2 PUSH1 0xFF MUL NOT AND SWAP1 DUP4 ISZERO ISZERO MUL OR SWAP1 SSTORE POP POP POP PUSH1 0x1 PUSH0 DUP1 SLOAD SWAP1 POP PUSH2 0x171E SWAP2 SWAP1 PUSH2 0x3CC9 JUMP JUMPDEST PUSH1 0x3 PUSH0 CALLER PUSH20 0xFFFFFFFFFFFFFFFFFFFFFFFFFFFFFFFFFFFFFFFF AND PUSH20 0xFFFFFFFFFFFFFFFFFFFFFFFFFFFFFFFFFFFFFFFF AND DUP2 MSTORE PUSH1 0x20 ADD SWAP1 DUP2 MSTORE PUSH1 0x20 ADD PUSH0 KECCAK256 DUP2 SWAP1 SSTORE POP PUSH1 0x1 PUSH0 DUP1 SLOAD SWAP1 POP PUSH2 0x1770 SWAP2 SWAP1 PUSH2 0x3CC9 JUMP JUMPDEST PUSH1 0x4 PUSH0 DUP8 DUP2 MSTORE PUSH1 0x20 ADD SWAP1 DUP2 MSTORE PUSH1 0x20 ADD PUSH0 KECCAK256 DUP2 SWAP1 SSTORE POP PUSH1 0x1 PUSH1 0x6 PUSH0 CALLER PUSH20 0xFFFFFFFFFFFFFFFFFFFFFFFFFFFFFFFFFFFFFFFF AND PUSH20 0xFFFFFFFFFFFFFFFFFFFFFFFFFFFFFFFFFFFFFFFF AND DUP2 MSTORE PUSH1 0x20 ADD SWAP1 DUP2 MSTORE PUSH1 0x20 ADD PUSH0 KECCAK256 PUSH0 PUSH2 0x100 EXP DUP2 SLOAD DUP2 PUSH1 0xFF MUL NOT AND SWAP1 DUP4 ISZERO ISZERO MUL OR SWAP1 SSTORE POP CALLER PUSH20 0xFFFFFFFFFFFFFFFFFFFFFFFFFFFFFFFFFFFFFFFF AND PUSH32 0xF6557C3F758ABA81A6954691EB0B4408D0E837B55D6FA550B1576E6292A9106C DUP7 PUSH1 0x40 MLOAD PUSH2 0x1820 SWAP2 SWAP1 PUSH2 0x2BCB JUMP JUMPDEST PUSH1 0x40 MLOAD DUP1 SWAP2 SUB SWAP1 LOG2 CALLER PUSH20 0xFFFFFFFFFFFFFFFFFFFFFFFFFFFFFFFFFFFFFFFF AND PUSH32 0x511F82B4A6612092391A59DDBE0940FAEAEF8C62498F9A2E7495AF8770F0EF4F DUP4 PUSH1 0x40 MLOAD PUSH2 0x186E SWAP2 SWAP1 PUSH2 0x2BCB JUMP JUMPDEST PUSH1 0x40 MLOAD DUP1 SWAP2 SUB SWAP1 LOG2 POP POP POP POP POP POP JUMP JUMPDEST PUSH1 0x60 PUSH0 DUP1 PUSH1 0x60 DUP1 PUSH0 DUP1 PUSH1 0x6 PUSH0 DUP10 PUSH20 0xFFFFFFFFFFFFFFFFFFFFFFFFFFFFFFFFFFFFFFFF AND PUSH20 0xFFFFFFFFFFFFFFFFFFFFFFFFFFFFFFFFFFFFFFFF AND DUP2 MSTORE PUSH1 0x20 ADD SWAP1 DUP2 MSTORE PUSH1 0x20 ADD PUSH0 KECCAK256 PUSH0 SWAP1 SLOAD SWAP1 PUSH2 0x100 EXP SWAP1 DIV PUSH1 0xFF AND PUSH2 0x1910 JUMPI PUSH1 0x40 MLOAD PUSH32 0x8C379A000000000000000000000000000000000000000000000000000000000 DUP2 MSTORE PUSH1 0x4 ADD PUSH2 0x1907 SWAP1 PUSH2 0x3EE6 JUMP JUMPDEST PUSH1 0x40 MLOAD DUP1 SWAP2 SUB SWAP1 REVERT JUMPDEST PUSH0 PUSH1 0x3 PUSH0 DUP11 PUSH20 0xFFFFFFFFFFFFFFFFFFFFFFFFFFFFFFFFFFFFFFFF AND PUSH20 0xFFFFFFFFFFFFFFFFFFFFFFFFFFFFFFFFFFFFFFFF AND DUP2 MSTORE PUSH1 0x20 ADD SWAP1 DUP2 MSTORE PUSH1 0x20 ADD PUSH0 KECCAK256 SLOAD SWAP1 POP PUSH0 DUP1 DUP3 DUP2 SLOAD DUP2 LT PUSH2 0x1965 JUMPI PUSH2 0x1964 PUSH2 0x32A0 JUMP JUMPDEST JUMPDEST SWAP1 PUSH0 MSTORE PUSH1 0x20 PUSH0 KECCAK256 SWAP1 PUSH1 0x9 MUL ADD PUSH1 0x40 MLOAD DUP1 PUSH2 0x120 ADD PUSH1 0x40 MSTORE SWAP1 DUP2 PUSH0 DUP3 ADD PUSH0 SWAP1 SLOAD SWAP1 PUSH2 0x100 EXP SWAP1 DIV PUSH20 0xFFFFFFFFFFFFFFFFFFFFFFFFFFFFFFFFFFFFFFFF AND PUSH20 0xFFFFFFFFFFFFFFFFFFFFFFFFFFFFFFFFFFFFFFFF AND PUSH20 0xFFFFFFFFFFFFFFFFFFFFFFFFFFFFFFFFFFFFFFFF AND DUP2 MSTORE PUSH1 0x20 ADD PUSH1 0x1 DUP3 ADD DUP1 SLOAD PUSH2 0x19E1 SWAP1 PUSH2 0x317A JUMP JUMPDEST DUP1 PUSH1 0x1F ADD PUSH1 0x20 DUP1 SWAP2 DIV MUL PUSH1 0x20 ADD PUSH1 0x40 MLOAD SWAP1 DUP2 ADD PUSH1 0x40 MSTORE DUP1 SWAP3 SWAP2 SWAP1 DUP2 DUP2 MSTORE PUSH1 0x20 ADD DUP3 DUP1 SLOAD PUSH2 0x1A0D SWAP1 PUSH2 0x317A JUMP JUMPDEST DUP1 ISZERO PUSH2 0x1A58 JUMPI DUP1 PUSH1 0x1F LT PUSH2 0x1A2F JUMPI PUSH2 0x100 DUP1 DUP4 SLOAD DIV MUL DUP4 MSTORE SWAP2 PUSH1 0x20 ADD SWAP2 PUSH2 0x1A58 JUMP JUMPDEST DUP3 ADD SWAP2 SWAP1 PUSH0 MSTORE PUSH1 0x20 PUSH0 KECCAK256 SWAP1 JUMPDEST DUP2 SLOAD DUP2 MSTORE SWAP1 PUSH1 0x1 ADD SWAP1 PUSH1 0x20 ADD DUP1 DUP4 GT PUSH2 0x1A3B JUMPI DUP3 SWAP1 SUB PUSH1 0x1F AND DUP3 ADD SWAP2 JUMPDEST POP POP POP POP POP DUP2 MSTORE PUSH1 0x20 ADD PUSH1 0x2 DUP3 ADD SLOAD DUP2 MSTORE PUSH1 0x20 ADD PUSH1 0x3 DUP3 ADD SLOAD DUP2 MSTORE PUSH1 0x20 ADD PUSH1 0x4 DUP3 ADD DUP1 SLOAD PUSH2 0x1A85 SWAP1 PUSH2 0x317A JUMP JUMPDEST DUP1 PUSH1 0x1F ADD PUSH1 0x20 DUP1 SWAP2 DIV MUL PUSH1 0x20 ADD PUSH1 0x40 MLOAD SWAP1 DUP2 ADD PUSH1 0x40 MSTORE DUP1 SWAP3 SWAP2 SWAP1 DUP2 DUP2 MSTORE PUSH1 0x20 ADD DUP3 DUP1 SLOAD PUSH2 0x1AB1 SWAP1 PUSH2 0x317A JUMP JUMPDEST DUP1 ISZERO PUSH2 0x1AFC JUMPI DUP1 PUSH1 0x1F LT PUSH2 0x1AD3 JUMPI PUSH2 0x100 DUP1 DUP4 SLOAD DIV MUL DUP4 MSTORE SWAP2 PUSH1 0x20 ADD SWAP2 PUSH2 0x1AFC JUMP JUMPDEST DUP3 ADD SWAP2 SWAP1 PUSH0 MSTORE PUSH1 0x20 PUSH0 KECCAK256 SWAP1 JUMPDEST DUP2 SLOAD DUP2 MSTORE SWAP1 PUSH1 0x1 ADD SWAP1 PUSH1 0x20 ADD DUP1 DUP4 GT PUSH2 0x1ADF JUMPI DUP3 SWAP1 SUB PUSH1 0x1F AND DUP3 ADD SWAP2 JUMPDEST POP POP POP POP POP DUP2 MSTORE PUSH1 0x20 ADD PUSH1 0x5 DUP3 ADD DUP1 SLOAD PUSH2 0x1B15 SWAP1 PUSH2 0x317A JUMP JUMPDEST DUP1 PUSH1 0x1F ADD PUSH1 0x20 DUP1 SWAP2 DIV MUL PUSH1 0x20 ADD PUSH1 0x40 MLOAD SWAP1 DUP2 ADD PUSH1 0x40 MSTORE DUP1 SWAP3 SWAP2 SWAP1 DUP2 DUP2 MSTORE PUSH1 0x20 ADD DUP3 DUP1 SLOAD PUSH2 0x1B41 SWAP1 PUSH2 0x317A JUMP JUMPDEST DUP1 ISZERO PUSH2 0x1B8C JUMPI DUP1 PUSH1 0x1F LT PUSH2 0x1B63 JUMPI PUSH2 0x100 DUP1 DUP4 SLOAD DIV MUL DUP4 MSTORE SWAP2 PUSH1 0x20 ADD SWAP2 PUSH2 0x1B8C JUMP JUMPDEST DUP3 ADD SWAP2 SWAP1 PUSH0 MSTORE PUSH1 0x20 PUSH0 KECCAK256 SWAP1 JUMPDEST DUP2 SLOAD DUP2 MSTORE SWAP1 PUSH1 0x1 ADD SWAP1 PUSH1 0x20 ADD DUP1 DUP4 GT PUSH2 0x1B6F JUMPI DUP3 SWAP1 SUB PUSH1 0x1F AND DUP3 ADD SWAP2 JUMPDEST POP POP POP POP POP DUP2 MSTORE PUSH1 0x20 ADD PUSH1 0x6 DUP3 ADD SLOAD DUP2 MSTORE PUSH1 0x20 ADD PUSH1 0x7 DUP3 ADD SLOAD DUP2 MSTORE PUSH1 0x20 ADD PUSH1 0x8 DUP3 ADD PUSH0 SWAP1 SLOAD SWAP1 PUSH2 0x100 EXP SWAP1 DIV PUSH1 0xFF AND ISZERO ISZERO ISZERO ISZERO DUP2 MSTORE POP POP SWAP1 POP PUSH0 DUP11 PUSH20 0xFFFFFFFFFFFFFFFFFFFFFFFFFFFFFFFFFFFFFFFF AND CALLER PUSH20 0xFFFFFFFFFFFFFFFFFFFFFFFFFFFFFFFFFFFFFFFF AND EQ DUP1 ISZERO PUSH2 0x1C12 JUMPI POP PUSH2 0x708 DUP3 PUSH1 0xE0 ADD MLOAD PUSH2 0x1C0E SWAP2 SWAP1 PUSH2 0x3500 JUMP JUMPDEST TIMESTAMP GT ISZERO JUMPDEST PUSH2 0x1C1C JUMPI PUSH0 PUSH2 0x1C22 JUMP JUMPDEST DUP2 PUSH1 0xC0 ADD MLOAD JUMPDEST SWAP1 POP DUP2 PUSH1 0x20 ADD MLOAD DUP3 PUSH1 0x40 ADD MLOAD DUP4 PUSH1 0x60 ADD MLOAD DUP5 PUSH1 0x80 ADD MLOAD DUP6 PUSH1 0xA0 ADD MLOAD DUP6 DUP8 PUSH2 0x100 ADD MLOAD SWAP10 POP SWAP10 POP SWAP10 POP SWAP10 POP SWAP10 POP SWAP10 POP SWAP10 POP POP POP POP SWAP2 SWAP4 SWAP6 SWAP8 SWAP1 SWAP3 SWAP5 SWAP7 POP JUMP JUMPDEST PUSH0 PUSH1 0x1 DUP1 SLOAD SWAP1 POP SWAP1 POP SWAP1 JUMP JUMPDEST PUSH0 PUSH1 0x7 PUSH0 DUP4 PUSH20 0xFFFFFFFFFFFFFFFFFFFFFFFFFFFFFFFFFFFFFFFF AND PUSH20 0xFFFFFFFFFFFFFFFFFFFFFFFFFFFFFFFFFFFFFFFF AND DUP2 MSTORE PUSH1 0x20 ADD SWAP1 DUP2 MSTORE PUSH1 0x20 ADD PUSH0 KECCAK256 PUSH0 SWAP1 SLOAD SWAP1 PUSH2 0x100 EXP SWAP1 DIV PUSH1 0xFF AND PUSH2 0x1CF6 JUMPI PUSH1 0x40 MLOAD PUSH32 0x8C379A000000000000000000000000000000000000000000000000000000000 DUP2 MSTORE PUSH1 0x4 ADD PUSH2 0x1CED SWAP1 PUSH2 0x3F4E JUMP JUMPDEST PUSH1 0x40 MLOAD DUP1 SWAP2 SUB SWAP1 REVERT JUMPDEST PUSH0 DUP1 JUMPDEST PUSH1 0x2 DUP1 SLOAD SWAP1 POP DUP2 LT ISZERO PUSH2 0x1D97 JUMPI DUP4 PUSH20 0xFFFFFFFFFFFFFFFFFFFFFFFFFFFFFFFFFFFFFFFF AND PUSH1 0x2 DUP3 DUP2 SLOAD DUP2 LT PUSH2 0x1D31 JUMPI PUSH2 0x1D30 PUSH2 0x32A0 JUMP JUMPDEST JUMPDEST SWAP1 PUSH0 MSTORE PUSH1 0x20 PUSH0 KECCAK256 SWAP1 PUSH1 0x5 MUL ADD PUSH1 0x3 ADD PUSH0 SWAP1 SLOAD SWAP1 PUSH2 0x100 EXP SWAP1 DIV PUSH20 0xFFFFFFFFFFFFFFFFFFFFFFFFFFFFFFFFFFFFFFFF AND PUSH20 0xFFFFFFFFFFFFFFFFFFFFFFFFFFFFFFFFFFFFFFFF AND SUB PUSH2 0x1D8A JUMPI DUP2 DUP1 PUSH2 0x1D86 SWAP1 PUSH2 0x3F6C JUMP JUMPDEST SWAP3 POP POP JUMPDEST DUP1 DUP1 PUSH1 0x1 ADD SWAP2 POP POP PUSH2 0x1CF9 JUMP JUMPDEST POP DUP1 SWAP2 POP POP SWAP2 SWAP1 POP JUMP JUMPDEST PUSH1 0x60 DUP1 PUSH1 0x7 PUSH0 DUP5 PUSH20 0xFFFFFFFFFFFFFFFFFFFFFFFFFFFFFFFFFFFFFFFF AND PUSH20 0xFFFFFFFFFFFFFFFFFFFFFFFFFFFFFFFFFFFFFFFF AND DUP2 MSTORE PUSH1 0x20 ADD SWAP1 DUP2 MSTORE PUSH1 0x20 ADD PUSH0 KECCAK256 PUSH0 SWAP1 SLOAD SWAP1 PUSH2 0x100 EXP SWAP1 DIV PUSH1 0xFF AND PUSH2 0x1E2D JUMPI PUSH1 0x40 MLOAD PUSH32 0x8C379A000000000000000000000000000000000000000000000000000000000 DUP2 MSTORE PUSH1 0x4 ADD PUSH2 0x1E24 SWAP1 PUSH2 0x3FFD JUMP JUMPDEST PUSH1 0x40 MLOAD DUP1 SWAP2 SUB SWAP1 REVERT JUMPDEST PUSH0 PUSH1 0x5 PUSH0 DUP6 PUSH20 0xFFFFFFFFFFFFFFFFFFFFFFFFFFFFFFFFFFFFFFFF AND PUSH20 0xFFFFFFFFFFFFFFFFFFFFFFFFFFFFFFFFFFFFFFFF AND DUP2 MSTORE PUSH1 0x20 ADD SWAP1 DUP2 MSTORE PUSH1 0x20 ADD PUSH0 KECCAK256 SLOAD SWAP1 POP PUSH0 PUSH1 0x1 DUP3 DUP2 SLOAD DUP2 LT PUSH2 0x1E83 JUMPI PUSH2 0x1E82 PUSH2 0x32A0 JUMP JUMPDEST JUMPDEST SWAP1 PUSH0 MSTORE PUSH1 0x20 PUSH0 KECCAK256 SWAP1 PUSH1 0x3 MUL ADD PUSH1 0x40 MLOAD DUP1 PUSH1 0x60 ADD PUSH1 0x40 MSTORE SWAP1 DUP2 PUSH0 DUP3 ADD PUSH0 SWAP1 SLOAD SWAP1 PUSH2 0x100 EXP SWAP1 DIV PUSH20 0xFFFFFFFFFFFFFFFFFFFFFFFFFFFFFFFFFFFFFFFF AND PUSH20 0xFFFFFFFFFFFFFFFFFFFFFFFFFFFFFFFFFFFFFFFF AND PUSH20 0xFFFFFFFFFFFFFFFFFFFFFFFFFFFFFFFFFFFFFFFF AND DUP2 MSTORE PUSH1 0x20 ADD PUSH1 0x1 DUP3 ADD DUP1 SLOAD PUSH2 0x1EFE SWAP1 PUSH2 0x317A JUMP JUMPDEST DUP1 PUSH1 0x1F ADD PUSH1 0x20 DUP1 SWAP2 DIV MUL PUSH1 0x20 ADD PUSH1 0x40 MLOAD SWAP1 DUP2 ADD PUSH1 0x40 MSTORE DUP1 SWAP3 SWAP2 SWAP1 DUP2 DUP2 MSTORE PUSH1 0x20 ADD DUP3 DUP1 SLOAD PUSH2 0x1F2A SWAP1 PUSH2 0x317A JUMP JUMPDEST DUP1 ISZERO PUSH2 0x1F75 JUMPI DUP1 PUSH1 0x1F LT PUSH2 0x1F4C JUMPI PUSH2 0x100 DUP1 DUP4 SLOAD DIV MUL DUP4 MSTORE SWAP2 PUSH1 0x20 ADD SWAP2 PUSH2 0x1F75 JUMP JUMPDEST DUP3 ADD SWAP2 SWAP1 PUSH0 MSTORE PUSH1 0x20 PUSH0 KECCAK256 SWAP1 JUMPDEST DUP2 SLOAD DUP2 MSTORE SWAP1 PUSH1 0x1 ADD SWAP1 PUSH1 0x20 ADD DUP1 DUP4 GT PUSH2 0x1F58 JUMPI DUP3 SWAP1 SUB PUSH1 0x1F AND DUP3 ADD SWAP2 JUMPDEST POP POP POP POP POP DUP2 MSTORE PUSH1 0x20 ADD PUSH1 0x2 DUP3 ADD DUP1 SLOAD PUSH2 0x1F8E SWAP1 PUSH2 0x317A JUMP JUMPDEST DUP1 PUSH1 0x1F ADD PUSH1 0x20 DUP1 SWAP2 DIV MUL PUSH1 0x20 ADD PUSH1 0x40 MLOAD SWAP1 DUP2 ADD PUSH1 0x40 MSTORE DUP1 SWAP3 SWAP2 SWAP1 DUP2 DUP2 MSTORE PUSH1 0x20 ADD DUP3 DUP1 SLOAD PUSH2 0x1FBA SWAP1 PUSH2 0x317A JUMP JUMPDEST DUP1 ISZERO PUSH2 0x2005 JUMPI DUP1 PUSH1 0x1F LT PUSH2 0x1FDC JUMPI PUSH2 0x100 DUP1 DUP4 SLOAD DIV MUL DUP4 MSTORE SWAP2 PUSH1 0x20 ADD SWAP2 PUSH2 0x2005 JUMP JUMPDEST DUP3 ADD SWAP2 SWAP1 PUSH0 MSTORE PUSH1 0x20 PUSH0 KECCAK256 SWAP1 JUMPDEST DUP2 SLOAD DUP2 MSTORE SWAP1 PUSH1 0x1 ADD SWAP1 PUSH1 0x20 ADD DUP1 DUP4 GT PUSH2 0x1FE8 JUMPI DUP3 SWAP1 SUB PUSH1 0x1F AND DUP3 ADD SWAP2 JUMPDEST POP POP POP POP POP DUP2 MSTORE POP POP SWAP1 POP DUP1 PUSH1 0x20 ADD MLOAD DUP2 PUSH1 0x40 ADD MLOAD SWAP4 POP SWAP4 POP POP POP SWAP2 POP SWAP2 JUMP JUMPDEST PUSH1 0x60 PUSH0 DUP1 SLOAD DUP1 PUSH1 0x20 MUL PUSH1 0x20 ADD PUSH1 0x40 MLOAD SWAP1 DUP2 ADD PUSH1 0x40 MSTORE DUP1 SWAP3 SWAP2 SWAP1 DUP2 DUP2 MSTORE PUSH1 0x20 ADD PUSH0 SWAP1 JUMPDEST DUP3 DUP3 LT ISZERO PUSH2 0x22BE JUMPI DUP4 DUP3 SWAP1 PUSH0 MSTORE PUSH1 0x20 PUSH0 KECCAK256 SWAP1 PUSH1 0x9 MUL ADD PUSH1 0x40 MLOAD DUP1 PUSH2 0x120 ADD PUSH1 0x40 MSTORE SWAP1 DUP2 PUSH0 DUP3 ADD PUSH0 SWAP1 SLOAD SWAP1 PUSH2 0x100 EXP SWAP1 DIV PUSH20 0xFFFFFFFFFFFFFFFFFFFFFFFFFFFFFFFFFFFFFFFF AND PUSH20 0xFFFFFFFFFFFFFFFFFFFFFFFFFFFFFFFFFFFFFFFF AND PUSH20 0xFFFFFFFFFFFFFFFFFFFFFFFFFFFFFFFFFFFFFFFF AND DUP2 MSTORE PUSH1 0x20 ADD PUSH1 0x1 DUP3 ADD DUP1 SLOAD PUSH2 0x20CD SWAP1 PUSH2 0x317A JUMP JUMPDEST DUP1 PUSH1 0x1F ADD PUSH1 0x20 DUP1 SWAP2 DIV MUL PUSH1 0x20 ADD PUSH1 0x40 MLOAD SWAP1 DUP2 ADD PUSH1 0x40 MSTORE DUP1 SWAP3 SWAP2 SWAP1 DUP2 DUP2 MSTORE PUSH1 0x20 ADD DUP3 DUP1 SLOAD PUSH2 0x20F9 SWAP1 PUSH2 0x317A JUMP JUMPDEST DUP1 ISZERO PUSH2 0x2144 JUMPI DUP1 PUSH1 0x1F LT PUSH2 0x211B JUMPI PUSH2 0x100 DUP1 DUP4 SLOAD DIV MUL DUP4 MSTORE SWAP2 PUSH1 0x20 ADD SWAP2 PUSH2 0x2144 JUMP JUMPDEST DUP3 ADD SWAP2 SWAP1 PUSH0 MSTORE PUSH1 0x20 PUSH0 KECCAK256 SWAP1 JUMPDEST DUP2 SLOAD DUP2 MSTORE SWAP1 PUSH1 0x1 ADD SWAP1 PUSH1 0x20 ADD DUP1 DUP4 GT PUSH2 0x2127 JUMPI DUP3 SWAP1 SUB PUSH1 0x1F AND DUP3 ADD SWAP2 JUMPDEST POP POP POP POP POP DUP2 MSTORE PUSH1 0x20 ADD PUSH1 0x2 DUP3 ADD SLOAD DUP2 MSTORE PUSH1 0x20 ADD PUSH1 0x3 DUP3 ADD SLOAD DUP2 MSTORE PUSH1 0x20 ADD PUSH1 0x4 DUP3 ADD DUP1 SLOAD PUSH2 0x2171 SWAP1 PUSH2 0x317A JUMP JUMPDEST DUP1 PUSH1 0x1F ADD PUSH1 0x20 DUP1 SWAP2 DIV MUL PUSH1 0x20 ADD PUSH1 0x40 MLOAD SWAP1 DUP2 ADD PUSH1 0x40 MSTORE DUP1 SWAP3 SWAP2 SWAP1 DUP2 DUP2 MSTORE PUSH1 0x20 ADD DUP3 DUP1 SLOAD PUSH2 0x219D SWAP1 PUSH2 0x317A JUMP JUMPDEST DUP1 ISZERO PUSH2 0x21E8 JUMPI DUP1 PUSH1 0x1F LT PUSH2 0x21BF JUMPI PUSH2 0x100 DUP1 DUP4 SLOAD DIV MUL DUP4 MSTORE SWAP2 PUSH1 0x20 ADD SWAP2 PUSH2 0x21E8 JUMP JUMPDEST DUP3 ADD SWAP2 SWAP1 PUSH0 MSTORE PUSH1 0x20 PUSH0 KECCAK256 SWAP1 JUMPDEST DUP2 SLOAD DUP2 MSTORE SWAP1 PUSH1 0x1 ADD SWAP1 PUSH1 0x20 ADD DUP1 DUP4 GT PUSH2 0x21CB JUMPI DUP3 SWAP1 SUB PUSH1 0x1F AND DUP3 ADD SWAP2 JUMPDEST POP POP POP POP POP DUP2 MSTORE PUSH1 0x20 ADD PUSH1 0x5 DUP3 ADD DUP1 SLOAD PUSH2 0x2201 SWAP1 PUSH2 0x317A JUMP JUMPDEST DUP1 PUSH1 0x1F ADD PUSH1 0x20 DUP1 SWAP2 DIV MUL PUSH1 0x20 ADD PUSH1 0x40 MLOAD SWAP1 DUP2 ADD PUSH1 0x40 MSTORE DUP1 SWAP3 SWAP2 SWAP1 DUP2 DUP2 MSTORE PUSH1 0x20 ADD DUP3 DUP1 SLOAD PUSH2 0x222D SWAP1 PUSH2 0x317A JUMP JUMPDEST DUP1 ISZERO PUSH2 0x2278 JUMPI DUP1 PUSH1 0x1F LT PUSH2 0x224F JUMPI PUSH2 0x100 DUP1 DUP4 SLOAD DIV MUL DUP4 MSTORE SWAP2 PUSH1 0x20 ADD SWAP2 PUSH2 0x2278 JUMP JUMPDEST DUP3 ADD SWAP2 SWAP1 PUSH0 MSTORE PUSH1 0x20 PUSH0 KECCAK256 SWAP1 JUMPDEST DUP2 SLOAD DUP2 MSTORE SWAP1 PUSH1 0x1 ADD SWAP1 PUSH1 0x20 ADD DUP1 DUP4 GT PUSH2 0x225B JUMPI DUP3 SWAP1 SUB PUSH1 0x1F AND DUP3 ADD SWAP2 JUMPDEST POP POP POP POP POP DUP2 MSTORE PUSH1 0x20 ADD PUSH1 0x6 DUP3 ADD SLOAD DUP2 MSTORE PUSH1 0x20 ADD PUSH1 0x7 DUP3 ADD SLOAD DUP2 MSTORE PUSH1 0x20 ADD PUSH1 0x8 DUP3 ADD PUSH0 SWAP1 SLOAD SWAP1 PUSH2 0x100 EXP SWAP1 DIV PUSH1 0xFF AND ISZERO ISZERO ISZERO ISZERO DUP2 MSTORE POP POP DUP2 MSTORE PUSH1 0x20 ADD SWAP1 PUSH1 0x1 ADD SWAP1 PUSH2 0x2047 JUMP JUMPDEST POP POP POP POP SWAP1 POP SWAP1 JUMP JUMPDEST PUSH1 0x60 PUSH1 0x7 PUSH0 DUP4 PUSH20 0xFFFFFFFFFFFFFFFFFFFFFFFFFFFFFFFFFFFFFFFF AND PUSH20 0xFFFFFFFFFFFFFFFFFFFFFFFFFFFFFFFFFFFFFFFF AND DUP2 MSTORE PUSH1 0x20 ADD SWAP1 DUP2 MSTORE PUSH1 0x20 ADD PUSH0 KECCAK256 PUSH0 SWAP1 SLOAD SWAP1 PUSH2 0x100 EXP SWAP1 DIV PUSH1 0xFF AND PUSH2 0x2352 JUMPI PUSH1 0x40 MLOAD PUSH32 0x8C379A000000000000000000000000000000000000000000000000000000000 DUP2 MSTORE PUSH1 0x4 ADD PUSH2 0x2349 SWAP1 PUSH2 0x3F4E JUMP JUMPDEST PUSH1 0x40 MLOAD DUP1 SWAP2 SUB SWAP1 REVERT JUMPDEST PUSH0 DUP1 JUMPDEST PUSH1 0x2 DUP1 SLOAD SWAP1 POP DUP2 LT ISZERO PUSH2 0x23F3 JUMPI DUP4 PUSH20 0xFFFFFFFFFFFFFFFFFFFFFFFFFFFFFFFFFFFFFFFF AND PUSH1 0x2 DUP3 DUP2 SLOAD DUP2 LT PUSH2 0x238D JUMPI PUSH2 0x238C PUSH2 0x32A0 JUMP JUMPDEST JUMPDEST SWAP1 PUSH0 MSTORE PUSH1 0x20 PUSH0 KECCAK256 SWAP1 PUSH1 0x5 MUL ADD PUSH1 0x3 ADD PUSH0 SWAP1 SLOAD SWAP1 PUSH2 0x100 EXP SWAP1 DIV PUSH20 0xFFFFFFFFFFFFFFFFFFFFFFFFFFFFFFFFFFFFFFFF AND PUSH20 0xFFFFFFFFFFFFFFFFFFFFFFFFFFFFFFFFFFFFFFFF AND SUB PUSH2 0x23E6 JUMPI DUP2 DUP1 PUSH2 0x23E2 SWAP1 PUSH2 0x3F6C JUMP JUMPDEST SWAP3 POP POP JUMPDEST DUP1 DUP1 PUSH1 0x1 ADD SWAP2 POP POP PUSH2 0x2355 JUMP JUMPDEST POP PUSH0 DUP2 PUSH8 0xFFFFFFFFFFFFFFFF DUP2 GT ISZERO PUSH2 0x240F JUMPI PUSH2 0x240E PUSH2 0x2978 JUMP JUMPDEST JUMPDEST PUSH1 0x40 MLOAD SWAP1 DUP1 DUP3 MSTORE DUP1 PUSH1 0x20 MUL PUSH1 0x20 ADD DUP3 ADD PUSH1 0x40 MSTORE DUP1 ISZERO PUSH2 0x2448 JUMPI DUP2 PUSH1 0x20 ADD JUMPDEST PUSH2 0x2435 PUSH2 0x270C JUMP JUMPDEST DUP2 MSTORE PUSH1 0x20 ADD SWAP1 PUSH1 0x1 SWAP1 SUB SWAP1 DUP2 PUSH2 0x242D JUMPI SWAP1 POP JUMPDEST POP SWAP1 POP PUSH0 DUP1 JUMPDEST PUSH1 0x2 DUP1 SLOAD SWAP1 POP DUP2 LT ISZERO PUSH2 0x26BD JUMPI DUP6 PUSH20 0xFFFFFFFFFFFFFFFFFFFFFFFFFFFFFFFFFFFFFFFF AND PUSH1 0x2 DUP3 DUP2 SLOAD DUP2 LT PUSH2 0x2486 JUMPI PUSH2 0x2485 PUSH2 0x32A0 JUMP JUMPDEST JUMPDEST SWAP1 PUSH0 MSTORE PUSH1 0x20 PUSH0 KECCAK256 SWAP1 PUSH1 0x5 MUL ADD PUSH1 0x3 ADD PUSH0 SWAP1 SLOAD SWAP1 PUSH2 0x100 EXP SWAP1 DIV PUSH20 0xFFFFFFFFFFFFFFFFFFFFFFFFFFFFFFFFFFFFFFFF AND PUSH20 0xFFFFFFFFFFFFFFFFFFFFFFFFFFFFFFFFFFFFFFFF AND SUB PUSH2 0x26B0 JUMPI PUSH1 0x2 DUP2 DUP2 SLOAD DUP2 LT PUSH2 0x24E4 JUMPI PUSH2 0x24E3 PUSH2 0x32A0 JUMP JUMPDEST JUMPDEST SWAP1 PUSH0 MSTORE PUSH1 0x20 PUSH0 KECCAK256 SWAP1 PUSH1 0x5 MUL ADD PUSH1 0x40 MLOAD DUP1 PUSH1 0xA0 ADD PUSH1 0x40 MSTORE SWAP1 DUP2 PUSH0 DUP3 ADD DUP1 SLOAD PUSH2 0x250A SWAP1 PUSH2 0x317A JUMP JUMPDEST DUP1 PUSH1 0x1F ADD PUSH1 0x20 DUP1 SWAP2 DIV MUL PUSH1 0x20 ADD PUSH1 0x40 MLOAD SWAP1 DUP2 ADD PUSH1 0x40 MSTORE DUP1 SWAP3 SWAP2 SWAP1 DUP2 DUP2 MSTORE PUSH1 0x20 ADD DUP3 DUP1 SLOAD PUSH2 0x2536 SWAP1 PUSH2 0x317A JUMP JUMPDEST DUP1 ISZERO PUSH2 0x2581 JUMPI DUP1 PUSH1 0x1F LT PUSH2 0x2558 JUMPI PUSH2 0x100 DUP1 DUP4 SLOAD DIV MUL DUP4 MSTORE SWAP2 PUSH1 0x20 ADD SWAP2 PUSH2 0x2581 JUMP JUMPDEST DUP3 ADD SWAP2 SWAP1 PUSH0 MSTORE PUSH1 0x20 PUSH0 KECCAK256 SWAP1 JUMPDEST DUP2 SLOAD DUP2 MSTORE SWAP1 PUSH1 0x1 ADD SWAP1 PUSH1 0x20 ADD DUP1 DUP4 GT PUSH2 0x2564 JUMPI DUP3 SWAP1 SUB PUSH1 0x1F AND DUP3 ADD SWAP2 JUMPDEST POP POP POP POP POP DUP2 MSTORE PUSH1 0x20 ADD PUSH1 0x1 DUP3 ADD SLOAD DUP2 MSTORE PUSH1 0x20 ADD PUSH1 0x2 DUP3 ADD DUP1 SLOAD PUSH2 0x25A4 SWAP1 PUSH2 0x317A JUMP JUMPDEST DUP1 PUSH1 0x1F ADD PUSH1 0x20 DUP1 SWAP2 DIV MUL PUSH1 0x20 ADD PUSH1 0x40 MLOAD SWAP1 DUP2 ADD PUSH1 0x40 MSTORE DUP1 SWAP3 SWAP2 SWAP1 DUP2 DUP2 MSTORE PUSH1 0x20 ADD DUP3 DUP1 SLOAD PUSH2 0x25D0 SWAP1 PUSH2 0x317A JUMP JUMPDEST DUP1 ISZERO PUSH2 0x261B JUMPI DUP1 PUSH1 0x1F LT PUSH2 0x25F2 JUMPI PUSH2 0x100 DUP1 DUP4 SLOAD DIV MUL DUP4 MSTORE SWAP2 PUSH1 0x20 ADD SWAP2 PUSH2 0x261B JUMP JUMPDEST DUP3 ADD SWAP2 SWAP1 PUSH0 MSTORE PUSH1 0x20 PUSH0 KECCAK256 SWAP1 JUMPDEST DUP2 SLOAD DUP2 MSTORE SWAP1 PUSH1 0x1 ADD SWAP1 PUSH1 0x20 ADD DUP1 DUP4 GT PUSH2 0x25FE JUMPI DUP3 SWAP1 SUB PUSH1 0x1F AND DUP3 ADD SWAP2 JUMPDEST POP POP POP POP POP DUP2 MSTORE PUSH1 0x20 ADD PUSH1 0x3 DUP3 ADD PUSH0 SWAP1 SLOAD SWAP1 PUSH2 0x100 EXP SWAP1 DIV PUSH20 0xFFFFFFFFFFFFFFFFFFFFFFFFFFFFFFFFFFFFFFFF AND PUSH20 0xFFFFFFFFFFFFFFFFFFFFFFFFFFFFFFFFFFFFFFFF AND PUSH20 0xFFFFFFFFFFFFFFFFFFFFFFFFFFFFFFFFFFFFFFFF AND DUP2 MSTORE PUSH1 0x20 ADD PUSH1 0x4 DUP3 ADD SLOAD DUP2 MSTORE POP POP DUP4 DUP4 DUP2 MLOAD DUP2 LT PUSH2 0x2696 JUMPI PUSH2 0x2695 PUSH2 0x32A0 JUMP JUMPDEST JUMPDEST PUSH1 0x20 MUL PUSH1 0x20 ADD ADD DUP2 SWAP1 MSTORE POP DUP2 DUP1 PUSH2 0x26AC SWAP1 PUSH2 0x3F6C JUMP JUMPDEST SWAP3 POP POP JUMPDEST DUP1 DUP1 PUSH1 0x1 ADD SWAP2 POP POP PUSH2 0x244E JUMP JUMPDEST POP DUP2 SWAP4 POP POP POP POP SWAP2 SWAP1 POP JUMP JUMPDEST PUSH0 PUSH3 0xF4240 TIMESTAMP DUP4 PREVRANDAO PUSH1 0x40 MLOAD PUSH1 0x20 ADD PUSH2 0x26E3 SWAP4 SWAP3 SWAP2 SWAP1 PUSH2 0x4080 JUMP JUMPDEST PUSH1 0x40 MLOAD PUSH1 0x20 DUP2 DUP4 SUB SUB DUP2 MSTORE SWAP1 PUSH1 0x40 MSTORE DUP1 MLOAD SWAP1 PUSH1 0x20 ADD KECCAK256 PUSH0 SHR PUSH2 0x2705 SWAP2 SWAP1 PUSH2 0x40E9 JUMP JUMPDEST SWAP1 POP SWAP2 SWAP1 POP JUMP JUMPDEST PUSH1 0x40 MLOAD DUP1 PUSH1 0xA0 ADD PUSH1 0x40 MSTORE DUP1 PUSH1 0x60 DUP2 MSTORE PUSH1 0x20 ADD PUSH0 DUP2 MSTORE PUSH1 0x20 ADD PUSH1 0x60 DUP2 MSTORE PUSH1 0x20 ADD PUSH0 PUSH20 0xFFFFFFFFFFFFFFFFFFFFFFFFFFFFFFFFFFFFFFFF AND DUP2 MSTORE PUSH1 0x20 ADD PUSH0 DUP2 MSTORE POP SWAP1 JUMP JUMPDEST PUSH0 DUP2 MLOAD SWAP1 POP SWAP2 SWAP1 POP JUMP JUMPDEST PUSH0 DUP3 DUP3 MSTORE PUSH1 0x20 DUP3 ADD SWAP1 POP SWAP3 SWAP2 POP POP JUMP JUMPDEST PUSH0 DUP2 SWAP1 POP PUSH1 0x20 DUP3 ADD SWAP1 POP SWAP2 SWAP1 POP JUMP JUMPDEST PUSH0 PUSH20 0xFFFFFFFFFFFFFFFFFFFFFFFFFFFFFFFFFFFFFFFF DUP3 AND SWAP1 POP SWAP2 SWAP1 POP JUMP JUMPDEST PUSH0 PUSH2 0x27A0 DUP3 PUSH2 0x2777 JUMP JUMPDEST SWAP1 POP SWAP2 SWAP1 POP JUMP JUMPDEST PUSH2 0x27B0 DUP2 PUSH2 0x2796 JUMP JUMPDEST DUP3 MSTORE POP POP JUMP JUMPDEST PUSH0 DUP2 MLOAD SWAP1 POP SWAP2 SWAP1 POP JUMP JUMPDEST PUSH0 DUP3 DUP3 MSTORE PUSH1 0x20 DUP3 ADD SWAP1 POP SWAP3 SWAP2 POP POP JUMP JUMPDEST DUP3 DUP2 DUP4 MCOPY PUSH0 DUP4 DUP4 ADD MSTORE POP POP POP JUMP JUMPDEST PUSH0 PUSH1 0x1F NOT PUSH1 0x1F DUP4 ADD AND SWAP1 POP SWAP2 SWAP1 POP JUMP JUMPDEST PUSH0 PUSH2 0x27F8 DUP3 PUSH2 0x27B6 JUMP JUMPDEST PUSH2 0x2802 DUP2 DUP6 PUSH2 0x27C0 JUMP JUMPDEST SWAP4 POP PUSH2 0x2812 DUP2 DUP6 PUSH1 0x20 DUP7 ADD PUSH2 0x27D0 JUMP JUMPDEST PUSH2 0x281B DUP2 PUSH2 0x27DE JUMP JUMPDEST DUP5 ADD SWAP2 POP POP SWAP3 SWAP2 POP POP JUMP JUMPDEST PUSH0 PUSH1 0x60 DUP4 ADD PUSH0 DUP4 ADD MLOAD PUSH2 0x283B PUSH0 DUP7 ADD DUP3 PUSH2 0x27A7 JUMP JUMPDEST POP PUSH1 0x20 DUP4 ADD MLOAD DUP5 DUP3 SUB PUSH1 0x20 DUP7 ADD MSTORE PUSH2 0x2853 DUP3 DUP3 PUSH2 0x27EE JUMP JUMPDEST SWAP2 POP POP PUSH1 0x40 DUP4 ADD MLOAD DUP5 DUP3 SUB PUSH1 0x40 DUP7 ADD MSTORE PUSH2 0x286D DUP3 DUP3 PUSH2 0x27EE JUMP JUMPDEST SWAP2 POP POP DUP1 SWAP2 POP POP SWAP3 SWAP2 POP POP JUMP JUMPDEST PUSH0 PUSH2 0x2885 DUP4 DUP4 PUSH2 0x2826 JUMP JUMPDEST SWAP1 POP SWAP3 SWAP2 POP POP JUMP JUMPDEST PUSH0 PUSH1 0x20 DUP3 ADD SWAP1 POP SWAP2 SWAP1 POP JUMP JUMPDEST PUSH0 PUSH2 0x28A3 DUP3 PUSH2 0x274E JUMP JUMPDEST PUSH2 0x28AD DUP2 DUP6 PUSH2 0x2758 JUMP JUMPDEST SWAP4 POP DUP4 PUSH1 0x20 DUP3 MUL DUP6 ADD PUSH2 0x28BF DUP6 PUSH2 0x2768 JUMP JUMPDEST DUP1 PUSH0 JUMPDEST DUP6 DUP2 LT ISZERO PUSH2 0x28FA JUMPI DUP5 DUP5 SUB DUP10 MSTORE DUP2 MLOAD PUSH2 0x28DB DUP6 DUP3 PUSH2 0x287A JUMP JUMPDEST SWAP5 POP PUSH2 0x28E6 DUP4 PUSH2 0x288D JUMP JUMPDEST SWAP3 POP PUSH1 0x20 DUP11 ADD SWAP10 POP POP PUSH1 0x1 DUP2 ADD SWAP1 POP PUSH2 0x28C2 JUMP JUMPDEST POP DUP3 SWAP8 POP DUP8 SWAP6 POP POP POP POP POP POP SWAP3 SWAP2 POP POP JUMP JUMPDEST PUSH0 PUSH1 0x20 DUP3 ADD SWAP1 POP DUP2 DUP2 SUB PUSH0 DUP4 ADD MSTORE PUSH2 0x2924 DUP2 DUP5 PUSH2 0x2899 JUMP JUMPDEST SWAP1 POP SWAP3 SWAP2 POP POP JUMP JUMPDEST PUSH0 PUSH1 0x40 MLOAD SWAP1 POP SWAP1 JUMP JUMPDEST PUSH0 DUP1 REVERT JUMPDEST PUSH0 DUP1 REVERT JUMPDEST PUSH0 DUP2 SWAP1 POP SWAP2 SWAP1 POP JUMP JUMPDEST PUSH2 0x294F DUP2 PUSH2 0x293D JUMP JUMPDEST DUP2 EQ PUSH2 0x2959 JUMPI PUSH0 DUP1 REVERT JUMPDEST POP JUMP JUMPDEST PUSH0 DUP2 CALLDATALOAD SWAP1 POP PUSH2 0x296A DUP2 PUSH2 0x2946 JUMP JUMPDEST SWAP3 SWAP2 POP POP JUMP JUMPDEST PUSH0 DUP1 REVERT JUMPDEST PUSH0 DUP1 REVERT JUMPDEST PUSH32 0x4E487B7100000000000000000000000000000000000000000000000000000000 PUSH0 MSTORE PUSH1 0x41 PUSH1 0x4 MSTORE PUSH1 0x24 PUSH0 REVERT JUMPDEST PUSH2 0x29AE DUP3 PUSH2 0x27DE JUMP JUMPDEST DUP2 ADD DUP2 DUP2 LT PUSH8 0xFFFFFFFFFFFFFFFF DUP3 GT OR ISZERO PUSH2 0x29CD JUMPI PUSH2 0x29CC PUSH2 0x2978 JUMP JUMPDEST JUMPDEST DUP1 PUSH1 0x40 MSTORE POP POP POP JUMP JUMPDEST PUSH0 PUSH2 0x29DF PUSH2 0x292C JUMP JUMPDEST SWAP1 POP PUSH2 0x29EB DUP3 DUP3 PUSH2 0x29A5 JUMP JUMPDEST SWAP2 SWAP1 POP JUMP JUMPDEST PUSH0 PUSH8 0xFFFFFFFFFFFFFFFF DUP3 GT ISZERO PUSH2 0x2A0A JUMPI PUSH2 0x2A09 PUSH2 0x2978 JUMP JUMPDEST JUMPDEST PUSH2 0x2A13 DUP3 PUSH2 0x27DE JUMP JUMPDEST SWAP1 POP PUSH1 0x20 DUP2 ADD SWAP1 POP SWAP2 SWAP1 POP JUMP JUMPDEST DUP3 DUP2 DUP4 CALLDATACOPY PUSH0 DUP4 DUP4 ADD MSTORE POP POP POP JUMP JUMPDEST PUSH0 PUSH2 0x2A40 PUSH2 0x2A3B DUP5 PUSH2 0x29F0 JUMP JUMPDEST PUSH2 0x29D6 JUMP JUMPDEST SWAP1 POP DUP3 DUP2 MSTORE PUSH1 0x20 DUP2 ADD DUP5 DUP5 DUP5 ADD GT ISZERO PUSH2 0x2A5C JUMPI PUSH2 0x2A5B PUSH2 0x2974 JUMP JUMPDEST JUMPDEST PUSH2 0x2A67 DUP5 DUP3 DUP6 PUSH2 0x2A20 JUMP JUMPDEST POP SWAP4 SWAP3 POP POP POP JUMP JUMPDEST PUSH0 DUP3 PUSH1 0x1F DUP4 ADD SLT PUSH2 0x2A83 JUMPI PUSH2 0x2A82 PUSH2 0x2970 JUMP JUMPDEST JUMPDEST DUP2 CALLDATALOAD PUSH2 0x2A93 DUP5 DUP3 PUSH1 0x20 DUP7 ADD PUSH2 0x2A2E JUMP JUMPDEST SWAP2 POP POP SWAP3 SWAP2 POP POP JUMP JUMPDEST PUSH0 DUP2 ISZERO ISZERO SWAP1 POP SWAP2 SWAP1 POP JUMP JUMPDEST PUSH2 0x2AB0 DUP2 PUSH2 0x2A9C JUMP JUMPDEST DUP2 EQ PUSH2 0x2ABA JUMPI PUSH0 DUP1 REVERT JUMPDEST POP JUMP JUMPDEST PUSH0 DUP2 CALLDATALOAD SWAP1 POP PUSH2 0x2ACB DUP2 PUSH2 0x2AA7 JUMP JUMPDEST SWAP3 SWAP2 POP POP JUMP JUMPDEST PUSH2 0x2ADA DUP2 PUSH2 0x2796 JUMP JUMPDEST DUP2 EQ PUSH2 0x2AE4 JUMPI PUSH0 DUP1 REVERT JUMPDEST POP JUMP JUMPDEST PUSH0 DUP2 CALLDATALOAD SWAP1 POP PUSH2 0x2AF5 DUP2 PUSH2 0x2AD1 JUMP JUMPDEST SWAP3 SWAP2 POP POP JUMP JUMPDEST PUSH0 DUP1 PUSH0 DUP1 PUSH0 DUP1 PUSH1 0xC0 DUP8 DUP10 SUB SLT ISZERO PUSH2 0x2B15 JUMPI PUSH2 0x2B14 PUSH2 0x2935 JUMP JUMPDEST JUMPDEST PUSH0 PUSH2 0x2B22 DUP10 DUP3 DUP11 ADD PUSH2 0x295C JUMP JUMPDEST SWAP7 POP POP PUSH1 0x20 DUP8 ADD CALLDATALOAD PUSH8 0xFFFFFFFFFFFFFFFF DUP2 GT ISZERO PUSH2 0x2B43 JUMPI PUSH2 0x2B42 PUSH2 0x2939 JUMP JUMPDEST JUMPDEST PUSH2 0x2B4F DUP10 DUP3 DUP11 ADD PUSH2 0x2A6F JUMP JUMPDEST SWAP6 POP POP PUSH1 0x40 DUP8 ADD CALLDATALOAD PUSH8 0xFFFFFFFFFFFFFFFF DUP2 GT ISZERO PUSH2 0x2B70 JUMPI PUSH2 0x2B6F PUSH2 0x2939 JUMP JUMPDEST JUMPDEST PUSH2 0x2B7C DUP10 DUP3 DUP11 ADD PUSH2 0x2A6F JUMP JUMPDEST SWAP5 POP POP PUSH1 0x60 PUSH2 0x2B8D DUP10 DUP3 DUP11 ADD PUSH2 0x295C JUMP JUMPDEST SWAP4 POP POP PUSH1 0x80 PUSH2 0x2B9E DUP10 DUP3 DUP11 ADD PUSH2 0x2ABD JUMP JUMPDEST SWAP3 POP POP PUSH1 0xA0 PUSH2 0x2BAF DUP10 DUP3 DUP11 ADD PUSH2 0x2AE7 JUMP JUMPDEST SWAP2 POP POP SWAP3 SWAP6 POP SWAP3 SWAP6 POP SWAP3 SWAP6 JUMP JUMPDEST PUSH2 0x2BC5 DUP2 PUSH2 0x293D JUMP JUMPDEST DUP3 MSTORE POP POP JUMP JUMPDEST PUSH0 PUSH1 0x20 DUP3 ADD SWAP1 POP PUSH2 0x2BDE PUSH0 DUP4 ADD DUP5 PUSH2 0x2BBC JUMP JUMPDEST SWAP3 SWAP2 POP POP JUMP JUMPDEST PUSH0 DUP1 PUSH1 0x40 DUP4 DUP6 SUB SLT ISZERO PUSH2 0x2BFA JUMPI PUSH2 0x2BF9 PUSH2 0x2935 JUMP JUMPDEST JUMPDEST PUSH0 DUP4 ADD CALLDATALOAD PUSH8 0xFFFFFFFFFFFFFFFF DUP2 GT ISZERO PUSH2 0x2C17 JUMPI PUSH2 0x2C16 PUSH2 0x2939 JUMP JUMPDEST JUMPDEST PUSH2 0x2C23 DUP6 DUP3 DUP7 ADD PUSH2 0x2A6F JUMP JUMPDEST SWAP3 POP POP PUSH1 0x20 DUP4 ADD CALLDATALOAD PUSH8 0xFFFFFFFFFFFFFFFF DUP2 GT ISZERO PUSH2 0x2C44 JUMPI PUSH2 0x2C43 PUSH2 0x2939 JUMP JUMPDEST JUMPDEST PUSH2 0x2C50 DUP6 DUP3 DUP7 ADD PUSH2 0x2A6F JUMP JUMPDEST SWAP2 POP POP SWAP3 POP SWAP3 SWAP1 POP JUMP JUMPDEST PUSH0 DUP1 PUSH0 DUP1 PUSH1 0x80 DUP6 DUP8 SUB SLT ISZERO PUSH2 0x2C72 JUMPI PUSH2 0x2C71 PUSH2 0x2935 JUMP JUMPDEST JUMPDEST PUSH0 DUP6 ADD CALLDATALOAD PUSH8 0xFFFFFFFFFFFFFFFF DUP2 GT ISZERO PUSH2 0x2C8F JUMPI PUSH2 0x2C8E PUSH2 0x2939 JUMP JUMPDEST JUMPDEST PUSH2 0x2C9B DUP8 DUP3 DUP9 ADD PUSH2 0x2A6F JUMP JUMPDEST SWAP5 POP POP PUSH1 0x20 PUSH2 0x2CAC DUP8 DUP3 DUP9 ADD PUSH2 0x295C JUMP JUMPDEST SWAP4 POP POP PUSH1 0x40 PUSH2 0x2CBD DUP8 DUP3 DUP9 ADD PUSH2 0x295C JUMP JUMPDEST SWAP3 POP POP PUSH1 0x60 DUP6 ADD CALLDATALOAD PUSH8 0xFFFFFFFFFFFFFFFF DUP2 GT ISZERO PUSH2 0x2CDE JUMPI PUSH2 0x2CDD PUSH2 0x2939 JUMP JUMPDEST JUMPDEST PUSH2 0x2CEA DUP8 DUP3 DUP9 ADD PUSH2 0x2A6F JUMP JUMPDEST SWAP2 POP POP SWAP3 SWAP6 SWAP2 SWAP5 POP SWAP3 POP JUMP JUMPDEST PUSH0 PUSH1 0x20 DUP3 DUP5 SUB SLT ISZERO PUSH2 0x2D0B JUMPI PUSH2 0x2D0A PUSH2 0x2935 JUMP JUMPDEST JUMPDEST PUSH0 PUSH2 0x2D18 DUP5 DUP3 DUP6 ADD PUSH2 0x2AE7 JUMP JUMPDEST SWAP2 POP POP SWAP3 SWAP2 POP POP JUMP JUMPDEST PUSH0 DUP3 DUP3 MSTORE PUSH1 0x20 DUP3 ADD SWAP1 POP SWAP3 SWAP2 POP POP JUMP JUMPDEST PUSH0 PUSH2 0x2D3B DUP3 PUSH2 0x27B6 JUMP JUMPDEST PUSH2 0x2D45 DUP2 DUP6 PUSH2 0x2D21 JUMP JUMPDEST SWAP4 POP PUSH2 0x2D55 DUP2 DUP6 PUSH1 0x20 DUP7 ADD PUSH2 0x27D0 JUMP JUMPDEST PUSH2 0x2D5E DUP2 PUSH2 0x27DE JUMP JUMPDEST DUP5 ADD SWAP2 POP POP SWAP3 SWAP2 POP POP JUMP JUMPDEST PUSH2 0x2D72 DUP2 PUSH2 0x2A9C JUMP JUMPDEST DUP3 MSTORE POP POP JUMP JUMPDEST PUSH0 PUSH1 0xE0 DUP3 ADD SWAP1 POP DUP2 DUP2 SUB PUSH0 DUP4 ADD MSTORE PUSH2 0x2D90 DUP2 DUP11 PUSH2 0x2D31 JUMP JUMPDEST SWAP1 POP PUSH2 0x2D9F PUSH1 0x20 DUP4 ADD DUP10 PUSH2 0x2BBC JUMP JUMPDEST PUSH2 0x2DAC PUSH1 0x40 DUP4 ADD DUP9 PUSH2 0x2BBC JUMP JUMPDEST DUP2 DUP2 SUB PUSH1 0x60 DUP4 ADD MSTORE PUSH2 0x2DBE DUP2 DUP8 PUSH2 0x2D31 JUMP JUMPDEST SWAP1 POP DUP2 DUP2 SUB PUSH1 0x80 DUP4 ADD MSTORE PUSH2 0x2DD2 DUP2 DUP7 PUSH2 0x2D31 JUMP JUMPDEST SWAP1 POP PUSH2 0x2DE1 PUSH1 0xA0 DUP4 ADD DUP6 PUSH2 0x2BBC JUMP JUMPDEST PUSH2 0x2DEE PUSH1 0xC0 DUP4 ADD DUP5 PUSH2 0x2D69 JUMP JUMPDEST SWAP9 SWAP8 POP POP POP POP POP POP POP POP JUMP JUMPDEST PUSH0 PUSH1 0x40 DUP3 ADD SWAP1 POP DUP2 DUP2 SUB PUSH0 DUP4 ADD MSTORE PUSH2 0x2E12 DUP2 DUP6 PUSH2 0x2D31 JUMP JUMPDEST SWAP1 POP DUP2 DUP2 SUB PUSH1 0x20 DUP4 ADD MSTORE PUSH2 0x2E26 DUP2 DUP5 PUSH2 0x2D31 JUMP JUMPDEST SWAP1 POP SWAP4 SWAP3 POP POP POP JUMP JUMPDEST PUSH0 DUP2 MLOAD SWAP1 POP SWAP2 SWAP1 POP JUMP JUMPDEST PUSH0 DUP3 DUP3 MSTORE PUSH1 0x20 DUP3 ADD SWAP1 POP SWAP3 SWAP2 POP POP JUMP JUMPDEST PUSH0 DUP2 SWAP1 POP PUSH1 0x20 DUP3 ADD SWAP1 POP SWAP2 SWAP1 POP JUMP JUMPDEST PUSH2 0x2E61 DUP2 PUSH2 0x293D JUMP JUMPDEST DUP3 MSTORE POP POP JUMP JUMPDEST PUSH2 0x2E70 DUP2 PUSH2 0x2A9C JUMP JUMPDEST DUP3 MSTORE POP POP JUMP JUMPDEST PUSH0 PUSH2 0x120 DUP4 ADD PUSH0 DUP4 ADD MLOAD PUSH2 0x2E8C PUSH0 DUP7 ADD DUP3 PUSH2 0x27A7 JUMP JUMPDEST POP PUSH1 0x20 DUP4 ADD MLOAD DUP5 DUP3 SUB PUSH1 0x20 DUP7 ADD MSTORE PUSH2 0x2EA4 DUP3 DUP3 PUSH2 0x27EE JUMP JUMPDEST SWAP2 POP POP PUSH1 0x40 DUP4 ADD MLOAD PUSH2 0x2EB9 PUSH1 0x40 DUP7 ADD DUP3 PUSH2 0x2E58 JUMP JUMPDEST POP PUSH1 0x60 DUP4 ADD MLOAD PUSH2 0x2ECC PUSH1 0x60 DUP7 ADD DUP3 PUSH2 0x2E58 JUMP JUMPDEST POP PUSH1 0x80 DUP4 ADD MLOAD DUP5 DUP3 SUB PUSH1 0x80 DUP7 ADD MSTORE PUSH2 0x2EE4 DUP3 DUP3 PUSH2 0x27EE JUMP JUMPDEST SWAP2 POP POP PUSH1 0xA0 DUP4 ADD MLOAD DUP5 DUP3 SUB PUSH1 0xA0 DUP7 ADD MSTORE PUSH2 0x2EFE DUP3 DUP3 PUSH2 0x27EE JUMP JUMPDEST SWAP2 POP POP PUSH1 0xC0 DUP4 ADD MLOAD PUSH2 0x2F13 PUSH1 0xC0 DUP7 ADD DUP3 PUSH2 0x2E58 JUMP JUMPDEST POP PUSH1 0xE0 DUP4 ADD MLOAD PUSH2 0x2F26 PUSH1 0xE0 DUP7 ADD DUP3 PUSH2 0x2E58 JUMP JUMPDEST POP PUSH2 0x100 DUP4 ADD MLOAD PUSH2 0x2F3B PUSH2 0x100 DUP7 ADD DUP3 PUSH2 0x2E67 JUMP JUMPDEST POP DUP1 SWAP2 POP POP SWAP3 SWAP2 POP POP JUMP JUMPDEST PUSH0 PUSH2 0x2F51 DUP4 DUP4 PUSH2 0x2E76 JUMP JUMPDEST SWAP1 POP SWAP3 SWAP2 POP POP JUMP JUMPDEST PUSH0 PUSH1 0x20 DUP3 ADD SWAP1 POP SWAP2 SWAP1 POP JUMP JUMPDEST PUSH0 PUSH2 0x2F6F DUP3 PUSH2 0x2E2F JUMP JUMPDEST PUSH2 0x2F79 DUP2 DUP6 PUSH2 0x2E39 JUMP JUMPDEST SWAP4 POP DUP4 PUSH1 0x20 DUP3 MUL DUP6 ADD PUSH2 0x2F8B DUP6 PUSH2 0x2E49 JUMP JUMPDEST DUP1 PUSH0 JUMPDEST DUP6 DUP2 LT ISZERO PUSH2 0x2FC6 JUMPI DUP5 DUP5 SUB DUP10 MSTORE DUP2 MLOAD PUSH2 0x2FA7 DUP6 DUP3 PUSH2 0x2F46 JUMP JUMPDEST SWAP5 POP PUSH2 0x2FB2 DUP4 PUSH2 0x2F59 JUMP JUMPDEST SWAP3 POP PUSH1 0x20 DUP11 ADD SWAP10 POP POP PUSH1 0x1 DUP2 ADD SWAP1 POP PUSH2 0x2F8E JUMP JUMPDEST POP DUP3 SWAP8 POP DUP8 SWAP6 POP POP POP POP POP POP SWAP3 SWAP2 POP POP JUMP JUMPDEST PUSH0 PUSH1 0x20 DUP3 ADD SWAP1 POP DUP2 DUP2 SUB PUSH0 DUP4 ADD MSTORE PUSH2 0x2FF0 DUP2 DUP5 PUSH2 0x2F65 JUMP JUMPDEST SWAP1 POP SWAP3 SWAP2 POP POP JUMP JUMPDEST PUSH0 DUP2 MLOAD SWAP1 POP SWAP2 SWAP1 POP JUMP JUMPDEST PUSH0 DUP3 DUP3 MSTORE PUSH1 0x20 DUP3 ADD SWAP1 POP SWAP3 SWAP2 POP POP JUMP JUMPDEST PUSH0 DUP2 SWAP1 POP PUSH1 0x20 DUP3 ADD SWAP1 POP SWAP2 SWAP1 POP JUMP JUMPDEST PUSH0 PUSH1 0xA0 DUP4 ADD PUSH0 DUP4 ADD MLOAD DUP5 DUP3 SUB PUSH0 DUP7 ADD MSTORE PUSH2 0x303B DUP3 DUP3 PUSH2 0x27EE JUMP JUMPDEST SWAP2 POP POP PUSH1 0x20 DUP4 ADD MLOAD PUSH2 0x3050 PUSH1 0x20 DUP7 ADD DUP3 PUSH2 0x2E58 JUMP JUMPDEST POP PUSH1 0x40 DUP4 ADD MLOAD DUP5 DUP3 SUB PUSH1 0x40 DUP7 ADD MSTORE PUSH2 0x3068 DUP3 DUP3 PUSH2 0x27EE JUMP JUMPDEST SWAP2 POP POP PUSH1 0x60 DUP4 ADD MLOAD PUSH2 0x307D PUSH1 0x60 DUP7 ADD DUP3 PUSH2 0x27A7 JUMP JUMPDEST POP PUSH1 0x80 DUP4 ADD MLOAD PUSH2 0x3090 PUSH1 0x80 DUP7 ADD DUP3 PUSH2 0x2E58 JUMP JUMPDEST POP DUP1 SWAP2 POP POP SWAP3 SWAP2 POP POP JUMP JUMPDEST PUSH0 PUSH2 0x30A6 DUP4 DUP4 PUSH2 0x3021 JUMP JUMPDEST SWAP1 POP SWAP3 SWAP2 POP POP JUMP JUMPDEST PUSH0 PUSH1 0x20 DUP3 ADD SWAP1 POP SWAP2 SWAP1 POP JUMP JUMPDEST PUSH0 PUSH2 0x30C4 DUP3 PUSH2 0x2FF8 JUMP JUMPDEST PUSH2 0x30CE DUP2 DUP6 PUSH2 0x3002 JUMP JUMPDEST SWAP4 POP DUP4 PUSH1 0x20 DUP3 MUL DUP6 ADD PUSH2 0x30E0 DUP6 PUSH2 0x3012 JUMP JUMPDEST DUP1 PUSH0 JUMPDEST DUP6 DUP2 LT ISZERO PUSH2 0x311B JUMPI DUP5 DUP5 SUB DUP10 MSTORE DUP2 MLOAD PUSH2 0x30FC DUP6 DUP3 PUSH2 0x309B JUMP JUMPDEST SWAP5 POP PUSH2 0x3107 DUP4 PUSH2 0x30AE JUMP JUMPDEST SWAP3 POP PUSH1 0x20 DUP11 ADD SWAP10 POP POP PUSH1 0x1 DUP2 ADD SWAP1 POP PUSH2 0x30E3 JUMP JUMPDEST POP DUP3 SWAP8 POP DUP8 SWAP6 POP POP POP POP POP POP SWAP3 SWAP2 POP POP JUMP JUMPDEST PUSH0 PUSH1 0x20 DUP3 ADD SWAP1 POP DUP2 DUP2 SUB PUSH0 DUP4 ADD MSTORE PUSH2 0x3145 DUP2 DUP5 PUSH2 0x30BA JUMP JUMPDEST SWAP1 POP SWAP3 SWAP2 POP POP JUMP JUMPDEST PUSH32 0x4E487B7100000000000000000000000000000000000000000000000000000000 PUSH0 MSTORE PUSH1 0x22 PUSH1 0x4 MSTORE PUSH1 0x24 PUSH0 REVERT JUMPDEST PUSH0 PUSH1 0x2 DUP3 DIV SWAP1 POP PUSH1 0x1 DUP3 AND DUP1 PUSH2 0x3191 JUMPI PUSH1 0x7F DUP3 AND SWAP2 POP JUMPDEST PUSH1 0x20 DUP3 LT DUP2 SUB PUSH2 0x31A4 JUMPI PUSH2 0x31A3 PUSH2 0x314D JUMP JUMPDEST JUMPDEST POP SWAP2 SWAP1 POP JUMP JUMPDEST PUSH32 0x4F6E6C7920726567697374657265642073746166662063616E20706572666F72 PUSH0 DUP3 ADD MSTORE PUSH32 0x6D207468697320616374696F6E00000000000000000000000000000000000000 PUSH1 0x20 DUP3 ADD MSTORE POP JUMP JUMPDEST PUSH0 PUSH2 0x3204 PUSH1 0x2D DUP4 PUSH2 0x2D21 JUMP JUMPDEST SWAP2 POP PUSH2 0x320F DUP3 PUSH2 0x31AA JUMP JUMPDEST PUSH1 0x40 DUP3 ADD SWAP1 POP SWAP2 SWAP1 POP JUMP JUMPDEST PUSH0 PUSH1 0x20 DUP3 ADD SWAP1 POP DUP2 DUP2 SUB PUSH0 DUP4 ADD MSTORE PUSH2 0x3231 DUP2 PUSH2 0x31F8 JUMP JUMPDEST SWAP1 POP SWAP2 SWAP1 POP JUMP JUMPDEST PUSH0 DUP2 SWAP1 POP SWAP3 SWAP2 POP POP JUMP JUMPDEST PUSH32 0x446F63746F720000000000000000000000000000000000000000000000000000 PUSH0 DUP3 ADD MSTORE POP JUMP JUMPDEST PUSH0 PUSH2 0x3276 PUSH1 0x6 DUP4 PUSH2 0x3238 JUMP JUMPDEST SWAP2 POP PUSH2 0x3281 DUP3 PUSH2 0x3242 JUMP JUMPDEST PUSH1 0x6 DUP3 ADD SWAP1 POP SWAP2 SWAP1 POP JUMP JUMPDEST PUSH0 PUSH2 0x3296 DUP3 PUSH2 0x326A JUMP JUMPDEST SWAP2 POP DUP2 SWAP1 POP SWAP2 SWAP1 POP JUMP JUMPDEST PUSH32 0x4E487B7100000000000000000000000000000000000000000000000000000000 PUSH0 MSTORE PUSH1 0x32 PUSH1 0x4 MSTORE PUSH1 0x24 PUSH0 REVERT JUMPDEST PUSH0 DUP2 SWAP1 POP DUP2 PUSH0 MSTORE PUSH1 0x20 PUSH0 KECCAK256 SWAP1 POP SWAP2 SWAP1 POP JUMP JUMPDEST PUSH0 DUP2 SLOAD PUSH2 0x32EB DUP2 PUSH2 0x317A JUMP JUMPDEST PUSH2 0x32F5 DUP2 DUP7 PUSH2 0x3238 JUMP JUMPDEST SWAP5 POP PUSH1 0x1 DUP3 AND PUSH0 DUP2 EQ PUSH2 0x330F JUMPI PUSH1 0x1 DUP2 EQ PUSH2 0x3324 JUMPI PUSH2 0x3356 JUMP JUMPDEST PUSH1 0xFF NOT DUP4 AND DUP7 MSTORE DUP2 ISZERO ISZERO DUP3 MUL DUP7 ADD SWAP4 POP PUSH2 0x3356 JUMP JUMPDEST PUSH2 0x332D DUP6 PUSH2 0x32CD JUMP JUMPDEST PUSH0 JUMPDEST DUP4 DUP2 LT ISZERO PUSH2 0x334E JUMPI DUP2 SLOAD DUP2 DUP10 ADD MSTORE PUSH1 0x1 DUP3 ADD SWAP2 POP PUSH1 0x20 DUP2 ADD SWAP1 POP PUSH2 0x332F JUMP JUMPDEST DUP4 DUP9 ADD SWAP6 POP POP POP JUMPDEST POP POP POP SWAP3 SWAP2 POP POP JUMP JUMPDEST PUSH0 PUSH2 0x336A DUP3 DUP5 PUSH2 0x32DF JUMP JUMPDEST SWAP2 POP DUP2 SWAP1 POP SWAP3 SWAP2 POP POP JUMP JUMPDEST PUSH32 0x4F6E6C7920646F63746F72732063616E20706572666F726D2074686973206163 PUSH0 DUP3 ADD MSTORE PUSH32 0x74696F6E00000000000000000000000000000000000000000000000000000000 PUSH1 0x20 DUP3 ADD MSTORE POP JUMP JUMPDEST PUSH0 PUSH2 0x33CF PUSH1 0x24 DUP4 PUSH2 0x2D21 JUMP JUMPDEST SWAP2 POP PUSH2 0x33DA DUP3 PUSH2 0x3375 JUMP JUMPDEST PUSH1 0x40 DUP3 ADD SWAP1 POP SWAP2 SWAP1 POP JUMP JUMPDEST PUSH0 PUSH1 0x20 DUP3 ADD SWAP1 POP DUP2 DUP2 SUB PUSH0 DUP4 ADD MSTORE PUSH2 0x33FC DUP2 PUSH2 0x33C3 JUMP JUMPDEST SWAP1 POP SWAP2 SWAP1 POP JUMP JUMPDEST PUSH32 0x50617469656E74206E6F74207265676973746572656400000000000000000000 PUSH0 DUP3 ADD MSTORE POP JUMP JUMPDEST PUSH0 PUSH2 0x3437 PUSH1 0x16 DUP4 PUSH2 0x2D21 JUMP JUMPDEST SWAP2 POP PUSH2 0x3442 DUP3 PUSH2 0x3403 JUMP JUMPDEST PUSH1 0x20 DUP3 ADD SWAP1 POP SWAP2 SWAP1 POP JUMP JUMPDEST PUSH0 PUSH1 0x20 DUP3 ADD SWAP1 POP DUP2 DUP2 SUB PUSH0 DUP4 ADD MSTORE PUSH2 0x3464 DUP2 PUSH2 0x342B JUMP JUMPDEST SWAP1 POP SWAP2 SWAP1 POP JUMP JUMPDEST PUSH32 0x496E76616C69642061636365737320636F646500000000000000000000000000 PUSH0 DUP3 ADD MSTORE POP JUMP JUMPDEST PUSH0 PUSH2 0x349F PUSH1 0x13 DUP4 PUSH2 0x2D21 JUMP JUMPDEST SWAP2 POP PUSH2 0x34AA DUP3 PUSH2 0x346B JUMP JUMPDEST PUSH1 0x20 DUP3 ADD SWAP1 POP SWAP2 SWAP1 POP JUMP JUMPDEST PUSH0 PUSH1 0x20 DUP3 ADD SWAP1 POP DUP2 DUP2 SUB PUSH0 DUP4 ADD MSTORE PUSH2 0x34CC DUP2 PUSH2 0x3493 JUMP JUMPDEST SWAP1 POP SWAP2 SWAP1 POP JUMP JUMPDEST PUSH32 0x4E487B7100000000000000000000000000000000000000000000000000000000 PUSH0 MSTORE PUSH1 0x11 PUSH1 0x4 MSTORE PUSH1 0x24 PUSH0 REVERT JUMPDEST PUSH0 PUSH2 0x350A DUP3 PUSH2 0x293D JUMP JUMPDEST SWAP2 POP PUSH2 0x3515 DUP4 PUSH2 0x293D JUMP JUMPDEST SWAP3 POP DUP3 DUP3 ADD SWAP1 POP DUP1 DUP3 GT ISZERO PUSH2 0x352D JUMPI PUSH2 0x352C PUSH2 0x34D3 JUMP JUMPDEST JUMPDEST SWAP3 SWAP2 POP POP JUMP JUMPDEST PUSH32 0x41636365737320636F6465206578706972656400000000000000000000000000 PUSH0 DUP3 ADD MSTORE POP JUMP JUMPDEST PUSH0 PUSH2 0x3567 PUSH1 0x13 DUP4 PUSH2 0x2D21 JUMP JUMPDEST SWAP2 POP PUSH2 0x3572 DUP3 PUSH2 0x3533 JUMP JUMPDEST PUSH1 0x20 DUP3 ADD SWAP1 POP SWAP2 SWAP1 POP JUMP JUMPDEST PUSH0 PUSH1 0x20 DUP3 ADD SWAP1 POP DUP2 DUP2 SUB PUSH0 DUP4 ADD MSTORE PUSH2 0x3594 DUP2 PUSH2 0x355B JUMP JUMPDEST SWAP1 POP SWAP2 SWAP1 POP JUMP JUMPDEST PUSH32 0x4865616C7468207265636F72642063616E6E6F7420626520656D707479000000 PUSH0 DUP3 ADD MSTORE POP JUMP JUMPDEST PUSH0 PUSH2 0x35CF PUSH1 0x1D DUP4 PUSH2 0x2D21 JUMP JUMPDEST SWAP2 POP PUSH2 0x35DA DUP3 PUSH2 0x359B JUMP JUMPDEST PUSH1 0x20 DUP3 ADD SWAP1 POP SWAP2 SWAP1 POP JUMP JUMPDEST PUSH0 PUSH1 0x20 DUP3 ADD SWAP1 POP DUP2 DUP2 SUB PUSH0 DUP4 ADD MSTORE PUSH2 0x35FC DUP2 PUSH2 0x35C3 JUMP JUMPDEST SWAP1 POP SWAP2 SWAP1 POP JUMP JUMPDEST PUSH32 0x507265736372697074696F6E2063616E6E6F7420626520656D70747900000000 PUSH0 DUP3 ADD MSTORE POP JUMP JUMPDEST PUSH0 PUSH2 0x3637 PUSH1 0x1C DUP4 PUSH2 0x2D21 JUMP JUMPDEST SWAP2 POP PUSH2 0x3642 DUP3 PUSH2 0x3603 JUMP JUMPDEST PUSH1 0x20 DUP3 ADD SWAP1 POP SWAP2 SWAP1 POP JUMP JUMPDEST PUSH0 PUSH1 0x20 DUP3 ADD SWAP1 POP DUP2 DUP2 SUB PUSH0 DUP4 ADD MSTORE PUSH2 0x3664 DUP2 PUSH2 0x362B JUMP JUMPDEST SWAP1 POP SWAP2 SWAP1 POP JUMP JUMPDEST PUSH32 0x526563697069656E74206D757374206265207265676973746572656420737461 PUSH0 DUP3 ADD MSTORE PUSH32 0x6666000000000000000000000000000000000000000000000000000000000000 PUSH1 0x20 DUP3 ADD MSTORE POP JUMP JUMPDEST PUSH0 PUSH2 0x36C5 PUSH1 0x22 DUP4 PUSH2 0x2D21 JUMP JUMPDEST SWAP2 POP PUSH2 0x36D0 DUP3 PUSH2 0x366B JUMP JUMPDEST PUSH1 0x40 DUP3 ADD SWAP1 POP SWAP2 SWAP1 POP JUMP JUMPDEST PUSH0 PUSH1 0x20 DUP3 ADD SWAP1 POP DUP2 DUP2 SUB PUSH0 DUP4 ADD MSTORE PUSH2 0x36F2 DUP2 PUSH2 0x36B9 JUMP JUMPDEST SWAP1 POP SWAP2 SWAP1 POP JUMP JUMPDEST PUSH0 PUSH2 0x3703 DUP3 PUSH2 0x27B6 JUMP JUMPDEST PUSH2 0x370D DUP2 DUP6 PUSH2 0x3238 JUMP JUMPDEST SWAP4 POP PUSH2 0x371D DUP2 DUP6 PUSH1 0x20 DUP7 ADD PUSH2 0x27D0 JUMP JUMPDEST DUP1 DUP5 ADD SWAP2 POP POP SWAP3 SWAP2 POP POP JUMP JUMPDEST PUSH0 PUSH2 0x3734 DUP3 DUP5 PUSH2 0x36F9 JUMP JUMPDEST SWAP2 POP DUP2 SWAP1 POP SWAP3 SWAP2 POP POP JUMP JUMPDEST PUSH32 0x496E76616C696420726563697069656E7420726F6C6500000000000000000000 PUSH0 DUP3 ADD MSTORE POP JUMP JUMPDEST PUSH0 PUSH2 0x3773 PUSH1 0x16 DUP4 PUSH2 0x2D21 JUMP JUMPDEST SWAP2 POP PUSH2 0x377E DUP3 PUSH2 0x373F JUMP JUMPDEST PUSH1 0x20 DUP3 ADD SWAP1 POP SWAP2 SWAP1 POP JUMP JUMPDEST PUSH0 PUSH1 0x20 DUP3 ADD SWAP1 POP DUP2 DUP2 SUB PUSH0 DUP4 ADD MSTORE PUSH2 0x37A0 DUP2 PUSH2 0x3767 JUMP JUMPDEST SWAP1 POP SWAP2 SWAP1 POP JUMP JUMPDEST PUSH0 PUSH1 0x20 PUSH1 0x1F DUP4 ADD DIV SWAP1 POP SWAP2 SWAP1 POP JUMP JUMPDEST PUSH0 DUP3 DUP3 SHL SWAP1 POP SWAP3 SWAP2 POP POP JUMP JUMPDEST PUSH0 PUSH1 0x8 DUP4 MUL PUSH2 0x37F1 PUSH32 0xFFFFFFFFFFFFFFFFFFFFFFFFFFFFFFFFFFFFFFFFFFFFFFFFFFFFFFFFFFFFFFFF DUP3 PUSH2 0x37B6 JUMP JUMPDEST PUSH2 0x37FB DUP7 DUP4 PUSH2 0x37B6 JUMP JUMPDEST SWAP6 POP DUP1 NOT DUP5 AND SWAP4 POP DUP1 DUP7 AND DUP5 OR SWAP3 POP POP POP SWAP4 SWAP3 POP POP POP JUMP JUMPDEST PUSH0 DUP2 SWAP1 POP SWAP2 SWAP1 POP JUMP JUMPDEST PUSH0 PUSH2 0x3836 PUSH2 0x3831 PUSH2 0x382C DUP5 PUSH2 0x293D JUMP JUMPDEST PUSH2 0x3813 JUMP JUMPDEST PUSH2 0x293D JUMP JUMPDEST SWAP1 POP SWAP2 SWAP1 POP JUMP JUMPDEST PUSH0 DUP2 SWAP1 POP SWAP2 SWAP1 POP JUMP JUMPDEST PUSH2 0x384F DUP4 PUSH2 0x381C JUMP JUMPDEST PUSH2 0x3863 PUSH2 0x385B DUP3 PUSH2 0x383D JUMP JUMPDEST DUP5 DUP5 SLOAD PUSH2 0x37C2 JUMP JUMPDEST DUP3 SSTORE POP POP POP POP JUMP JUMPDEST PUSH0 SWAP1 JUMP JUMPDEST PUSH2 0x3877 PUSH2 0x386B JUMP JUMPDEST PUSH2 0x3882 DUP2 DUP5 DUP5 PUSH2 0x3846 JUMP JUMPDEST POP POP POP JUMP JUMPDEST JUMPDEST DUP2 DUP2 LT ISZERO PUSH2 0x38A5 JUMPI PUSH2 0x389A PUSH0 DUP3 PUSH2 0x386F JUMP JUMPDEST PUSH1 0x1 DUP2 ADD SWAP1 POP PUSH2 0x3888 JUMP JUMPDEST POP POP JUMP JUMPDEST PUSH1 0x1F DUP3 GT ISZERO PUSH2 0x38EA JUMPI PUSH2 0x38BB DUP2 PUSH2 0x32CD JUMP JUMPDEST PUSH2 0x38C4 DUP5 PUSH2 0x37A7 JUMP JUMPDEST DUP2 ADD PUSH1 0x20 DUP6 LT ISZERO PUSH2 0x38D3 JUMPI DUP2 SWAP1 POP JUMPDEST PUSH2 0x38E7 PUSH2 0x38DF DUP6 PUSH2 0x37A7 JUMP JUMPDEST DUP4 ADD DUP3 PUSH2 0x3887 JUMP JUMPDEST POP POP JUMPDEST POP POP POP JUMP JUMPDEST PUSH0 DUP3 DUP3 SHR SWAP1 POP SWAP3 SWAP2 POP POP JUMP JUMPDEST PUSH0 PUSH2 0x390A PUSH0 NOT DUP5 PUSH1 0x8 MUL PUSH2 0x38EF JUMP JUMPDEST NOT DUP1 DUP4 AND SWAP2 POP POP SWAP3 SWAP2 POP POP JUMP JUMPDEST PUSH0 PUSH2 0x3922 DUP4 DUP4 PUSH2 0x38FB JUMP JUMPDEST SWAP2 POP DUP3 PUSH1 0x2 MUL DUP3 OR SWAP1 POP SWAP3 SWAP2 POP POP JUMP JUMPDEST PUSH2 0x393B DUP3 PUSH2 0x27B6 JUMP JUMPDEST PUSH8 0xFFFFFFFFFFFFFFFF DUP2 GT ISZERO PUSH2 0x3954 JUMPI PUSH2 0x3953 PUSH2 0x2978 JUMP JUMPDEST JUMPDEST PUSH2 0x395E DUP3 SLOAD PUSH2 0x317A JUMP JUMPDEST PUSH2 0x3969 DUP3 DUP3 DUP6 PUSH2 0x38A9 JUMP JUMPDEST PUSH0 PUSH1 0x20 SWAP1 POP PUSH1 0x1F DUP4 GT PUSH1 0x1 DUP2 EQ PUSH2 0x399A JUMPI PUSH0 DUP5 ISZERO PUSH2 0x3988 JUMPI DUP3 DUP8 ADD MLOAD SWAP1 POP JUMPDEST PUSH2 0x3992 DUP6 DUP3 PUSH2 0x3917 JUMP JUMPDEST DUP7 SSTORE POP PUSH2 0x39F9 JUMP JUMPDEST PUSH1 0x1F NOT DUP5 AND PUSH2 0x39A8 DUP7 PUSH2 0x32CD JUMP JUMPDEST PUSH0 JUMPDEST DUP3 DUP2 LT ISZERO PUSH2 0x39CF JUMPI DUP5 DUP10 ADD MLOAD DUP3 SSTORE PUSH1 0x1 DUP3 ADD SWAP2 POP PUSH1 0x20 DUP6 ADD SWAP5 POP PUSH1 0x20 DUP2 ADD SWAP1 POP PUSH2 0x39AA JUMP JUMPDEST DUP7 DUP4 LT ISZERO PUSH2 0x39EC JUMPI DUP5 DUP10 ADD MLOAD PUSH2 0x39E8 PUSH1 0x1F DUP10 AND DUP3 PUSH2 0x38FB JUMP JUMPDEST DUP4 SSTORE POP JUMPDEST PUSH1 0x1 PUSH1 0x2 DUP9 MUL ADD DUP9 SSTORE POP POP POP JUMPDEST POP POP POP POP POP POP JUMP JUMPDEST PUSH0 PUSH1 0x20 DUP3 ADD SWAP1 POP DUP2 DUP2 SUB PUSH0 DUP4 ADD MSTORE PUSH2 0x3A19 DUP2 DUP5 PUSH2 0x2D31 JUMP JUMPDEST SWAP1 POP SWAP3 SWAP2 POP POP JUMP JUMPDEST PUSH32 0x4F6E6C7920726567697374657265642073747564656E74732063616E20706572 PUSH0 DUP3 ADD MSTORE PUSH32 0x666F726D207468697320616374696F6E00000000000000000000000000000000 PUSH1 0x20 DUP3 ADD MSTORE POP JUMP JUMPDEST PUSH0 PUSH2 0x3A7B PUSH1 0x30 DUP4 PUSH2 0x2D21 JUMP JUMPDEST SWAP2 POP PUSH2 0x3A86 DUP3 PUSH2 0x3A21 JUMP JUMPDEST PUSH1 0x40 DUP3 ADD SWAP1 POP SWAP2 SWAP1 POP JUMP JUMPDEST PUSH0 PUSH1 0x20 DUP3 ADD SWAP1 POP DUP2 DUP2 SUB PUSH0 DUP4 ADD MSTORE PUSH2 0x3AA8 DUP2 PUSH2 0x3A6F JUMP JUMPDEST SWAP1 POP SWAP2 SWAP1 POP JUMP JUMPDEST PUSH32 0x537461666620616C726561647920726567697374657265640000000000000000 PUSH0 DUP3 ADD MSTORE POP JUMP JUMPDEST PUSH0 PUSH2 0x3AE3 PUSH1 0x18 DUP4 PUSH2 0x2D21 JUMP JUMPDEST SWAP2 POP PUSH2 0x3AEE DUP3 PUSH2 0x3AAF JUMP JUMPDEST PUSH1 0x20 DUP3 ADD SWAP1 POP SWAP2 SWAP1 POP JUMP JUMPDEST PUSH0 PUSH1 0x20 DUP3 ADD SWAP1 POP DUP2 DUP2 SUB PUSH0 DUP4 ADD MSTORE PUSH2 0x3B10 DUP2 PUSH2 0x3AD7 JUMP JUMPDEST SWAP1 POP SWAP2 SWAP1 POP JUMP JUMPDEST PUSH32 0x4E616D652063616E6E6F7420626520656D707479000000000000000000000000 PUSH0 DUP3 ADD MSTORE POP JUMP JUMPDEST PUSH0 PUSH2 0x3B4B PUSH1 0x14 DUP4 PUSH2 0x2D21 JUMP JUMPDEST SWAP2 POP PUSH2 0x3B56 DUP3 PUSH2 0x3B17 JUMP JUMPDEST PUSH1 0x20 DUP3 ADD SWAP1 POP SWAP2 SWAP1 POP JUMP JUMPDEST PUSH0 PUSH1 0x20 DUP3 ADD SWAP1 POP DUP2 DUP2 SUB PUSH0 DUP4 ADD MSTORE PUSH2 0x3B78 DUP2 PUSH2 0x3B3F JUMP JUMPDEST SWAP1 POP SWAP2 SWAP1 POP JUMP JUMPDEST PUSH32 0x4E75727365000000000000000000000000000000000000000000000000000000 PUSH0 DUP3 ADD MSTORE POP JUMP JUMPDEST PUSH0 PUSH2 0x3BB3 PUSH1 0x5 DUP4 PUSH2 0x3238 JUMP JUMPDEST SWAP2 POP PUSH2 0x3BBE DUP3 PUSH2 0x3B7F JUMP JUMPDEST PUSH1 0x5 DUP3 ADD SWAP1 POP SWAP2 SWAP1 POP JUMP JUMPDEST PUSH0 PUSH2 0x3BD3 DUP3 PUSH2 0x3BA7 JUMP JUMPDEST SWAP2 POP DUP2 SWAP1 POP SWAP2 SWAP1 POP JUMP JUMPDEST PUSH32 0x506861726D616369737400000000000000000000000000000000000000000000 PUSH0 DUP3 ADD MSTORE POP JUMP JUMPDEST PUSH0 PUSH2 0x3C11 PUSH1 0xA DUP4 PUSH2 0x3238 JUMP JUMPDEST SWAP2 POP PUSH2 0x3C1C DUP3 PUSH2 0x3BDD JUMP JUMPDEST PUSH1 0xA DUP3 ADD SWAP1 POP SWAP2 SWAP1 POP JUMP JUMPDEST PUSH0 PUSH2 0x3C31 DUP3 PUSH2 0x3C05 JUMP JUMPDEST SWAP2 POP DUP2 SWAP1 POP SWAP2 SWAP1 POP JUMP JUMPDEST PUSH32 0x526F6C65206D75737420626520446F63746F722C204E757273652C206F722050 PUSH0 DUP3 ADD MSTORE PUSH32 0x6861726D61636973740000000000000000000000000000000000000000000000 PUSH1 0x20 DUP3 ADD MSTORE POP JUMP JUMPDEST PUSH0 PUSH2 0x3C95 PUSH1 0x29 DUP4 PUSH2 0x2D21 JUMP JUMPDEST SWAP2 POP PUSH2 0x3CA0 DUP3 PUSH2 0x3C3B JUMP JUMPDEST PUSH1 0x40 DUP3 ADD SWAP1 POP SWAP2 SWAP1 POP JUMP JUMPDEST PUSH0 PUSH1 0x20 DUP3 ADD SWAP1 POP DUP2 DUP2 SUB PUSH0 DUP4 ADD MSTORE PUSH2 0x3CC2 DUP2 PUSH2 0x3C89 JUMP JUMPDEST SWAP1 POP SWAP2 SWAP1 POP JUMP JUMPDEST PUSH0 PUSH2 0x3CD3 DUP3 PUSH2 0x293D JUMP JUMPDEST SWAP2 POP PUSH2 0x3CDE DUP4 PUSH2 0x293D JUMP JUMPDEST SWAP3 POP DUP3 DUP3 SUB SWAP1 POP DUP2 DUP2 GT ISZERO PUSH2 0x3CF6 JUMPI PUSH2 0x3CF5 PUSH2 0x34D3 JUMP JUMPDEST JUMPDEST SWAP3 SWAP2 POP POP JUMP JUMPDEST PUSH32 0x53747564656E7420616C72656164792072656769737465726564000000000000 PUSH0 DUP3 ADD MSTORE POP JUMP JUMPDEST PUSH0 PUSH2 0x3D30 PUSH1 0x1A DUP4 PUSH2 0x2D21 JUMP JUMPDEST SWAP2 POP PUSH2 0x3D3B DUP3 PUSH2 0x3CFC JUMP JUMPDEST PUSH1 0x20 DUP3 ADD SWAP1 POP SWAP2 SWAP1 POP JUMP JUMPDEST PUSH0 PUSH1 0x20 DUP3 ADD SWAP1 POP DUP2 DUP2 SUB PUSH0 DUP4 ADD MSTORE PUSH2 0x3D5D DUP2 PUSH2 0x3D24 JUMP JUMPDEST SWAP1 POP SWAP2 SWAP1 POP JUMP JUMPDEST PUSH32 0x4D6174726963206E756D626572206D7573742062652036206469676974730000 PUSH0 DUP3 ADD MSTORE POP JUMP JUMPDEST PUSH0 PUSH2 0x3D98 PUSH1 0x1E DUP4 PUSH2 0x2D21 JUMP JUMPDEST SWAP2 POP PUSH2 0x3DA3 DUP3 PUSH2 0x3D64 JUMP JUMPDEST PUSH1 0x20 DUP3 ADD SWAP1 POP SWAP2 SWAP1 POP JUMP JUMPDEST PUSH0 PUSH1 0x20 DUP3 ADD SWAP1 POP DUP2 DUP2 SUB PUSH0 DUP4 ADD MSTORE PUSH2 0x3DC5 DUP2 PUSH2 0x3D8C JUMP JUMPDEST SWAP1 POP SWAP2 SWAP1 POP JUMP JUMPDEST PUSH32 0x496E76616C696420726567697374726174696F6E206461746500000000000000 PUSH0 DUP3 ADD MSTORE POP JUMP JUMPDEST PUSH0 PUSH2 0x3E00 PUSH1 0x19 DUP4 PUSH2 0x2D21 JUMP JUMPDEST SWAP2 POP PUSH2 0x3E0B DUP3 PUSH2 0x3DCC JUMP JUMPDEST PUSH1 0x20 DUP3 ADD SWAP1 POP SWAP2 SWAP1 POP JUMP JUMPDEST PUSH0 PUSH1 0x20 DUP3 ADD SWAP1 POP DUP2 DUP2 SUB PUSH0 DUP4 ADD MSTORE PUSH2 0x3E2D DUP2 PUSH2 0x3DF4 JUMP JUMPDEST SWAP1 POP SWAP2 SWAP1 POP JUMP JUMPDEST PUSH32 0x4D6174726963206E756D62657220616C72656164792065786973747300000000 PUSH0 DUP3 ADD MSTORE POP JUMP JUMPDEST PUSH0 PUSH2 0x3E68 PUSH1 0x1C DUP4 PUSH2 0x2D21 JUMP JUMPDEST SWAP2 POP PUSH2 0x3E73 DUP3 PUSH2 0x3E34 JUMP JUMPDEST PUSH1 0x20 DUP3 ADD SWAP1 POP SWAP2 SWAP1 POP JUMP JUMPDEST PUSH0 PUSH1 0x20 DUP3 ADD SWAP1 POP DUP2 DUP2 SUB PUSH0 DUP4 ADD MSTORE PUSH2 0x3E95 DUP2 PUSH2 0x3E5C JUMP JUMPDEST SWAP1 POP SWAP2 SWAP1 POP JUMP JUMPDEST PUSH32 0x53747564656E74206E6F74207265676973746572656400000000000000000000 PUSH0 DUP3 ADD MSTORE POP JUMP JUMPDEST PUSH0 PUSH2 0x3ED0 PUSH1 0x16 DUP4 PUSH2 0x2D21 JUMP JUMPDEST SWAP2 POP PUSH2 0x3EDB DUP3 PUSH2 0x3E9C JUMP JUMPDEST PUSH1 0x20 DUP3 ADD SWAP1 POP SWAP2 SWAP1 POP JUMP JUMPDEST PUSH0 PUSH1 0x20 DUP3 ADD SWAP1 POP DUP2 DUP2 SUB PUSH0 DUP4 ADD MSTORE PUSH2 0x3EFD DUP2 PUSH2 0x3EC4 JUMP JUMPDEST SWAP1 POP SWAP2 SWAP1 POP JUMP JUMPDEST PUSH32 0x4E6F742061207265676973746572656420737461666600000000000000000000 PUSH0 DUP3 ADD MSTORE POP JUMP JUMPDEST PUSH0 PUSH2 0x3F38 PUSH1 0x16 DUP4 PUSH2 0x2D21 JUMP JUMPDEST SWAP2 POP PUSH2 0x3F43 DUP3 PUSH2 0x3F04 JUMP JUMPDEST PUSH1 0x20 DUP3 ADD SWAP1 POP SWAP2 SWAP1 POP JUMP JUMPDEST PUSH0 PUSH1 0x20 DUP3 ADD SWAP1 POP DUP2 DUP2 SUB PUSH0 DUP4 ADD MSTORE PUSH2 0x3F65 DUP2 PUSH2 0x3F2C JUMP JUMPDEST SWAP1 POP SWAP2 SWAP1 POP JUMP JUMPDEST PUSH0 PUSH2 0x3F76 DUP3 PUSH2 0x293D JUMP JUMPDEST SWAP2 POP PUSH32 0xFFFFFFFFFFFFFFFFFFFFFFFFFFFFFFFFFFFFFFFFFFFFFFFFFFFFFFFFFFFFFFFF DUP3 SUB PUSH2 0x3FA8 JUMPI PUSH2 0x3FA7 PUSH2 0x34D3 JUMP JUMPDEST JUMPDEST PUSH1 0x1 DUP3 ADD SWAP1 POP SWAP2 SWAP1 POP JUMP JUMPDEST PUSH32 0x5374616666206E6F742072656769737465726564000000000000000000000000 PUSH0 DUP3 ADD MSTORE POP JUMP JUMPDEST PUSH0 PUSH2 0x3FE7 PUSH1 0x14 DUP4 PUSH2 0x2D21 JUMP JUMPDEST SWAP2 POP PUSH2 0x3FF2 DUP3 PUSH2 0x3FB3 JUMP JUMPDEST PUSH1 0x20 DUP3 ADD SWAP1 POP SWAP2 SWAP1 POP JUMP JUMPDEST PUSH0 PUSH1 0x20 DUP3 ADD SWAP1 POP DUP2 DUP2 SUB PUSH0 DUP4 ADD MSTORE PUSH2 0x4014 DUP2 PUSH2 0x3FDB JUMP JUMPDEST SWAP1 POP SWAP2 SWAP1 POP JUMP JUMPDEST PUSH0 DUP2 SWAP1 POP SWAP2 SWAP1 POP JUMP JUMPDEST PUSH2 0x4035 PUSH2 0x4030 DUP3 PUSH2 0x293D JUMP JUMPDEST PUSH2 0x401B JUMP JUMPDEST DUP3 MSTORE POP POP JUMP JUMPDEST PUSH0 DUP2 PUSH1 0x60 SHL SWAP1 POP SWAP2 SWAP1 POP JUMP JUMPDEST PUSH0 PUSH2 0x4051 DUP3 PUSH2 0x403B JUMP JUMPDEST SWAP1 POP SWAP2 SWAP1 POP JUMP JUMPDEST PUSH0 PUSH2 0x4062 DUP3 PUSH2 0x4047 JUMP JUMPDEST SWAP1 POP SWAP2 SWAP1 POP JUMP JUMPDEST PUSH2 0x407A PUSH2 0x4075 DUP3 PUSH2 0x2796 JUMP JUMPDEST PUSH2 0x4058 JUMP JUMPDEST DUP3 MSTORE POP POP JUMP JUMPDEST PUSH0 PUSH2 0x408B DUP3 DUP7 PUSH2 0x4024 JUMP JUMPDEST PUSH1 0x20 DUP3 ADD SWAP2 POP PUSH2 0x409B DUP3 DUP6 PUSH2 0x4069 JUMP JUMPDEST PUSH1 0x14 DUP3 ADD SWAP2 POP PUSH2 0x40AB DUP3 DUP5 PUSH2 0x4024 JUMP JUMPDEST PUSH1 0x20 DUP3 ADD SWAP2 POP DUP2 SWAP1 POP SWAP5 SWAP4 POP POP POP POP JUMP JUMPDEST PUSH32 0x4E487B7100000000000000000000000000000000000000000000000000000000 PUSH0 MSTORE PUSH1 0x12 PUSH1 0x4 MSTORE PUSH1 0x24 PUSH0 REVERT JUMPDEST PUSH0 PUSH2 0x40F3 DUP3 PUSH2 0x293D JUMP JUMPDEST SWAP2 POP PUSH2 0x40FE DUP4 PUSH2 0x293D JUMP JUMPDEST SWAP3 POP DUP3 PUSH2 0x410E JUMPI PUSH2 0x410D PUSH2 0x40BC JUMP JUMPDEST JUMPDEST DUP3 DUP3 MOD SWAP1 POP SWAP3 SWAP2 POP POP JUMP INVALID LOG2 PUSH5 0x6970667358 0x22 SLT KECCAK256 0x4E MSTORE8 JUMPI SHR DUP11 SMOD 0x4D 0xE2 SWAP11 BASEFEE 0xBB 0xE1 0xE5 0x2F PUSH14 0x64E5F912872B03A54BFF5BB1ED87 PUSH14 0xC91664736F6C634300081A003300 "
				},
				"gasEstimates": {
					"creation": {
						"codeDepositCost": "3343800",
						"executionCost": "3721",
						"totalCost": "3347521"
					},
					"external": {
						"cancelAccessCode()": "20268",
						"generateNewAccessCode()": "infinite",
						"getAllStaff()": "infinite",
						"getAllStudents()": "infinite",
						"getPrescriptionCount(address)": "infinite",
						"getPrescriptions(address)": "infinite",
						"getStaff(address)": "infinite",
						"getStaffCount()": "2507",
						"getStudent(address)": "infinite",
						"getStudentCount()": "2485",
						"registerStaff(string,string)": "infinite",
						"registerStudent(string,uint256,uint256,string)": "infinite",
						"updatePatientRecord(uint256,string,string,uint256,bool,address)": "infinite"
					},
					"internal": {
						"generateRandomCode(address)": "infinite"
					}
				},
				"methodIdentifiers": {
					"cancelAccessCode()": "58d7430e",
					"generateNewAccessCode()": "4f60d018",
					"getAllStaff()": "032e0868",
					"getAllStudents()": "e9e30927",
					"getPrescriptionCount(address)": "d3c9acc1",
					"getPrescriptions(address)": "f8f3f382",
					"getStaff(address)": "ddd79504",
					"getStaffCount()": "b99b0703",
					"getStudent(address)": "6b7b44d7",
					"getStudentCount()": "41e0c407",
					"registerStaff(string,string)": "572344f1",
					"registerStudent(string,uint256,uint256,string)": "6148c54c",
					"updatePatientRecord(uint256,string,string,uint256,bool,address)": "141254cb"
				}
			},
			"storageLayout": {
				"storage": [
					{
						"astId": 42,
						"contract": "contracts/VeritasClinic.sol:HealthcareUniversity",
						"label": "students",
						"offset": 0,
						"slot": "0",
						"type": "t_array(t_struct(Student)20_storage)dyn_storage"
					},
					{
						"astId": 46,
						"contract": "contracts/VeritasClinic.sol:HealthcareUniversity",
						"label": "staff",
						"offset": 0,
						"slot": "1",
						"type": "t_array(t_struct(Staff)27_storage)dyn_storage"
					},
					{
						"astId": 50,
						"contract": "contracts/VeritasClinic.sol:HealthcareUniversity",
						"label": "prescriptions",
						"offset": 0,
						"slot": "2",
						"type": "t_array(t_struct(Prescription)38_storage)dyn_storage"
					},
					{
						"astId": 54,
						"contract": "contracts/VeritasClinic.sol:HealthcareUniversity",
						"label": "studentIndex",
						"offset": 0,
						"slot": "3",
						"type": "t_mapping(t_address,t_uint256)"
					},
					{
						"astId": 58,
						"contract": "contracts/VeritasClinic.sol:HealthcareUniversity",
						"label": "matricToIndex",
						"offset": 0,
						"slot": "4",
						"type": "t_mapping(t_uint256,t_uint256)"
					},
					{
						"astId": 62,
						"contract": "contracts/VeritasClinic.sol:HealthcareUniversity",
						"label": "staffIndex",
						"offset": 0,
						"slot": "5",
						"type": "t_mapping(t_address,t_uint256)"
					},
					{
						"astId": 66,
						"contract": "contracts/VeritasClinic.sol:HealthcareUniversity",
						"label": "isStudent",
						"offset": 0,
						"slot": "6",
						"type": "t_mapping(t_address,t_bool)"
					},
					{
						"astId": 70,
						"contract": "contracts/VeritasClinic.sol:HealthcareUniversity",
						"label": "isStaff",
						"offset": 0,
						"slot": "7",
						"type": "t_mapping(t_address,t_bool)"
					}
				],
				"types": {
					"t_address": {
						"encoding": "inplace",
						"label": "address",
						"numberOfBytes": "20"
					},
					"t_array(t_struct(Prescription)38_storage)dyn_storage": {
						"base": "t_struct(Prescription)38_storage",
						"encoding": "dynamic_array",
						"label": "struct HealthcareUniversity.Prescription[]",
						"numberOfBytes": "32"
					},
					"t_array(t_struct(Staff)27_storage)dyn_storage": {
						"base": "t_struct(Staff)27_storage",
						"encoding": "dynamic_array",
						"label": "struct HealthcareUniversity.Staff[]",
						"numberOfBytes": "32"
					},
					"t_array(t_struct(Student)20_storage)dyn_storage": {
						"base": "t_struct(Student)20_storage",
						"encoding": "dynamic_array",
						"label": "struct HealthcareUniversity.Student[]",
						"numberOfBytes": "32"
					},
					"t_bool": {
						"encoding": "inplace",
						"label": "bool",
						"numberOfBytes": "1"
					},
					"t_mapping(t_address,t_bool)": {
						"encoding": "mapping",
						"key": "t_address",
						"label": "mapping(address => bool)",
						"numberOfBytes": "32",
						"value": "t_bool"
					},
					"t_mapping(t_address,t_uint256)": {
						"encoding": "mapping",
						"key": "t_address",
						"label": "mapping(address => uint256)",
						"numberOfBytes": "32",
						"value": "t_uint256"
					},
					"t_mapping(t_uint256,t_uint256)": {
						"encoding": "mapping",
						"key": "t_uint256",
						"label": "mapping(uint256 => uint256)",
						"numberOfBytes": "32",
						"value": "t_uint256"
					},
					"t_string_storage": {
						"encoding": "bytes",
						"label": "string",
						"numberOfBytes": "32"
					},
					"t_struct(Prescription)38_storage": {
						"encoding": "inplace",
						"label": "struct HealthcareUniversity.Prescription",
						"members": [
							{
								"astId": 29,
								"contract": "contracts/VeritasClinic.sol:HealthcareUniversity",
								"label": "patientName",
								"offset": 0,
								"slot": "0",
								"type": "t_string_storage"
							},
							{
								"astId": 31,
								"contract": "contracts/VeritasClinic.sol:HealthcareUniversity",
								"label": "matricNumber",
								"offset": 0,
								"slot": "1",
								"type": "t_uint256"
							},
							{
								"astId": 33,
								"contract": "contracts/VeritasClinic.sol:HealthcareUniversity",
								"label": "prescription",
								"offset": 0,
								"slot": "2",
								"type": "t_string_storage"
							},
							{
								"astId": 35,
								"contract": "contracts/VeritasClinic.sol:HealthcareUniversity",
								"label": "recipient",
								"offset": 0,
								"slot": "3",
								"type": "t_address"
							},
							{
								"astId": 37,
								"contract": "contracts/VeritasClinic.sol:HealthcareUniversity",
								"label": "timestamp",
								"offset": 0,
								"slot": "4",
								"type": "t_uint256"
							}
						],
						"numberOfBytes": "160"
					},
					"t_struct(Staff)27_storage": {
						"encoding": "inplace",
						"label": "struct HealthcareUniversity.Staff",
						"members": [
							{
								"astId": 22,
								"contract": "contracts/VeritasClinic.sol:HealthcareUniversity",
								"label": "staffAddr",
								"offset": 0,
								"slot": "0",
								"type": "t_address"
							},
							{
								"astId": 24,
								"contract": "contracts/VeritasClinic.sol:HealthcareUniversity",
								"label": "name",
								"offset": 0,
								"slot": "1",
								"type": "t_string_storage"
							},
							{
								"astId": 26,
								"contract": "contracts/VeritasClinic.sol:HealthcareUniversity",
								"label": "role",
								"offset": 0,
								"slot": "2",
								"type": "t_string_storage"
							}
						],
						"numberOfBytes": "96"
					},
					"t_struct(Student)20_storage": {
						"encoding": "inplace",
						"label": "struct HealthcareUniversity.Student",
						"members": [
							{
								"astId": 3,
								"contract": "contracts/VeritasClinic.sol:HealthcareUniversity",
								"label": "patientAddr",
								"offset": 0,
								"slot": "0",
								"type": "t_address"
							},
							{
								"astId": 5,
								"contract": "contracts/VeritasClinic.sol:HealthcareUniversity",
								"label": "name",
								"offset": 0,
								"slot": "1",
								"type": "t_string_storage"
							},
							{
								"astId": 7,
								"contract": "contracts/VeritasClinic.sol:HealthcareUniversity",
								"label": "matricNumber",
								"offset": 0,
								"slot": "2",
								"type": "t_uint256"
							},
							{
								"astId": 9,
								"contract": "contracts/VeritasClinic.sol:HealthcareUniversity",
								"label": "regDate",
								"offset": 0,
								"slot": "3",
								"type": "t_uint256"
							},
							{
								"astId": 11,
								"contract": "contracts/VeritasClinic.sol:HealthcareUniversity",
								"label": "hostelRoomNumber",
								"offset": 0,
								"slot": "4",
								"type": "t_string_storage"
							},
							{
								"astId": 13,
								"contract": "contracts/VeritasClinic.sol:HealthcareUniversity",
								"label": "healthRecord",
								"offset": 0,
								"slot": "5",
								"type": "t_string_storage"
							},
							{
								"astId": 15,
								"contract": "contracts/VeritasClinic.sol:HealthcareUniversity",
								"label": "accessCode",
								"offset": 0,
								"slot": "6",
								"type": "t_uint256"
							},
							{
								"astId": 17,
								"contract": "contracts/VeritasClinic.sol:HealthcareUniversity",
								"label": "codeTimestamp",
								"offset": 0,
								"slot": "7",
								"type": "t_uint256"
							},
							{
								"astId": 19,
								"contract": "contracts/VeritasClinic.sol:HealthcareUniversity",
								"label": "isAdmitted",
								"offset": 0,
								"slot": "8",
								"type": "t_bool"
							}
						],
						"numberOfBytes": "288"
					},
					"t_uint256": {
						"encoding": "inplace",
						"label": "uint256",
						"numberOfBytes": "32"
					}
				}
			},
			"userdoc": {
				"kind": "user",
				"methods": {},
				"version": 1
			}
		}
	}
}