{
  "_format": "hh-sol-artifact-1",
  "contractName": "HealthcareUniversity",
  "sourceName": "contracts/HealthcareUniversity.sol",
  "abi": [
    {
      "anonymous": false,
      "inputs": [
        {
          "indexed": true,
          "internalType": "address",
          "name": "patientAddr",
          "type": "address"
        }
      ],
      "name": "AccessCodeCancelled",
      "type": "event"
    },
    {
      "anonymous": false,
      "inputs": [
        {
          "indexed": true,
          "internalType": "address",
          "name": "patientAddr",
          "type": "address"
        },
        {
          "indexed": false,
          "internalType": "uint256",
          "name": "newCode",
          "type": "uint256"
        }
      ],
      "name": "AccessCodeGenerated",
      "type": "event"
    },
    {
      "anonymous": false,
      "inputs": [
        {
          "indexed": true,
          "internalType": "address",
          "name": "patientAddr",
          "type": "address"
        },
        {
          "indexed": false,
          "internalType": "string",
          "name": "newRecord",
          "type": "string"
        }
      ],
      "name": "HealthRecordUpdated",
      "type": "event"
    },
    {
      "anonymous": false,
      "inputs": [
        {
          "indexed": true,
          "internalType": "address",
          "name": "patientAddr",
          "type": "address"
        },
        {
          "indexed": true,
          "internalType": "address",
          "name": "recipient",
          "type": "address"
        },
        {
          "indexed": false,
          "internalType": "string",
          "name": "prescription",
          "type": "string"
        }
      ],
      "name": "PrescriptionSent",
      "type": "event"
    },
    {
      "anonymous": false,
      "inputs": [
        {
          "indexed": true,
          "internalType": "address",
          "name": "staffAddr",
          "type": "address"
        },
        {
          "indexed": false,
          "internalType": "string",
          "name": "role",
          "type": "string"
        }
      ],
      "name": "StaffRegistered",
      "type": "event"
    },
    {
      "anonymous": false,
      "inputs": [
        {
          "indexed": true,
          "internalType": "address",
          "name": "patientAddr",
          "type": "address"
        },
        {
          "indexed": false,
          "internalType": "uint256",
          "name": "matricNumber",
          "type": "uint256"
        }
      ],
      "name": "StudentRegistered",
      "type": "event"
    },
    {
      "inputs": [],
      "name": "cancelAccessCode",
      "outputs": [],
      "stateMutability": "nonpayable",
      "type": "function"
    },
    {
      "inputs": [],
      "name": "generateNewAccessCode",
      "outputs": [],
      "stateMutability": "nonpayable",
      "type": "function"
    },
    {
      "inputs": [],
      "name": "getAllStaff",
      "outputs": [
        {
          "components": [
            {
              "internalType": "address",
              "name": "staffAddr",
              "type": "address"
            },
            {
              "internalType": "string",
              "name": "name",
              "type": "string"
            },
            {
              "internalType": "string",
              "name": "role",
              "type": "string"
            }
          ],
          "internalType": "struct HealthcareUniversity.Staff[]",
          "name": "",
          "type": "tuple[]"
        }
      ],
      "stateMutability": "view",
      "type": "function"
    },
    {
      "inputs": [],
      "name": "getAllStudents",
      "outputs": [
        {
          "components": [
            {
              "internalType": "address",
              "name": "patientAddr",
              "type": "address"
            },
            {
              "internalType": "string",
              "name": "name",
              "type": "string"
            },
            {
              "internalType": "uint256",
              "name": "matricNumber",
              "type": "uint256"
            },
            {
              "internalType": "uint256",
              "name": "regDate",
              "type": "uint256"
            },
            {
              "internalType": "string",
              "name": "hostelRoomNumber",
              "type": "string"
            },
            {
              "internalType": "string",
              "name": "healthRecord",
              "type": "string"
            },
            {
              "internalType": "uint256",
              "name": "accessCode",
              "type": "uint256"
            },
            {
              "internalType": "uint256",
              "name": "codeTimestamp",
              "type": "uint256"
            },
            {
              "internalType": "bool",
              "name": "isAdmitted",
              "type": "bool"
            }
          ],
          "internalType": "struct HealthcareUniversity.Student[]",
          "name": "",
          "type": "tuple[]"
        }
      ],
      "stateMutability": "view",
      "type": "function"
    },
    {
      "inputs": [
        {
          "internalType": "address",
          "name": "_recipient",
          "type": "address"
        }
      ],
      "name": "getPrescriptionCount",
      "outputs": [
        {
          "internalType": "uint256",
          "name": "",
          "type": "uint256"
        }
      ],
      "stateMutability": "view",
      "type": "function"
    },
    {
      "inputs": [
        {
          "internalType": "address",
          "name": "_recipient",
          "type": "address"
        }
      ],
      "name": "getPrescriptions",
      "outputs": [
        {
          "components": [
            {
              "internalType": "string",
              "name": "patientName",
              "type": "string"
            },
            {
              "internalType": "uint256",
              "name": "matricNumber",
              "type": "uint256"
            },
            {
              "internalType": "string",
              "name": "prescription",
              "type": "string"
            },
            {
              "internalType": "address",
              "name": "recipient",
              "type": "address"
            },
            {
              "internalType": "uint256",
              "name": "timestamp",
              "type": "uint256"
            }
          ],
          "internalType": "struct HealthcareUniversity.Prescription[]",
          "name": "",
          "type": "tuple[]"
        }
      ],
      "stateMutability": "view",
      "type": "function"
    },
    {
      "inputs": [
        {
          "internalType": "address",
          "name": "_staffAddr",
          "type": "address"
        }
      ],
      "name": "getStaff",
      "outputs": [
        {
          "internalType": "string",
          "name": "name",
          "type": "string"
        },
        {
          "internalType": "string",
          "name": "role",
          "type": "string"
        }
      ],
      "stateMutability": "view",
      "type": "function"
    },
    {
      "inputs": [],
      "name": "getStaffCount",
      "outputs": [
        {
          "internalType": "uint256",
          "name": "",
          "type": "uint256"
        }
      ],
      "stateMutability": "view",
      "type": "function"
    },
    {
      "inputs": [
        {
          "internalType": "address",
          "name": "_patientAddr",
          "type": "address"
        }
      ],
      "name": "getStudent",
      "outputs": [
        {
          "internalType": "string",
          "name": "name",
          "type": "string"
        },
        {
          "internalType": "uint256",
          "name": "matricNumber",
          "type": "uint256"
        },
        {
          "internalType": "uint256",
          "name": "regDate",
          "type": "uint256"
        },
        {
          "internalType": "string",
          "name": "hostelRoomNumber",
          "type": "string"
        },
        {
          "internalType": "string",
          "name": "healthRecord",
          "type": "string"
        },
        {
          "internalType": "uint256",
          "name": "accessCode",
          "type": "uint256"
        },
        {
          "internalType": "bool",
          "name": "isAdmitted",
          "type": "bool"
        }
      ],
      "stateMutability": "view",
      "type": "function"
    },
    {
      "inputs": [],
      "name": "getStudentCount",
      "outputs": [
        {
          "internalType": "uint256",
          "name": "",
          "type": "uint256"
        }
      ],
      "stateMutability": "view",
      "type": "function"
    },
    {
      "inputs": [
        {
          "internalType": "string",
          "name": "_name",
          "type": "string"
        },
        {
          "internalType": "string",
          "name": "_role",
          "type": "string"
        }
      ],
      "name": "registerStaff",
      "outputs": [],
      "stateMutability": "nonpayable",
      "type": "function"
    },
    {
      "inputs": [
        {
          "internalType": "string",
          "name": "_name",
          "type": "string"
        },
        {
          "internalType": "uint256",
          "name": "_matricNumber",
          "type": "uint256"
        },
        {
          "internalType": "uint256",
          "name": "_regDate",
          "type": "uint256"
        },
        {
          "internalType": "string",
          "name": "_hostelRoomNumber",
          "type": "string"
        }
      ],
      "name": "registerStudent",
      "outputs": [],
      "stateMutability": "nonpayable",
      "type": "function"
    },
    {
      "inputs": [
        {
          "internalType": "uint256",
          "name": "_matricNumber",
          "type": "uint256"
        },
        {
          "internalType": "string",
          "name": "_newRecord",
          "type": "string"
        },
        {
          "internalType": "string",
          "name": "_prescription",
          "type": "string"
        },
        {
          "internalType": "uint256",
          "name": "_accessCode",
          "type": "uint256"
        },
        {
          "internalType": "bool",
          "name": "_isAdmitted",
          "type": "bool"
        },
        {
          "internalType": "address",
          "name": "_recipient",
          "type": "address"
        }
      ],
      "name": "updatePatientRecord",
      "outputs": [],
      "stateMutability": "nonpayable",
      "type": "function"
    }
  ],
  "bytecode": "0x608060405234801561001057600080fd5b50614341806100206000396000f3fe608060405234801561001057600080fd5b50600436106100cf5760003560e01c80636148c54c1161008c578063d3c9acc111610066578063d3c9acc1146101cc578063ddd79504146101fc578063e9e309271461022d578063f8f3f3821461024b576100cf565b80636148c54c1461015c5780636b7b44d714610178578063b99b0703146101ae576100cf565b8063032e0868146100d4578063141254cb146100f257806341e0c4071461010e5780634f60d0181461012c578063572344f11461013657806358d7430e14610152575b600080fd5b6100dc61027b565b6040516100e99190612a37565b60405180910390f35b61010c60048036038101906101079190612c3c565b610454565b005b610116610d64565b6040516101239190612d10565b60405180910390f35b610134610d70565b005b610150600480360381019061014b9190612d2b565b610ef3565b005b61015a6112cd565b005b61017660048036038101906101719190612da3565b611437565b005b610192600480360381019061018d9190612e42565b611917565b6040516101a59796959493929190612ec8565b60405180910390f35b6101b6611d0f565b6040516101c39190612d10565b60405180910390f35b6101e660048036038101906101e19190612e42565b611d1c565b6040516101f39190612d10565b60405180910390f35b61021660048036038101906102119190612e42565b611e5f565b604051610224929190612f4c565b60405180910390f35b6102356120f2565b6040516102429190613136565b60405180910390f35b61026560048036038101906102609190612e42565b6123a1565b6040516102729190613297565b60405180910390f35b60606001805480602002602001604051908101604052809291908181526020016000905b8282101561044b57838290600052602060002090600302016040518060600160405290816000820160009054906101000a900473ffffffffffffffffffffffffffffffffffffffff1673ffffffffffffffffffffffffffffffffffffffff1673ffffffffffffffffffffffffffffffffffffffff168152602001600182018054610328906132e8565b80601f0160208091040260200160405190810160405280929190818152602001828054610354906132e8565b80156103a15780601f10610376576101008083540402835291602001916103a1565b820191906000526020600020905b81548152906001019060200180831161038457829003601f168201915b505050505081526020016002820180546103ba906132e8565b80601f01602080910402602001604051908101604052809291908181526020018280546103e6906132e8565b80156104335780601f1061040857610100808354040283529160200191610433565b820191906000526020600020905b81548152906001019060200180831161041657829003601f168201915b5050505050815250508152602001906001019061029f565b50505050905090565b600760003373ffffffffffffffffffffffffffffffffffffffff1673ffffffffffffffffffffffffffffffffffffffff16815260200190815260200160002060009054906101000a900460ff166104e0576040517f08c379a00000000000000000000000000000000000000000000000000000000081526004016104d79061338b565b60405180910390fd5b6000600560003373ffffffffffffffffffffffffffffffffffffffff1673ffffffffffffffffffffffffffffffffffffffff16815260200190815260200160002054905060405160200161053390613402565b604051602081830303815290604052805190602001206001828154811061055d5761055c613417565b5b906000526020600020906003020160020160405160200161057e91906134de565b60405160208183030381529060405280519060200120146105d4576040517f08c379a00000000000000000000000000000000000000000000000000000000081526004016105cb90613567565b60405180910390fd5b600060046000898152602001908152602001600020541415806105fb575060008080549050115b61063a576040517f08c379a0000000000000000000000000000000000000000000000000000000008152600401610631906135d3565b60405180910390fd5b600060046000898152602001908152602001600020549050846000828154811061066757610666613417565b5b906000526020600020906009020160060154146106b9576040517f08c379a00000000000000000000000000000000000000000000000000000000081526004016106b09061363f565b60405180910390fd5b610708600082815481106106d0576106cf613417565b5b9060005260206000209060090201600701546106ec919061368e565b42111561072e576040517f08c379a00000000000000000000000000000000000000000000000000000000081526004016107259061370e565b60405180910390fd5b6000875111610772576040517f08c379a00000000000000000000000000000000000000000000000000000000081526004016107699061377a565b60405180910390fd5b60008651116107b6576040517f08c379a00000000000000000000000000000000000000000000000000000000081526004016107ad906137e6565b60405180910390fd5b600760008473ffffffffffffffffffffffffffffffffffffffff1673ffffffffffffffffffffffffffffffffffffffff16815260200190815260200160002060009054906101000a900460ff16610842576040517f08c379a000000000000000000000000000000000000000000000000000000000815260040161083990613878565b60405180910390fd5b6000600560008573ffffffffffffffffffffffffffffffffffffffff1673ffffffffffffffffffffffffffffffffffffffff1681526020019081526020016000205490506000856108c8576040518060400160405280600a81526020017f506861726d6163697374000000000000000000000000000000000000000000008152506108ff565b6040518060400160405280600581526020017f4e757273650000000000000000000000000000000000000000000000000000008152505b90508060405160200161091291906138c9565b604051602081830303815290604052805190602001206001838154811061093c5761093b613417565b5b906000526020600020906003020160020160405160200161095d91906134de565b60405160208183030381529060405280519060200120146109b3576040517f08c379a00000000000000000000000000000000000000000000000000000000081526004016109aa9061392c565b60405180910390fd5b88600084815481106109c8576109c7613417565b5b906000526020600020906009020160050190816109e59190613ae3565b5085600084815481106109fb576109fa613417565b5b906000526020600020906009020160080160006101000a81548160ff0219169083151502179055506000808481548110610a3857610a37613417565b5b9060005260206000209060090201600601819055506000808481548110610a6257610a61613417565b5b90600052602060002090600902016007018190555060006040518060a0016040528060008681548110610a9857610a97613417565b5b90600052602060002090600902016001018054610ab4906132e8565b80601f0160208091040260200160405190810160405280929190818152602001828054610ae0906132e8565b8015610b2d5780601f10610b0257610100808354040283529160200191610b2d565b820191906000526020600020905b815481529060010190602001808311610b1057829003601f168201915b505050505081526020018c81526020018a81526020018773ffffffffffffffffffffffffffffffffffffffff16815260200142815250905060028190806001815401808255809150506001900390600052602060002090600502016000909190919091506000820151816000019081610ba69190613ae3565b50602082015181600101556040820151816002019081610bc69190613ae3565b5060608201518160030160006101000a81548173ffffffffffffffffffffffffffffffffffffffff021916908373ffffffffffffffffffffffffffffffffffffffff16021790555060808201518160040155505060008481548110610c2e57610c2d613417565b5b906000526020600020906009020160000160009054906101000a900473ffffffffffffffffffffffffffffffffffffffff1673ffffffffffffffffffffffffffffffffffffffff167f496728c3966d39323f4b0f6f4a7a5e1f1cbbc87338b4a1d5942049e331ae28178b604051610ca59190613bb5565b60405180910390a28573ffffffffffffffffffffffffffffffffffffffff1660008581548110610cd857610cd7613417565b5b906000526020600020906009020160000160009054906101000a900473ffffffffffffffffffffffffffffffffffffffff1673ffffffffffffffffffffffffffffffffffffffff167f4f3e584412b404b8ea3e8ae1652df00170eb8b52474dece1592acffd5d7714438b604051610d4f9190613bb5565b60405180910390a35050505050505050505050565b60008080549050905090565b600660003373ffffffffffffffffffffffffffffffffffffffff1673ffffffffffffffffffffffffffffffffffffffff16815260200190815260200160002060009054906101000a900460ff16610dfc576040517f08c379a0000000000000000000000000000000000000000000000000000000008152600401610df390613c49565b60405180910390fd5b6000600360003373ffffffffffffffffffffffffffffffffffffffff1673ffffffffffffffffffffffffffffffffffffffff1681526020019081526020016000205490506000610e4b336127c3565b90508060008381548110610e6257610e61613417565b5b9060005260206000209060090201600601819055504260008381548110610e8c57610e8b613417565b5b9060005260206000209060090201600701819055503373ffffffffffffffffffffffffffffffffffffffff167f511f82b4a6612092391a59ddbe0940faeaef8c62498f9a2e7495af8770f0ef4f82604051610ee79190612d10565b60405180910390a25050565b600760003373ffffffffffffffffffffffffffffffffffffffff1673ffffffffffffffffffffffffffffffffffffffff16815260200190815260200160002060009054906101000a900460ff1615610f80576040517f08c379a0000000000000000000000000000000000000000000000000000000008152600401610f7790613cb5565b60405180910390fd5b6000825111610fc4576040517f08c379a0000000000000000000000000000000000000000000000000000000008152600401610fbb90613d21565b60405180910390fd5b604051602001610fd390613402565b6040516020818303038152906040528051906020012081604051602001610ffa91906138c9565b604051602081830303815290604052805190602001201480611065575060405160200161102690613d8d565b604051602081830303815290604052805190602001208160405160200161104d91906138c9565b60405160208183030381529060405280519060200120145b806110b9575060405160200161107a90613dee565b60405160208183030381529060405280519060200120816040516020016110a191906138c9565b60405160208183030381529060405280519060200120145b6110f8576040517f08c379a00000000000000000000000000000000000000000000000000000000081526004016110ef90613e75565b60405180910390fd5b600060405180606001604052803373ffffffffffffffffffffffffffffffffffffffff168152602001848152602001838152509050600181908060018154018082558091505060019003906000526020600020906003020160009091909190915060008201518160000160006101000a81548173ffffffffffffffffffffffffffffffffffffffff021916908373ffffffffffffffffffffffffffffffffffffffff16021790555060208201518160010190816111b59190613ae3565b5060408201518160020190816111cb9190613ae3565b505050600180805490506111df9190613e95565b600560003373ffffffffffffffffffffffffffffffffffffffff1673ffffffffffffffffffffffffffffffffffffffff168152602001908152602001600020819055506001600760003373ffffffffffffffffffffffffffffffffffffffff1673ffffffffffffffffffffffffffffffffffffffff16815260200190815260200160002060006101000a81548160ff0219169083151502179055503373ffffffffffffffffffffffffffffffffffffffff167fa030fd4c7d3464e2ab354cc6357d7c2e9b69a215a9ff95d0bea2dd9dacb592b7836040516112c09190613bb5565b60405180910390a2505050565b600660003373ffffffffffffffffffffffffffffffffffffffff1673ffffffffffffffffffffffffffffffffffffffff16815260200190815260200160002060009054906101000a900460ff16611359576040517f08c379a000000000000000000000000000000000000000000000000000000000815260040161135090613c49565b60405180910390fd5b6000600360003373ffffffffffffffffffffffffffffffffffffffff1673ffffffffffffffffffffffffffffffffffffffff16815260200190815260200160002054905060008082815481106113b2576113b1613417565b5b90600052602060002090600902016006018190555060008082815481106113dc576113db613417565b5b9060005260206000209060090201600701819055503373ffffffffffffffffffffffffffffffffffffffff167fdd8f91a332f5654eac96adcf2c43c93ed5cfcc4c7694c38f9513d174395bcc6660405160405180910390a250565b600660003373ffffffffffffffffffffffffffffffffffffffff1673ffffffffffffffffffffffffffffffffffffffff16815260200190815260200160002060009054906101000a900460ff16156114c4576040517f08c379a00000000000000000000000000000000000000000000000000000000081526004016114bb90613f15565b60405180910390fd5b6000845111611508576040517f08c379a00000000000000000000000000000000000000000000000000000000081526004016114ff90613d21565b60405180910390fd5b620186a0831015801561151e5750620f423f8311155b61155d576040517f08c379a000000000000000000000000000000000000000000000000000000000815260040161155490613f81565b60405180910390fd5b428211156115a0576040517f08c379a000000000000000000000000000000000000000000000000000000000815260040161159790613fed565b60405180910390fd5b600060046000858152602001908152602001600020541480156115c7575060008080549050145b806115e5575060006004600085815260200190815260200160002054145b611624576040517f08c379a000000000000000000000000000000000000000000000000000000000815260040161161b90614059565b60405180910390fd5b600061162f336127c3565b905060006040518061012001604052803373ffffffffffffffffffffffffffffffffffffffff168152602001878152602001868152602001858152602001848152602001604051806020016040528060008152508152602001838152602001428152602001600015158152509050600081908060018154018082558091505060019003906000526020600020906009020160009091909190915060008201518160000160006101000a81548173ffffffffffffffffffffffffffffffffffffffff021916908373ffffffffffffffffffffffffffffffffffffffff16021790555060208201518160010190816117259190613ae3565b506040820151816002015560608201518160030155608082015181600401908161174f9190613ae3565b5060a08201518160050190816117659190613ae3565b5060c0820151816006015560e082015181600701556101008201518160080160006101000a81548160ff021916908315150217905550505060016000805490506117af9190613e95565b600360003373ffffffffffffffffffffffffffffffffffffffff1673ffffffffffffffffffffffffffffffffffffffff1681526020019081526020016000208190555060016000805490506118049190613e95565b60046000878152602001908152602001600020819055506001600660003373ffffffffffffffffffffffffffffffffffffffff1673ffffffffffffffffffffffffffffffffffffffff16815260200190815260200160002060006101000a81548160ff0219169083151502179055503373ffffffffffffffffffffffffffffffffffffffff167ff6557c3f758aba81a6954691eb0b4408d0e837b55d6fa550b1576e6292a9106c866040516118b99190612d10565b60405180910390a23373ffffffffffffffffffffffffffffffffffffffff167f511f82b4a6612092391a59ddbe0940faeaef8c62498f9a2e7495af8770f0ef4f836040516119079190612d10565b60405180910390a2505050505050565b6060600080606080600080600660008973ffffffffffffffffffffffffffffffffffffffff1673ffffffffffffffffffffffffffffffffffffffff16815260200190815260200160002060009054906101000a900460ff166119ae576040517f08c379a00000000000000000000000000000000000000000000000000000000081526004016119a5906140c5565b60405180910390fd5b6000600360008a73ffffffffffffffffffffffffffffffffffffffff1673ffffffffffffffffffffffffffffffffffffffff1681526020019081526020016000205490506000808281548110611a0757611a06613417565b5b9060005260206000209060090201604051806101200160405290816000820160009054906101000a900473ffffffffffffffffffffffffffffffffffffffff1673ffffffffffffffffffffffffffffffffffffffff1673ffffffffffffffffffffffffffffffffffffffff168152602001600182018054611a87906132e8565b80601f0160208091040260200160405190810160405280929190818152602001828054611ab3906132e8565b8015611b005780601f10611ad557610100808354040283529160200191611b00565b820191906000526020600020905b815481529060010190602001808311611ae357829003601f168201915b505050505081526020016002820154815260200160038201548152602001600482018054611b2d906132e8565b80601f0160208091040260200160405190810160405280929190818152602001828054611b59906132e8565b8015611ba65780601f10611b7b57610100808354040283529160200191611ba6565b820191906000526020600020905b815481529060010190602001808311611b8957829003601f168201915b50505050508152602001600582018054611bbf906132e8565b80601f0160208091040260200160405190810160405280929190818152602001828054611beb906132e8565b8015611c385780601f10611c0d57610100808354040283529160200191611c38565b820191906000526020600020905b815481529060010190602001808311611c1b57829003601f168201915b5050505050815260200160068201548152602001600782015481526020016008820160009054906101000a900460ff161515151581525050905060008a73ffffffffffffffffffffffffffffffffffffffff163373ffffffffffffffffffffffffffffffffffffffff16148015611cc057506107088260e00151611cbc919061368e565b4211155b611ccb576000611cd1565b8160c001515b905081602001518260400151836060015184608001518560a00151858761010001519950995099509950995099509950505050919395979092949650565b6000600180549050905090565b6000600760008373ffffffffffffffffffffffffffffffffffffffff1673ffffffffffffffffffffffffffffffffffffffff16815260200190815260200160002060009054906101000a900460ff16611daa576040517f08c379a0000000000000000000000000000000000000000000000000000000008152600401611da190614131565b60405180910390fd5b6000805b600280549050811015611e55578373ffffffffffffffffffffffffffffffffffffffff1660028281548110611de657611de5613417565b5b906000526020600020906005020160030160009054906101000a900473ffffffffffffffffffffffffffffffffffffffff1673ffffffffffffffffffffffffffffffffffffffff1603611e42578180611e3e90614151565b9250505b8080611e4d90614151565b915050611dae565b5080915050919050565b606080600760008473ffffffffffffffffffffffffffffffffffffffff1673ffffffffffffffffffffffffffffffffffffffff16815260200190815260200160002060009054906101000a900460ff16611eee576040517f08c379a0000000000000000000000000000000000000000000000000000000008152600401611ee5906141e5565b60405180910390fd5b6000600560008573ffffffffffffffffffffffffffffffffffffffff1673ffffffffffffffffffffffffffffffffffffffff168152602001908152602001600020549050600060018281548110611f4857611f47613417565b5b90600052602060002090600302016040518060600160405290816000820160009054906101000a900473ffffffffffffffffffffffffffffffffffffffff1673ffffffffffffffffffffffffffffffffffffffff1673ffffffffffffffffffffffffffffffffffffffff168152602001600182018054611fc7906132e8565b80601f0160208091040260200160405190810160405280929190818152602001828054611ff3906132e8565b80156120405780601f1061201557610100808354040283529160200191612040565b820191906000526020600020905b81548152906001019060200180831161202357829003601f168201915b50505050508152602001600282018054612059906132e8565b80601f0160208091040260200160405190810160405280929190818152602001828054612085906132e8565b80156120d25780601f106120a7576101008083540402835291602001916120d2565b820191906000526020600020905b8154815290600101906020018083116120b557829003601f168201915b505050505081525050905080602001518160400151935093505050915091565b60606000805480602002602001604051908101604052809291908181526020016000905b828210156123985783829060005260206000209060090201604051806101200160405290816000820160009054906101000a900473ffffffffffffffffffffffffffffffffffffffff1673ffffffffffffffffffffffffffffffffffffffff1673ffffffffffffffffffffffffffffffffffffffff1681526020016001820180546121a0906132e8565b80601f01602080910402602001604051908101604052809291908181526020018280546121cc906132e8565b80156122195780601f106121ee57610100808354040283529160200191612219565b820191906000526020600020905b8154815290600101906020018083116121fc57829003601f168201915b505050505081526020016002820154815260200160038201548152602001600482018054612246906132e8565b80601f0160208091040260200160405190810160405280929190818152602001828054612272906132e8565b80156122bf5780601f10612294576101008083540402835291602001916122bf565b820191906000526020600020905b8154815290600101906020018083116122a257829003601f168201915b505050505081526020016005820180546122d8906132e8565b80601f0160208091040260200160405190810160405280929190818152602001828054612304906132e8565b80156123515780601f1061232657610100808354040283529160200191612351565b820191906000526020600020905b81548152906001019060200180831161233457829003601f168201915b5050505050815260200160068201548152602001600782015481526020016008820160009054906101000a900460ff16151515158152505081526020019060010190612116565b50505050905090565b6060600760008373ffffffffffffffffffffffffffffffffffffffff1673ffffffffffffffffffffffffffffffffffffffff16815260200190815260200160002060009054906101000a900460ff1661242f576040517f08c379a000000000000000000000000000000000000000000000000000000000815260040161242690614131565b60405180910390fd5b6000805b6002805490508110156124da578373ffffffffffffffffffffffffffffffffffffffff166002828154811061246b5761246a613417565b5b906000526020600020906005020160030160009054906101000a900473ffffffffffffffffffffffffffffffffffffffff1673ffffffffffffffffffffffffffffffffffffffff16036124c75781806124c390614151565b9250505b80806124d290614151565b915050612433565b5060008167ffffffffffffffff8111156124f7576124f6612aad565b5b60405190808252806020026020018201604052801561253057816020015b61251d612808565b8152602001906001900390816125155790505b5090506000805b6002805490508110156127b7578573ffffffffffffffffffffffffffffffffffffffff166002828154811061256f5761256e613417565b5b906000526020600020906005020160030160009054906101000a900473ffffffffffffffffffffffffffffffffffffffff1673ffffffffffffffffffffffffffffffffffffffff16036127a457600281815481106125d0576125cf613417565b5b90600052602060002090600502016040518060a00160405290816000820180546125f9906132e8565b80601f0160208091040260200160405190810160405280929190818152602001828054612625906132e8565b80156126725780601f1061264757610100808354040283529160200191612672565b820191906000526020600020905b81548152906001019060200180831161265557829003601f168201915b5050505050815260200160018201548152602001600282018054612695906132e8565b80601f01602080910402602001604051908101604052809291908181526020018280546126c1906132e8565b801561270e5780601f106126e35761010080835404028352916020019161270e565b820191906000526020600020905b8154815290600101906020018083116126f157829003601f168201915b505050505081526020016003820160009054906101000a900473ffffffffffffffffffffffffffffffffffffffff1673ffffffffffffffffffffffffffffffffffffffff1673ffffffffffffffffffffffffffffffffffffffff16815260200160048201548152505083838151811061278a57612789613417565b5b602002602001018190525081806127a090614151565b9250505b80806127af90614151565b915050612537565b50819350505050919050565b6000620f42404283446040516020016127de9392919061426e565b6040516020818303038152906040528051906020012060001c61280191906142da565b9050919050565b6040518060a00160405280606081526020016000815260200160608152602001600073ffffffffffffffffffffffffffffffffffffffff168152602001600081525090565b600081519050919050565b600082825260208201905092915050565b6000819050602082019050919050565b600073ffffffffffffffffffffffffffffffffffffffff82169050919050565b60006128a482612879565b9050919050565b6128b481612899565b82525050565b600081519050919050565b600082825260208201905092915050565b60005b838110156128f45780820151818401526020810190506128d9565b60008484015250505050565b6000601f19601f8301169050919050565b600061291c826128ba565b61292681856128c5565b93506129368185602086016128d6565b61293f81612900565b840191505092915050565b600060608301600083015161296260008601826128ab565b506020830151848203602086015261297a8282612911565b915050604083015184820360408601526129948282612911565b9150508091505092915050565b60006129ad838361294a565b905092915050565b6000602082019050919050565b60006129cd8261284d565b6129d78185612858565b9350836020820285016129e985612869565b8060005b85811015612a255784840389528151612a0685826129a1565b9450612a11836129b5565b925060208a019950506001810190506129ed565b50829750879550505050505092915050565b60006020820190508181036000830152612a5181846129c2565b905092915050565b6000604051905090565b600080fd5b600080fd5b6000819050919050565b612a8081612a6d565b8114612a8b57600080fd5b50565b600081359050612a9d81612a77565b92915050565b600080fd5b600080fd5b7f4e487b7100000000000000000000000000000000000000000000000000000000600052604160045260246000fd5b612ae582612900565b810181811067ffffffffffffffff82111715612b0457612b03612aad565b5b80604052505050565b6000612b17612a59565b9050612b238282612adc565b919050565b600067ffffffffffffffff821115612b4357612b42612aad565b5b612b4c82612900565b9050602081019050919050565b82818337600083830152505050565b6000612b7b612b7684612b28565b612b0d565b905082815260208101848484011115612b9757612b96612aa8565b5b612ba2848285612b59565b509392505050565b600082601f830112612bbf57612bbe612aa3565b5b8135612bcf848260208601612b68565b91505092915050565b60008115159050919050565b612bed81612bd8565b8114612bf857600080fd5b50565b600081359050612c0a81612be4565b92915050565b612c1981612899565b8114612c2457600080fd5b50565b600081359050612c3681612c10565b92915050565b60008060008060008060c08789031215612c5957612c58612a63565b5b6000612c6789828a01612a8e565b965050602087013567ffffffffffffffff811115612c8857612c87612a68565b5b612c9489828a01612baa565b955050604087013567ffffffffffffffff811115612cb557612cb4612a68565b5b612cc189828a01612baa565b9450506060612cd289828a01612a8e565b9350506080612ce389828a01612bfb565b92505060a0612cf489828a01612c27565b9150509295509295509295565b612d0a81612a6d565b82525050565b6000602082019050612d256000830184612d01565b92915050565b60008060408385031215612d4257612d41612a63565b5b600083013567ffffffffffffffff811115612d6057612d5f612a68565b5b612d6c85828601612baa565b925050602083013567ffffffffffffffff811115612d8d57612d8c612a68565b5b612d9985828601612baa565b9150509250929050565b60008060008060808587031215612dbd57612dbc612a63565b5b600085013567ffffffffffffffff811115612ddb57612dda612a68565b5b612de787828801612baa565b9450506020612df887828801612a8e565b9350506040612e0987828801612a8e565b925050606085013567ffffffffffffffff811115612e2a57612e29612a68565b5b612e3687828801612baa565b91505092959194509250565b600060208284031215612e5857612e57612a63565b5b6000612e6684828501612c27565b91505092915050565b600082825260208201905092915050565b6000612e8b826128ba565b612e958185612e6f565b9350612ea58185602086016128d6565b612eae81612900565b840191505092915050565b612ec281612bd8565b82525050565b600060e0820190508181036000830152612ee2818a612e80565b9050612ef16020830189612d01565b612efe6040830188612d01565b8181036060830152612f108187612e80565b90508181036080830152612f248186612e80565b9050612f3360a0830185612d01565b612f4060c0830184612eb9565b98975050505050505050565b60006040820190508181036000830152612f668185612e80565b90508181036020830152612f7a8184612e80565b90509392505050565b600081519050919050565b600082825260208201905092915050565b6000819050602082019050919050565b612fb881612a6d565b82525050565b612fc781612bd8565b82525050565b600061012083016000830151612fe660008601826128ab565b5060208301518482036020860152612ffe8282612911565b91505060408301516130136040860182612faf565b5060608301516130266060860182612faf565b506080830151848203608086015261303e8282612911565b91505060a083015184820360a08601526130588282612911565b91505060c083015161306d60c0860182612faf565b5060e083015161308060e0860182612faf565b50610100830151613095610100860182612fbe565b508091505092915050565b60006130ac8383612fcd565b905092915050565b6000602082019050919050565b60006130cc82612f83565b6130d68185612f8e565b9350836020820285016130e885612f9f565b8060005b85811015613124578484038952815161310585826130a0565b9450613110836130b4565b925060208a019950506001810190506130ec565b50829750879550505050505092915050565b6000602082019050818103600083015261315081846130c1565b905092915050565b600081519050919050565b600082825260208201905092915050565b6000819050602082019050919050565b600060a08301600083015184820360008601526131a18282612911565b91505060208301516131b66020860182612faf565b50604083015184820360408601526131ce8282612911565b91505060608301516131e360608601826128ab565b5060808301516131f66080860182612faf565b508091505092915050565b600061320d8383613184565b905092915050565b6000602082019050919050565b600061322d82613158565b6132378185613163565b93508360208202850161324985613174565b8060005b8581101561328557848403895281516132668582613201565b945061327183613215565b925060208a0199505060018101905061324d565b50829750879550505050505092915050565b600060208201905081810360008301526132b18184613222565b905092915050565b7f4e487b7100000000000000000000000000000000000000000000000000000000600052602260045260246000fd5b6000600282049050600182168061330057607f821691505b602082108103613313576133126132b9565b5b50919050565b7f4f6e6c7920726567697374657265642073746166662063616e20706572666f7260008201527f6d207468697320616374696f6e00000000000000000000000000000000000000602082015250565b6000613375602d83612e6f565b915061338082613319565b604082019050919050565b600060208201905081810360008301526133a481613368565b9050919050565b600081905092915050565b7f446f63746f720000000000000000000000000000000000000000000000000000600082015250565b60006133ec6006836133ab565b91506133f7826133b6565b600682019050919050565b600061340d826133df565b9150819050919050565b7f4e487b7100000000000000000000000000000000000000000000000000000000600052603260045260246000fd5b60008190508160005260206000209050919050565b60008154613468816132e8565b61347281866133ab565b9450600182166000811461348d57600181146134a2576134d5565b60ff19831686528115158202860193506134d5565b6134ab85613446565b60005b838110156134cd578154818901526001820191506020810190506134ae565b838801955050505b50505092915050565b60006134ea828461345b565b915081905092915050565b7f4f6e6c7920646f63746f72732063616e20706572666f726d207468697320616360008201527f74696f6e00000000000000000000000000000000000000000000000000000000602082015250565b6000613551602483612e6f565b915061355c826134f5565b604082019050919050565b6000602082019050818103600083015261358081613544565b9050919050565b7f50617469656e74206e6f74207265676973746572656400000000000000000000600082015250565b60006135bd601683612e6f565b91506135c882613587565b602082019050919050565b600060208201905081810360008301526135ec816135b0565b9050919050565b7f496e76616c69642061636365737320636f646500000000000000000000000000600082015250565b6000613629601383612e6f565b9150613634826135f3565b602082019050919050565b600060208201905081810360008301526136588161361c565b9050919050565b7f4e487b7100000000000000000000000000000000000000000000000000000000600052601160045260246000fd5b600061369982612a6d565b91506136a483612a6d565b92508282019050808211156136bc576136bb61365f565b5b92915050565b7f41636365737320636f6465206578706972656400000000000000000000000000600082015250565b60006136f8601383612e6f565b9150613703826136c2565b602082019050919050565b60006020820190508181036000830152613727816136eb565b9050919050565b7f4865616c7468207265636f72642063616e6e6f7420626520656d707479000000600082015250565b6000613764601d83612e6f565b915061376f8261372e565b602082019050919050565b6000602082019050818103600083015261379381613757565b9050919050565b7f507265736372697074696f6e2063616e6e6f7420626520656d70747900000000600082015250565b60006137d0601c83612e6f565b91506137db8261379a565b602082019050919050565b600060208201905081810360008301526137ff816137c3565b9050919050565b7f526563697069656e74206d75737420626520726567697374657265642073746160008201527f6666000000000000000000000000000000000000000000000000000000000000602082015250565b6000613862602283612e6f565b915061386d82613806565b604082019050919050565b6000602082019050818103600083015261389181613855565b9050919050565b60006138a3826128ba565b6138ad81856133ab565b93506138bd8185602086016128d6565b80840191505092915050565b60006138d58284613898565b915081905092915050565b7f496e76616c696420726563697069656e7420726f6c6500000000000000000000600082015250565b6000613916601683612e6f565b9150613921826138e0565b602082019050919050565b6000602082019050818103600083015261394581613909565b9050919050565b60006020601f8301049050919050565b600082821b905092915050565b6000600883026139997fffffffffffffffffffffffffffffffffffffffffffffffffffffffffffffffff8261395c565b6139a3868361395c565b95508019841693508086168417925050509392505050565b6000819050919050565b60006139e06139db6139d684612a6d565b6139bb565b612a6d565b9050919050565b6000819050919050565b6139fa836139c5565b613a0e613a06826139e7565b848454613969565b825550505050565b600090565b613a23613a16565b613a2e8184846139f1565b505050565b5b81811015613a5257613a47600082613a1b565b600181019050613a34565b5050565b601f821115613a9757613a6881613446565b613a718461394c565b81016020851015613a80578190505b613a94613a8c8561394c565b830182613a33565b50505b505050565b600082821c905092915050565b6000613aba60001984600802613a9c565b1980831691505092915050565b6000613ad38383613aa9565b9150826002028217905092915050565b613aec826128ba565b67ffffffffffffffff811115613b0557613b04612aad565b5b613b0f82546132e8565b613b1a828285613a56565b600060209050601f831160018114613b4d5760008415613b3b578287015190505b613b458582613ac7565b865550613bad565b601f198416613b5b86613446565b60005b82811015613b8357848901518255600182019150602085019450602081019050613b5e565b86831015613ba05784890151613b9c601f891682613aa9565b8355505b6001600288020188555050505b505050505050565b60006020820190508181036000830152613bcf8184612e80565b905092915050565b7f4f6e6c7920726567697374657265642073747564656e74732063616e2070657260008201527f666f726d207468697320616374696f6e00000000000000000000000000000000602082015250565b6000613c33603083612e6f565b9150613c3e82613bd7565b604082019050919050565b60006020820190508181036000830152613c6281613c26565b9050919050565b7f537461666620616c726561647920726567697374657265640000000000000000600082015250565b6000613c9f601883612e6f565b9150613caa82613c69565b602082019050919050565b60006020820190508181036000830152613cce81613c92565b9050919050565b7f4e616d652063616e6e6f7420626520656d707479000000000000000000000000600082015250565b6000613d0b601483612e6f565b9150613d1682613cd5565b602082019050919050565b60006020820190508181036000830152613d3a81613cfe565b9050919050565b7f4e75727365000000000000000000000000000000000000000000000000000000600082015250565b6000613d776005836133ab565b9150613d8282613d41565b600582019050919050565b6000613d9882613d6a565b9150819050919050565b7f506861726d616369737400000000000000000000000000000000000000000000600082015250565b6000613dd8600a836133ab565b9150613de382613da2565b600a82019050919050565b6000613df982613dcb565b9150819050919050565b7f526f6c65206d75737420626520446f63746f722c204e757273652c206f72205060008201527f6861726d61636973740000000000000000000000000000000000000000000000602082015250565b6000613e5f602983612e6f565b9150613e6a82613e03565b604082019050919050565b60006020820190508181036000830152613e8e81613e52565b9050919050565b6000613ea082612a6d565b9150613eab83612a6d565b9250828203905081811115613ec357613ec261365f565b5b92915050565b7f53747564656e7420616c72656164792072656769737465726564000000000000600082015250565b6000613eff601a83612e6f565b9150613f0a82613ec9565b602082019050919050565b60006020820190508181036000830152613f2e81613ef2565b9050919050565b7f4d6174726963206e756d626572206d7573742062652036206469676974730000600082015250565b6000613f6b601e83612e6f565b9150613f7682613f35565b602082019050919050565b60006020820190508181036000830152613f9a81613f5e565b9050919050565b7f496e76616c696420726567697374726174696f6e206461746500000000000000600082015250565b6000613fd7601983612e6f565b9150613fe282613fa1565b602082019050919050565b6000602082019050818103600083015261400681613fca565b9050919050565b7f4d6174726963206e756d62657220616c72656164792065786973747300000000600082015250565b6000614043601c83612e6f565b915061404e8261400d565b602082019050919050565b6000602082019050818103600083015261407281614036565b9050919050565b7f53747564656e74206e6f74207265676973746572656400000000000000000000600082015250565b60006140af601683612e6f565b91506140ba82614079565b602082019050919050565b600060208201905081810360008301526140de816140a2565b9050919050565b7f4e6f742061207265676973746572656420737461666600000000000000000000600082015250565b600061411b601683612e6f565b9150614126826140e5565b602082019050919050565b6000602082019050818103600083015261414a8161410e565b9050919050565b600061415c82612a6d565b91507fffffffffffffffffffffffffffffffffffffffffffffffffffffffffffffffff820361418e5761418d61365f565b5b600182019050919050565b7f5374616666206e6f742072656769737465726564000000000000000000000000600082015250565b60006141cf601483612e6f565b91506141da82614199565b602082019050919050565b600060208201905081810360008301526141fe816141c2565b9050919050565b6000819050919050565b61422061421b82612a6d565b614205565b82525050565b60008160601b9050919050565b600061423e82614226565b9050919050565b600061425082614233565b9050919050565b61426861426382612899565b614245565b82525050565b600061427a828661420f565b60208201915061428a8285614257565b60148201915061429a828461420f565b602082019150819050949350505050565b7f4e487b7100000000000000000000000000000000000000000000000000000000600052601260045260246000fd5b60006142e582612a6d565b91506142f083612a6d565b925082614300576142ff6142ab565b5b82820690509291505056fea264697066735822122081f05d942cd0d79d1f96bbdc64f697cd2f24f7710c5d23fc2e7438dab44046d464736f6c63430008140033",
  "linkReferences": {},
  "deployedLinkReferences": {}
}