{
	"data": {
		"bytecode": {
			"linkReferences": {},
			"object": "6080604052348015600e575f80fd5b5061414f8061001c5f395ff3fe608060405234801561000f575f80fd5b50600436106100cd575f3560e01c80636148c54c1161008a578063d3c9acc111610064578063d3c9acc1146101c9578063ddd79504146101f9578063e9e309271461022a578063f8f3f38214610248576100cd565b80636148c54c146101595780636b7b44d714610175578063b99b0703146101ab576100cd565b8063032e0868146100d1578063141254cb146100ef57806341e0c4071461010b5780634f60d01814610129578063572344f11461013357806358d7430e1461014f575b5f80fd5b6100d9610278565b6040516100e6919061290c565b60405180910390f35b61010960048036038101906101049190612afb565b610448565b005b610113610d15565b6040516101209190612bcb565b60405180910390f35b610131610d20565b005b61014d60048036038101906101489190612be4565b610e96565b005b610157611260565b005b610173600480360381019061016e9190612c5a565b6113be565b005b61018f600480360381019061018a9190612cf6565b61187e565b6040516101a29796959493929190612d78565b60405180910390f35b6101b3611c60565b6040516101c09190612bcb565b60405180910390f35b6101e360048036038101906101de9190612cf6565b611c6c565b6040516101f09190612bcb565b60405180910390f35b610213600480360381019061020e9190612cf6565b611da1565b604051610221929190612dfa565b60405180910390f35b610232612025565b60405161023f9190612fd8565b60405180910390f35b610262600480360381019061025d9190612cf6565b6122c7565b60405161026f919061312d565b60405180910390f35b60606001805480602002602001604051908101604052809291908181526020015f905b8282101561043f578382905f5260205f2090600302016040518060600160405290815f82015f9054906101000a900473ffffffffffffffffffffffffffffffffffffffff1673ffffffffffffffffffffffffffffffffffffffff1673ffffffffffffffffffffffffffffffffffffffff1681526020016001820180546103209061317a565b80601f016020809104026020016040519081016040528092919081815260200182805461034c9061317a565b80156103975780601f1061036e57610100808354040283529160200191610397565b820191905f5260205f20905b81548152906001019060200180831161037a57829003601f168201915b505050505081526020016002820180546103b09061317a565b80601f01602080910402602001604051908101604052809291908181526020018280546103dc9061317a565b80156104275780601f106103fe57610100808354040283529160200191610427565b820191905f5260205f20905b81548152906001019060200180831161040a57829003601f168201915b5050505050815250508152602001906001019061029b565b50505050905090565b60075f3373ffffffffffffffffffffffffffffffffffffffff1673ffffffffffffffffffffffffffffffffffffffff1681526020019081526020015f205f9054906101000a900460ff166104d1576040517f08c379a00000000000000000000000000000000000000000000000000000000081526004016104c89061321a565b60405180910390fd5b5f60055f3373ffffffffffffffffffffffffffffffffffffffff1673ffffffffffffffffffffffffffffffffffffffff1681526020019081526020015f205490506040516020016105219061328c565b604051602081830303815290604052805190602001206001828154811061054b5761054a6132a0565b5b905f5260205f20906003020160020160405160200161056a919061335f565b60405160208183030381529060405280519060200120146105c0576040517f08c379a00000000000000000000000000000000000000000000000000000000081526004016105b7906133e5565b60405180910390fd5b5f60045f8981526020019081526020015f20541415806105e357505f8080549050115b610622576040517f08c379a00000000000000000000000000000000000000000000000000000000081526004016106199061344d565b60405180910390fd5b5f60045f8981526020019081526020015f20549050845f828154811061064b5761064a6132a0565b5b905f5260205f209060090201600601541461069b576040517f08c379a0000000000000000000000000000000000000000000000000000000008152600401610692906134b5565b60405180910390fd5b6107085f82815481106106b1576106b06132a0565b5b905f5260205f209060090201600701546106cb9190613500565b42111561070d576040517f08c379a00000000000000000000000000000000000000000000000000000000081526004016107049061357d565b60405180910390fd5b5f875111610750576040517f08c379a0000000000000000000000000000000000000000000000000000000008152600401610747906135e5565b60405180910390fd5b5f865111610793576040517f08c379a000000000000000000000000000000000000000000000000000000000815260040161078a9061364d565b60405180910390fd5b60075f8473ffffffffffffffffffffffffffffffffffffffff1673ffffffffffffffffffffffffffffffffffffffff1681526020019081526020015f205f9054906101000a900460ff1661081c576040517f08c379a0000000000000000000000000000000000000000000000000000000008152600401610813906136db565b60405180910390fd5b5f60055f8573ffffffffffffffffffffffffffffffffffffffff1673ffffffffffffffffffffffffffffffffffffffff1681526020019081526020015f205490505f8561089e576040518060400160405280600a81526020017f506861726d6163697374000000000000000000000000000000000000000000008152506108d5565b6040518060400160405280600581526020017f4e757273650000000000000000000000000000000000000000000000000000008152505b9050806040516020016108e89190613729565b6040516020818303038152906040528051906020012060018381548110610912576109116132a0565b5b905f5260205f209060030201600201604051602001610931919061335f565b6040516020818303038152906040528051906020012014610987576040517f08c379a000000000000000000000000000000000000000000000000000000000815260040161097e90613789565b60405180910390fd5b885f848154811061099b5761099a6132a0565b5b905f5260205f20906009020160050190816109b69190613932565b50855f84815481106109cb576109ca6132a0565b5b905f5260205f2090600902016008015f6101000a81548160ff0219169083151502179055505f808481548110610a0457610a036132a0565b5b905f5260205f209060090201600601819055505f808481548110610a2b57610a2a6132a0565b5b905f5260205f209060090201600701819055505f6040518060a001604052805f8681548110610a5d57610a5c6132a0565b5b905f5260205f2090600902016001018054610a779061317a565b80601f0160208091040260200160405190810160405280929190818152602001828054610aa39061317a565b8015610aee5780601f10610ac557610100808354040283529160200191610aee565b820191905f5260205f20905b815481529060010190602001808311610ad157829003601f168201915b505050505081526020018c81526020018a81526020018773ffffffffffffffffffffffffffffffffffffffff168152602001428152509050600281908060018154018082558091505060019003905f5260205f2090600502015f909190919091505f820151815f019081610b629190613932565b50602082015181600101556040820151816002019081610b829190613932565b506060820151816003015f6101000a81548173ffffffffffffffffffffffffffffffffffffffff021916908373ffffffffffffffffffffffffffffffffffffffff1602179055506080820151816004015550505f8481548110610be857610be76132a0565b5b905f5260205f2090600902015f015f9054906101000a900473ffffffffffffffffffffffffffffffffffffffff1673ffffffffffffffffffffffffffffffffffffffff167f496728c3966d39323f4b0f6f4a7a5e1f1cbbc87338b4a1d5942049e331ae28178b604051610c5b9190613a01565b60405180910390a28573ffffffffffffffffffffffffffffffffffffffff165f8581548110610c8d57610c8c6132a0565b5b905f5260205f2090600902015f015f9054906101000a900473ffffffffffffffffffffffffffffffffffffffff1673ffffffffffffffffffffffffffffffffffffffff167f4f3e584412b404b8ea3e8ae1652df00170eb8b52474dece1592acffd5d7714438b604051610d009190613a01565b60405180910390a35050505050505050505050565b5f8080549050905090565b60065f3373ffffffffffffffffffffffffffffffffffffffff1673ffffffffffffffffffffffffffffffffffffffff1681526020019081526020015f205f9054906101000a900460ff16610da9576040517f08c379a0000000000000000000000000000000000000000000000000000000008152600401610da090613a91565b60405180910390fd5b5f60035f3373ffffffffffffffffffffffffffffffffffffffff1673ffffffffffffffffffffffffffffffffffffffff1681526020019081526020015f205490505f610df4336126c9565b9050805f8381548110610e0a57610e096132a0565b5b905f5260205f20906009020160060181905550425f8381548110610e3157610e306132a0565b5b905f5260205f209060090201600701819055503373ffffffffffffffffffffffffffffffffffffffff167f511f82b4a6612092391a59ddbe0940faeaef8c62498f9a2e7495af8770f0ef4f82604051610e8a9190612bcb565b60405180910390a25050565b60075f3373ffffffffffffffffffffffffffffffffffffffff1673ffffffffffffffffffffffffffffffffffffffff1681526020019081526020015f205f9054906101000a900460ff1615610f20576040517f08c379a0000000000000000000000000000000000000000000000000000000008152600401610f1790613af9565b60405180910390fd5b5f825111610f63576040517f08c379a0000000000000000000000000000000000000000000000000000000008152600401610f5a90613b61565b60405180910390fd5b604051602001610f729061328c565b6040516020818303038152906040528051906020012081604051602001610f999190613729565b6040516020818303038152906040528051906020012014806110045750604051602001610fc590613bc9565b6040516020818303038152906040528051906020012081604051602001610fec9190613729565b60405160208183030381529060405280519060200120145b80611058575060405160200161101990613c27565b60405160208183030381529060405280519060200120816040516020016110409190613729565b60405160208183030381529060405280519060200120145b611097576040517f08c379a000000000000000000000000000000000000000000000000000000000815260040161108e90613cab565b60405180910390fd5b5f60405180606001604052803373ffffffffffffffffffffffffffffffffffffffff168152602001848152602001838152509050600181908060018154018082558091505060019003905f5260205f2090600302015f909190919091505f820151815f015f6101000a81548173ffffffffffffffffffffffffffffffffffffffff021916908373ffffffffffffffffffffffffffffffffffffffff160217905550602082015181600101908161114d9190613932565b5060408201518160020190816111639190613932565b505050600180805490506111779190613cc9565b60055f3373ffffffffffffffffffffffffffffffffffffffff1673ffffffffffffffffffffffffffffffffffffffff1681526020019081526020015f2081905550600160075f3373ffffffffffffffffffffffffffffffffffffffff1673ffffffffffffffffffffffffffffffffffffffff1681526020019081526020015f205f6101000a81548160ff0219169083151502179055503373ffffffffffffffffffffffffffffffffffffffff167fa030fd4c7d3464e2ab354cc6357d7c2e9b69a215a9ff95d0bea2dd9dacb592b7836040516112539190613a01565b60405180910390a2505050565b60065f3373ffffffffffffffffffffffffffffffffffffffff1673ffffffffffffffffffffffffffffffffffffffff1681526020019081526020015f205f9054906101000a900460ff166112e9576040517f08c379a00000000000000000000000000000000000000000000000000000000081526004016112e090613a91565b60405180910390fd5b5f60035f3373ffffffffffffffffffffffffffffffffffffffff1673ffffffffffffffffffffffffffffffffffffffff1681526020019081526020015f205490505f80828154811061133e5761133d6132a0565b5b905f5260205f209060090201600601819055505f808281548110611365576113646132a0565b5b905f5260205f209060090201600701819055503373ffffffffffffffffffffffffffffffffffffffff167fdd8f91a332f5654eac96adcf2c43c93ed5cfcc4c7694c38f9513d174395bcc6660405160405180910390a250565b60065f3373ffffffffffffffffffffffffffffffffffffffff1673ffffffffffffffffffffffffffffffffffffffff1681526020019081526020015f205f9054906101000a900460ff1615611448576040517f08c379a000000000000000000000000000000000000000000000000000000000815260040161143f90613d46565b60405180910390fd5b5f84511161148b576040517f08c379a000000000000000000000000000000000000000000000000000000000815260040161148290613b61565b60405180910390fd5b620186a083101580156114a15750620f423f8311155b6114e0576040517f08c379a00000000000000000000000000000000000000000000000000000000081526004016114d790613dae565b60405180910390fd5b42821115611523576040517f08c379a000000000000000000000000000000000000000000000000000000000815260040161151a90613e16565b60405180910390fd5b5f60045f8581526020019081526020015f205414801561154657505f8080549050145b8061156157505f60045f8581526020019081526020015f2054145b6115a0576040517f08c379a000000000000000000000000000000000000000000000000000000000815260040161159790613e7e565b60405180910390fd5b5f6115aa336126c9565b90505f6040518061012001604052803373ffffffffffffffffffffffffffffffffffffffff16815260200187815260200186815260200185815260200184815260200160405180602001604052805f81525081526020018381526020014281526020015f151581525090505f81908060018154018082558091505060019003905f5260205f2090600902015f909190919091505f820151815f015f6101000a81548173ffffffffffffffffffffffffffffffffffffffff021916908373ffffffffffffffffffffffffffffffffffffffff16021790555060208201518160010190816116969190613932565b50604082015181600201556060820151816003015560808201518160040190816116c09190613932565b5060a08201518160050190816116d69190613932565b5060c0820151816006015560e08201518160070155610100820151816008015f6101000a81548160ff021916908315150217905550505060015f8054905061171e9190613cc9565b60035f3373ffffffffffffffffffffffffffffffffffffffff1673ffffffffffffffffffffffffffffffffffffffff1681526020019081526020015f208190555060015f805490506117709190613cc9565b60045f8781526020019081526020015f2081905550600160065f3373ffffffffffffffffffffffffffffffffffffffff1673ffffffffffffffffffffffffffffffffffffffff1681526020019081526020015f205f6101000a81548160ff0219169083151502179055503373ffffffffffffffffffffffffffffffffffffffff167ff6557c3f758aba81a6954691eb0b4408d0e837b55d6fa550b1576e6292a9106c866040516118209190612bcb565b60405180910390a23373ffffffffffffffffffffffffffffffffffffffff167f511f82b4a6612092391a59ddbe0940faeaef8c62498f9a2e7495af8770f0ef4f8360405161186e9190612bcb565b60405180910390a2505050505050565b60605f806060805f8060065f8973ffffffffffffffffffffffffffffffffffffffff1673ffffffffffffffffffffffffffffffffffffffff1681526020019081526020015f205f9054906101000a900460ff16611910576040517f08c379a000000000000000000000000000000000000000000000000000000000815260040161190790613ee6565b60405180910390fd5b5f60035f8a73ffffffffffffffffffffffffffffffffffffffff1673ffffffffffffffffffffffffffffffffffffffff1681526020019081526020015f205490505f808281548110611965576119646132a0565b5b905f5260205f209060090201604051806101200160405290815f82015f9054906101000a900473ffffffffffffffffffffffffffffffffffffffff1673ffffffffffffffffffffffffffffffffffffffff1673ffffffffffffffffffffffffffffffffffffffff1681526020016001820180546119e19061317a565b80601f0160208091040260200160405190810160405280929190818152602001828054611a0d9061317a565b8015611a585780601f10611a2f57610100808354040283529160200191611a58565b820191905f5260205f20905b815481529060010190602001808311611a3b57829003601f168201915b505050505081526020016002820154815260200160038201548152602001600482018054611a859061317a565b80601f0160208091040260200160405190810160405280929190818152602001828054611ab19061317a565b8015611afc5780601f10611ad357610100808354040283529160200191611afc565b820191905f5260205f20905b815481529060010190602001808311611adf57829003601f168201915b50505050508152602001600582018054611b159061317a565b80601f0160208091040260200160405190810160405280929190818152602001828054611b419061317a565b8015611b8c5780601f10611b6357610100808354040283529160200191611b8c565b820191905f5260205f20905b815481529060010190602001808311611b6f57829003601f168201915b505050505081526020016006820154815260200160078201548152602001600882015f9054906101000a900460ff16151515158152505090505f8a73ffffffffffffffffffffffffffffffffffffffff163373ffffffffffffffffffffffffffffffffffffffff16148015611c1257506107088260e00151611c0e9190613500565b4211155b611c1c575f611c22565b8160c001515b905081602001518260400151836060015184608001518560a00151858761010001519950995099509950995099509950505050919395979092949650565b5f600180549050905090565b5f60075f8373ffffffffffffffffffffffffffffffffffffffff1673ffffffffffffffffffffffffffffffffffffffff1681526020019081526020015f205f9054906101000a900460ff16611cf6576040517f08c379a0000000000000000000000000000000000000000000000000000000008152600401611ced90613f4e565b60405180910390fd5b5f805b600280549050811015611d97578373ffffffffffffffffffffffffffffffffffffffff1660028281548110611d3157611d306132a0565b5b905f5260205f2090600502016003015f9054906101000a900473ffffffffffffffffffffffffffffffffffffffff1673ffffffffffffffffffffffffffffffffffffffff1603611d8a578180611d8690613f6c565b9250505b8080600101915050611cf9565b5080915050919050565b60608060075f8473ffffffffffffffffffffffffffffffffffffffff1673ffffffffffffffffffffffffffffffffffffffff1681526020019081526020015f205f9054906101000a900460ff16611e2d576040517f08c379a0000000000000000000000000000000000000000000000000000000008152600401611e2490613ffd565b60405180910390fd5b5f60055f8573ffffffffffffffffffffffffffffffffffffffff1673ffffffffffffffffffffffffffffffffffffffff1681526020019081526020015f205490505f60018281548110611e8357611e826132a0565b5b905f5260205f2090600302016040518060600160405290815f82015f9054906101000a900473ffffffffffffffffffffffffffffffffffffffff1673ffffffffffffffffffffffffffffffffffffffff1673ffffffffffffffffffffffffffffffffffffffff168152602001600182018054611efe9061317a565b80601f0160208091040260200160405190810160405280929190818152602001828054611f2a9061317a565b8015611f755780601f10611f4c57610100808354040283529160200191611f75565b820191905f5260205f20905b815481529060010190602001808311611f5857829003601f168201915b50505050508152602001600282018054611f8e9061317a565b80601f0160208091040260200160405190810160405280929190818152602001828054611fba9061317a565b80156120055780601f10611fdc57610100808354040283529160200191612005565b820191905f5260205f20905b815481529060010190602001808311611fe857829003601f168201915b505050505081525050905080602001518160400151935093505050915091565b60605f805480602002602001604051908101604052809291908181526020015f905b828210156122be578382905f5260205f209060090201604051806101200160405290815f82015f9054906101000a900473ffffffffffffffffffffffffffffffffffffffff1673ffffffffffffffffffffffffffffffffffffffff1673ffffffffffffffffffffffffffffffffffffffff1681526020016001820180546120cd9061317a565b80601f01602080910402602001604051908101604052809291908181526020018280546120f99061317a565b80156121445780601f1061211b57610100808354040283529160200191612144565b820191905f5260205f20905b81548152906001019060200180831161212757829003601f168201915b5050505050815260200160028201548152602001600382015481526020016004820180546121719061317a565b80601f016020809104026020016040519081016040528092919081815260200182805461219d9061317a565b80156121e85780601f106121bf576101008083540402835291602001916121e8565b820191905f5260205f20905b8154815290600101906020018083116121cb57829003601f168201915b505050505081526020016005820180546122019061317a565b80601f016020809104026020016040519081016040528092919081815260200182805461222d9061317a565b80156122785780601f1061224f57610100808354040283529160200191612278565b820191905f5260205f20905b81548152906001019060200180831161225b57829003601f168201915b505050505081526020016006820154815260200160078201548152602001600882015f9054906101000a900460ff16151515158152505081526020019060010190612047565b50505050905090565b606060075f8373ffffffffffffffffffffffffffffffffffffffff1673ffffffffffffffffffffffffffffffffffffffff1681526020019081526020015f205f9054906101000a900460ff16612352576040517f08c379a000000000000000000000000000000000000000000000000000000000815260040161234990613f4e565b60405180910390fd5b5f805b6002805490508110156123f3578373ffffffffffffffffffffffffffffffffffffffff166002828154811061238d5761238c6132a0565b5b905f5260205f2090600502016003015f9054906101000a900473ffffffffffffffffffffffffffffffffffffffff1673ffffffffffffffffffffffffffffffffffffffff16036123e65781806123e290613f6c565b9250505b8080600101915050612355565b505f8167ffffffffffffffff81111561240f5761240e612978565b5b60405190808252806020026020018201604052801561244857816020015b61243561270c565b81526020019060019003908161242d5790505b5090505f805b6002805490508110156126bd578573ffffffffffffffffffffffffffffffffffffffff1660028281548110612486576124856132a0565b5b905f5260205f2090600502016003015f9054906101000a900473ffffffffffffffffffffffffffffffffffffffff1673ffffffffffffffffffffffffffffffffffffffff16036126b057600281815481106124e4576124e36132a0565b5b905f5260205f2090600502016040518060a00160405290815f8201805461250a9061317a565b80601f01602080910402602001604051908101604052809291908181526020018280546125369061317a565b80156125815780601f1061255857610100808354040283529160200191612581565b820191905f5260205f20905b81548152906001019060200180831161256457829003601f168201915b50505050508152602001600182015481526020016002820180546125a49061317a565b80601f01602080910402602001604051908101604052809291908181526020018280546125d09061317a565b801561261b5780601f106125f25761010080835404028352916020019161261b565b820191905f5260205f20905b8154815290600101906020018083116125fe57829003601f168201915b50505050508152602001600382015f9054906101000a900473ffffffffffffffffffffffffffffffffffffffff1673ffffffffffffffffffffffffffffffffffffffff1673ffffffffffffffffffffffffffffffffffffffff168152602001600482015481525050838381518110612696576126956132a0565b5b602002602001018190525081806126ac90613f6c565b9250505b808060010191505061244e565b50819350505050919050565b5f620f42404283446040516020016126e393929190614080565b604051602081830303815290604052805190602001205f1c61270591906140e9565b9050919050565b6040518060a00160405280606081526020015f8152602001606081526020015f73ffffffffffffffffffffffffffffffffffffffff1681526020015f81525090565b5f81519050919050565b5f82825260208201905092915050565b5f819050602082019050919050565b5f73ffffffffffffffffffffffffffffffffffffffff82169050919050565b5f6127a082612777565b9050919050565b6127b081612796565b82525050565b5f81519050919050565b5f82825260208201905092915050565b8281835e5f83830152505050565b5f601f19601f8301169050919050565b5f6127f8826127b6565b61280281856127c0565b93506128128185602086016127d0565b61281b816127de565b840191505092915050565b5f606083015f83015161283b5f8601826127a7565b506020830151848203602086015261285382826127ee565b9150506040830151848203604086015261286d82826127ee565b9150508091505092915050565b5f6128858383612826565b905092915050565b5f602082019050919050565b5f6128a38261274e565b6128ad8185612758565b9350836020820285016128bf85612768565b805f5b858110156128fa57848403895281516128db858261287a565b94506128e68361288d565b925060208a019950506001810190506128c2565b50829750879550505050505092915050565b5f6020820190508181035f8301526129248184612899565b905092915050565b5f604051905090565b5f80fd5b5f80fd5b5f819050919050565b61294f8161293d565b8114612959575f80fd5b50565b5f8135905061296a81612946565b92915050565b5f80fd5b5f80fd5b7f4e487b71000000000000000000000000000000000000000000000000000000005f52604160045260245ffd5b6129ae826127de565b810181811067ffffffffffffffff821117156129cd576129cc612978565b5b80604052505050565b5f6129df61292c565b90506129eb82826129a5565b919050565b5f67ffffffffffffffff821115612a0a57612a09612978565b5b612a13826127de565b9050602081019050919050565b828183375f83830152505050565b5f612a40612a3b846129f0565b6129d6565b905082815260208101848484011115612a5c57612a5b612974565b5b612a67848285612a20565b509392505050565b5f82601f830112612a8357612a82612970565b5b8135612a93848260208601612a2e565b91505092915050565b5f8115159050919050565b612ab081612a9c565b8114612aba575f80fd5b50565b5f81359050612acb81612aa7565b92915050565b612ada81612796565b8114612ae4575f80fd5b50565b5f81359050612af581612ad1565b92915050565b5f805f805f8060c08789031215612b1557612b14612935565b5b5f612b2289828a0161295c565b965050602087013567ffffffffffffffff811115612b4357612b42612939565b5b612b4f89828a01612a6f565b955050604087013567ffffffffffffffff811115612b7057612b6f612939565b5b612b7c89828a01612a6f565b9450506060612b8d89828a0161295c565b9350506080612b9e89828a01612abd565b92505060a0612baf89828a01612ae7565b9150509295509295509295565b612bc58161293d565b82525050565b5f602082019050612bde5f830184612bbc565b92915050565b5f8060408385031215612bfa57612bf9612935565b5b5f83013567ffffffffffffffff811115612c1757612c16612939565b5b612c2385828601612a6f565b925050602083013567ffffffffffffffff811115612c4457612c43612939565b5b612c5085828601612a6f565b9150509250929050565b5f805f8060808587031215612c7257612c71612935565b5b5f85013567ffffffffffffffff811115612c8f57612c8e612939565b5b612c9b87828801612a6f565b9450506020612cac8782880161295c565b9350506040612cbd8782880161295c565b925050606085013567ffffffffffffffff811115612cde57612cdd612939565b5b612cea87828801612a6f565b91505092959194509250565b5f60208284031215612d0b57612d0a612935565b5b5f612d1884828501612ae7565b91505092915050565b5f82825260208201905092915050565b5f612d3b826127b6565b612d458185612d21565b9350612d558185602086016127d0565b612d5e816127de565b840191505092915050565b612d7281612a9c565b82525050565b5f60e0820190508181035f830152612d90818a612d31565b9050612d9f6020830189612bbc565b612dac6040830188612bbc565b8181036060830152612dbe8187612d31565b90508181036080830152612dd28186612d31565b9050612de160a0830185612bbc565b612dee60c0830184612d69565b98975050505050505050565b5f6040820190508181035f830152612e128185612d31565b90508181036020830152612e268184612d31565b90509392505050565b5f81519050919050565b5f82825260208201905092915050565b5f819050602082019050919050565b612e618161293d565b82525050565b612e7081612a9c565b82525050565b5f61012083015f830151612e8c5f8601826127a7565b5060208301518482036020860152612ea482826127ee565b9150506040830151612eb96040860182612e58565b506060830151612ecc6060860182612e58565b5060808301518482036080860152612ee482826127ee565b91505060a083015184820360a0860152612efe82826127ee565b91505060c0830151612f1360c0860182612e58565b5060e0830151612f2660e0860182612e58565b50610100830151612f3b610100860182612e67565b508091505092915050565b5f612f518383612e76565b905092915050565b5f602082019050919050565b5f612f6f82612e2f565b612f798185612e39565b935083602082028501612f8b85612e49565b805f5b85811015612fc65784840389528151612fa78582612f46565b9450612fb283612f59565b925060208a01995050600181019050612f8e565b50829750879550505050505092915050565b5f6020820190508181035f830152612ff08184612f65565b905092915050565b5f81519050919050565b5f82825260208201905092915050565b5f819050602082019050919050565b5f60a083015f8301518482035f86015261303b82826127ee565b91505060208301516130506020860182612e58565b506040830151848203604086015261306882826127ee565b915050606083015161307d60608601826127a7565b5060808301516130906080860182612e58565b508091505092915050565b5f6130a68383613021565b905092915050565b5f602082019050919050565b5f6130c482612ff8565b6130ce8185613002565b9350836020820285016130e085613012565b805f5b8581101561311b57848403895281516130fc858261309b565b9450613107836130ae565b925060208a019950506001810190506130e3565b50829750879550505050505092915050565b5f6020820190508181035f83015261314581846130ba565b905092915050565b7f4e487b71000000000000000000000000000000000000000000000000000000005f52602260045260245ffd5b5f600282049050600182168061319157607f821691505b6020821081036131a4576131a361314d565b5b50919050565b7f4f6e6c7920726567697374657265642073746166662063616e20706572666f725f8201527f6d207468697320616374696f6e00000000000000000000000000000000000000602082015250565b5f613204602d83612d21565b915061320f826131aa565b604082019050919050565b5f6020820190508181035f830152613231816131f8565b9050919050565b5f81905092915050565b7f446f63746f7200000000000000000000000000000000000000000000000000005f82015250565b5f613276600683613238565b915061328182613242565b600682019050919050565b5f6132968261326a565b9150819050919050565b7f4e487b71000000000000000000000000000000000000000000000000000000005f52603260045260245ffd5b5f819050815f5260205f209050919050565b5f81546132eb8161317a565b6132f58186613238565b9450600182165f811461330f576001811461332457613356565b60ff1983168652811515820286019350613356565b61332d856132cd565b5f5b8381101561334e5781548189015260018201915060208101905061332f565b838801955050505b50505092915050565b5f61336a82846132df565b915081905092915050565b7f4f6e6c7920646f63746f72732063616e20706572666f726d20746869732061635f8201527f74696f6e00000000000000000000000000000000000000000000000000000000602082015250565b5f6133cf602483612d21565b91506133da82613375565b604082019050919050565b5f6020820190508181035f8301526133fc816133c3565b9050919050565b7f50617469656e74206e6f742072656769737465726564000000000000000000005f82015250565b5f613437601683612d21565b915061344282613403565b602082019050919050565b5f6020820190508181035f8301526134648161342b565b9050919050565b7f496e76616c69642061636365737320636f6465000000000000000000000000005f82015250565b5f61349f601383612d21565b91506134aa8261346b565b602082019050919050565b5f6020820190508181035f8301526134cc81613493565b9050919050565b7f4e487b71000000000000000000000000000000000000000000000000000000005f52601160045260245ffd5b5f61350a8261293d565b91506135158361293d565b925082820190508082111561352d5761352c6134d3565b5b92915050565b7f41636365737320636f64652065787069726564000000000000000000000000005f82015250565b5f613567601383612d21565b915061357282613533565b602082019050919050565b5f6020820190508181035f8301526135948161355b565b9050919050565b7f4865616c7468207265636f72642063616e6e6f7420626520656d7074790000005f82015250565b5f6135cf601d83612d21565b91506135da8261359b565b602082019050919050565b5f6020820190508181035f8301526135fc816135c3565b9050919050565b7f507265736372697074696f6e2063616e6e6f7420626520656d707479000000005f82015250565b5f613637601c83612d21565b915061364282613603565b602082019050919050565b5f6020820190508181035f8301526136648161362b565b9050919050565b7f526563697069656e74206d7573742062652072656769737465726564207374615f8201527f6666000000000000000000000000000000000000000000000000000000000000602082015250565b5f6136c5602283612d21565b91506136d08261366b565b604082019050919050565b5f6020820190508181035f8301526136f2816136b9565b9050919050565b5f613703826127b6565b61370d8185613238565b935061371d8185602086016127d0565b80840191505092915050565b5f61373482846136f9565b915081905092915050565b7f496e76616c696420726563697069656e7420726f6c65000000000000000000005f82015250565b5f613773601683612d21565b915061377e8261373f565b602082019050919050565b5f6020820190508181035f8301526137a081613767565b9050919050565b5f6020601f8301049050919050565b5f82821b905092915050565b5f600883026137f17fffffffffffffffffffffffffffffffffffffffffffffffffffffffffffffffff826137b6565b6137fb86836137b6565b95508019841693508086168417925050509392505050565b5f819050919050565b5f61383661383161382c8461293d565b613813565b61293d565b9050919050565b5f819050919050565b61384f8361381c565b61386361385b8261383d565b8484546137c2565b825550505050565b5f90565b61387761386b565b613882818484613846565b505050565b5b818110156138a55761389a5f8261386f565b600181019050613888565b5050565b601f8211156138ea576138bb816132cd565b6138c4846137a7565b810160208510156138d3578190505b6138e76138df856137a7565b830182613887565b50505b505050565b5f82821c905092915050565b5f61390a5f19846008026138ef565b1980831691505092915050565b5f61392283836138fb565b9150826002028217905092915050565b61393b826127b6565b67ffffffffffffffff81111561395457613953612978565b5b61395e825461317a565b6139698282856138a9565b5f60209050601f83116001811461399a575f8415613988578287015190505b6139928582613917565b8655506139f9565b601f1984166139a8866132cd565b5f5b828110156139cf578489015182556001820191506020850194506020810190506139aa565b868310156139ec57848901516139e8601f8916826138fb565b8355505b6001600288020188555050505b505050505050565b5f6020820190508181035f830152613a198184612d31565b905092915050565b7f4f6e6c7920726567697374657265642073747564656e74732063616e207065725f8201527f666f726d207468697320616374696f6e00000000000000000000000000000000602082015250565b5f613a7b603083612d21565b9150613a8682613a21565b604082019050919050565b5f6020820190508181035f830152613aa881613a6f565b9050919050565b7f537461666620616c7265616479207265676973746572656400000000000000005f82015250565b5f613ae3601883612d21565b9150613aee82613aaf565b602082019050919050565b5f6020820190508181035f830152613b1081613ad7565b9050919050565b7f4e616d652063616e6e6f7420626520656d7074790000000000000000000000005f82015250565b5f613b4b601483612d21565b9150613b5682613b17565b602082019050919050565b5f6020820190508181035f830152613b7881613b3f565b9050919050565b7f4e757273650000000000000000000000000000000000000000000000000000005f82015250565b5f613bb3600583613238565b9150613bbe82613b7f565b600582019050919050565b5f613bd382613ba7565b9150819050919050565b7f506861726d6163697374000000000000000000000000000000000000000000005f82015250565b5f613c11600a83613238565b9150613c1c82613bdd565b600a82019050919050565b5f613c3182613c05565b9150819050919050565b7f526f6c65206d75737420626520446f63746f722c204e757273652c206f7220505f8201527f6861726d61636973740000000000000000000000000000000000000000000000602082015250565b5f613c95602983612d21565b9150613ca082613c3b565b604082019050919050565b5f6020820190508181035f830152613cc281613c89565b9050919050565b5f613cd38261293d565b9150613cde8361293d565b9250828203905081811115613cf657613cf56134d3565b5b92915050565b7f53747564656e7420616c726561647920726567697374657265640000000000005f82015250565b5f613d30601a83612d21565b9150613d3b82613cfc565b602082019050919050565b5f6020820190508181035f830152613d5d81613d24565b9050919050565b7f4d6174726963206e756d626572206d75737420626520362064696769747300005f82015250565b5f613d98601e83612d21565b9150613da382613d64565b602082019050919050565b5f6020820190508181035f830152613dc581613d8c565b9050919050565b7f496e76616c696420726567697374726174696f6e2064617465000000000000005f82015250565b5f613e00601983612d21565b9150613e0b82613dcc565b602082019050919050565b5f6020820190508181035f830152613e2d81613df4565b9050919050565b7f4d6174726963206e756d62657220616c726561647920657869737473000000005f82015250565b5f613e68601c83612d21565b9150613e7382613e34565b602082019050919050565b5f6020820190508181035f830152613e9581613e5c565b9050919050565b7f53747564656e74206e6f742072656769737465726564000000000000000000005f82015250565b5f613ed0601683612d21565b9150613edb82613e9c565b602082019050919050565b5f6020820190508181035f830152613efd81613ec4565b9050919050565b7f4e6f7420612072656769737465726564207374616666000000000000000000005f82015250565b5f613f38601683612d21565b9150613f4382613f04565b602082019050919050565b5f6020820190508181035f830152613f6581613f2c565b9050919050565b5f613f768261293d565b91507fffffffffffffffffffffffffffffffffffffffffffffffffffffffffffffffff8203613fa857613fa76134d3565b5b600182019050919050565b7f5374616666206e6f7420726567697374657265640000000000000000000000005f82015250565b5f613fe7601483612d21565b9150613ff282613fb3565b602082019050919050565b5f6020820190508181035f83015261401481613fdb565b9050919050565b5f819050919050565b6140356140308261293d565b61401b565b82525050565b5f8160601b9050919050565b5f6140518261403b565b9050919050565b5f61406282614047565b9050919050565b61407a61407582612796565b614058565b82525050565b5f61408b8286614024565b60208201915061409b8285614069565b6014820191506140ab8284614024565b602082019150819050949350505050565b7f4e487b71000000000000000000000000000000000000000000000000000000005f52601260045260245ffd5b5f6140f38261293d565b91506140fe8361293d565b92508261410e5761410d6140bc565b5b82820690509291505056fea26469706673582212204e53571c8a074de29a48bbe1e52f6d64e5f912872b03a54bff5bb1ed876dc91664736f6c634300081a0033",
			"opcodes": "PUSH1 0x80 PUSH1 0x40 MSTORE CALLVALUE DUP1 ISZERO PUSH1 0xE JUMPI PUSH0 DUP1 REVERT JUMPDEST POP PUSH2 0x414F DUP1 PUSH2 0x1C PUSH0 CODECOPY PUSH0 RETURN INVALID PUSH1 0x80 PUSH1 0x40 MSTORE CALLVALUE DUP1 ISZERO PUSH2 0xF JUMPI PUSH0 DUP1 REVERT JUMPDEST POP PUSH1 0x4 CALLDATASIZE LT PUSH2 0xCD JUMPI PUSH0 CALLDATALOAD PUSH1 0xE0 SHR DUP1 PUSH4 0x6148C54C GT PUSH2 0x8A JUMPI DUP1 PUSH4 0xD3C9ACC1 GT PUSH2 0x64 JUMPI DUP1 PUSH4 0xD3C9ACC1 EQ PUSH2 0x1C9 JUMPI DUP1 PUSH4 0xDDD79504 EQ PUSH2 0x1F9 JUMPI DUP1 PUSH4 0xE9E30927 EQ PUSH2 0x22A JUMPI DUP1 PUSH4 0xF8F3F382 EQ PUSH2 0x248 JUMPI PUSH2 0xCD JUMP JUMPDEST DUP1 PUSH4 0x6148C54C EQ PUSH2 0x159 JUMPI DUP1 PUSH4 0x6B7B44D7 EQ PUSH2 0x175 JUMPI DUP1 PUSH4 0xB99B0703 EQ PUSH2 0x1AB JUMPI PUSH2 0xCD JUMP JUMPDEST DUP1 PUSH4 0x32E0868 EQ PUSH2 0xD1 JUMPI DUP1 PUSH4 0x141254CB EQ PUSH2 0xEF JUMPI DUP1 PUSH4 0x41E0C407 EQ PUSH2 0x10B JUMPI DUP1 PUSH4 0x4F60D018 EQ PUSH2 0x129 JUMPI DUP1 PUSH4 0x572344F1 EQ PUSH2 0x133 JUMPI DUP1 PUSH4 0x58D7430E EQ PUSH2 0x14F JUMPI JUMPDEST PUSH0 DUP1 REVERT JUMPDEST PUSH2 0xD9 PUSH2 0x278 JUMP JUMPDEST PUSH1 0x40 MLOAD PUSH2 0xE6 SWAP2 SWAP1 PUSH2 0x290C JUMP JUMPDEST PUSH1 0x40 MLOAD DUP1 SWAP2 SUB SWAP1 RETURN JUMPDEST PUSH2 0x109 PUSH1 0x4 DUP1 CALLDATASIZE SUB DUP2 ADD SWAP1 PUSH2 0x104 SWAP2 SWAP1 PUSH2 0x2AFB JUMP JUMPDEST PUSH2 0x448 JUMP JUMPDEST STOP JUMPDEST PUSH2 0x113 PUSH2 0xD15 JUMP JUMPDEST PUSH1 0x40 MLOAD PUSH2 0x120 SWAP2 SWAP1 PUSH2 0x2BCB JUMP JUMPDEST PUSH1 0x40 MLOAD DUP1 SWAP2 SUB SWAP1 RETURN JUMPDEST PUSH2 0x131 PUSH2 0xD20 JUMP JUMPDEST STOP JUMPDEST PUSH2 0x14D PUSH1 0x4 DUP1 CALLDATASIZE SUB DUP2 ADD SWAP1 PUSH2 0x148 SWAP2 SWAP1 PUSH2 0x2BE4 JUMP JUMPDEST PUSH2 0xE96 JUMP JUMPDEST STOP JUMPDEST PUSH2 0x157 PUSH2 0x1260 JUMP JUMPDEST STOP JUMPDEST PUSH2 0x173 PUSH1 0x4 DUP1 CALLDATASIZE SUB DUP2 ADD SWAP1 PUSH2 0x16E SWAP2 SWAP1 PUSH2 0x2C5A JUMP JUMPDEST PUSH2 0x13BE JUMP JUMPDEST STOP JUMPDEST PUSH2 0x18F PUSH1 0x4 DUP1 CALLDATASIZE SUB DUP2 ADD SWAP1 PUSH2 0x18A SWAP2 SWAP1 PUSH2 0x2CF6 JUMP JUMPDEST PUSH2 0x187E JUMP JUMPDEST PUSH1 0x40 MLOAD PUSH2 0x1A2 SWAP8 SWAP7 SWAP6 SWAP5 SWAP4 SWAP3 SWAP2 SWAP1 PUSH2 0x2D78 JUMP JUMPDEST PUSH1 0x40 MLOAD DUP1 SWAP2 SUB SWAP1 RETURN JUMPDEST PUSH2 0x1B3 PUSH2 0x1C60 JUMP JUMPDEST PUSH1 0x40 MLOAD PUSH2 0x1C0 SWAP2 SWAP1 PUSH2 0x2BCB JUMP JUMPDEST PUSH1 0x40 MLOAD DUP1 SWAP2 SUB SWAP1 RETURN JUMPDEST PUSH2 0x1E3 PUSH1 0x4 DUP1 CALLDATASIZE SUB DUP2 ADD SWAP1 PUSH2 0x1DE SWAP2 SWAP1 PUSH2 0x2CF6 JUMP JUMPDEST PUSH2 0x1C6C JUMP JUMPDEST PUSH1 0x40 MLOAD PUSH2 0x1F0 SWAP2 SWAP1 PUSH2 0x2BCB JUMP JUMPDEST PUSH1 0x40 MLOAD DUP1 SWAP2 SUB SWAP1 RETURN JUMPDEST PUSH2 0x213 PUSH1 0x4 DUP1 CALLDATASIZE SUB DUP2 ADD SWAP1 PUSH2 0x20E SWAP2 SWAP1 PUSH2 0x2CF6 JUMP JUMPDEST PUSH2 0x1DA1 JUMP JUMPDEST PUSH1 0x40 MLOAD PUSH2 0x221 SWAP3 SWAP2 SWAP1 PUSH2 0x2DFA JUMP JUMPDEST PUSH1 0x40 MLOAD DUP1 SWAP2 SUB SWAP1 RETURN JUMPDEST PUSH2 0x232 PUSH2 0x2025 JUMP JUMPDEST PUSH1 0x40 MLOAD PUSH2 0x23F SWAP2 SWAP1 PUSH2 0x2FD8 JUMP JUMPDEST PUSH1 0x40 MLOAD DUP1 SWAP2 SUB SWAP1 RETURN JUMPDEST PUSH2 0x262 PUSH1 0x4 DUP1 CALLDATASIZE SUB DUP2 ADD SWAP1 PUSH2 0x25D SWAP2 SWAP1 PUSH2 0x2CF6 JUMP JUMPDEST PUSH2 0x22C7 JUMP JUMPDEST PUSH1 0x40 MLOAD PUSH2 0x26F SWAP2 SWAP1 PUSH2 0x312D JUMP JUMPDEST PUSH1 0x40 MLOAD DUP1 SWAP2 SUB SWAP1 RETURN JUMPDEST PUSH1 0x60 PUSH1 0x1 DUP1 SLOAD DUP1 PUSH1 0x20 MUL PUSH1 0x20 ADD PUSH1 0x40 MLOAD SWAP1 DUP2 ADD PUSH1 0x40 MSTORE DUP1 SWAP3 SWAP2 SWAP1 DUP2 DUP2 MSTORE PUSH1 0x20 ADD PUSH0 SWAP1 JUMPDEST DUP3 DUP3 LT ISZERO PUSH2 0x43F JUMPI DUP4 DUP3 SWAP1 PUSH0 MSTORE PUSH1 0x20 PUSH0 KECCAK256 SWAP1 PUSH1 0x3 MUL ADD PUSH1 0x40 MLOAD DUP1 PUSH1 0x60 ADD PUSH1 0x40 MSTORE SWAP1 DUP2 PUSH0 DUP3 ADD PUSH0 SWAP1 SLOAD SWAP1 PUSH2 0x100 EXP SWAP1 DIV PUSH20 0xFFFFFFFFFFFFFFFFFFFFFFFFFFFFFFFFFFFFFFFF AND PUSH20 0xFFFFFFFFFFFFFFFFFFFFFFFFFFFFFFFFFFFFFFFF AND PUSH20 0xFFFFFFFFFFFFFFFFFFFFFFFFFFFFFFFFFFFFFFFF AND DUP2 MSTORE PUSH1 0x20 ADD PUSH1 0x1 DUP3 ADD DUP1 SLOAD PUSH2 0x320 SWAP1 PUSH2 0x317A JUMP JUMPDEST DUP1 PUSH1 0x1F ADD PUSH1 0x20 DUP1 SWAP2 DIV MUL PUSH1 0x20 ADD PUSH1 0x40 MLOAD SWAP1 DUP2 ADD PUSH1 0x40 MSTORE DUP1 SWAP3 SWAP2 SWAP1 DUP2 DUP2 MSTORE PUSH1 0x20 ADD DUP3 DUP1 SLOAD PUSH2 0x34C SWAP1 PUSH2 0x317A JUMP JUMPDEST DUP1 ISZERO PUSH2 0x397 JUMPI DUP1 PUSH1 0x1F LT PUSH2 0x36E JUMPI PUSH2 0x100 DUP1 DUP4 SLOAD DIV MUL DUP4 MSTORE SWAP2 PUSH1 0x20 ADD SWAP2 PUSH2 0x397 JUMP JUMPDEST DUP3 ADD SWAP2 SWAP1 PUSH0 MSTORE PUSH1 0x20 PUSH0 KECCAK256 SWAP1 JUMPDEST DUP2 SLOAD DUP2 MSTORE SWAP1 PUSH1 0x1 ADD SWAP1 PUSH1 0x20 ADD DUP1 DUP4 GT PUSH2 0x37A JUMPI DUP3 SWAP1 SUB PUSH1 0x1F AND DUP3 ADD SWAP2 JUMPDEST POP POP POP POP POP DUP2 MSTORE PUSH1 0x20 ADD PUSH1 0x2 DUP3 ADD DUP1 SLOAD PUSH2 0x3B0 SWAP1 PUSH2 0x317A JUMP JUMPDEST DUP1 PUSH1 0x1F ADD PUSH1 0x20 DUP1 SWAP2 DIV MUL PUSH1 0x20 ADD PUSH1 0x40 MLOAD SWAP1 DUP2 ADD PUSH1 0x40 MSTORE DUP1 SWAP3 SWAP2 SWAP1 DUP2 DUP2 MSTORE PUSH1 0x20 ADD DUP3 DUP1 SLOAD PUSH2 0x3DC SWAP1 PUSH2 0x317A JUMP JUMPDEST DUP1 ISZERO PUSH2 0x427 JUMPI DUP1 PUSH1 0x1F LT PUSH2 0x3FE JUMPI PUSH2 0x100 DUP1 DUP4 SLOAD DIV MUL DUP4 MSTORE SWAP2 PUSH1 0x20 ADD SWAP2 PUSH2 0x427 JUMP JUMPDEST DUP3 ADD SWAP2 SWAP1 PUSH0 MSTORE PUSH1 0x20 PUSH0 KECCAK256 SWAP1 JUMPDEST DUP2 SLOAD DUP2 MSTORE SWAP1 PUSH1 0x1 ADD SWAP1 PUSH1 0x20 ADD DUP1 DUP4 GT PUSH2 0x40A JUMPI DUP3 SWAP1 SUB PUSH1 0x1F AND DUP3 ADD SWAP2 JUMPDEST POP POP POP POP POP DUP2 MSTORE POP POP DUP2 MSTORE PUSH1 0x20 ADD SWAP1 PUSH1 0x1 ADD SWAP1 PUSH2 0x29B JUMP JUMPDEST POP POP POP POP SWAP1 POP SWAP1 JUMP JUMPDEST PUSH1 0x7 PUSH0 CALLER PUSH20 0xFFFFFFFFFFFFFFFFFFFFFFFFFFFFFFFFFFFFFFFF AND PUSH20 0xFFFFFFFFFFFFFFFFFFFFFFFFFFFFFFFFFFFFFFFF AND DUP2 MSTORE PUSH1 0x20 ADD SWAP1 DUP2 MSTORE PUSH1 0x20 ADD PUSH0 KECCAK256 PUSH0 SWAP1 SLOAD SWAP1 PUSH2 0x100 EXP SWAP1 DIV PUSH1 0xFF AND PUSH2 0x4D1 JUMPI PUSH1 0x40 MLOAD PUSH32 0x8C379A000000000000000000000000000000000000000000000000000000000 DUP2 MSTORE PUSH1 0x4 ADD PUSH2 0x4C8 SWAP1 PUSH2 0x321A JUMP JUMPDEST PUSH1 0x40 MLOAD DUP1 SWAP2 SUB SWAP1 REVERT JUMPDEST PUSH0 PUSH1 0x5 PUSH0 CALLER PUSH20 0xFFFFFFFFFFFFFFFFFFFFFFFFFFFFFFFFFFFFFFFF AND PUSH20 0xFFFFFFFFFFFFFFFFFFFFFFFFFFFFFFFFFFFFFFFF AND DUP2 MSTORE PUSH1 0x20 ADD SWAP1 DUP2 MSTORE PUSH1 0x20 ADD PUSH0 KECCAK256 SLOAD SWAP1 POP PUSH1 0x40 MLOAD PUSH1 0x20 ADD PUSH2 0x521 SWAP1 PUSH2 0x328C JUMP JUMPDEST PUSH1 0x40 MLOAD PUSH1 0x20 DUP2 DUP4 SUB SUB DUP2 MSTORE SWAP1 PUSH1 0x40 MSTORE DUP1 MLOAD SWAP1 PUSH1 0x20 ADD KECCAK256 PUSH1 0x1 DUP3 DUP2 SLOAD DUP2 LT PUSH2 0x54B JUMPI PUSH2 0x54A PUSH2 0x32A0 JUMP JUMPDEST JUMPDEST SWAP1 PUSH0 MSTORE PUSH1 0x20 PUSH0 KECCAK256 SWAP1 PUSH1 0x3 MUL ADD PUSH1 0x2 ADD PUSH1 0x40 MLOAD PUSH1 0x20 ADD PUSH2 0x56A SWAP2 SWAP1 PUSH2 0x335F JUMP JUMPDEST PUSH1 0x40 MLOAD PUSH1 0x20 DUP2 DUP4 SUB SUB DUP2 MSTORE SWAP1 PUSH1 0x40 MSTORE DUP1 MLOAD SWAP1 PUSH1 0x20 ADD KECCAK256 EQ PUSH2 0x5C0 JUMPI PUSH1 0x40 MLOAD PUSH32 0x8C379A000000000000000000000000000000000000000000000000000000000 DUP2 MSTORE PUSH1 0x4 ADD PUSH2 0x5B7 SWAP1 PUSH2 0x33E5 JUMP JUMPDEST PUSH1 0x40 MLOAD DUP1 SWAP2 SUB SWAP1 REVERT JUMPDEST PUSH0 PUSH1 0x4 PUSH0 DUP10 DUP2 MSTORE PUSH1 0x20 ADD SWAP1 DUP2 MSTORE PUSH1 0x20 ADD PUSH0 KECCAK256 SLOAD EQ ISZERO DUP1 PUSH2 0x5E3 JUMPI POP PUSH0 DUP1 DUP1 SLOAD SWAP1 POP GT JUMPDEST PUSH2 0x622 JUMPI PUSH1 0x40 MLOAD PUSH32 0x8C379A000000000000000000000000000000000000000000000000000000000 DUP2 MSTORE PUSH1 0x4 ADD PUSH2 0x619 SWAP1 PUSH2 0x344D JUMP JUMPDEST PUSH1 0x40 MLOAD DUP1 SWAP2 SUB SWAP1 REVERT JUMPDEST PUSH0 PUSH1 0x4 PUSH0 DUP10 DUP2 MSTORE PUSH1 0x20 ADD SWAP1 DUP2 MSTORE PUSH1 0x20 ADD PUSH0 KECCAK256 SLOAD SWAP1 POP DUP5 PUSH0 DUP3 DUP2 SLOAD DUP2 LT PUSH2 0x64B JUMPI PUSH2 0x64A PUSH2 0x32A0 JUMP JUMPDEST JUMPDEST SWAP1 PUSH0 MSTORE PUSH1 0x20 PUSH0 KECCAK256 SWAP1 PUSH1 0x9 MUL ADD PUSH1 0x6 ADD SLOAD EQ PUSH2 0x69B JUMPI PUSH1 0x40 MLOAD PUSH32 0x8C379A000000000000000000000000000000000000000000000000000000000 DUP2 MSTORE PUSH1 0x4 ADD PUSH2 0x692 SWAP1 PUSH2 0x34B5 JUMP JUMPDEST PUSH1 0x40 MLOAD DUP1 SWAP2 SUB SWAP1 REVERT JUMPDEST PUSH2 0x708 PUSH0 DUP3 DUP2 SLOAD DUP2 LT PUSH2 0x6B1 JUMPI PUSH2 0x6B0 PUSH2 0x32A0 JUMP JUMPDEST JUMPDEST SWAP1 PUSH0 MSTORE PUSH1 0x20 PUSH0 KECCAK256 SWAP1 PUSH1 0x9 MUL ADD PUSH1 0x7 ADD SLOAD PUSH2 0x6CB SWAP2 SWAP1 PUSH2 0x3500 JUMP JUMPDEST TIMESTAMP GT ISZERO PUSH2 0x70D JUMPI PUSH1 0x40 MLOAD PUSH32 0x8C379A000000000000000000000000000000000000000000000000000000000 DUP2 MSTORE PUSH1 0x4 ADD PUSH2 0x704 SWAP1 PUSH2 0x357D JUMP JUMPDEST PUSH1 0x40 MLOAD DUP1 SWAP2 SUB SWAP1 REVERT JUMPDEST PUSH0 DUP8 MLOAD GT PUSH2 0x750 JUMPI PUSH1 0x40 MLOAD PUSH32 0x8C379A000000000000000000000000000000000000000000000000000000000 DUP2 MSTORE PUSH1 0x4 ADD PUSH2 0x747 SWAP1 PUSH2 0x35E5 JUMP JUMPDEST PUSH1 0x40 MLOAD DUP1 SWAP2 SUB SWAP1 REVERT JUMPDEST PUSH0 DUP7 MLOAD GT PUSH2 0x793 JUMPI PUSH1 0x40 MLOAD PUSH32 0x8C379A000000000000000000000000000000000000000000000000000000000 DUP2 MSTORE PUSH1 0x4 ADD PUSH2 0x78A SWAP1 PUSH2 0x364D JUMP JUMPDEST PUSH1 0x40 MLOAD DUP1 SWAP2 SUB SWAP1 REVERT JUMPDEST PUSH1 0x7 PUSH0 DUP5 PUSH20 0xFFFFFFFFFFFFFFFFFFFFFFFFFFFFFFFFFFFFFFFF AND PUSH20 0xFFFFFFFFFFFFFFFFFFFFFFFFFFFFFFFFFFFFFFFF AND DUP2 MSTORE PUSH1 0x20 ADD SWAP1 DUP2 MSTORE PUSH1 0x20 ADD PUSH0 KECCAK256 PUSH0 SWAP1 SLOAD SWAP1 PUSH2 0x100 EXP SWAP1 DIV PUSH1 0xFF AND PUSH2 0x81C JUMPI PUSH1 0x40 MLOAD PUSH32 0x8C379A000000000000000000000000000000000000000000000000000000000 DUP2 MSTORE PUSH1 0x4 ADD PUSH2 0x813 SWAP1 PUSH2 0x36DB JUMP JUMPDEST PUSH1 0x40 MLOAD DUP1 SWAP2 SUB SWAP1 REVERT JUMPDEST PUSH0 PUSH1 0x5 PUSH0 DUP6 PUSH20 0xFFFFFFFFFFFFFFFFFFFFFFFFFFFFFFFFFFFFFFFF AND PUSH20 0xFFFFFFFFFFFFFFFFFFFFFFFFFFFFFFFFFFFFFFFF AND DUP2 MSTORE PUSH1 0x20 ADD SWAP1 DUP2 MSTORE PUSH1 0x20 ADD PUSH0 KECCAK256 SLOAD SWAP1 POP PUSH0 DUP6 PUSH2 0x89E JUMPI PUSH1 0x40 MLOAD DUP1 PUSH1 0x40 ADD PUSH1 0x40 MSTORE DUP1 PUSH1 0xA DUP2 MSTORE PUSH1 0x20 ADD PUSH32 0x506861726D616369737400000000000000000000000000000000000000000000 DUP2 MSTORE POP PUSH2 0x8D5 JUMP JUMPDEST PUSH1 0x40 MLOAD DUP1 PUSH1 0x40 ADD PUSH1 0x40 MSTORE DUP1 PUSH1 0x5 DUP2 MSTORE PUSH1 0x20 ADD PUSH32 0x4E75727365000000000000000000000000000000000000000000000000000000 DUP2 MSTORE POP JUMPDEST SWAP1 POP DUP1 PUSH1 0x40 MLOAD PUSH1 0x20 ADD PUSH2 0x8E8 SWAP2 SWAP1 PUSH2 0x3729 JUMP JUMPDEST PUSH1 0x40 MLOAD PUSH1 0x20 DUP2 DUP4 SUB SUB DUP2 MSTORE SWAP1 PUSH1 0x40 MSTORE DUP1 MLOAD SWAP1 PUSH1 0x20 ADD KECCAK256 PUSH1 0x1 DUP4 DUP2 SLOAD DUP2 LT PUSH2 0x912 JUMPI PUSH2 0x911 PUSH2 0x32A0 JUMP JUMPDEST JUMPDEST SWAP1 PUSH0 MSTORE PUSH1 0x20 PUSH0 KECCAK256 SWAP1 PUSH1 0x3 MUL ADD PUSH1 0x2 ADD PUSH1 0x40 MLOAD PUSH1 0x20 ADD PUSH2 0x931 SWAP2 SWAP1 PUSH2 0x335F JUMP JUMPDEST PUSH1 0x40 MLOAD PUSH1 0x20 DUP2 DUP4 SUB SUB DUP2 MSTORE SWAP1 PUSH1 0x40 MSTORE DUP1 MLOAD SWAP1 PUSH1 0x20 ADD KECCAK256 EQ PUSH2 0x987 JUMPI PUSH1 0x40 MLOAD PUSH32 0x8C379A000000000000000000000000000000000000000000000000000000000 DUP2 MSTORE PUSH1 0x4 ADD PUSH2 0x97E SWAP1 PUSH2 0x3789 JUMP JUMPDEST PUSH1 0x40 MLOAD DUP1 SWAP2 SUB SWAP1 REVERT JUMPDEST DUP9 PUSH0 DUP5 DUP2 SLOAD DUP2 LT PUSH2 0x99B JUMPI PUSH2 0x99A PUSH2 0x32A0 JUMP JUMPDEST JUMPDEST SWAP1 PUSH0 MSTORE PUSH1 0x20 PUSH0 KECCAK256 SWAP1 PUSH1 0x9 MUL ADD PUSH1 0x5 ADD SWAP1 DUP2 PUSH2 0x9B6 SWAP2 SWAP1 PUSH2 0x3932 JUMP JUMPDEST POP DUP6 PUSH0 DUP5 DUP2 SLOAD DUP2 LT PUSH2 0x9CB JUMPI PUSH2 0x9CA PUSH2 0x32A0 JUMP JUMPDEST JUMPDEST SWAP1 PUSH0 MSTORE PUSH1 0x20 PUSH0 KECCAK256 SWAP1 PUSH1 0x9 MUL ADD PUSH1 0x8 ADD PUSH0 PUSH2 0x100 EXP DUP2 SLOAD DUP2 PUSH1 0xFF MUL NOT AND SWAP1 DUP4 ISZERO ISZERO MUL OR SWAP1 SSTORE POP PUSH0 DUP1 DUP5 DUP2 SLOAD DUP2 LT PUSH2 0xA04 JUMPI PUSH2 0xA03 PUSH2 0x32A0 JUMP JUMPDEST JUMPDEST SWAP1 PUSH0 MSTORE PUSH1 0x20 PUSH0 KECCAK256 SWAP1 PUSH1 0x9 MUL ADD PUSH1 0x6 ADD DUP2 SWAP1 SSTORE POP PUSH0 DUP1 DUP5 DUP2 SLOAD DUP2 LT PUSH2 0xA2B JUMPI PUSH2 0xA2A PUSH2 0x32A0 JUMP JUMPDEST JUMPDEST SWAP1 PUSH0 MSTORE PUSH1 0x20 PUSH0 KECCAK256 SWAP1 PUSH1 0x9 MUL ADD PUSH1 0x7 ADD DUP2 SWAP1 SSTORE POP PUSH0 PUSH1 0x40 MLOAD DUP1 PUSH1 0xA0 ADD PUSH1 0x40 MSTORE DUP1 PUSH0 DUP7 DUP2 SLOAD DUP2 LT PUSH2 0xA5D JUMPI PUSH2 0xA5C PUSH2 0x32A0 JUMP JUMPDEST JUMPDEST SWAP1 PUSH0 MSTORE PUSH1 0x20 PUSH0 KECCAK256 SWAP1 PUSH1 0x9 MUL ADD PUSH1 0x1 ADD DUP1 SLOAD PUSH2 0xA77 SWAP1 PUSH2 0x317A JUMP JUMPDEST DUP1 PUSH1 0x1F ADD PUSH1 0x20 DUP1 SWAP2 DIV MUL PUSH1 0x20 ADD PUSH1 0x40 MLOAD SWAP1 DUP2 ADD PUSH1 0x40 MSTORE DUP1 SWAP3 SWAP2 SWAP1 DUP2 DUP2 MSTORE PUSH1 0x20 ADD DUP3 DUP1 SLOAD PUSH2 0xAA3 SWAP1 PUSH2 0x317A JUMP JUMPDEST DUP1 ISZERO PUSH2 0xAEE JUMPI DUP1 PUSH1 0x1F LT PUSH2 0xAC5 JUMPI PUSH2 0x100 DUP1 DUP4 SLOAD DIV MUL DUP4 MSTORE SWAP2 PUSH1 0x20 ADD SWAP2 PUSH2 0xAEE JUMP JUMPDEST DUP3 ADD SWAP2 SWAP1 PUSH0 MSTORE PUSH1 0x20 PUSH0 KECCAK256 SWAP1 JUMPDEST DUP2 SLOAD DUP2 MSTORE SWAP1 PUSH1 0x1 ADD SWAP1 PUSH1 0x20 ADD DUP1 DUP4 GT PUSH2 0xAD1 JUMPI DUP3 SWAP1 SUB PUSH1 0x1F AND DUP3 ADD SWAP2 JUMPDEST POP POP POP POP POP DUP2 MSTORE PUSH1 0x20 ADD DUP13 DUP2 MSTORE PUSH1 0x20 ADD DUP11 DUP2 MSTORE PUSH1 0x20 ADD DUP8 PUSH20 0xFFFFFFFFFFFFFFFFFFFFFFFFFFFFFFFFFFFFFFFF AND DUP2 MSTORE PUSH1 0x20 ADD TIMESTAMP DUP2 MSTORE POP SWAP1 POP PUSH1 0x2 DUP2 SWAP1 DUP1 PUSH1 0x1 DUP2 SLOAD ADD DUP1 DUP3 SSTORE DUP1 SWAP2 POP POP PUSH1 0x1 SWAP1 SUB SWAP1 PUSH0 MSTORE PUSH1 0x20 PUSH0 KECCAK256 SWAP1 PUSH1 0x5 MUL ADD PUSH0 SWAP1 SWAP2 SWAP1 SWAP2 SWAP1 SWAP2 POP PUSH0 DUP3 ADD MLOAD DUP2 PUSH0 ADD SWAP1 DUP2 PUSH2 0xB62 SWAP2 SWAP1 PUSH2 0x3932 JUMP JUMPDEST POP PUSH1 0x20 DUP3 ADD MLOAD DUP2 PUSH1 0x1 ADD SSTORE PUSH1 0x40 DUP3 ADD MLOAD DUP2 PUSH1 0x2 ADD SWAP1 DUP2 PUSH2 0xB82 SWAP2 SWAP1 PUSH2 0x3932 JUMP JUMPDEST POP PUSH1 0x60 DUP3 ADD MLOAD DUP2 PUSH1 0x3 ADD PUSH0 PUSH2 0x100 EXP DUP2 SLOAD DUP2 PUSH20 0xFFFFFFFFFFFFFFFFFFFFFFFFFFFFFFFFFFFFFFFF MUL NOT AND SWAP1 DUP4 PUSH20 0xFFFFFFFFFFFFFFFFFFFFFFFFFFFFFFFFFFFFFFFF AND MUL OR SWAP1 SSTORE POP PUSH1 0x80 DUP3 ADD MLOAD DUP2 PUSH1 0x4 ADD SSTORE POP POP PUSH0 DUP5 DUP2 SLOAD DUP2 LT PUSH2 0xBE8 JUMPI PUSH2 0xBE7 PUSH2 0x32A0 JUMP JUMPDEST JUMPDEST SWAP1 PUSH0 MSTORE PUSH1 0x20 PUSH0 KECCAK256 SWAP1 PUSH1 0x9 MUL ADD PUSH0 ADD PUSH0 SWAP1 SLOAD SWAP1 PUSH2 0x100 EXP SWAP1 DIV PUSH20 0xFFFFFFFFFFFFFFFFFFFFFFFFFFFFFFFFFFFFFFFF AND PUSH20 0xFFFFFFFFFFFFFFFFFFFFFFFFFFFFFFFFFFFFFFFF AND PUSH32 0x496728C3966D39323F4B0F6F4A7A5E1F1CBBC87338B4A1D5942049E331AE2817 DUP12 PUSH1 0x40 MLOAD PUSH2 0xC5B SWAP2 SWAP1 PUSH2 0x3A01 JUMP JUMPDEST PUSH1 0x40 MLOAD DUP1 SWAP2 SUB SWAP1 LOG2 DUP6 PUSH20 0xFFFFFFFFFFFFFFFFFFFFFFFFFFFFFFFFFFFFFFFF AND PUSH0 DUP6 DUP2 SLOAD DUP2 LT PUSH2 0xC8D JUMPI PUSH2 0xC8C PUSH2 0x32A0 JUMP JUMPDEST JUMPDEST SWAP1 PUSH0 MSTORE PUSH1 0x20 PUSH0 KECCAK256 SWAP1 PUSH1 0x9 MUL ADD PUSH0 ADD PUSH0 SWAP1 SLOAD SWAP1 PUSH2 0x100 EXP SWAP1 DIV PUSH20 0xFFFFFFFFFFFFFFFFFFFFFFFFFFFFFFFFFFFFFFFF AND PUSH20 0xFFFFFFFFFFFFFFFFFFFFFFFFFFFFFFFFFFFFFFFF AND PUSH32 0x4F3E584412B404B8EA3E8AE1652DF00170EB8B52474DECE1592ACFFD5D771443 DUP12 PUSH1 0x40 MLOAD PUSH2 0xD00 SWAP2 SWAP1 PUSH2 0x3A01 JUMP JUMPDEST PUSH1 0x40 MLOAD DUP1 SWAP2 SUB SWAP1 LOG3 POP POP POP POP POP POP POP POP POP POP POP JUMP JUMPDEST PUSH0 DUP1 DUP1 SLOAD SWAP1 POP SWAP1 POP SWAP1 JUMP JUMPDEST PUSH1 0x6 PUSH0 CALLER PUSH20 0xFFFFFFFFFFFFFFFFFFFFFFFFFFFFFFFFFFFFFFFF AND PUSH20 0xFFFFFFFFFFFFFFFFFFFFFFFFFFFFFFFFFFFFFFFF AND DUP2 MSTORE PUSH1 0x20 ADD SWAP1 DUP2 MSTORE PUSH1 0x20 ADD PUSH0 KECCAK256 PUSH0 SWAP1 SLOAD SWAP1 PUSH2 0x100 EXP SWAP1 DIV PUSH1 0xFF AND PUSH2 0xDA9 JUMPI PUSH1 0x40 MLOAD PUSH32 0x8C379A000000000000000000000000000000000000000000000000000000000 DUP2 MSTORE PUSH1 0x4 ADD PUSH2 0xDA0 SWAP1 PUSH2 0x3A91 JUMP JUMPDEST PUSH1 0x40 MLOAD DUP1 SWAP2 SUB SWAP1 REVERT JUMPDEST PUSH0 PUSH1 0x3 PUSH0 CALLER PUSH20 0xFFFFFFFFFFFFFFFFFFFFFFFFFFFFFFFFFFFFFFFF AND PUSH20 0xFFFFFFFFFFFFFFFFFFFFFFFFFFFFFFFFFFFFFFFF AND DUP2 MSTORE PUSH1 0x20 ADD SWAP1 DUP2 MSTORE PUSH1 0x20 ADD PUSH0 KECCAK256 SLOAD SWAP1 POP PUSH0 PUSH2 0xDF4 CALLER PUSH2 0x26C9 JUMP JUMPDEST SWAP1 POP DUP1 PUSH0 DUP4 DUP2 SLOAD DUP2 LT PUSH2 0xE0A JUMPI PUSH2 0xE09 PUSH2 0x32A0 JUMP JUMPDEST JUMPDEST SWAP1 PUSH0 MSTORE PUSH1 0x20 PUSH0 KECCAK256 SWAP1 PUSH1 0x9 MUL ADD PUSH1 0x6 ADD DUP2 SWAP1 SSTORE POP TIMESTAMP PUSH0 DUP4 DUP2 SLOAD DUP2 LT PUSH2 0xE31 JUMPI PUSH2 0xE30 PUSH2 0x32A0 JUMP JUMPDEST JUMPDEST SWAP1 PUSH0 MSTORE PUSH1 0x20 PUSH0 KECCAK256 SWAP1 PUSH1 0x9 MUL ADD PUSH1 0x7 ADD DUP2 SWAP1 SSTORE POP CALLER PUSH20 0xFFFFFFFFFFFFFFFFFFFFFFFFFFFFFFFFFFFFFFFF AND PUSH32 0x511F82B4A6612092391A59DDBE0940FAEAEF8C62498F9A2E7495AF8770F0EF4F DUP3 PUSH1 0x40 MLOAD PUSH2 0xE8A SWAP2 SWAP1 PUSH2 0x2BCB JUMP JUMPDEST PUSH1 0x40 MLOAD DUP1 SWAP2 SUB SWAP1 LOG2 POP POP JUMP JUMPDEST PUSH1 0x7 PUSH0 CALLER PUSH20 0xFFFFFFFFFFFFFFFFFFFFFFFFFFFFFFFFFFFFFFFF AND PUSH20 0xFFFFFFFFFFFFFFFFFFFFFFFFFFFFFFFFFFFFFFFF AND DUP2 MSTORE PUSH1 0x20 ADD SWAP1 DUP2 MSTORE PUSH1 0x20 ADD PUSH0 KECCAK256 PUSH0 SWAP1 SLOAD SWAP1 PUSH2 0x100 EXP SWAP1 DIV PUSH1 0xFF AND ISZERO PUSH2 0xF20 JUMPI PUSH1 0x40 MLOAD PUSH32 0x8C379A000000000000000000000000000000000000000000000000000000000 DUP2 MSTORE PUSH1 0x4 ADD PUSH2 0xF17 SWAP1 PUSH2 0x3AF9 JUMP JUMPDEST PUSH1 0x40 MLOAD DUP1 SWAP2 SUB SWAP1 REVERT JUMPDEST PUSH0 DUP3 MLOAD GT PUSH2 0xF63 JUMPI PUSH1 0x40 MLOAD PUSH32 0x8C379A000000000000000000000000000000000000000000000000000000000 DUP2 MSTORE PUSH1 0x4 ADD PUSH2 0xF5A SWAP1 PUSH2 0x3B61 JUMP JUMPDEST PUSH1 0x40 MLOAD DUP1 SWAP2 SUB SWAP1 REVERT JUMPDEST PUSH1 0x40 MLOAD PUSH1 0x20 ADD PUSH2 0xF72 SWAP1 PUSH2 0x328C JUMP JUMPDEST PUSH1 0x40 MLOAD PUSH1 0x20 DUP2 DUP4 SUB SUB DUP2 MSTORE SWAP1 PUSH1 0x40 MSTORE DUP1 MLOAD SWAP1 PUSH1 0x20 ADD KECCAK256 DUP2 PUSH1 0x40 MLOAD PUSH1 0x20 ADD PUSH2 0xF99 SWAP2 SWAP1 PUSH2 0x3729 JUMP JUMPDEST PUSH1 0x40 MLOAD PUSH1 0x20 DUP2 DUP4 SUB SUB DUP2 MSTORE SWAP1 PUSH1 0x40 MSTORE DUP1 MLOAD SWAP1 PUSH1 0x20 ADD KECCAK256 EQ DUP1 PUSH2 0x1004 JUMPI POP PUSH1 0x40 MLOAD PUSH1 0x20 ADD PUSH2 0xFC5 SWAP1 PUSH2 0x3BC9 JUMP JUMPDEST PUSH1 0x40 MLOAD PUSH1 0x20 DUP2 DUP4 SUB SUB DUP2 MSTORE SWAP1 PUSH1 0x40 MSTORE DUP1 MLOAD SWAP1 PUSH1 0x20 ADD KECCAK256 DUP2 PUSH1 0x40 MLOAD PUSH1 0x20 ADD PUSH2 0xFEC SWAP2 SWAP1 PUSH2 0x3729 JUMP JUMPDEST PUSH1 0x40 MLOAD PUSH1 0x20 DUP2 DUP4 SUB SUB DUP2 MSTORE SWAP1 PUSH1 0x40 MSTORE DUP1 MLOAD SWAP1 PUSH1 0x20 ADD KECCAK256 EQ JUMPDEST DUP1 PUSH2 0x1058 JUMPI POP PUSH1 0x40 MLOAD PUSH1 0x20 ADD PUSH2 0x1019 SWAP1 PUSH2 0x3C27 JUMP JUMPDEST PUSH1 0x40 MLOAD PUSH1 0x20 DUP2 DUP4 SUB SUB DUP2 MSTORE SWAP1 PUSH1 0x40 MSTORE DUP1 MLOAD SWAP1 PUSH1 0x20 ADD KECCAK256 DUP2 PUSH1 0x40 MLOAD PUSH1 0x20 ADD PUSH2 0x1040 SWAP2 SWAP1 PUSH2 0x3729 JUMP JUMPDEST PUSH1 0x40 MLOAD PUSH1 0x20 DUP2 DUP4 SUB SUB DUP2 MSTORE SWAP1 PUSH1 0x40 MSTORE DUP1 MLOAD SWAP1 PUSH1 0x20 ADD KECCAK256 EQ JUMPDEST PUSH2 0x1097 JUMPI PUSH1 0x40 MLOAD PUSH32 0x8C379A000000000000000000000000000000000000000000000000000000000 DUP2 MSTORE PUSH1 0x4 ADD PUSH2 0x108E SWAP1 PUSH2 0x3CAB JUMP JUMPDEST PUSH1 0x40 MLOAD DUP1 SWAP2 SUB SWAP1 REVERT JUMPDEST PUSH0 PUSH1 0x40 MLOAD DUP1 PUSH1 0x60 ADD PUSH1 0x40 MSTORE DUP1 CALLER PUSH20 0xFFFFFFFFFFFFFFFFFFFFFFFFFFFFFFFFFFFFFFFF AND DUP2 MSTORE PUSH1 0x20 ADD DUP5 DUP2 MSTORE PUSH1 0x20 ADD DUP4 DUP2 MSTORE POP SWAP1 POP PUSH1 0x1 DUP2 SWAP1 DUP1 PUSH1 0x1 DUP2 SLOAD ADD DUP1 DUP3 SSTORE DUP1 SWAP2 POP POP PUSH1 0x1 SWAP1 SUB SWAP1 PUSH0 MSTORE PUSH1 0x20 PUSH0 KECCAK256 SWAP1 PUSH1 0x3 MUL ADD PUSH0 SWAP1 SWAP2 SWAP1 SWAP2 SWAP1 SWAP2 POP PUSH0 DUP3 ADD MLOAD DUP2 PUSH0 ADD PUSH0 PUSH2 0x100 EXP DUP2 SLOAD DUP2 PUSH20 0xFFFFFFFFFFFFFFFFFFFFFFFFFFFFFFFFFFFFFFFF MUL NOT AND SWAP1 DUP4 PUSH20 0xFFFFFFFFFFFFFFFFFFFFFFFFFFFFFFFFFFFFFFFF AND MUL OR SWAP1 SSTORE POP PUSH1 0x20 DUP3 ADD MLOAD DUP2 PUSH1 0x1 ADD SWAP1 DUP2 PUSH2 0x114D SWAP2 SWAP1 PUSH2 0x3932 JUMP JUMPDEST POP PUSH1 0x40 DUP3 ADD MLOAD DUP2 PUSH1 0x2 ADD SWAP1 DUP2 PUSH2 0x1163 SWAP2 SWAP1 PUSH2 0x3932 JUMP JUMPDEST POP POP POP PUSH1 0x1 DUP1 DUP1 SLOAD SWAP1 POP PUSH2 0x1177 SWAP2 SWAP1 PUSH2 0x3CC9 JUMP JUMPDEST PUSH1 0x5 PUSH0 CALLER PUSH20 0xFFFFFFFFFFFFFFFFFFFFFFFFFFFFFFFFFFFFFFFF AND PUSH20 0xFFFFFFFFFFFFFFFFFFFFFFFFFFFFFFFFFFFFFFFF AND DUP2 MSTORE PUSH1 0x20 ADD SWAP1 DUP2 MSTORE PUSH1 0x20 ADD PUSH0 KECCAK256 DUP2 SWAP1 SSTORE POP PUSH1 0x1 PUSH1 0x7 PUSH0 CALLER PUSH20 0xFFFFFFFFFFFFFFFFFFFFFFFFFFFFFFFFFFFFFFFF AND PUSH20 0xFFFFFFFFFFFFFFFFFFFFFFFFFFFFFFFFFFFFFFFF AND DUP2 MSTORE PUSH1 0x20 ADD SWAP1 DUP2 MSTORE PUSH1 0x20 ADD PUSH0 KECCAK256 PUSH0 PUSH2 0x100 EXP DUP2 SLOAD DUP2 PUSH1 0xFF MUL NOT AND SWAP1 DUP4 ISZERO ISZERO MUL OR SWAP1 SSTORE POP CALLER PUSH20 0xFFFFFFFFFFFFFFFFFFFFFFFFFFFFFFFFFFFFFFFF AND PUSH32 0xA030FD4C7D3464E2AB354CC6357D7C2E9B69A215A9FF95D0BEA2DD9DACB592B7 DUP4 PUSH1 0x40 MLOAD PUSH2 0x1253 SWAP2 SWAP1 PUSH2 0x3A01 JUMP JUMPDEST PUSH1 0x40 MLOAD DUP1 SWAP2 SUB SWAP1 LOG2 POP POP POP JUMP JUMPDEST PUSH1 0x6 PUSH0 CALLER PUSH20 0xFFFFFFFFFFFFFFFFFFFFFFFFFFFFFFFFFFFFFFFF AND PUSH20 0xFFFFFFFFFFFFFFFFFFFFFFFFFFFFFFFFFFFFFFFF AND DUP2 MSTORE PUSH1 0x20 ADD SWAP1 DUP2 MSTORE PUSH1 0x20 ADD PUSH0 KECCAK256 PUSH0 SWAP1 SLOAD SWAP1 PUSH2 0x100 EXP SWAP1 DIV PUSH1 0xFF AND PUSH2 0x12E9 JUMPI PUSH1 0x40 MLOAD PUSH32 0x8C379A000000000000000000000000000000000000000000000000000000000 DUP2 MSTORE PUSH1 0x4 ADD PUSH2 0x12E0 SWAP1 PUSH2 0x3A91 JUMP JUMPDEST PUSH1 0x40 MLOAD DUP1 SWAP2 SUB SWAP1 REVERT JUMPDEST PUSH0 PUSH1 0x3 PUSH0 CALLER PUSH20 0xFFFFFFFFFFFFFFFFFFFFFFFFFFFFFFFFFFFFFFFF AND PUSH20 0xFFFFFFFFFFFFFFFFFFFFFFFFFFFFFFFFFFFFFFFF AND DUP2 MSTORE PUSH1 0x20 ADD SWAP1 DUP2 MSTORE PUSH1 0x20 ADD PUSH0 KECCAK256 SLOAD SWAP1 POP PUSH0 DUP1 DUP3 DUP2 SLOAD DUP2 LT PUSH2 0x133E JUMPI PUSH2 0x133D PUSH2 0x32A0 JUMP JUMPDEST JUMPDEST SWAP1 PUSH0 MSTORE PUSH1 0x20 PUSH0 KECCAK256 SWAP1 PUSH1 0x9 MUL ADD PUSH1 0x6 ADD DUP2 SWAP1 SSTORE POP PUSH0 DUP1 DUP3 DUP2 SLOAD DUP2 LT PUSH2 0x1365 JUMPI PUSH2 0x1364 PUSH2 0x32A0 JUMP JUMPDEST JUMPDEST SWAP1 PUSH0 MSTORE PUSH1 0x20 PUSH0 KECCAK256 SWAP1 PUSH1 0x9 MUL ADD PUSH1 0x7 ADD DUP2 SWAP1 SSTORE POP CALLER PUSH20 0xFFFFFFFFFFFFFFFFFFFFFFFFFFFFFFFFFFFFFFFF AND PUSH32 0xDD8F91A332F5654EAC96ADCF2C43C93ED5CFCC4C7694C38F9513D174395BCC66 PUSH1 0x40 MLOAD PUSH1 0x40 MLOAD DUP1 SWAP2 SUB SWAP1 LOG2 POP JUMP JUMPDEST PUSH1 0x6 PUSH0 CALLER PUSH20 0xFFFFFFFFFFFFFFFFFFFFFFFFFFFFFFFFFFFFFFFF AND PUSH20 0xFFFFFFFFFFFFFFFFFFFFFFFFFFFFFFFFFFFFFFFF AND DUP2 MSTORE PUSH1 0x20 ADD SWAP1 DUP2 MSTORE PUSH1 0x20 ADD PUSH0 KECCAK256 PUSH0 SWAP1 SLOAD SWAP1 PUSH2 0x100 EXP SWAP1 DIV PUSH1 0xFF AND ISZERO PUSH2 0x1448 JUMPI PUSH1 0x40 MLOAD PUSH32 0x8C379A000000000000000000000000000000000000000000000000000000000 DUP2 MSTORE PUSH1 0x4 ADD PUSH2 0x143F SWAP1 PUSH2 0x3D46 JUMP JUMPDEST PUSH1 0x40 MLOAD DUP1 SWAP2 SUB SWAP1 REVERT JUMPDEST PUSH0 DUP5 MLOAD GT PUSH2 0x148B JUMPI PUSH1 0x40 MLOAD PUSH32 0x8C379A000000000000000000000000000000000000000000000000000000000 DUP2 MSTORE PUSH1 0x4 ADD PUSH2 0x1482 SWAP1 PUSH2 0x3B61 JUMP JUMPDEST PUSH1 0x40 MLOAD DUP1 SWAP2 SUB SWAP1 REVERT JUMPDEST PUSH3 0x186A0 DUP4 LT ISZERO DUP1 ISZERO PUSH2 0x14A1 JUMPI POP PUSH3 0xF423F DUP4 GT ISZERO JUMPDEST PUSH2 0x14E0 JUMPI PUSH1 0x40 MLOAD PUSH32 0x8C379A000000000000000000000000000000000000000000000000000000000 DUP2 MSTORE PUSH1 0x4 ADD PUSH2 0x14D7 SWAP1 PUSH2 0x3DAE JUMP JUMPDEST PUSH1 0x40 MLOAD DUP1 SWAP2 SUB SWAP1 REVERT JUMPDEST TIMESTAMP DUP3 GT ISZERO PUSH2 0x1523 JUMPI PUSH1 0x40 MLOAD PUSH32 0x8C379A000000000000000000000000000000000000000000000000000000000 DUP2 MSTORE PUSH1 0x4 ADD PUSH2 0x151A SWAP1 PUSH2 0x3E16 JUMP JUMPDEST PUSH1 0x40 MLOAD DUP1 SWAP2 SUB SWAP1 REVERT JUMPDEST PUSH0 PUSH1 0x4 PUSH0 DUP6 DUP2 MSTORE PUSH1 0x20 ADD SWAP1 DUP2 MSTORE PUSH1 0x20 ADD PUSH0 KECCAK256 SLOAD EQ DUP1 ISZERO PUSH2 0x1546 JUMPI POP PUSH0 DUP1 DUP1 SLOAD SWAP1 POP EQ JUMPDEST DUP1 PUSH2 0x1561 JUMPI POP PUSH0 PUSH1 0x4 PUSH0 DUP6 DUP2 MSTORE PUSH1 0x20 ADD SWAP1 DUP2 MSTORE PUSH1 0x20 ADD PUSH0 KECCAK256 SLOAD EQ JUMPDEST PUSH2 0x15A0 JUMPI PUSH1 0x40 MLOAD PUSH32 0x8C379A000000000000000000000000000000000000000000000000000000000 DUP2 MSTORE PUSH1 0x4 ADD PUSH2 0x1597 SWAP1 PUSH2 0x3E7E JUMP JUMPDEST PUSH1 0x40 MLOAD DUP1 SWAP2 SUB SWAP1 REVERT JUMPDEST PUSH0 PUSH2 0x15AA CALLER PUSH2 0x26C9 JUMP JUMPDEST SWAP1 POP PUSH0 PUSH1 0x40 MLOAD DUP1 PUSH2 0x120 ADD PUSH1 0x40 MSTORE DUP1 CALLER PUSH20 0xFFFFFFFFFFFFFFFFFFFFFFFFFFFFFFFFFFFFFFFF AND DUP2 MSTORE PUSH1 0x20 ADD DUP8 DUP2 MSTORE PUSH1 0x20 ADD DUP7 DUP2 MSTORE PUSH1 0x20 ADD DUP6 DUP2 MSTORE PUSH1 0x20 ADD DUP5 DUP2 MSTORE PUSH1 0x20 ADD PUSH1 0x40 MLOAD DUP1 PUSH1 0x20 ADD PUSH1 0x40 MSTORE DUP1 PUSH0 DUP2 MSTORE POP DUP2 MSTORE PUSH1 0x20 ADD DUP4 DUP2 MSTORE PUSH1 0x20 ADD TIMESTAMP DUP2 MSTORE PUSH1 0x20 ADD PUSH0 ISZERO ISZERO DUP2 MSTORE POP SWAP1 POP PUSH0 DUP2 SWAP1 DUP1 PUSH1 0x1 DUP2 SLOAD ADD DUP1 DUP3 SSTORE DUP1 SWAP2 POP POP PUSH1 0x1 SWAP1 SUB SWAP1 PUSH0 MSTORE PUSH1 0x20 PUSH0 KECCAK256 SWAP1 PUSH1 0x9 MUL ADD PUSH0 SWAP1 SWAP2 SWAP1 SWAP2 SWAP1 SWAP2 POP PUSH0 DUP3 ADD MLOAD DUP2 PUSH0 ADD PUSH0 PUSH2 0x100 EXP DUP2 SLOAD DUP2 PUSH20 0xFFFFFFFFFFFFFFFFFFFFFFFFFFFFFFFFFFFFFFFF MUL NOT AND SWAP1 DUP4 PUSH20 0xFFFFFFFFFFFFFFFFFFFFFFFFFFFFFFFFFFFFFFFF AND MUL OR SWAP1 SSTORE POP PUSH1 0x20 DUP3 ADD MLOAD DUP2 PUSH1 0x1 ADD SWAP1 DUP2 PUSH2 0x1696 SWAP2 SWAP1 PUSH2 0x3932 JUMP JUMPDEST POP PUSH1 0x40 DUP3 ADD MLOAD DUP2 PUSH1 0x2 ADD SSTORE PUSH1 0x60 DUP3 ADD MLOAD DUP2 PUSH1 0x3 ADD SSTORE PUSH1 0x80 DUP3 ADD MLOAD DUP2 PUSH1 0x4 ADD SWAP1 DUP2 PUSH2 0x16C0 SWAP2 SWAP1 PUSH2 0x3932 JUMP JUMPDEST POP PUSH1 0xA0 DUP3 ADD MLOAD DUP2 PUSH1 0x5 ADD SWAP1 DUP2 PUSH2 0x16D6 SWAP2 SWAP1 PUSH2 0x3932 JUMP JUMPDEST POP PUSH1 0xC0 DUP3 ADD MLOAD DUP2 PUSH1 0x6 ADD SSTORE PUSH1 0xE0 DUP3 ADD MLOAD DUP2 PUSH1 0x7 ADD SSTORE PUSH2 0x100 DUP3 ADD MLOAD DUP2 PUSH1 0x8 ADD PUSH0 PUSH2 0x100 EXP DUP2 SLOAD DUP2 PUSH1 0xFF MUL NOT AND SWAP1 DUP4 ISZERO ISZERO MUL OR SWAP1 SSTORE POP POP POP PUSH1 0x1 PUSH0 DUP1 SLOAD SWAP1 POP PUSH2 0x171E SWAP2 SWAP1 PUSH2 0x3CC9 JUMP JUMPDEST PUSH1 0x3 PUSH0 CALLER PUSH20 0xFFFFFFFFFFFFFFFFFFFFFFFFFFFFFFFFFFFFFFFF AND PUSH20 0xFFFFFFFFFFFFFFFFFFFFFFFFFFFFFFFFFFFFFFFF AND DUP2 MSTORE PUSH1 0x20 ADD SWAP1 DUP2 MSTORE PUSH1 0x20 ADD PUSH0 KECCAK256 DUP2 SWAP1 SSTORE POP PUSH1 0x1 PUSH0 DUP1 SLOAD SWAP1 POP PUSH2 0x1770 SWAP2 SWAP1 PUSH2 0x3CC9 JUMP JUMPDEST PUSH1 0x4 PUSH0 DUP8 DUP2 MSTORE PUSH1 0x20 ADD SWAP1 DUP2 MSTORE PUSH1 0x20 ADD PUSH0 KECCAK256 DUP2 SWAP1 SSTORE POP PUSH1 0x1 PUSH1 0x6 PUSH0 CALLER PUSH20 0xFFFFFFFFFFFFFFFFFFFFFFFFFFFFFFFFFFFFFFFF AND PUSH20 0xFFFFFFFFFFFFFFFFFFFFFFFFFFFFFFFFFFFFFFFF AND DUP2 MSTORE PUSH1 0x20 ADD SWAP1 DUP2 MSTORE PUSH1 0x20 ADD PUSH0 KECCAK256 PUSH0 PUSH2 0x100 EXP DUP2 SLOAD DUP2 PUSH1 0xFF MUL NOT AND SWAP1 DUP4 ISZERO ISZERO MUL OR SWAP1 SSTORE POP CALLER PUSH20 0xFFFFFFFFFFFFFFFFFFFFFFFFFFFFFFFFFFFFFFFF AND PUSH32 0xF6557C3F758ABA81A6954691EB0B4408D0E837B55D6FA550B1576E6292A9106C DUP7 PUSH1 0x40 MLOAD PUSH2 0x1820 SWAP2 SWAP1 PUSH2 0x2BCB JUMP JUMPDEST PUSH1 0x40 MLOAD DUP1 SWAP2 SUB SWAP1 LOG2 CALLER PUSH20 0xFFFFFFFFFFFFFFFFFFFFFFFFFFFFFFFFFFFFFFFF AND PUSH32 0x511F82B4A6612092391A59DDBE0940FAEAEF8C62498F9A2E7495AF8770F0EF4F DUP4 PUSH1 0x40 MLOAD PUSH2 0x186E SWAP2 SWAP1 PUSH2 0x2BCB JUMP JUMPDEST PUSH1 0x40 MLOAD DUP1 SWAP2 SUB SWAP1 LOG2 POP POP POP POP POP POP JUMP JUMPDEST PUSH1 0x60 PUSH0 DUP1 PUSH1 0x60 DUP1 PUSH0 DUP1 PUSH1 0x6 PUSH0 DUP10 PUSH20 0xFFFFFFFFFFFFFFFFFFFFFFFFFFFFFFFFFFFFFFFF AND PUSH20 0xFFFFFFFFFFFFFFFFFFFFFFFFFFFFFFFFFFFFFFFF AND DUP2 MSTORE PUSH1 0x20 ADD SWAP1 DUP2 MSTORE PUSH1 0x20 ADD PUSH0 KECCAK256 PUSH0 SWAP1 SLOAD SWAP1 PUSH2 0x100 EXP SWAP1 DIV PUSH1 0xFF AND PUSH2 0x1910 JUMPI PUSH1 0x40 MLOAD PUSH32 0x8C379A000000000000000000000000000000000000000000000000000000000 DUP2 MSTORE PUSH1 0x4 ADD PUSH2 0x1907 SWAP1 PUSH2 0x3EE6 JUMP JUMPDEST PUSH1 0x40 MLOAD DUP1 SWAP2 SUB SWAP1 REVERT JUMPDEST PUSH0 PUSH1 0x3 PUSH0 DUP11 PUSH20 0xFFFFFFFFFFFFFFFFFFFFFFFFFFFFFFFFFFFFFFFF AND PUSH20 0xFFFFFFFFFFFFFFFFFFFFFFFFFFFFFFFFFFFFFFFF AND DUP2 MSTORE PUSH1 0x20 ADD SWAP1 DUP2 MSTORE PUSH1 0x20 ADD PUSH0 KECCAK256 SLOAD SWAP1 POP PUSH0 DUP1 DUP3 DUP2 SLOAD DUP2 LT PUSH2 0x1965 JUMPI PUSH2 0x1964 PUSH2 0x32A0 JUMP JUMPDEST JUMPDEST SWAP1 PUSH0 MSTORE PUSH1 0x20 PUSH0 KECCAK256 SWAP1 PUSH1 0x9 MUL ADD PUSH1 0x40 MLOAD DUP1 PUSH2 0x120 ADD PUSH1 0x40 MSTORE SWAP1 DUP2 PUSH0 DUP3 ADD PUSH0 SWAP1 SLOAD SWAP1 PUSH2 0x100 EXP SWAP1 DIV PUSH20 0xFFFFFFFFFFFFFFFFFFFFFFFFFFFFFFFFFFFFFFFF AND PUSH20 0xFFFFFFFFFFFFFFFFFFFFFFFFFFFFFFFFFFFFFFFF AND PUSH20 0xFFFFFFFFFFFFFFFFFFFFFFFFFFFFFFFFFFFFFFFF AND DUP2 MSTORE PUSH1 0x20 ADD PUSH1 0x1 DUP3 ADD DUP1 SLOAD PUSH2 0x19E1 SWAP1 PUSH2 0x317A JUMP JUMPDEST DUP1 PUSH1 0x1F ADD PUSH1 0x20 DUP1 SWAP2 DIV MUL PUSH1 0x20 ADD PUSH1 0x40 MLOAD SWAP1 DUP2 ADD PUSH1 0x40 MSTORE DUP1 SWAP3 SWAP2 SWAP1 DUP2 DUP2 MSTORE PUSH1 0x20 ADD DUP3 DUP1 SLOAD PUSH2 0x1A0D SWAP1 PUSH2 0x317A JUMP JUMPDEST DUP1 ISZERO PUSH2 0x1A58 JUMPI DUP1 PUSH1 0x1F LT PUSH2 0x1A2F JUMPI PUSH2 0x100 DUP1 DUP4 SLOAD DIV MUL DUP4 MSTORE SWAP2 PUSH1 0x20 ADD SWAP2 PUSH2 0x1A58 JUMP JUMPDEST DUP3 ADD SWAP2 SWAP1 PUSH0 MSTORE PUSH1 0x20 PUSH0 KECCAK256 SWAP1 JUMPDEST DUP2 SLOAD DUP2 MSTORE SWAP1 PUSH1 0x1 ADD SWAP1 PUSH1 0x20 ADD DUP1 DUP4 GT PUSH2 0x1A3B JUMPI DUP3 SWAP1 SUB PUSH1 0x1F AND DUP3 ADD SWAP2 JUMPDEST POP POP POP POP POP DUP2 MSTORE PUSH1 0x20 ADD PUSH1 0x2 DUP3 ADD SLOAD DUP2 MSTORE PUSH1 0x20 ADD PUSH1 0x3 DUP3 ADD SLOAD DUP2 MSTORE PUSH1 0x20 ADD PUSH1 0x4 DUP3 ADD DUP1 SLOAD PUSH2 0x1A85 SWAP1 PUSH2 0x317A JUMP JUMPDEST DUP1 PUSH1 0x1F ADD PUSH1 0x20 DUP1 SWAP2 DIV MUL PUSH1 0x20 ADD PUSH1 0x40 MLOAD SWAP1 DUP2 ADD PUSH1 0x40 MSTORE DUP1 SWAP3 SWAP2 SWAP1 DUP2 DUP2 MSTORE PUSH1 0x20 ADD DUP3 DUP1 SLOAD PUSH2 0x1AB1 SWAP1 PUSH2 0x317A JUMP JUMPDEST DUP1 ISZERO PUSH2 0x1AFC JUMPI DUP1 PUSH1 0x1F LT PUSH2 0x1AD3 JUMPI PUSH2 0x100 DUP1 DUP4 SLOAD DIV MUL DUP4 MSTORE SWAP2 PUSH1 0x20 ADD SWAP2 PUSH2 0x1AFC JUMP JUMPDEST DUP3 ADD SWAP2 SWAP1 PUSH0 MSTORE PUSH1 0x20 PUSH0 KECCAK256 SWAP1 JUMPDEST DUP2 SLOAD DUP2 MSTORE SWAP1 PUSH1 0x1 ADD SWAP1 PUSH1 0x20 ADD DUP1 DUP4 GT PUSH2 0x1ADF JUMPI DUP3 SWAP1 SUB PUSH1 0x1F AND DUP3 ADD SWAP2 JUMPDEST POP POP POP POP POP DUP2 MSTORE PUSH1 0x20 ADD PUSH1 0x5 DUP3 ADD DUP1 SLOAD PUSH2 0x1B15 SWAP1 PUSH2 0x317A JUMP JUMPDEST DUP1 PUSH1 0x1F ADD PUSH1 0x20 DUP1 SWAP2 DIV MUL PUSH1 0x20 ADD PUSH1 0x40 MLOAD SWAP1 DUP2 ADD PUSH1 0x40 MSTORE DUP1 SWAP3 SWAP2 SWAP1 DUP2 DUP2 MSTORE PUSH1 0x20 ADD DUP3 DUP1 SLOAD PUSH2 0x1B41 SWAP1 PUSH2 0x317A JUMP JUMPDEST DUP1 ISZERO PUSH2 0x1B8C JUMPI DUP1 PUSH1 0x1F LT PUSH2 0x1B63 JUMPI PUSH2 0x100 DUP1 DUP4 SLOAD DIV MUL DUP4 MSTORE SWAP2 PUSH1 0x20 ADD SWAP2 PUSH2 0x1B8C JUMP JUMPDEST DUP3 ADD SWAP2 SWAP1 PUSH0 MSTORE PUSH1 0x20 PUSH0 KECCAK256 SWAP1 JUMPDEST DUP2 SLOAD DUP2 MSTORE SWAP1 PUSH1 0x1 ADD SWAP1 PUSH1 0x20 ADD DUP1 DUP4 GT PUSH2 0x1B6F JUMPI DUP3 SWAP1 SUB PUSH1 0x1F AND DUP3 ADD SWAP2 JUMPDEST POP POP POP POP POP DUP2 MSTORE PUSH1 0x20 ADD PUSH1 0x6 DUP3 ADD SLOAD DUP2 MSTORE PUSH1 0x20 ADD PUSH1 0x7 DUP3 ADD SLOAD DUP2 MSTORE PUSH1 0x20 ADD PUSH1 0x8 DUP3 ADD PUSH0 SWAP1 SLOAD SWAP1 PUSH2 0x100 EXP SWAP1 DIV PUSH1 0xFF AND ISZERO ISZERO ISZERO ISZERO DUP2 MSTORE POP POP SWAP1 POP PUSH0 DUP11 PUSH20 0xFFFFFFFFFFFFFFFFFFFFFFFFFFFFFFFFFFFFFFFF AND CALLER PUSH20 0xFFFFFFFFFFFFFFFFFFFFFFFFFFFFFFFFFFFFFFFF AND EQ DUP1 ISZERO PUSH2 0x1C12 JUMPI POP PUSH2 0x708 DUP3 PUSH1 0xE0 ADD MLOAD PUSH2 0x1C0E SWAP2 SWAP1 PUSH2 0x3500 JUMP JUMPDEST TIMESTAMP GT ISZERO JUMPDEST PUSH2 0x1C1C JUMPI PUSH0 PUSH2 0x1C22 JUMP JUMPDEST DUP2 PUSH1 0xC0 ADD MLOAD JUMPDEST SWAP1 POP DUP2 PUSH1 0x20 ADD MLOAD DUP3 PUSH1 0x40 ADD MLOAD DUP4 PUSH1 0x60 ADD MLOAD DUP5 PUSH1 0x80 ADD MLOAD DUP6 PUSH1 0xA0 ADD MLOAD DUP6 DUP8 PUSH2 0x100 ADD MLOAD SWAP10 POP SWAP10 POP SWAP10 POP SWAP10 POP SWAP10 POP SWAP10 POP SWAP10 POP POP POP POP SWAP2 SWAP4 SWAP6 SWAP8 SWAP1 SWAP3 SWAP5 SWAP7 POP JUMP JUMPDEST PUSH0 PUSH1 0x1 DUP1 SLOAD SWAP1 POP SWAP1 POP SWAP1 JUMP JUMPDEST PUSH0 PUSH1 0x7 PUSH0 DUP4 PUSH20 0xFFFFFFFFFFFFFFFFFFFFFFFFFFFFFFFFFFFFFFFF AND PUSH20 0xFFFFFFFFFFFFFFFFFFFFFFFFFFFFFFFFFFFFFFFF AND DUP2 MSTORE PUSH1 0x20 ADD SWAP1 DUP2 MSTORE PUSH1 0x20 ADD PUSH0 KECCAK256 PUSH0 SWAP1 SLOAD SWAP1 PUSH2 0x100 EXP SWAP1 DIV PUSH1 0xFF AND PUSH2 0x1CF6 JUMPI PUSH1 0x40 MLOAD PUSH32 0x8C379A000000000000000000000000000000000000000000000000000000000 DUP2 MSTORE PUSH1 0x4 ADD PUSH2 0x1CED SWAP1 PUSH2 0x3F4E JUMP JUMPDEST PUSH1 0x40 MLOAD DUP1 SWAP2 SUB SWAP1 REVERT JUMPDEST PUSH0 DUP1 JUMPDEST PUSH1 0x2 DUP1 SLOAD SWAP1 POP DUP2 LT ISZERO PUSH2 0x1D97 JUMPI DUP4 PUSH20 0xFFFFFFFFFFFFFFFFFFFFFFFFFFFFFFFFFFFFFFFF AND PUSH1 0x2 DUP3 DUP2 SLOAD DUP2 LT PUSH2 0x1D31 JUMPI PUSH2 0x1D30 PUSH2 0x32A0 JUMP JUMPDEST JUMPDEST SWAP1 PUSH0 MSTORE PUSH1 0x20 PUSH0 KECCAK256 SWAP1 PUSH1 0x5 MUL ADD PUSH1 0x3 ADD PUSH0 SWAP1 SLOAD SWAP1 PUSH2 0x100 EXP SWAP1 DIV PUSH20 0xFFFFFFFFFFFFFFFFFFFFFFFFFFFFFFFFFFFFFFFF AND PUSH20 0xFFFFFFFFFFFFFFFFFFFFFFFFFFFFFFFFFFFFFFFF AND SUB PUSH2 0x1D8A JUMPI DUP2 DUP1 PUSH2 0x1D86 SWAP1 PUSH2 0x3F6C JUMP JUMPDEST SWAP3 POP POP JUMPDEST DUP1 DUP1 PUSH1 0x1 ADD SWAP2 POP POP PUSH2 0x1CF9 JUMP JUMPDEST POP DUP1 SWAP2 POP POP SWAP2 SWAP1 POP JUMP JUMPDEST PUSH1 0x60 DUP1 PUSH1 0x7 PUSH0 DUP5 PUSH20 0xFFFFFFFFFFFFFFFFFFFFFFFFFFFFFFFFFFFFFFFF AND PUSH20 0xFFFFFFFFFFFFFFFFFFFFFFFFFFFFFFFFFFFFFFFF AND DUP2 MSTORE PUSH1 0x20 ADD SWAP1 DUP2 MSTORE PUSH1 0x20 ADD PUSH0 KECCAK256 PUSH0 SWAP1 SLOAD SWAP1 PUSH2 0x100 EXP SWAP1 DIV PUSH1 0xFF AND PUSH2 0x1E2D JUMPI PUSH1 0x40 MLOAD PUSH32 0x8C379A000000000000000000000000000000000000000000000000000000000 DUP2 MSTORE PUSH1 0x4 ADD PUSH2 0x1E24 SWAP1 PUSH2 0x3FFD JUMP JUMPDEST PUSH1 0x40 MLOAD DUP1 SWAP2 SUB SWAP1 REVERT JUMPDEST PUSH0 PUSH1 0x5 PUSH0 DUP6 PUSH20 0xFFFFFFFFFFFFFFFFFFFFFFFFFFFFFFFFFFFFFFFF AND PUSH20 0xFFFFFFFFFFFFFFFFFFFFFFFFFFFFFFFFFFFFFFFF AND DUP2 MSTORE PUSH1 0x20 ADD SWAP1 DUP2 MSTORE PUSH1 0x20 ADD PUSH0 KECCAK256 SLOAD SWAP1 POP PUSH0 PUSH1 0x1 DUP3 DUP2 SLOAD DUP2 LT PUSH2 0x1E83 JUMPI PUSH2 0x1E82 PUSH2 0x32A0 JUMP JUMPDEST JUMPDEST SWAP1 PUSH0 MSTORE PUSH1 0x20 PUSH0 KECCAK256 SWAP1 PUSH1 0x3 MUL ADD PUSH1 0x40 MLOAD DUP1 PUSH1 0x60 ADD PUSH1 0x40 MSTORE SWAP1 DUP2 PUSH0 DUP3 ADD PUSH0 SWAP1 SLOAD SWAP1 PUSH2 0x100 EXP SWAP1 DIV PUSH20 0xFFFFFFFFFFFFFFFFFFFFFFFFFFFFFFFFFFFFFFFF AND PUSH20 0xFFFFFFFFFFFFFFFFFFFFFFFFFFFFFFFFFFFFFFFF AND PUSH20 0xFFFFFFFFFFFFFFFFFFFFFFFFFFFFFFFFFFFFFFFF AND DUP2 MSTORE PUSH1 0x20 ADD PUSH1 0x1 DUP3 ADD DUP1 SLOAD PUSH2 0x1EFE SWAP1 PUSH2 0x317A JUMP JUMPDEST DUP1 PUSH1 0x1F ADD PUSH1 0x20 DUP1 SWAP2 DIV MUL PUSH1 0x20 ADD PUSH1 0x40 MLOAD SWAP1 DUP2 ADD PUSH1 0x40 MSTORE DUP1 SWAP3 SWAP2 SWAP1 DUP2 DUP2 MSTORE PUSH1 0x20 ADD DUP3 DUP1 SLOAD PUSH2 0x1F2A SWAP1 PUSH2 0x317A JUMP JUMPDEST DUP1 ISZERO PUSH2 0x1F75 JUMPI DUP1 PUSH1 0x1F LT PUSH2 0x1F4C JUMPI PUSH2 0x100 DUP1 DUP4 SLOAD DIV MUL DUP4 MSTORE SWAP2 PUSH1 0x20 ADD SWAP2 PUSH2 0x1F75 JUMP JUMPDEST DUP3 ADD SWAP2 SWAP1 PUSH0 MSTORE PUSH1 0x20 PUSH0 KECCAK256 SWAP1 JUMPDEST DUP2 SLOAD DUP2 MSTORE SWAP1 PUSH1 0x1 ADD SWAP1 PUSH1 0x20 ADD DUP1 DUP4 GT PUSH2 0x1F58 JUMPI DUP3 SWAP1 SUB PUSH1 0x1F AND DUP3 ADD SWAP2 JUMPDEST POP POP POP POP POP DUP2 MSTORE PUSH1 0x20 ADD PUSH1 0x2 DUP3 ADD DUP1 SLOAD PUSH2 0x1F8E SWAP1 PUSH2 0x317A JUMP JUMPDEST DUP1 PUSH1 0x1F ADD PUSH1 0x20 DUP1 SWAP2 DIV MUL PUSH1 0x20 ADD PUSH1 0x40 MLOAD SWAP1 DUP2 ADD PUSH1 0x40 MSTORE DUP1 SWAP3 SWAP2 SWAP1 DUP2 DUP2 MSTORE PUSH1 0x20 ADD DUP3 DUP1 SLOAD PUSH2 0x1FBA SWAP1 PUSH2 0x317A JUMP JUMPDEST DUP1 ISZERO PUSH2 0x2005 JUMPI DUP1 PUSH1 0x1F LT PUSH2 0x1FDC JUMPI PUSH2 0x100 DUP1 DUP4 SLOAD DIV MUL DUP4 MSTORE SWAP2 PUSH1 0x20 ADD SWAP2 PUSH2 0x2005 JUMP JUMPDEST DUP3 ADD SWAP2 SWAP1 PUSH0 MSTORE PUSH1 0x20 PUSH0 KECCAK256 SWAP1 JUMPDEST DUP2 SLOAD DUP2 MSTORE SWAP1 PUSH1 0x1 ADD SWAP1 PUSH1 0x20 ADD DUP1 DUP4 GT PUSH2 0x1FE8 JUMPI DUP3 SWAP1 SUB PUSH1 0x1F AND DUP3 ADD SWAP2 JUMPDEST POP POP POP POP POP DUP2 MSTORE POP POP SWAP1 POP DUP1 PUSH1 0x20 ADD MLOAD DUP2 PUSH1 0x40 ADD MLOAD SWAP4 POP SWAP4 POP POP POP SWAP2 POP SWAP2 JUMP JUMPDEST PUSH1 0x60 PUSH0 DUP1 SLOAD DUP1 PUSH1 0x20 MUL PUSH1 0x20 ADD PUSH1 0x40 MLOAD SWAP1 DUP2 ADD PUSH1 0x40 MSTORE DUP1 SWAP3 SWAP2 SWAP1 DUP2 DUP2 MSTORE PUSH1 0x20 ADD PUSH0 SWAP1 JUMPDEST DUP3 DUP3 LT ISZERO PUSH2 0x22BE JUMPI DUP4 DUP3 SWAP1 PUSH0 MSTORE PUSH1 0x20 PUSH0 KECCAK256 SWAP1 PUSH1 0x9 MUL ADD PUSH1 0x40 MLOAD DUP1 PUSH2 0x120 ADD PUSH1 0x40 MSTORE SWAP1 DUP2 PUSH0 DUP3 ADD PUSH0 SWAP1 SLOAD SWAP1 PUSH2 0x100 EXP SWAP1 DIV PUSH20 0xFFFFFFFFFFFFFFFFFFFFFFFFFFFFFFFFFFFFFFFF AND PUSH20 0xFFFFFFFFFFFFFFFFFFFFFFFFFFFFFFFFFFFFFFFF AND PUSH20 0xFFFFFFFFFFFFFFFFFFFFFFFFFFFFFFFFFFFFFFFF AND DUP2 MSTORE PUSH1 0x20 ADD PUSH1 0x1 DUP3 ADD DUP1 SLOAD PUSH2 0x20CD SWAP1 PUSH2 0x317A JUMP JUMPDEST DUP1 PUSH1 0x1F ADD PUSH1 0x20 DUP1 SWAP2 DIV MUL PUSH1 0x20 ADD PUSH1 0x40 MLOAD SWAP1 DUP2 ADD PUSH1 0x40 MSTORE DUP1 SWAP3 SWAP2 SWAP1 DUP2 DUP2 MSTORE PUSH1 0x20 ADD DUP3 DUP1 SLOAD PUSH2 0x20F9 SWAP1 PUSH2 0x317A JUMP JUMPDEST DUP1 ISZERO PUSH2 0x2144 JUMPI DUP1 PUSH1 0x1F LT PUSH2 0x211B JUMPI PUSH2 0x100 DUP1 DUP4 SLOAD DIV MUL DUP4 MSTORE SWAP2 PUSH1 0x20 ADD SWAP2 PUSH2 0x2144 JUMP JUMPDEST DUP3 ADD SWAP2 SWAP1 PUSH0 MSTORE PUSH1 0x20 PUSH0 KECCAK256 SWAP1 JUMPDEST DUP2 SLOAD DUP2 MSTORE SWAP1 PUSH1 0x1 ADD SWAP1 PUSH1 0x20 ADD DUP1 DUP4 GT PUSH2 0x2127 JUMPI DUP3 SWAP1 SUB PUSH1 0x1F AND DUP3 ADD SWAP2 JUMPDEST POP POP POP POP POP DUP2 MSTORE PUSH1 0x20 ADD PUSH1 0x2 DUP3 ADD SLOAD DUP2 MSTORE PUSH1 0x20 ADD PUSH1 0x3 DUP3 ADD SLOAD DUP2 MSTORE PUSH1 0x20 ADD PUSH1 0x4 DUP3 ADD DUP1 SLOAD PUSH2 0x2171 SWAP1 PUSH2 0x317A JUMP JUMPDEST DUP1 PUSH1 0x1F ADD PUSH1 0x20 DUP1 SWAP2 DIV MUL PUSH1 0x20 ADD PUSH1 0x40 MLOAD SWAP1 DUP2 ADD PUSH1 0x40 MSTORE DUP1 SWAP3 SWAP2 SWAP1 DUP2 DUP2 MSTORE PUSH1 0x20 ADD DUP3 DUP1 SLOAD PUSH2 0x219D SWAP1 PUSH2 0x317A JUMP JUMPDEST DUP1 ISZERO PUSH2 0x21E8 JUMPI DUP1 PUSH1 0x1F LT PUSH2 0x21BF JUMPI PUSH2 0x100 DUP1 DUP4 SLOAD DIV MUL DUP4 MSTORE SWAP2 PUSH1 0x20 ADD SWAP2 PUSH2 0x21E8 JUMP JUMPDEST DUP3 ADD SWAP2 SWAP1 PUSH0 MSTORE PUSH1 0x20 PUSH0 KECCAK256 SWAP1 JUMPDEST DUP2 SLOAD DUP2 MSTORE SWAP1 PUSH1 0x1 ADD SWAP1 PUSH1 0x20 ADD DUP1 DUP4 GT PUSH2 0x21CB JUMPI DUP3 SWAP1 SUB PUSH1 0x1F AND DUP3 ADD SWAP2 JUMPDEST POP POP POP POP POP DUP2 MSTORE PUSH1 0x20 ADD PUSH1 0x5 DUP3 ADD DUP1 SLOAD PUSH2 0x2201 SWAP1 PUSH2 0x317A JUMP JUMPDEST DUP1 PUSH1 0x1F ADD PUSH1 0x20 DUP1 SWAP2 DIV MUL PUSH1 0x20 ADD PUSH1 0x40 MLOAD SWAP1 DUP2 ADD PUSH1 0x40 MSTORE DUP1 SWAP3 SWAP2 SWAP1 DUP2 DUP2 MSTORE PUSH1 0x20 ADD DUP3 DUP1 SLOAD PUSH2 0x222D SWAP1 PUSH2 0x317A JUMP JUMPDEST DUP1 ISZERO PUSH2 0x2278 JUMPI DUP1 PUSH1 0x1F LT PUSH2 0x224F JUMPI PUSH2 0x100 DUP1 DUP4 SLOAD DIV MUL DUP4 MSTORE SWAP2 PUSH1 0x20 ADD SWAP2 PUSH2 0x2278 JUMP JUMPDEST DUP3 ADD SWAP2 SWAP1 PUSH0 MSTORE PUSH1 0x20 PUSH0 KECCAK256 SWAP1 JUMPDEST DUP2 SLOAD DUP2 MSTORE SWAP1 PUSH1 0x1 ADD SWAP1 PUSH1 0x20 ADD DUP1 DUP4 GT PUSH2 0x225B JUMPI DUP3 SWAP1 SUB PUSH1 0x1F AND DUP3 ADD SWAP2 JUMPDEST POP POP POP POP POP DUP2 MSTORE PUSH1 0x20 ADD PUSH1 0x6 DUP3 ADD SLOAD DUP2 MSTORE PUSH1 0x20 ADD PUSH1 0x7 DUP3 ADD SLOAD DUP2 MSTORE PUSH1 0x20 ADD PUSH1 0x8 DUP3 ADD PUSH0 SWAP1 SLOAD SWAP1 PUSH2 0x100 EXP SWAP1 DIV PUSH1 0xFF AND ISZERO ISZERO ISZERO ISZERO DUP2 MSTORE POP POP DUP2 MSTORE PUSH1 0x20 ADD SWAP1 PUSH1 0x1 ADD SWAP1 PUSH2 0x2047 JUMP JUMPDEST POP POP POP POP SWAP1 POP SWAP1 JUMP JUMPDEST PUSH1 0x60 PUSH1 0x7 PUSH0 DUP4 PUSH20 0xFFFFFFFFFFFFFFFFFFFFFFFFFFFFFFFFFFFFFFFF AND PUSH20 0xFFFFFFFFFFFFFFFFFFFFFFFFFFFFFFFFFFFFFFFF AND DUP2 MSTORE PUSH1 0x20 ADD SWAP1 DUP2 MSTORE PUSH1 0x20 ADD PUSH0 KECCAK256 PUSH0 SWAP1 SLOAD SWAP1 PUSH2 0x100 EXP SWAP1 DIV PUSH1 0xFF AND PUSH2 0x2352 JUMPI PUSH1 0x40 MLOAD PUSH32 0x8C379A000000000000000000000000000000000000000000000000000000000 DUP2 MSTORE PUSH1 0x4 ADD PUSH2 0x2349 SWAP1 PUSH2 0x3F4E JUMP JUMPDEST PUSH1 0x40 MLOAD DUP1 SWAP2 SUB SWAP1 REVERT JUMPDEST PUSH0 DUP1 JUMPDEST PUSH1 0x2 DUP1 SLOAD SWAP1 POP DUP2 LT ISZERO PUSH2 0x23F3 JUMPI DUP4 PUSH20 0xFFFFFFFFFFFFFFFFFFFFFFFFFFFFFFFFFFFFFFFF AND PUSH1 0x2 DUP3 DUP2 SLOAD DUP2 LT PUSH2 0x238D JUMPI PUSH2 0x238C PUSH2 0x32A0 JUMP JUMPDEST JUMPDEST SWAP1 PUSH0 MSTORE PUSH1 0x20 PUSH0 KECCAK256 SWAP1 PUSH1 0x5 MUL ADD PUSH1 0x3 ADD PUSH0 SWAP1 SLOAD SWAP1 PUSH2 0x100 EXP SWAP1 DIV PUSH20 0xFFFFFFFFFFFFFFFFFFFFFFFFFFFFFFFFFFFFFFFF AND PUSH20 0xFFFFFFFFFFFFFFFFFFFFFFFFFFFFFFFFFFFFFFFF AND SUB PUSH2 0x23E6 JUMPI DUP2 DUP1 PUSH2 0x23E2 SWAP1 PUSH2 0x3F6C JUMP JUMPDEST SWAP3 POP POP JUMPDEST DUP1 DUP1 PUSH1 0x1 ADD SWAP2 POP POP PUSH2 0x2355 JUMP JUMPDEST POP PUSH0 DUP2 PUSH8 0xFFFFFFFFFFFFFFFF DUP2 GT ISZERO PUSH2 0x240F JUMPI PUSH2 0x240E PUSH2 0x2978 JUMP JUMPDEST JUMPDEST PUSH1 0x40 MLOAD SWAP1 DUP1 DUP3 MSTORE DUP1 PUSH1 0x20 MUL PUSH1 0x20 ADD DUP3 ADD PUSH1 0x40 MSTORE DUP1 ISZERO PUSH2 0x2448 JUMPI DUP2 PUSH1 0x20 ADD JUMPDEST PUSH2 0x2435 PUSH2 0x270C JUMP JUMPDEST DUP2 MSTORE PUSH1 0x20 ADD SWAP1 PUSH1 0x1 SWAP1 SUB SWAP1 DUP2 PUSH2 0x242D JUMPI SWAP1 POP JUMPDEST POP SWAP1 POP PUSH0 DUP1 JUMPDEST PUSH1 0x2 DUP1 SLOAD SWAP1 POP DUP2 LT ISZERO PUSH2 0x26BD JUMPI DUP6 PUSH20 0xFFFFFFFFFFFFFFFFFFFFFFFFFFFFFFFFFFFFFFFF AND PUSH1 0x2 DUP3 DUP2 SLOAD DUP2 LT PUSH2 0x2486 JUMPI PUSH2 0x2485 PUSH2 0x32A0 JUMP JUMPDEST JUMPDEST SWAP1 PUSH0 MSTORE PUSH1 0x20 PUSH0 KECCAK256 SWAP1 PUSH1 0x5 MUL ADD PUSH1 0x3 ADD PUSH0 SWAP1 SLOAD SWAP1 PUSH2 0x100 EXP SWAP1 DIV PUSH20 0xFFFFFFFFFFFFFFFFFFFFFFFFFFFFFFFFFFFFFFFF AND PUSH20 0xFFFFFFFFFFFFFFFFFFFFFFFFFFFFFFFFFFFFFFFF AND SUB PUSH2 0x26B0 JUMPI PUSH1 0x2 DUP2 DUP2 SLOAD DUP2 LT PUSH2 0x24E4 JUMPI PUSH2 0x24E3 PUSH2 0x32A0 JUMP JUMPDEST JUMPDEST SWAP1 PUSH0 MSTORE PUSH1 0x20 PUSH0 KECCAK256 SWAP1 PUSH1 0x5 MUL ADD PUSH1 0x40 MLOAD DUP1 PUSH1 0xA0 ADD PUSH1 0x40 MSTORE SWAP1 DUP2 PUSH0 DUP3 ADD DUP1 SLOAD PUSH2 0x250A SWAP1 PUSH2 0x317A JUMP JUMPDEST DUP1 PUSH1 0x1F ADD PUSH1 0x20 DUP1 SWAP2 DIV MUL PUSH1 0x20 ADD PUSH1 0x40 MLOAD SWAP1 DUP2 ADD PUSH1 0x40 MSTORE DUP1 SWAP3 SWAP2 SWAP1 DUP2 DUP2 MSTORE PUSH1 0x20 ADD DUP3 DUP1 SLOAD PUSH2 0x2536 SWAP1 PUSH2 0x317A JUMP JUMPDEST DUP1 ISZERO PUSH2 0x2581 JUMPI DUP1 PUSH1 0x1F LT PUSH2 0x2558 JUMPI PUSH2 0x100 DUP1 DUP4 SLOAD DIV MUL DUP4 MSTORE SWAP2 PUSH1 0x20 ADD SWAP2 PUSH2 0x2581 JUMP JUMPDEST DUP3 ADD SWAP2 SWAP1 PUSH0 MSTORE PUSH1 0x20 PUSH0 KECCAK256 SWAP1 JUMPDEST DUP2 SLOAD DUP2 MSTORE SWAP1 PUSH1 0x1 ADD SWAP1 PUSH1 0x20 ADD DUP1 DUP4 GT PUSH2 0x2564 JUMPI DUP3 SWAP1 SUB PUSH1 0x1F AND DUP3 ADD SWAP2 JUMPDEST POP POP POP POP POP DUP2 MSTORE PUSH1 0x20 ADD PUSH1 0x1 DUP3 ADD SLOAD DUP2 MSTORE PUSH1 0x20 ADD PUSH1 0x2 DUP3 ADD DUP1 SLOAD PUSH2 0x25A4 SWAP1 PUSH2 0x317A JUMP JUMPDEST DUP1 PUSH1 0x1F ADD PUSH1 0x20 DUP1 SWAP2 DIV MUL PUSH1 0x20 ADD PUSH1 0x40 MLOAD SWAP1 DUP2 ADD PUSH1 0x40 MSTORE DUP1 SWAP3 SWAP2 SWAP1 DUP2 DUP2 MSTORE PUSH1 0x20 ADD DUP3 DUP1 SLOAD PUSH2 0x25D0 SWAP1 PUSH2 0x317A JUMP JUMPDEST DUP1 ISZERO PUSH2 0x261B JUMPI DUP1 PUSH1 0x1F LT PUSH2 0x25F2 JUMPI PUSH2 0x100 DUP1 DUP4 SLOAD DIV MUL DUP4 MSTORE SWAP2 PUSH1 0x20 ADD SWAP2 PUSH2 0x261B JUMP JUMPDEST DUP3 ADD SWAP2 SWAP1 PUSH0 MSTORE PUSH1 0x20 PUSH0 KECCAK256 SWAP1 JUMPDEST DUP2 SLOAD DUP2 MSTORE SWAP1 PUSH1 0x1 ADD SWAP1 PUSH1 0x20 ADD DUP1 DUP4 GT PUSH2 0x25FE JUMPI DUP3 SWAP1 SUB PUSH1 0x1F AND DUP3 ADD SWAP2 JUMPDEST POP POP POP POP POP DUP2 MSTORE PUSH1 0x20 ADD PUSH1 0x3 DUP3 ADD PUSH0 SWAP1 SLOAD SWAP1 PUSH2 0x100 EXP SWAP1 DIV PUSH20 0xFFFFFFFFFFFFFFFFFFFFFFFFFFFFFFFFFFFFFFFF AND PUSH20 0xFFFFFFFFFFFFFFFFFFFFFFFFFFFFFFFFFFFFFFFF AND PUSH20 0xFFFFFFFFFFFFFFFFFFFFFFFFFFFFFFFFFFFFFFFF AND DUP2 MSTORE PUSH1 0x20 ADD PUSH1 0x4 DUP3 ADD SLOAD DUP2 MSTORE POP POP DUP4 DUP4 DUP2 MLOAD DUP2 LT PUSH2 0x2696 JUMPI PUSH2 0x2695 PUSH2 0x32A0 JUMP JUMPDEST JUMPDEST PUSH1 0x20 MUL PUSH1 0x20 ADD ADD DUP2 SWAP1 MSTORE POP DUP2 DUP1 PUSH2 0x26AC SWAP1 PUSH2 0x3F6C JUMP JUMPDEST SWAP3 POP POP JUMPDEST DUP1 DUP1 PUSH1 0x1 ADD SWAP2 POP POP PUSH2 0x244E JUMP JUMPDEST POP DUP2 SWAP4 POP POP POP POP SWAP2 SWAP1 POP JUMP JUMPDEST PUSH0 PUSH3 0xF4240 TIMESTAMP DUP4 PREVRANDAO PUSH1 0x40 MLOAD PUSH1 0x20 ADD PUSH2 0x26E3 SWAP4 SWAP3 SWAP2 SWAP1 PUSH2 0x4080 JUMP JUMPDEST PUSH1 0x40 MLOAD PUSH1 0x20 DUP2 DUP4 SUB SUB DUP2 MSTORE SWAP1 PUSH1 0x40 MSTORE DUP1 MLOAD SWAP1 PUSH1 0x20 ADD KECCAK256 PUSH0 SHR PUSH2 0x2705 SWAP2 SWAP1 PUSH2 0x40E9 JUMP JUMPDEST SWAP1 POP SWAP2 SWAP1 POP JUMP JUMPDEST PUSH1 0x40 MLOAD DUP1 PUSH1 0xA0 ADD PUSH1 0x40 MSTORE DUP1 PUSH1 0x60 DUP2 MSTORE PUSH1 0x20 ADD PUSH0 DUP2 MSTORE PUSH1 0x20 ADD PUSH1 0x60 DUP2 MSTORE PUSH1 0x20 ADD PUSH0 PUSH20 0xFFFFFFFFFFFFFFFFFFFFFFFFFFFFFFFFFFFFFFFF AND DUP2 MSTORE PUSH1 0x20 ADD PUSH0 DUP2 MSTORE POP SWAP1 JUMP JUMPDEST PUSH0 DUP2 MLOAD SWAP1 POP SWAP2 SWAP1 POP JUMP JUMPDEST PUSH0 DUP3 DUP3 MSTORE PUSH1 0x20 DUP3 ADD SWAP1 POP SWAP3 SWAP2 POP POP JUMP JUMPDEST PUSH0 DUP2 SWAP1 POP PUSH1 0x20 DUP3 ADD SWAP1 POP SWAP2 SWAP1 POP JUMP JUMPDEST PUSH0 PUSH20 0xFFFFFFFFFFFFFFFFFFFFFFFFFFFFFFFFFFFFFFFF DUP3 AND SWAP1 POP SWAP2 SWAP1 POP JUMP JUMPDEST PUSH0 PUSH2 0x27A0 DUP3 PUSH2 0x2777 JUMP JUMPDEST SWAP1 POP SWAP2 SWAP1 POP JUMP JUMPDEST PUSH2 0x27B0 DUP2 PUSH2 0x2796 JUMP JUMPDEST DUP3 MSTORE POP POP JUMP JUMPDEST PUSH0 DUP2 MLOAD SWAP1 POP SWAP2 SWAP1 POP JUMP JUMPDEST PUSH0 DUP3 DUP3 MSTORE PUSH1 0x20 DUP3 ADD SWAP1 POP SWAP3 SWAP2 POP POP JUMP JUMPDEST DUP3 DUP2 DUP4 MCOPY PUSH0 DUP4 DUP4 ADD MSTORE POP POP POP JUMP JUMPDEST PUSH0 PUSH1 0x1F NOT PUSH1 0x1F DUP4 ADD AND SWAP1 POP SWAP2 SWAP1 POP JUMP JUMPDEST PUSH0 PUSH2 0x27F8 DUP3 PUSH2 0x27B6 JUMP JUMPDEST PUSH2 0x2802 DUP2 DUP6 PUSH2 0x27C0 JUMP JUMPDEST SWAP4 POP PUSH2 0x2812 DUP2 DUP6 PUSH1 0x20 DUP7 ADD PUSH2 0x27D0 JUMP JUMPDEST PUSH2 0x281B DUP2 PUSH2 0x27DE JUMP JUMPDEST DUP5 ADD SWAP2 POP POP SWAP3 SWAP2 POP POP JUMP JUMPDEST PUSH0 PUSH1 0x60 DUP4 ADD PUSH0 DUP4 ADD MLOAD PUSH2 0x283B PUSH0 DUP7 ADD DUP3 PUSH2 0x27A7 JUMP JUMPDEST POP PUSH1 0x20 DUP4 ADD MLOAD DUP5 DUP3 SUB PUSH1 0x20 DUP7 ADD MSTORE PUSH2 0x2853 DUP3 DUP3 PUSH2 0x27EE JUMP JUMPDEST SWAP2 POP POP PUSH1 0x40 DUP4 ADD MLOAD DUP5 DUP3 SUB PUSH1 0x40 DUP7 ADD MSTORE PUSH2 0x286D DUP3 DUP3 PUSH2 0x27EE JUMP JUMPDEST SWAP2 POP POP DUP1 SWAP2 POP POP SWAP3 SWAP2 POP POP JUMP JUMPDEST PUSH0 PUSH2 0x2885 DUP4 DUP4 PUSH2 0x2826 JUMP JUMPDEST SWAP1 POP SWAP3 SWAP2 POP POP JUMP JUMPDEST PUSH0 PUSH1 0x20 DUP3 ADD SWAP1 POP SWAP2 SWAP1 POP JUMP JUMPDEST PUSH0 PUSH2 0x28A3 DUP3 PUSH2 0x274E JUMP JUMPDEST PUSH2 0x28AD DUP2 DUP6 PUSH2 0x2758 JUMP JUMPDEST SWAP4 POP DUP4 PUSH1 0x20 DUP3 MUL DUP6 ADD PUSH2 0x28BF DUP6 PUSH2 0x2768 JUMP JUMPDEST DUP1 PUSH0 JUMPDEST DUP6 DUP2 LT ISZERO PUSH2 0x28FA JUMPI DUP5 DUP5 SUB DUP10 MSTORE DUP2 MLOAD PUSH2 0x28DB DUP6 DUP3 PUSH2 0x287A JUMP JUMPDEST SWAP5 POP PUSH2 0x28E6 DUP4 PUSH2 0x288D JUMP JUMPDEST SWAP3 POP PUSH1 0x20 DUP11 ADD SWAP10 POP POP PUSH1 0x1 DUP2 ADD SWAP1 POP PUSH2 0x28C2 JUMP JUMPDEST POP DUP3 SWAP8 POP DUP8 SWAP6 POP POP POP POP POP POP SWAP3 SWAP2 POP POP JUMP JUMPDEST PUSH0 PUSH1 0x20 DUP3 ADD SWAP1 POP DUP2 DUP2 SUB PUSH0 DUP4 ADD MSTORE PUSH2 0x2924 DUP2 DUP5 PUSH2 0x2899 JUMP JUMPDEST SWAP1 POP SWAP3 SWAP2 POP POP JUMP JUMPDEST PUSH0 PUSH1 0x40 MLOAD SWAP1 POP SWAP1 JUMP JUMPDEST PUSH0 DUP1 REVERT JUMPDEST PUSH0 DUP1 REVERT JUMPDEST PUSH0 DUP2 SWAP1 POP SWAP2 SWAP1 POP JUMP JUMPDEST PUSH2 0x294F DUP2 PUSH2 0x293D JUMP JUMPDEST DUP2 EQ PUSH2 0x2959 JUMPI PUSH0 DUP1 REVERT JUMPDEST POP JUMP JUMPDEST PUSH0 DUP2 CALLDATALOAD SWAP1 POP PUSH2 0x296A DUP2 PUSH2 0x2946 JUMP JUMPDEST SWAP3 SWAP2 POP POP JUMP JUMPDEST PUSH0 DUP1 REVERT JUMPDEST PUSH0 DUP1 REVERT JUMPDEST PUSH32 0x4E487B7100000000000000000000000000000000000000000000000000000000 PUSH0 MSTORE PUSH1 0x41 PUSH1 0x4 MSTORE PUSH1 0x24 PUSH0 REVERT JUMPDEST PUSH2 0x29AE DUP3 PUSH2 0x27DE JUMP JUMPDEST DUP2 ADD DUP2 DUP2 LT PUSH8 0xFFFFFFFFFFFFFFFF DUP3 GT OR ISZERO PUSH2 0x29CD JUMPI PUSH2 0x29CC PUSH2 0x2978 JUMP JUMPDEST JUMPDEST DUP1 PUSH1 0x40 MSTORE POP POP POP JUMP JUMPDEST PUSH0 PUSH2 0x29DF PUSH2 0x292C JUMP JUMPDEST SWAP1 POP PUSH2 0x29EB DUP3 DUP3 PUSH2 0x29A5 JUMP JUMPDEST SWAP2 SWAP1 POP JUMP JUMPDEST PUSH0 PUSH8 0xFFFFFFFFFFFFFFFF DUP3 GT ISZERO PUSH2 0x2A0A JUMPI PUSH2 0x2A09 PUSH2 0x2978 JUMP JUMPDEST JUMPDEST PUSH2 0x2A13 DUP3 PUSH2 0x27DE JUMP JUMPDEST SWAP1 POP PUSH1 0x20 DUP2 ADD SWAP1 POP SWAP2 SWAP1 POP JUMP JUMPDEST DUP3 DUP2 DUP4 CALLDATACOPY PUSH0 DUP4 DUP4 ADD MSTORE POP POP POP JUMP JUMPDEST PUSH0 PUSH2 0x2A40 PUSH2 0x2A3B DUP5 PUSH2 0x29F0 JUMP JUMPDEST PUSH2 0x29D6 JUMP JUMPDEST SWAP1 POP DUP3 DUP2 MSTORE PUSH1 0x20 DUP2 ADD DUP5 DUP5 DUP5 ADD GT ISZERO PUSH2 0x2A5C JUMPI PUSH2 0x2A5B PUSH2 0x2974 JUMP JUMPDEST JUMPDEST PUSH2 0x2A67 DUP5 DUP3 DUP6 PUSH2 0x2A20 JUMP JUMPDEST POP SWAP4 SWAP3 POP POP POP JUMP JUMPDEST PUSH0 DUP3 PUSH1 0x1F DUP4 ADD SLT PUSH2 0x2A83 JUMPI PUSH2 0x2A82 PUSH2 0x2970 JUMP JUMPDEST JUMPDEST DUP2 CALLDATALOAD PUSH2 0x2A93 DUP5 DUP3 PUSH1 0x20 DUP7 ADD PUSH2 0x2A2E JUMP JUMPDEST SWAP2 POP POP SWAP3 SWAP2 POP POP JUMP JUMPDEST PUSH0 DUP2 ISZERO ISZERO SWAP1 POP SWAP2 SWAP1 POP JUMP JUMPDEST PUSH2 0x2AB0 DUP2 PUSH2 0x2A9C JUMP JUMPDEST DUP2 EQ PUSH2 0x2ABA JUMPI PUSH0 DUP1 REVERT JUMPDEST POP JUMP JUMPDEST PUSH0 DUP2 CALLDATALOAD SWAP1 POP PUSH2 0x2ACB DUP2 PUSH2 0x2AA7 JUMP JUMPDEST SWAP3 SWAP2 POP POP JUMP JUMPDEST PUSH2 0x2ADA DUP2 PUSH2 0x2796 JUMP JUMPDEST DUP2 EQ PUSH2 0x2AE4 JUMPI PUSH0 DUP1 REVERT JUMPDEST POP JUMP JUMPDEST PUSH0 DUP2 CALLDATALOAD SWAP1 POP PUSH2 0x2AF5 DUP2 PUSH2 0x2AD1 JUMP JUMPDEST SWAP3 SWAP2 POP POP JUMP JUMPDEST PUSH0 DUP1 PUSH0 DUP1 PUSH0 DUP1 PUSH1 0xC0 DUP8 DUP10 SUB SLT ISZERO PUSH2 0x2B15 JUMPI PUSH2 0x2B14 PUSH2 0x2935 JUMP JUMPDEST JUMPDEST PUSH0 PUSH2 0x2B22 DUP10 DUP3 DUP11 ADD PUSH2 0x295C JUMP JUMPDEST SWAP7 POP POP PUSH1 0x20 DUP8 ADD CALLDATALOAD PUSH8 0xFFFFFFFFFFFFFFFF DUP2 GT ISZERO PUSH2 0x2B43 JUMPI PUSH2 0x2B42 PUSH2 0x2939 JUMP JUMPDEST JUMPDEST PUSH2 0x2B4F DUP10 DUP3 DUP11 ADD PUSH2 0x2A6F JUMP JUMPDEST SWAP6 POP POP PUSH1 0x40 DUP8 ADD CALLDATALOAD PUSH8 0xFFFFFFFFFFFFFFFF DUP2 GT ISZERO PUSH2 0x2B70 JUMPI PUSH2 0x2B6F PUSH2 0x2939 JUMP JUMPDEST JUMPDEST PUSH2 0x2B7C DUP10 DUP3 DUP11 ADD PUSH2 0x2A6F JUMP JUMPDEST SWAP5 POP POP PUSH1 0x60 PUSH2 0x2B8D DUP10 DUP3 DUP11 ADD PUSH2 0x295C JUMP JUMPDEST SWAP4 POP POP PUSH1 0x80 PUSH2 0x2B9E DUP10 DUP3 DUP11 ADD PUSH2 0x2ABD JUMP JUMPDEST SWAP3 POP POP PUSH1 0xA0 PUSH2 0x2BAF DUP10 DUP3 DUP11 ADD PUSH2 0x2AE7 JUMP JUMPDEST SWAP2 POP POP SWAP3 SWAP6 POP SWAP3 SWAP6 POP SWAP3 SWAP6 JUMP JUMPDEST PUSH2 0x2BC5 DUP2 PUSH2 0x293D JUMP JUMPDEST DUP3 MSTORE POP POP JUMP JUMPDEST PUSH0 PUSH1 0x20 DUP3 ADD SWAP1 POP PUSH2 0x2BDE PUSH0 DUP4 ADD DUP5 PUSH2 0x2BBC JUMP JUMPDEST SWAP3 SWAP2 POP POP JUMP JUMPDEST PUSH0 DUP1 PUSH1 0x40 DUP4 DUP6 SUB SLT ISZERO PUSH2 0x2BFA JUMPI PUSH2 0x2BF9 PUSH2 0x2935 JUMP JUMPDEST JUMPDEST PUSH0 DUP4 ADD CALLDATALOAD PUSH8 0xFFFFFFFFFFFFFFFF DUP2 GT ISZERO PUSH2 0x2C17 JUMPI PUSH2 0x2C16 PUSH2 0x2939 JUMP JUMPDEST JUMPDEST PUSH2 0x2C23 DUP6 DUP3 DUP7 ADD PUSH2 0x2A6F JUMP JUMPDEST SWAP3 POP POP PUSH1 0x20 DUP4 ADD CALLDATALOAD PUSH8 0xFFFFFFFFFFFFFFFF DUP2 GT ISZERO PUSH2 0x2C44 JUMPI PUSH2 0x2C43 PUSH2 0x2939 JUMP JUMPDEST JUMPDEST PUSH2 0x2C50 DUP6 DUP3 DUP7 ADD PUSH2 0x2A6F JUMP JUMPDEST SWAP2 POP POP SWAP3 POP SWAP3 SWAP1 POP JUMP JUMPDEST PUSH0 DUP1 PUSH0 DUP1 PUSH1 0x80 DUP6 DUP8 SUB SLT ISZERO PUSH2 0x2C72 JUMPI PUSH2 0x2C71 PUSH2 0x2935 JUMP JUMPDEST JUMPDEST PUSH0 DUP6 ADD CALLDATALOAD PUSH8 0xFFFFFFFFFFFFFFFF DUP2 GT ISZERO PUSH2 0x2C8F JUMPI PUSH2 0x2C8E PUSH2 0x2939 JUMP JUMPDEST JUMPDEST PUSH2 0x2C9B DUP8 DUP3 DUP9 ADD PUSH2 0x2A6F JUMP JUMPDEST SWAP5 POP POP PUSH1 0x20 PUSH2 0x2CAC DUP8 DUP3 DUP9 ADD PUSH2 0x295C JUMP JUMPDEST SWAP4 POP POP PUSH1 0x40 PUSH2 0x2CBD DUP8 DUP3 DUP9 ADD PUSH2 0x295C JUMP JUMPDEST SWAP3 POP POP PUSH1 0x60 DUP6 ADD CALLDATALOAD PUSH8 0xFFFFFFFFFFFFFFFF DUP2 GT ISZERO PUSH2 0x2CDE JUMPI PUSH2 0x2CDD PUSH2 0x2939 JUMP JUMPDEST JUMPDEST PUSH2 0x2CEA DUP8 DUP3 DUP9 ADD PUSH2 0x2A6F JUMP JUMPDEST SWAP2 POP POP SWAP3 SWAP6 SWAP2 SWAP5 POP SWAP3 POP JUMP JUMPDEST PUSH0 PUSH1 0x20 DUP3 DUP5 SUB SLT ISZERO PUSH2 0x2D0B JUMPI PUSH2 0x2D0A PUSH2 0x2935 JUMP JUMPDEST JUMPDEST PUSH0 PUSH2 0x2D18 DUP5 DUP3 DUP6 ADD PUSH2 0x2AE7 JUMP JUMPDEST SWAP2 POP POP SWAP3 SWAP2 POP POP JUMP JUMPDEST PUSH0 DUP3 DUP3 MSTORE PUSH1 0x20 DUP3 ADD SWAP1 POP SWAP3 SWAP2 POP POP JUMP JUMPDEST PUSH0 PUSH2 0x2D3B DUP3 PUSH2 0x27B6 JUMP JUMPDEST PUSH2 0x2D45 DUP2 DUP6 PUSH2 0x2D21 JUMP JUMPDEST SWAP4 POP PUSH2 0x2D55 DUP2 DUP6 PUSH1 0x20 DUP7 ADD PUSH2 0x27D0 JUMP JUMPDEST PUSH2 0x2D5E DUP2 PUSH2 0x27DE JUMP JUMPDEST DUP5 ADD SWAP2 POP POP SWAP3 SWAP2 POP POP JUMP JUMPDEST PUSH2 0x2D72 DUP2 PUSH2 0x2A9C JUMP JUMPDEST DUP3 MSTORE POP POP JUMP JUMPDEST PUSH0 PUSH1 0xE0 DUP3 ADD SWAP1 POP DUP2 DUP2 SUB PUSH0 DUP4 ADD MSTORE PUSH2 0x2D90 DUP2 DUP11 PUSH2 0x2D31 JUMP JUMPDEST SWAP1 POP PUSH2 0x2D9F PUSH1 0x20 DUP4 ADD DUP10 PUSH2 0x2BBC JUMP JUMPDEST PUSH2 0x2DAC PUSH1 0x40 DUP4 ADD DUP9 PUSH2 0x2BBC JUMP JUMPDEST DUP2 DUP2 SUB PUSH1 0x60 DUP4 ADD MSTORE PUSH2 0x2DBE DUP2 DUP8 PUSH2 0x2D31 JUMP JUMPDEST SWAP1 POP DUP2 DUP2 SUB PUSH1 0x80 DUP4 ADD MSTORE PUSH2 0x2DD2 DUP2 DUP7 PUSH2 0x2D31 JUMP JUMPDEST SWAP1 POP PUSH2 0x2DE1 PUSH1 0xA0 DUP4 ADD DUP6 PUSH2 0x2BBC JUMP JUMPDEST PUSH2 0x2DEE PUSH1 0xC0 DUP4 ADD DUP5 PUSH2 0x2D69 JUMP JUMPDEST SWAP9 SWAP8 POP POP POP POP POP POP POP POP JUMP JUMPDEST PUSH0 PUSH1 0x40 DUP3 ADD SWAP1 POP DUP2 DUP2 SUB PUSH0 DUP4 ADD MSTORE PUSH2 0x2E12 DUP2 DUP6 PUSH2 0x2D31 JUMP JUMPDEST SWAP1 POP DUP2 DUP2 SUB PUSH1 0x20 DUP4 ADD MSTORE PUSH2 0x2E26 DUP2 DUP5 PUSH2 0x2D31 JUMP JUMPDEST SWAP1 POP SWAP4 SWAP3 POP POP POP JUMP JUMPDEST PUSH0 DUP2 MLOAD SWAP1 POP SWAP2 SWAP1 POP JUMP JUMPDEST PUSH0 DUP3 DUP3 MSTORE PUSH1 0x20 DUP3 ADD SWAP1 POP SWAP3 SWAP2 POP POP JUMP JUMPDEST PUSH0 DUP2 SWAP1 POP PUSH1 0x20 DUP3 ADD SWAP1 POP SWAP2 SWAP1 POP JUMP JUMPDEST PUSH2 0x2E61 DUP2 PUSH2 0x293D JUMP JUMPDEST DUP3 MSTORE POP POP JUMP JUMPDEST PUSH2 0x2E70 DUP2 PUSH2 0x2A9C JUMP JUMPDEST DUP3 MSTORE POP POP JUMP JUMPDEST PUSH0 PUSH2 0x120 DUP4 ADD PUSH0 DUP4 ADD MLOAD PUSH2 0x2E8C PUSH0 DUP7 ADD DUP3 PUSH2 0x27A7 JUMP JUMPDEST POP PUSH1 0x20 DUP4 ADD MLOAD DUP5 DUP3 SUB PUSH1 0x20 DUP7 ADD MSTORE PUSH2 0x2EA4 DUP3 DUP3 PUSH2 0x27EE JUMP JUMPDEST SWAP2 POP POP PUSH1 0x40 DUP4 ADD MLOAD PUSH2 0x2EB9 PUSH1 0x40 DUP7 ADD DUP3 PUSH2 0x2E58 JUMP JUMPDEST POP PUSH1 0x60 DUP4 ADD MLOAD PUSH2 0x2ECC PUSH1 0x60 DUP7 ADD DUP3 PUSH2 0x2E58 JUMP JUMPDEST POP PUSH1 0x80 DUP4 ADD MLOAD DUP5 DUP3 SUB PUSH1 0x80 DUP7 ADD MSTORE PUSH2 0x2EE4 DUP3 DUP3 PUSH2 0x27EE JUMP JUMPDEST SWAP2 POP POP PUSH1 0xA0 DUP4 ADD MLOAD DUP5 DUP3 SUB PUSH1 0xA0 DUP7 ADD MSTORE PUSH2 0x2EFE DUP3 DUP3 PUSH2 0x27EE JUMP JUMPDEST SWAP2 POP POP PUSH1 0xC0 DUP4 ADD MLOAD PUSH2 0x2F13 PUSH1 0xC0 DUP7 ADD DUP3 PUSH2 0x2E58 JUMP JUMPDEST POP PUSH1 0xE0 DUP4 ADD MLOAD PUSH2 0x2F26 PUSH1 0xE0 DUP7 ADD DUP3 PUSH2 0x2E58 JUMP JUMPDEST POP PUSH2 0x100 DUP4 ADD MLOAD PUSH2 0x2F3B PUSH2 0x100 DUP7 ADD DUP3 PUSH2 0x2E67 JUMP JUMPDEST POP DUP1 SWAP2 POP POP SWAP3 SWAP2 POP POP JUMP JUMPDEST PUSH0 PUSH2 0x2F51 DUP4 DUP4 PUSH2 0x2E76 JUMP JUMPDEST SWAP1 POP SWAP3 SWAP2 POP POP JUMP JUMPDEST PUSH0 PUSH1 0x20 DUP3 ADD SWAP1 POP SWAP2 SWAP1 POP JUMP JUMPDEST PUSH0 PUSH2 0x2F6F DUP3 PUSH2 0x2E2F JUMP JUMPDEST PUSH2 0x2F79 DUP2 DUP6 PUSH2 0x2E39 JUMP JUMPDEST SWAP4 POP DUP4 PUSH1 0x20 DUP3 MUL DUP6 ADD PUSH2 0x2F8B DUP6 PUSH2 0x2E49 JUMP JUMPDEST DUP1 PUSH0 JUMPDEST DUP6 DUP2 LT ISZERO PUSH2 0x2FC6 JUMPI DUP5 DUP5 SUB DUP10 MSTORE DUP2 MLOAD PUSH2 0x2FA7 DUP6 DUP3 PUSH2 0x2F46 JUMP JUMPDEST SWAP5 POP PUSH2 0x2FB2 DUP4 PUSH2 0x2F59 JUMP JUMPDEST SWAP3 POP PUSH1 0x20 DUP11 ADD SWAP10 POP POP PUSH1 0x1 DUP2 ADD SWAP1 POP PUSH2 0x2F8E JUMP JUMPDEST POP DUP3 SWAP8 POP DUP8 SWAP6 POP POP POP POP POP POP SWAP3 SWAP2 POP POP JUMP JUMPDEST PUSH0 PUSH1 0x20 DUP3 ADD SWAP1 POP DUP2 DUP2 SUB PUSH0 DUP4 ADD MSTORE PUSH2 0x2FF0 DUP2 DUP5 PUSH2 0x2F65 JUMP JUMPDEST SWAP1 POP SWAP3 SWAP2 POP POP JUMP JUMPDEST PUSH0 DUP2 MLOAD SWAP1 POP SWAP2 SWAP1 POP JUMP JUMPDEST PUSH0 DUP3 DUP3 MSTORE PUSH1 0x20 DUP3 ADD SWAP1 POP SWAP3 SWAP2 POP POP JUMP JUMPDEST PUSH0 DUP2 SWAP1 POP PUSH1 0x20 DUP3 ADD SWAP1 POP SWAP2 SWAP1 POP JUMP JUMPDEST PUSH0 PUSH1 0xA0 DUP4 ADD PUSH0 DUP4 ADD MLOAD DUP5 DUP3 SUB PUSH0 DUP7 ADD MSTORE PUSH2 0x303B DUP3 DUP3 PUSH2 0x27EE JUMP JUMPDEST SWAP2 POP POP PUSH1 0x20 DUP4 ADD MLOAD PUSH2 0x3050 PUSH1 0x20 DUP7 ADD DUP3 PUSH2 0x2E58 JUMP JUMPDEST POP PUSH1 0x40 DUP4 ADD MLOAD DUP5 DUP3 SUB PUSH1 0x40 DUP7 ADD MSTORE PUSH2 0x3068 DUP3 DUP3 PUSH2 0x27EE JUMP JUMPDEST SWAP2 POP POP PUSH1 0x60 DUP4 ADD MLOAD PUSH2 0x307D PUSH1 0x60 DUP7 ADD DUP3 PUSH2 0x27A7 JUMP JUMPDEST POP PUSH1 0x80 DUP4 ADD MLOAD PUSH2 0x3090 PUSH1 0x80 DUP7 ADD DUP3 PUSH2 0x2E58 JUMP JUMPDEST POP DUP1 SWAP2 POP POP SWAP3 SWAP2 POP POP JUMP JUMPDEST PUSH0 PUSH2 0x30A6 DUP4 DUP4 PUSH2 0x3021 JUMP JUMPDEST SWAP1 POP SWAP3 SWAP2 POP POP JUMP JUMPDEST PUSH0 PUSH1 0x20 DUP3 ADD SWAP1 POP SWAP2 SWAP1 POP JUMP JUMPDEST PUSH0 PUSH2 0x30C4 DUP3 PUSH2 0x2FF8 JUMP JUMPDEST PUSH2 0x30CE DUP2 DUP6 PUSH2 0x3002 JUMP JUMPDEST SWAP4 POP DUP4 PUSH1 0x20 DUP3 MUL DUP6 ADD PUSH2 0x30E0 DUP6 PUSH2 0x3012 JUMP JUMPDEST DUP1 PUSH0 JUMPDEST DUP6 DUP2 LT ISZERO PUSH2 0x311B JUMPI DUP5 DUP5 SUB DUP10 MSTORE DUP2 MLOAD PUSH2 0x30FC DUP6 DUP3 PUSH2 0x309B JUMP JUMPDEST SWAP5 POP PUSH2 0x3107 DUP4 PUSH2 0x30AE JUMP JUMPDEST SWAP3 POP PUSH1 0x20 DUP11 ADD SWAP10 POP POP PUSH1 0x1 DUP2 ADD SWAP1 POP PUSH2 0x30E3 JUMP JUMPDEST POP DUP3 SWAP8 POP DUP8 SWAP6 POP POP POP POP POP POP SWAP3 SWAP2 POP POP JUMP JUMPDEST PUSH0 PUSH1 0x20 DUP3 ADD SWAP1 POP DUP2 DUP2 SUB PUSH0 DUP4 ADD MSTORE PUSH2 0x3145 DUP2 DUP5 PUSH2 0x30BA JUMP JUMPDEST SWAP1 POP SWAP3 SWAP2 POP POP JUMP JUMPDEST PUSH32 0x4E487B7100000000000000000000000000000000000000000000000000000000 PUSH0 MSTORE PUSH1 0x22 PUSH1 0x4 MSTORE PUSH1 0x24 PUSH0 REVERT JUMPDEST PUSH0 PUSH1 0x2 DUP3 DIV SWAP1 POP PUSH1 0x1 DUP3 AND DUP1 PUSH2 0x3191 JUMPI PUSH1 0x7F DUP3 AND SWAP2 POP JUMPDEST PUSH1 0x20 DUP3 LT DUP2 SUB PUSH2 0x31A4 JUMPI PUSH2 0x31A3 PUSH2 0x314D JUMP JUMPDEST JUMPDEST POP SWAP2 SWAP1 POP JUMP JUMPDEST PUSH32 0x4F6E6C7920726567697374657265642073746166662063616E20706572666F72 PUSH0 DUP3 ADD MSTORE PUSH32 0x6D207468697320616374696F6E00000000000000000000000000000000000000 PUSH1 0x20 DUP3 ADD MSTORE POP JUMP JUMPDEST PUSH0 PUSH2 0x3204 PUSH1 0x2D DUP4 PUSH2 0x2D21 JUMP JUMPDEST SWAP2 POP PUSH2 0x320F DUP3 PUSH2 0x31AA JUMP JUMPDEST PUSH1 0x40 DUP3 ADD SWAP1 POP SWAP2 SWAP1 POP JUMP JUMPDEST PUSH0 PUSH1 0x20 DUP3 ADD SWAP1 POP DUP2 DUP2 SUB PUSH0 DUP4 ADD MSTORE PUSH2 0x3231 DUP2 PUSH2 0x31F8 JUMP JUMPDEST SWAP1 POP SWAP2 SWAP1 POP JUMP JUMPDEST PUSH0 DUP2 SWAP1 POP SWAP3 SWAP2 POP POP JUMP JUMPDEST PUSH32 0x446F63746F720000000000000000000000000000000000000000000000000000 PUSH0 DUP3 ADD MSTORE POP JUMP JUMPDEST PUSH0 PUSH2 0x3276 PUSH1 0x6 DUP4 PUSH2 0x3238 JUMP JUMPDEST SWAP2 POP PUSH2 0x3281 DUP3 PUSH2 0x3242 JUMP JUMPDEST PUSH1 0x6 DUP3 ADD SWAP1 POP SWAP2 SWAP1 POP JUMP JUMPDEST PUSH0 PUSH2 0x3296 DUP3 PUSH2 0x326A JUMP JUMPDEST SWAP2 POP DUP2 SWAP1 POP SWAP2 SWAP1 POP JUMP JUMPDEST PUSH32 0x4E487B7100000000000000000000000000000000000000000000000000000000 PUSH0 MSTORE PUSH1 0x32 PUSH1 0x4 MSTORE PUSH1 0x24 PUSH0 REVERT JUMPDEST PUSH0 DUP2 SWAP1 POP DUP2 PUSH0 MSTORE PUSH1 0x20 PUSH0 KECCAK256 SWAP1 POP SWAP2 SWAP1 POP JUMP JUMPDEST PUSH0 DUP2 SLOAD PUSH2 0x32EB DUP2 PUSH2 0x317A JUMP JUMPDEST PUSH2 0x32F5 DUP2 DUP7 PUSH2 0x3238 JUMP JUMPDEST SWAP5 POP PUSH1 0x1 DUP3 AND PUSH0 DUP2 EQ PUSH2 0x330F JUMPI PUSH1 0x1 DUP2 EQ PUSH2 0x3324 JUMPI PUSH2 0x3356 JUMP JUMPDEST PUSH1 0xFF NOT DUP4 AND DUP7 MSTORE DUP2 ISZERO ISZERO DUP3 MUL DUP7 ADD SWAP4 POP PUSH2 0x3356 JUMP JUMPDEST PUSH2 0x332D DUP6 PUSH2 0x32CD JUMP JUMPDEST PUSH0 JUMPDEST DUP4 DUP2 LT ISZERO PUSH2 0x334E JUMPI DUP2 SLOAD DUP2 DUP10 ADD MSTORE PUSH1 0x1 DUP3 ADD SWAP2 POP PUSH1 0x20 DUP2 ADD SWAP1 POP PUSH2 0x332F JUMP JUMPDEST DUP4 DUP9 ADD SWAP6 POP POP POP JUMPDEST POP POP POP SWAP3 SWAP2 POP POP JUMP JUMPDEST PUSH0 PUSH2 0x336A DUP3 DUP5 PUSH2 0x32DF JUMP JUMPDEST SWAP2 POP DUP2 SWAP1 POP SWAP3 SWAP2 POP POP JUMP JUMPDEST PUSH32 0x4F6E6C7920646F63746F72732063616E20706572666F726D2074686973206163 PUSH0 DUP3 ADD MSTORE PUSH32 0x74696F6E00000000000000000000000000000000000000000000000000000000 PUSH1 0x20 DUP3 ADD MSTORE POP JUMP JUMPDEST PUSH0 PUSH2 0x33CF PUSH1 0x24 DUP4 PUSH2 0x2D21 JUMP JUMPDEST SWAP2 POP PUSH2 0x33DA DUP3 PUSH2 0x3375 JUMP JUMPDEST PUSH1 0x40 DUP3 ADD SWAP1 POP SWAP2 SWAP1 POP JUMP JUMPDEST PUSH0 PUSH1 0x20 DUP3 ADD SWAP1 POP DUP2 DUP2 SUB PUSH0 DUP4 ADD MSTORE PUSH2 0x33FC DUP2 PUSH2 0x33C3 JUMP JUMPDEST SWAP1 POP SWAP2 SWAP1 POP JUMP JUMPDEST PUSH32 0x50617469656E74206E6F74207265676973746572656400000000000000000000 PUSH0 DUP3 ADD MSTORE POP JUMP JUMPDEST PUSH0 PUSH2 0x3437 PUSH1 0x16 DUP4 PUSH2 0x2D21 JUMP JUMPDEST SWAP2 POP PUSH2 0x3442 DUP3 PUSH2 0x3403 JUMP JUMPDEST PUSH1 0x20 DUP3 ADD SWAP1 POP SWAP2 SWAP1 POP JUMP JUMPDEST PUSH0 PUSH1 0x20 DUP3 ADD SWAP1 POP DUP2 DUP2 SUB PUSH0 DUP4 ADD MSTORE PUSH2 0x3464 DUP2 PUSH2 0x342B JUMP JUMPDEST SWAP1 POP SWAP2 SWAP1 POP JUMP JUMPDEST PUSH32 0x496E76616C69642061636365737320636F646500000000000000000000000000 PUSH0 DUP3 ADD MSTORE POP JUMP JUMPDEST PUSH0 PUSH2 0x349F PUSH1 0x13 DUP4 PUSH2 0x2D21 JUMP JUMPDEST SWAP2 POP PUSH2 0x34AA DUP3 PUSH2 0x346B JUMP JUMPDEST PUSH1 0x20 DUP3 ADD SWAP1 POP SWAP2 SWAP1 POP JUMP JUMPDEST PUSH0 PUSH1 0x20 DUP3 ADD SWAP1 POP DUP2 DUP2 SUB PUSH0 DUP4 ADD MSTORE PUSH2 0x34CC DUP2 PUSH2 0x3493 JUMP JUMPDEST SWAP1 POP SWAP2 SWAP1 POP JUMP JUMPDEST PUSH32 0x4E487B7100000000000000000000000000000000000000000000000000000000 PUSH0 MSTORE PUSH1 0x11 PUSH1 0x4 MSTORE PUSH1 0x24 PUSH0 REVERT JUMPDEST PUSH0 PUSH2 0x350A DUP3 PUSH2 0x293D JUMP JUMPDEST SWAP2 POP PUSH2 0x3515 DUP4 PUSH2 0x293D JUMP JUMPDEST SWAP3 POP DUP3 DUP3 ADD SWAP1 POP DUP1 DUP3 GT ISZERO PUSH2 0x352D JUMPI PUSH2 0x352C PUSH2 0x34D3 JUMP JUMPDEST JUMPDEST SWAP3 SWAP2 POP POP JUMP JUMPDEST PUSH32 0x41636365737320636F6465206578706972656400000000000000000000000000 PUSH0 DUP3 ADD MSTORE POP JUMP JUMPDEST PUSH0 PUSH2 0x3567 PUSH1 0x13 DUP4 PUSH2 0x2D21 JUMP JUMPDEST SWAP2 POP PUSH2 0x3572 DUP3 PUSH2 0x3533 JUMP JUMPDEST PUSH1 0x20 DUP3 ADD SWAP1 POP SWAP2 SWAP1 POP JUMP JUMPDEST PUSH0 PUSH1 0x20 DUP3 ADD SWAP1 POP DUP2 DUP2 SUB PUSH0 DUP4 ADD MSTORE PUSH2 0x3594 DUP2 PUSH2 0x355B JUMP JUMPDEST SWAP1 POP SWAP2 SWAP1 POP JUMP JUMPDEST PUSH32 0x4865616C7468207265636F72642063616E6E6F7420626520656D707479000000 PUSH0 DUP3 ADD MSTORE POP JUMP JUMPDEST PUSH0 PUSH2 0x35CF PUSH1 0x1D DUP4 PUSH2 0x2D21 JUMP JUMPDEST SWAP2 POP PUSH2 0x35DA DUP3 PUSH2 0x359B JUMP JUMPDEST PUSH1 0x20 DUP3 ADD SWAP1 POP SWAP2 SWAP1 POP JUMP JUMPDEST PUSH0 PUSH1 0x20 DUP3 ADD SWAP1 POP DUP2 DUP2 SUB PUSH0 DUP4 ADD MSTORE PUSH2 0x35FC DUP2 PUSH2 0x35C3 JUMP JUMPDEST SWAP1 POP SWAP2 SWAP1 POP JUMP JUMPDEST PUSH32 0x507265736372697074696F6E2063616E6E6F7420626520656D70747900000000 PUSH0 DUP3 ADD MSTORE POP JUMP JUMPDEST PUSH0 PUSH2 0x3637 PUSH1 0x1C DUP4 PUSH2 0x2D21 JUMP JUMPDEST SWAP2 POP PUSH2 0x3642 DUP3 PUSH2 0x3603 JUMP JUMPDEST PUSH1 0x20 DUP3 ADD SWAP1 POP SWAP2 SWAP1 POP JUMP JUMPDEST PUSH0 PUSH1 0x20 DUP3 ADD SWAP1 POP DUP2 DUP2 SUB PUSH0 DUP4 ADD MSTORE PUSH2 0x3664 DUP2 PUSH2 0x362B JUMP JUMPDEST SWAP1 POP SWAP2 SWAP1 POP JUMP JUMPDEST PUSH32 0x526563697069656E74206D757374206265207265676973746572656420737461 PUSH0 DUP3 ADD MSTORE PUSH32 0x6666000000000000000000000000000000000000000000000000000000000000 PUSH1 0x20 DUP3 ADD MSTORE POP JUMP JUMPDEST PUSH0 PUSH2 0x36C5 PUSH1 0x22 DUP4 PUSH2 0x2D21 JUMP JUMPDEST SWAP2 POP PUSH2 0x36D0 DUP3 PUSH2 0x366B JUMP JUMPDEST PUSH1 0x40 DUP3 ADD SWAP1 POP SWAP2 SWAP1 POP JUMP JUMPDEST PUSH0 PUSH1 0x20 DUP3 ADD SWAP1 POP DUP2 DUP2 SUB PUSH0 DUP4 ADD MSTORE PUSH2 0x36F2 DUP2 PUSH2 0x36B9 JUMP JUMPDEST SWAP1 POP SWAP2 SWAP1 POP JUMP JUMPDEST PUSH0 PUSH2 0x3703 DUP3 PUSH2 0x27B6 JUMP JUMPDEST PUSH2 0x370D DUP2 DUP6 PUSH2 0x3238 JUMP JUMPDEST SWAP4 POP PUSH2 0x371D DUP2 DUP6 PUSH1 0x20 DUP7 ADD PUSH2 0x27D0 JUMP JUMPDEST DUP1 DUP5 ADD SWAP2 POP POP SWAP3 SWAP2 POP POP JUMP JUMPDEST PUSH0 PUSH2 0x3734 DUP3 DUP5 PUSH2 0x36F9 JUMP JUMPDEST SWAP2 POP DUP2 SWAP1 POP SWAP3 SWAP2 POP POP JUMP JUMPDEST PUSH32 0x496E76616C696420726563697069656E7420726F6C6500000000000000000000 PUSH0 DUP3 ADD MSTORE POP JUMP JUMPDEST PUSH0 PUSH2 0x3773 PUSH1 0x16 DUP4 PUSH2 0x2D21 JUMP JUMPDEST SWAP2 POP PUSH2 0x377E DUP3 PUSH2 0x373F JUMP JUMPDEST PUSH1 0x20 DUP3 ADD SWAP1 POP SWAP2 SWAP1 POP JUMP JUMPDEST PUSH0 PUSH1 0x20 DUP3 ADD SWAP1 POP DUP2 DUP2 SUB PUSH0 DUP4 ADD MSTORE PUSH2 0x37A0 DUP2 PUSH2 0x3767 JUMP JUMPDEST SWAP1 POP SWAP2 SWAP1 POP JUMP JUMPDEST PUSH0 PUSH1 0x20 PUSH1 0x1F DUP4 ADD DIV SWAP1 POP SWAP2 SWAP1 POP JUMP JUMPDEST PUSH0 DUP3 DUP3 SHL SWAP1 POP SWAP3 SWAP2 POP POP JUMP JUMPDEST PUSH0 PUSH1 0x8 DUP4 MUL PUSH2 0x37F1 PUSH32 0xFFFFFFFFFFFFFFFFFFFFFFFFFFFFFFFFFFFFFFFFFFFFFFFFFFFFFFFFFFFFFFFF DUP3 PUSH2 0x37B6 JUMP JUMPDEST PUSH2 0x37FB DUP7 DUP4 PUSH2 0x37B6 JUMP JUMPDEST SWAP6 POP DUP1 NOT DUP5 AND SWAP4 POP DUP1 DUP7 AND DUP5 OR SWAP3 POP POP POP SWAP4 SWAP3 POP POP POP JUMP JUMPDEST PUSH0 DUP2 SWAP1 POP SWAP2 SWAP1 POP JUMP JUMPDEST PUSH0 PUSH2 0x3836 PUSH2 0x3831 PUSH2 0x382C DUP5 PUSH2 0x293D JUMP JUMPDEST PUSH2 0x3813 JUMP JUMPDEST PUSH2 0x293D JUMP JUMPDEST SWAP1 POP SWAP2 SWAP1 POP JUMP JUMPDEST PUSH0 DUP2 SWAP1 POP SWAP2 SWAP1 POP JUMP JUMPDEST PUSH2 0x384F DUP4 PUSH2 0x381C JUMP JUMPDEST PUSH2 0x3863 PUSH2 0x385B DUP3 PUSH2 0x383D JUMP JUMPDEST DUP5 DUP5 SLOAD PUSH2 0x37C2 JUMP JUMPDEST DUP3 SSTORE POP POP POP POP JUMP JUMPDEST PUSH0 SWAP1 JUMP JUMPDEST PUSH2 0x3877 PUSH2 0x386B JUMP JUMPDEST PUSH2 0x3882 DUP2 DUP5 DUP5 PUSH2 0x3846 JUMP JUMPDEST POP POP POP JUMP JUMPDEST JUMPDEST DUP2 DUP2 LT ISZERO PUSH2 0x38A5 JUMPI PUSH2 0x389A PUSH0 DUP3 PUSH2 0x386F JUMP JUMPDEST PUSH1 0x1 DUP2 ADD SWAP1 POP PUSH2 0x3888 JUMP JUMPDEST POP POP JUMP JUMPDEST PUSH1 0x1F DUP3 GT ISZERO PUSH2 0x38EA JUMPI PUSH2 0x38BB DUP2 PUSH2 0x32CD JUMP JUMPDEST PUSH2 0x38C4 DUP5 PUSH2 0x37A7 JUMP JUMPDEST DUP2 ADD PUSH1 0x20 DUP6 LT ISZERO PUSH2 0x38D3 JUMPI DUP2 SWAP1 POP JUMPDEST PUSH2 0x38E7 PUSH2 0x38DF DUP6 PUSH2 0x37A7 JUMP JUMPDEST DUP4 ADD DUP3 PUSH2 0x3887 JUMP JUMPDEST POP POP JUMPDEST POP POP POP JUMP JUMPDEST PUSH0 DUP3 DUP3 SHR SWAP1 POP SWAP3 SWAP2 POP POP JUMP JUMPDEST PUSH0 PUSH2 0x390A PUSH0 NOT DUP5 PUSH1 0x8 MUL PUSH2 0x38EF JUMP JUMPDEST NOT DUP1 DUP4 AND SWAP2 POP POP SWAP3 SWAP2 POP POP JUMP JUMPDEST PUSH0 PUSH2 0x3922 DUP4 DUP4 PUSH2 0x38FB JUMP JUMPDEST SWAP2 POP DUP3 PUSH1 0x2 MUL DUP3 OR SWAP1 POP SWAP3 SWAP2 POP POP JUMP JUMPDEST PUSH2 0x393B DUP3 PUSH2 0x27B6 JUMP JUMPDEST PUSH8 0xFFFFFFFFFFFFFFFF DUP2 GT ISZERO PUSH2 0x3954 JUMPI PUSH2 0x3953 PUSH2 0x2978 JUMP JUMPDEST JUMPDEST PUSH2 0x395E DUP3 SLOAD PUSH2 0x317A JUMP JUMPDEST PUSH2 0x3969 DUP3 DUP3 DUP6 PUSH2 0x38A9 JUMP JUMPDEST PUSH0 PUSH1 0x20 SWAP1 POP PUSH1 0x1F DUP4 GT PUSH1 0x1 DUP2 EQ PUSH2 0x399A JUMPI PUSH0 DUP5 ISZERO PUSH2 0x3988 JUMPI DUP3 DUP8 ADD MLOAD SWAP1 POP JUMPDEST PUSH2 0x3992 DUP6 DUP3 PUSH2 0x3917 JUMP JUMPDEST DUP7 SSTORE POP PUSH2 0x39F9 JUMP JUMPDEST PUSH1 0x1F NOT DUP5 AND PUSH2 0x39A8 DUP7 PUSH2 0x32CD JUMP JUMPDEST PUSH0 JUMPDEST DUP3 DUP2 LT ISZERO PUSH2 0x39CF JUMPI DUP5 DUP10 ADD MLOAD DUP3 SSTORE PUSH1 0x1 DUP3 ADD SWAP2 POP PUSH1 0x20 DUP6 ADD SWAP5 POP PUSH1 0x20 DUP2 ADD SWAP1 POP PUSH2 0x39AA JUMP JUMPDEST DUP7 DUP4 LT ISZERO PUSH2 0x39EC JUMPI DUP5 DUP10 ADD MLOAD PUSH2 0x39E8 PUSH1 0x1F DUP10 AND DUP3 PUSH2 0x38FB JUMP JUMPDEST DUP4 SSTORE POP JUMPDEST PUSH1 0x1 PUSH1 0x2 DUP9 MUL ADD DUP9 SSTORE POP POP POP JUMPDEST POP POP POP POP POP POP JUMP JUMPDEST PUSH0 PUSH1 0x20 DUP3 ADD SWAP1 POP DUP2 DUP2 SUB PUSH0 DUP4 ADD MSTORE PUSH2 0x3A19 DUP2 DUP5 PUSH2 0x2D31 JUMP JUMPDEST SWAP1 POP SWAP3 SWAP2 POP POP JUMP JUMPDEST PUSH32 0x4F6E6C7920726567697374657265642073747564656E74732063616E20706572 PUSH0 DUP3 ADD MSTORE PUSH32 0x666F726D207468697320616374696F6E00000000000000000000000000000000 PUSH1 0x20 DUP3 ADD MSTORE POP JUMP JUMPDEST PUSH0 PUSH2 0x3A7B PUSH1 0x30 DUP4 PUSH2 0x2D21 JUMP JUMPDEST SWAP2 POP PUSH2 0x3A86 DUP3 PUSH2 0x3A21 JUMP JUMPDEST PUSH1 0x40 DUP3 ADD SWAP1 POP SWAP2 SWAP1 POP JUMP JUMPDEST PUSH0 PUSH1 0x20 DUP3 ADD SWAP1 POP DUP2 DUP2 SUB PUSH0 DUP4 ADD MSTORE PUSH2 0x3AA8 DUP2 PUSH2 0x3A6F JUMP JUMPDEST SWAP1 POP SWAP2 SWAP1 POP JUMP JUMPDEST PUSH32 0x537461666620616C726561647920726567697374657265640000000000000000 PUSH0 DUP3 ADD MSTORE POP JUMP JUMPDEST PUSH0 PUSH2 0x3AE3 PUSH1 0x18 DUP4 PUSH2 0x2D21 JUMP JUMPDEST SWAP2 POP PUSH2 0x3AEE DUP3 PUSH2 0x3AAF JUMP JUMPDEST PUSH1 0x20 DUP3 ADD SWAP1 POP SWAP2 SWAP1 POP JUMP JUMPDEST PUSH0 PUSH1 0x20 DUP3 ADD SWAP1 POP DUP2 DUP2 SUB PUSH0 DUP4 ADD MSTORE PUSH2 0x3B10 DUP2 PUSH2 0x3AD7 JUMP JUMPDEST SWAP1 POP SWAP2 SWAP1 POP JUMP JUMPDEST PUSH32 0x4E616D652063616E6E6F7420626520656D707479000000000000000000000000 PUSH0 DUP3 ADD MSTORE POP JUMP JUMPDEST PUSH0 PUSH2 0x3B4B PUSH1 0x14 DUP4 PUSH2 0x2D21 JUMP JUMPDEST SWAP2 POP PUSH2 0x3B56 DUP3 PUSH2 0x3B17 JUMP JUMPDEST PUSH1 0x20 DUP3 ADD SWAP1 POP SWAP2 SWAP1 POP JUMP JUMPDEST PUSH0 PUSH1 0x20 DUP3 ADD SWAP1 POP DUP2 DUP2 SUB PUSH0 DUP4 ADD MSTORE PUSH2 0x3B78 DUP2 PUSH2 0x3B3F JUMP JUMPDEST SWAP1 POP SWAP2 SWAP1 POP JUMP JUMPDEST PUSH32 0x4E75727365000000000000000000000000000000000000000000000000000000 PUSH0 DUP3 ADD MSTORE POP JUMP JUMPDEST PUSH0 PUSH2 0x3BB3 PUSH1 0x5 DUP4 PUSH2 0x3238 JUMP JUMPDEST SWAP2 POP PUSH2 0x3BBE DUP3 PUSH2 0x3B7F JUMP JUMPDEST PUSH1 0x5 DUP3 ADD SWAP1 POP SWAP2 SWAP1 POP JUMP JUMPDEST PUSH0 PUSH2 0x3BD3 DUP3 PUSH2 0x3BA7 JUMP JUMPDEST SWAP2 POP DUP2 SWAP1 POP SWAP2 SWAP1 POP JUMP JUMPDEST PUSH32 0x506861726D616369737400000000000000000000000000000000000000000000 PUSH0 DUP3 ADD MSTORE POP JUMP JUMPDEST PUSH0 PUSH2 0x3C11 PUSH1 0xA DUP4 PUSH2 0x3238 JUMP JUMPDEST SWAP2 POP PUSH2 0x3C1C DUP3 PUSH2 0x3BDD JUMP JUMPDEST PUSH1 0xA DUP3 ADD SWAP1 POP SWAP2 SWAP1 POP JUMP JUMPDEST PUSH0 PUSH2 0x3C31 DUP3 PUSH2 0x3C05 JUMP JUMPDEST SWAP2 POP DUP2 SWAP1 POP SWAP2 SWAP1 POP JUMP JUMPDEST PUSH32 0x526F6C65206D75737420626520446F63746F722C204E757273652C206F722050 PUSH0 DUP3 ADD MSTORE PUSH32 0x6861726D61636973740000000000000000000000000000000000000000000000 PUSH1 0x20 DUP3 ADD MSTORE POP JUMP JUMPDEST PUSH0 PUSH2 0x3C95 PUSH1 0x29 DUP4 PUSH2 0x2D21 JUMP JUMPDEST SWAP2 POP PUSH2 0x3CA0 DUP3 PUSH2 0x3C3B JUMP JUMPDEST PUSH1 0x40 DUP3 ADD SWAP1 POP SWAP2 SWAP1 POP JUMP JUMPDEST PUSH0 PUSH1 0x20 DUP3 ADD SWAP1 POP DUP2 DUP2 SUB PUSH0 DUP4 ADD MSTORE PUSH2 0x3CC2 DUP2 PUSH2 0x3C89 JUMP JUMPDEST SWAP1 POP SWAP2 SWAP1 POP JUMP JUMPDEST PUSH0 PUSH2 0x3CD3 DUP3 PUSH2 0x293D JUMP JUMPDEST SWAP2 POP PUSH2 0x3CDE DUP4 PUSH2 0x293D JUMP JUMPDEST SWAP3 POP DUP3 DUP3 SUB SWAP1 POP DUP2 DUP2 GT ISZERO PUSH2 0x3CF6 JUMPI PUSH2 0x3CF5 PUSH2 0x34D3 JUMP JUMPDEST JUMPDEST SWAP3 SWAP2 POP POP JUMP JUMPDEST PUSH32 0x53747564656E7420616C72656164792072656769737465726564000000000000 PUSH0 DUP3 ADD MSTORE POP JUMP JUMPDEST PUSH0 PUSH2 0x3D30 PUSH1 0x1A DUP4 PUSH2 0x2D21 JUMP JUMPDEST SWAP2 POP PUSH2 0x3D3B DUP3 PUSH2 0x3CFC JUMP JUMPDEST PUSH1 0x20 DUP3 ADD SWAP1 POP SWAP2 SWAP1 POP JUMP JUMPDEST PUSH0 PUSH1 0x20 DUP3 ADD SWAP1 POP DUP2 DUP2 SUB PUSH0 DUP4 ADD MSTORE PUSH2 0x3D5D DUP2 PUSH2 0x3D24 JUMP JUMPDEST SWAP1 POP SWAP2 SWAP1 POP JUMP JUMPDEST PUSH32 0x4D6174726963206E756D626572206D7573742062652036206469676974730000 PUSH0 DUP3 ADD MSTORE POP JUMP JUMPDEST PUSH0 PUSH2 0x3D98 PUSH1 0x1E DUP4 PUSH2 0x2D21 JUMP JUMPDEST SWAP2 POP PUSH2 0x3DA3 DUP3 PUSH2 0x3D64 JUMP JUMPDEST PUSH1 0x20 DUP3 ADD SWAP1 POP SWAP2 SWAP1 POP JUMP JUMPDEST PUSH0 PUSH1 0x20 DUP3 ADD SWAP1 POP DUP2 DUP2 SUB PUSH0 DUP4 ADD MSTORE PUSH2 0x3DC5 DUP2 PUSH2 0x3D8C JUMP JUMPDEST SWAP1 POP SWAP2 SWAP1 POP JUMP JUMPDEST PUSH32 0x496E76616C696420726567697374726174696F6E206461746500000000000000 PUSH0 DUP3 ADD MSTORE POP JUMP JUMPDEST PUSH0 PUSH2 0x3E00 PUSH1 0x19 DUP4 PUSH2 0x2D21 JUMP JUMPDEST SWAP2 POP PUSH2 0x3E0B DUP3 PUSH2 0x3DCC JUMP JUMPDEST PUSH1 0x20 DUP3 ADD SWAP1 POP SWAP2 SWAP1 POP JUMP JUMPDEST PUSH0 PUSH1 0x20 DUP3 ADD SWAP1 POP DUP2 DUP2 SUB PUSH0 DUP4 ADD MSTORE PUSH2 0x3E2D DUP2 PUSH2 0x3DF4 JUMP JUMPDEST SWAP1 POP SWAP2 SWAP1 POP JUMP JUMPDEST PUSH32 0x4D6174726963206E756D62657220616C72656164792065786973747300000000 PUSH0 DUP3 ADD MSTORE POP JUMP JUMPDEST PUSH0 PUSH2 0x3E68 PUSH1 0x1C DUP4 PUSH2 0x2D21 JUMP JUMPDEST SWAP2 POP PUSH2 0x3E73 DUP3 PUSH2 0x3E34 JUMP JUMPDEST PUSH1 0x20 DUP3 ADD SWAP1 POP SWAP2 SWAP1 POP JUMP JUMPDEST PUSH0 PUSH1 0x20 DUP3 ADD SWAP1 POP DUP2 DUP2 SUB PUSH0 DUP4 ADD MSTORE PUSH2 0x3E95 DUP2 PUSH2 0x3E5C JUMP JUMPDEST SWAP1 POP SWAP2 SWAP1 POP JUMP JUMPDEST PUSH32 0x53747564656E74206E6F74207265676973746572656400000000000000000000 PUSH0 DUP3 ADD MSTORE POP JUMP JUMPDEST PUSH0 PUSH2 0x3ED0 PUSH1 0x16 DUP4 PUSH2 0x2D21 JUMP JUMPDEST SWAP2 POP PUSH2 0x3EDB DUP3 PUSH2 0x3E9C JUMP JUMPDEST PUSH1 0x20 DUP3 ADD SWAP1 POP SWAP2 SWAP1 POP JUMP JUMPDEST PUSH0 PUSH1 0x20 DUP3 ADD SWAP1 POP DUP2 DUP2 SUB PUSH0 DUP4 ADD MSTORE PUSH2 0x3EFD DUP2 PUSH2 0x3EC4 JUMP JUMPDEST SWAP1 POP SWAP2 SWAP1 POP JUMP JUMPDEST PUSH32 0x4E6F742061207265676973746572656420737461666600000000000000000000 PUSH0 DUP3 ADD MSTORE POP JUMP JUMPDEST PUSH0 PUSH2 0x3F38 PUSH1 0x16 DUP4 PUSH2 0x2D21 JUMP JUMPDEST SWAP2 POP PUSH2 0x3F43 DUP3 PUSH2 0x3F04 JUMP JUMPDEST PUSH1 0x20 DUP3 ADD SWAP1 POP SWAP2 SWAP1 POP JUMP JUMPDEST PUSH0 PUSH1 0x20 DUP3 ADD SWAP1 POP DUP2 DUP2 SUB PUSH0 DUP4 ADD MSTORE PUSH2 0x3F65 DUP2 PUSH2 0x3F2C JUMP JUMPDEST SWAP1 POP SWAP2 SWAP1 POP JUMP JUMPDEST PUSH0 PUSH2 0x3F76 DUP3 PUSH2 0x293D JUMP JUMPDEST SWAP2 POP PUSH32 0xFFFFFFFFFFFFFFFFFFFFFFFFFFFFFFFFFFFFFFFFFFFFFFFFFFFFFFFFFFFFFFFF DUP3 SUB PUSH2 0x3FA8 JUMPI PUSH2 0x3FA7 PUSH2 0x34D3 JUMP JUMPDEST JUMPDEST PUSH1 0x1 DUP3 ADD SWAP1 POP SWAP2 SWAP1 POP JUMP JUMPDEST PUSH32 0x5374616666206E6F742072656769737465726564000000000000000000000000 PUSH0 DUP3 ADD MSTORE POP JUMP JUMPDEST PUSH0 PUSH2 0x3FE7 PUSH1 0x14 DUP4 PUSH2 0x2D21 JUMP JUMPDEST SWAP2 POP PUSH2 0x3FF2 DUP3 PUSH2 0x3FB3 JUMP JUMPDEST PUSH1 0x20 DUP3 ADD SWAP1 POP SWAP2 SWAP1 POP JUMP JUMPDEST PUSH0 PUSH1 0x20 DUP3 ADD SWAP1 POP DUP2 DUP2 SUB PUSH0 DUP4 ADD MSTORE PUSH2 0x4014 DUP2 PUSH2 0x3FDB JUMP JUMPDEST SWAP1 POP SWAP2 SWAP1 POP JUMP JUMPDEST PUSH0 DUP2 SWAP1 POP SWAP2 SWAP1 POP JUMP JUMPDEST PUSH2 0x4035 PUSH2 0x4030 DUP3 PUSH2 0x293D JUMP JUMPDEST PUSH2 0x401B JUMP JUMPDEST DUP3 MSTORE POP POP JUMP JUMPDEST PUSH0 DUP2 PUSH1 0x60 SHL SWAP1 POP SWAP2 SWAP1 POP JUMP JUMPDEST PUSH0 PUSH2 0x4051 DUP3 PUSH2 0x403B JUMP JUMPDEST SWAP1 POP SWAP2 SWAP1 POP JUMP JUMPDEST PUSH0 PUSH2 0x4062 DUP3 PUSH2 0x4047 JUMP JUMPDEST SWAP1 POP SWAP2 SWAP1 POP JUMP JUMPDEST PUSH2 0x407A PUSH2 0x4075 DUP3 PUSH2 0x2796 JUMP JUMPDEST PUSH2 0x4058 JUMP JUMPDEST DUP3 MSTORE POP POP JUMP JUMPDEST PUSH0 PUSH2 0x408B DUP3 DUP7 PUSH2 0x4024 JUMP JUMPDEST PUSH1 0x20 DUP3 ADD SWAP2 POP PUSH2 0x409B DUP3 DUP6 PUSH2 0x4069 JUMP JUMPDEST PUSH1 0x14 DUP3 ADD SWAP2 POP PUSH2 0x40AB DUP3 DUP5 PUSH2 0x4024 JUMP JUMPDEST PUSH1 0x20 DUP3 ADD SWAP2 POP DUP2 SWAP1 POP SWAP5 SWAP4 POP POP POP POP JUMP JUMPDEST PUSH32 0x4E487B7100000000000000000000000000000000000000000000000000000000 PUSH0 MSTORE PUSH1 0x12 PUSH1 0x4 MSTORE PUSH1 0x24 PUSH0 REVERT JUMPDEST PUSH0 PUSH2 0x40F3 DUP3 PUSH2 0x293D JUMP JUMPDEST SWAP2 POP PUSH2 0x40FE DUP4 PUSH2 0x293D JUMP JUMPDEST SWAP3 POP DUP3 PUSH2 0x410E JUMPI PUSH2 0x410D PUSH2 0x40BC JUMP JUMPDEST JUMPDEST DUP3 DUP3 MOD SWAP1 POP SWAP3 SWAP2 POP POP JUMP INVALID LOG2 PUSH5 0x6970667358 0x22 SLT KECCAK256 0x4E MSTORE8 JUMPI SHR DUP11 SMOD 0x4D 0xE2 SWAP11 BASEFEE 0xBB 0xE1 0xE5 0x2F PUSH14 0x64E5F912872B03A54BFF5BB1ED87 PUSH14 0xC91664736F6C634300081A003300 "
		},
		"gasEstimates": {
			"creation": {
				"codeDepositCost": "3343800",
				"executionCost": "3721",
				"totalCost": "3347521"
			},
			"external": {
				"cancelAccessCode()": "20268",
				"generateNewAccessCode()": "infinite",
				"getAllStaff()": "infinite",
				"getAllStudents()": "infinite",
				"getPrescriptionCount(address)": "infinite",
				"getPrescriptions(address)": "infinite",
				"getStaff(address)": "infinite",
				"getStaffCount()": "2507",
				"getStudent(address)": "infinite",
				"getStudentCount()": "2485",
				"registerStaff(string,string)": "infinite",
				"registerStudent(string,uint256,uint256,string)": "infinite",
				"updatePatientRecord(uint256,string,string,uint256,bool,address)": "infinite"
			},
			"internal": {
				"generateRandomCode(address)": "infinite"
			}
		},
		"methodIdentifiers": {
			"cancelAccessCode()": "58d7430e",
			"generateNewAccessCode()": "4f60d018",
			"getAllStaff()": "032e0868",
			"getAllStudents()": "e9e30927",
			"getPrescriptionCount(address)": "d3c9acc1",
			"getPrescriptions(address)": "f8f3f382",
			"getStaff(address)": "ddd79504",
			"getStaffCount()": "b99b0703",
			"getStudent(address)": "6b7b44d7",
			"getStudentCount()": "41e0c407",
			"registerStaff(string,string)": "572344f1",
			"registerStudent(string,uint256,uint256,string)": "6148c54c",
			"updatePatientRecord(uint256,string,string,uint256,bool,address)": "141254cb"
		}
	},
	"abi": [
		{
			"anonymous": false,
			"inputs": [
				{
					"indexed": true,
					"internalType": "address",
					"name": "patientAddr",
					"type": "address"
				}
			],
			"name": "AccessCodeCancelled",
			"type": "event"
		},
		{
			"anonymous": false,
			"inputs": [
				{
					"indexed": true,
					"internalType": "address",
					"name": "patientAddr",
					"type": "address"
				},
				{
					"indexed": false,
					"internalType": "uint256",
					"name": "newCode",
					"type": "uint256"
				}
			],
			"name": "AccessCodeGenerated",
			"type": "event"
		},
		{
			"anonymous": false,
			"inputs": [
				{
					"indexed": true,
					"internalType": "address",
					"name": "patientAddr",
					"type": "address"
				},
				{
					"indexed": false,
					"internalType": "string",
					"name": "newRecord",
					"type": "string"
				}
			],
			"name": "HealthRecordUpdated",
			"type": "event"
		},
		{
			"anonymous": false,
			"inputs": [
				{
					"indexed": true,
					"internalType": "address",
					"name": "patientAddr",
					"type": "address"
				},
				{
					"indexed": true,
					"internalType": "address",
					"name": "recipient",
					"type": "address"
				},
				{
					"indexed": false,
					"internalType": "string",
					"name": "prescription",
					"type": "string"
				}
			],
			"name": "PrescriptionSent",
			"type": "event"
		},
		{
			"anonymous": false,
			"inputs": [
				{
					"indexed": true,
					"internalType": "address",
					"name": "staffAddr",
					"type": "address"
				},
				{
					"indexed": false,
					"internalType": "string",
					"name": "role",
					"type": "string"
				}
			],
			"name": "StaffRegistered",
			"type": "event"
		},
		{
			"anonymous": false,
			"inputs": [
				{
					"indexed": true,
					"internalType": "address",
					"name": "patientAddr",
					"type": "address"
				},
				{
					"indexed": false,
					"internalType": "uint256",
					"name": "matricNumber",
					"type": "uint256"
				}
			],
			"name": "StudentRegistered",
			"type": "event"
		},
		{
			"inputs": [],
			"name": "cancelAccessCode",
			"outputs": [],
			"stateMutability": "nonpayable",
			"type": "function"
		},
		{
			"inputs": [],
			"name": "generateNewAccessCode",
			"outputs": [],
			"stateMutability": "nonpayable",
			"type": "function"
		},
		{
			"inputs": [],
			"name": "getAllStaff",
			"outputs": [
				{
					"components": [
						{
							"internalType": "address",
							"name": "staffAddr",
							"type": "address"
						},
						{
							"internalType": "string",
							"name": "name",
							"type": "string"
						},
						{
							"internalType": "string",
							"name": "role",
							"type": "string"
						}
					],
					"internalType": "struct HealthcareUniversity.Staff[]",
					"name": "",
					"type": "tuple[]"
				}
			],
			"stateMutability": "view",
			"type": "function"
		},
		{
			"inputs": [],
			"name": "getAllStudents",
			"outputs": [
				{
					"components": [
						{
							"internalType": "address",
							"name": "patientAddr",
							"type": "address"
						},
						{
							"internalType": "string",
							"name": "name",
							"type": "string"
						},
						{
							"internalType": "uint256",
							"name": "matricNumber",
							"type": "uint256"
						},
						{
							"internalType": "uint256",
							"name": "regDate",
							"type": "uint256"
						},
						{
							"internalType": "string",
							"name": "hostelRoomNumber",
							"type": "string"
						},
						{
							"internalType": "string",
							"name": "healthRecord",
							"type": "string"
						},
						{
							"internalType": "uint256",
							"name": "accessCode",
							"type": "uint256"
						},
						{
							"internalType": "uint256",
							"name": "codeTimestamp",
							"type": "uint256"
						},
						{
							"internalType": "bool",
							"name": "isAdmitted",
							"type": "bool"
						}
					],
					"internalType": "struct HealthcareUniversity.Student[]",
					"name": "",
					"type": "tuple[]"
				}
			],
			"stateMutability": "view",
			"type": "function"
		},
		{
			"inputs": [
				{
					"internalType": "address",
					"name": "_recipient",
					"type": "address"
				}
			],
			"name": "getPrescriptionCount",
			"outputs": [
				{
					"internalType": "uint256",
					"name": "",
					"type": "uint256"
				}
			],
			"stateMutability": "view",
			"type": "function"
		},
		{
			"inputs": [
				{
					"internalType": "address",
					"name": "_recipient",
					"type": "address"
				}
			],
			"name": "getPrescriptions",
			"outputs": [
				{
					"components": [
						{
							"internalType": "string",
							"name": "patientName",
							"type": "string"
						},
						{
							"internalType": "uint256",
							"name": "matricNumber",
							"type": "uint256"
						},
						{
							"internalType": "string",
							"name": "prescription",
							"type": "string"
						},
						{
							"internalType": "address",
							"name": "recipient",
							"type": "address"
						},
						{
							"internalType": "uint256",
							"name": "timestamp",
							"type": "uint256"
						}
					],
					"internalType": "struct HealthcareUniversity.Prescription[]",
					"name": "",
					"type": "tuple[]"
				}
			],
			"stateMutability": "view",
			"type": "function"
		},
		{
			"inputs": [
				{
					"internalType": "address",
					"name": "_staffAddr",
					"type": "address"
				}
			],
			"name": "getStaff",
			"outputs": [
				{
					"internalType": "string",
					"name": "name",
					"type": "string"
				},
				{
					"internalType": "string",
					"name": "role",
					"type": "string"
				}
			],
			"stateMutability": "view",
			"type": "function"
		},
		{
			"inputs": [],
			"name": "getStaffCount",
			"outputs": [
				{
					"internalType": "uint256",
					"name": "",
					"type": "uint256"
				}
			],
			"stateMutability": "view",
			"type": "function"
		},
		{
			"inputs": [
				{
					"internalType": "address",
					"name": "_patientAddr",
					"type": "address"
				}
			],
			"name": "getStudent",
			"outputs": [
				{
					"internalType": "string",
					"name": "name",
					"type": "string"
				},
				{
					"internalType": "uint256",
					"name": "matricNumber",
					"type": "uint256"
				},
				{
					"internalType": "uint256",
					"name": "regDate",
					"type": "uint256"
				},
				{
					"internalType": "string",
					"name": "hostelRoomNumber",
					"type": "string"
				},
				{
					"internalType": "string",
					"name": "healthRecord",
					"type": "string"
				},
				{
					"internalType": "uint256",
					"name": "accessCode",
					"type": "uint256"
				},
				{
					"internalType": "bool",
					"name": "isAdmitted",
					"type": "bool"
				}
			],
			"stateMutability": "view",
			"type": "function"
		},
		{
			"inputs": [],
			"name": "getStudentCount",
			"outputs": [
				{
					"internalType": "uint256",
					"name": "",
					"type": "uint256"
				}
			],
			"stateMutability": "view",
			"type": "function"
		},
		{
			"inputs": [
				{
					"internalType": "string",
					"name": "_name",
					"type": "string"
				},
				{
					"internalType": "string",
					"name": "_role",
					"type": "string"
				}
			],
			"name": "registerStaff",
			"outputs": [],
			"stateMutability": "nonpayable",
			"type": "function"
		},
		{
			"inputs": [
				{
					"internalType": "string",
					"name": "_name",
					"type": "string"
				},
				{
					"internalType": "uint256",
					"name": "_matricNumber",
					"type": "uint256"
				},
				{
					"internalType": "uint256",
					"name": "_regDate",
					"type": "uint256"
				},
				{
					"internalType": "string",
					"name": "_hostelRoomNumber",
					"type": "string"
				}
			],
			"name": "registerStudent",
			"outputs": [],
			"stateMutability": "nonpayable",
			"type": "function"
		},
		{
			"inputs": [
				{
					"internalType": "uint256",
					"name": "_matricNumber",
					"type": "uint256"
				},
				{
					"internalType": "string",
					"name": "_newRecord",
					"type": "string"
				},
				{
					"internalType": "string",
					"name": "_prescription",
					"type": "string"
				},
				{
					"internalType": "uint256",
					"name": "_accessCode",
					"type": "uint256"
				},
				{
					"internalType": "bool",
					"name": "_isAdmitted",
					"type": "bool"
				},
				{
					"internalType": "address",
					"name": "_recipient",
					"type": "address"
				}
			],
			"name": "updatePatientRecord",
			"outputs": [],
			"stateMutability": "nonpayable",
			"type": "function"
		}
	]
}